:0200000280007C
:1000000000300820CD3B08001536080015360800E2
:1000100015360800153608001536080000000000E7
:10002000000000000000000000000000153608007D
:1000300015360800000000001536080015360800C7
:100040001536080015360800153608001536080064
:100050001536080015360800153608001536080054
:10006000153608001536080099370800A93708002A
:10007000B93708001536080015360800153608008F
:100080001536080015360800153608001536080024
:100090001536080015360800153608001536080014
:1000A0001536080015360800153608001536080004
:1000B0001536080015430800153608000348044BA0
:1000C000834202D0034B03B118477047DCEC0800B1
:1000D000DCEC0800000000000548064B1B1AD90F95
:1000E00001EBA301491002D0034B03B1184770473D
:1000F000DCEC0800DCEC08000000000010B5064C49
:10010000237843B9FFF7DAFF044B13B10448AFF388
:1001100000800123237010BD800A00200000000031
:10012000DCEC080008B5054B1BB105490548AFF3E9
:100130000080BDE80840FFF7CFBF00BF000000000F
:10014000840A0020DCEC08000022F0B51E4B83B0CE
:10015000984204460F4601922ED01C4B984223D061
:100160001B4B984210D01B4B984215D01A4B98420B
:1001700008D11A4E01AD29462046B0470028FAD1D1
:10018000019B3B7003B0F0BD144E01AD29462046E3
:10019000B0470028FAD1F3E7104E01AD29462046BA
:1001A000B0470028FAD1EBE70C4E01AD29462046B6
:1001B000B0470028FAD1E3E7094D39462046A84761
:1001C0000028FAD103B0F0BD00060E40000009403F
:1001D000004009400080094000C0094075530800F4
:1001E000C13E08001D4B70B5984204460D4615D01F
:1001F0001B4B98421AD01B4B98421FD01A4B984267
:1002000004D01A4B984221D0002070BD184E2946C8
:100210002046B0470028FAD1012070BD154E29466E
:100220002046B0470028FAD10120F6E7104E2946B3
:100230002046B0470028FAD10120EEE70C4E2946AF
:100240002046B0470028FAD10120E6E7084E2946AB
:100250002046B0470028FAD1DEE700BF00060E4076
:1002600000000940004009400080094000C00940EA
:1002700061530800B13E08002DE9F04F93B000AF84
:1002800097F87440F8621546FB611A46FB6A3C62B7
:1002900097F8784099427C61C0F29B809300C7E94F
:1002A00001510733DFF8ECA1FB60FB686C4623F0DB
:1002B0000703ADEB030DFB69C7F818D0002B6CDD0D
:1002C0004FF0000BDFF8D091DFF8D0813C61694638
:1002D000FA6AC7F824D0A1EB02129546FB6A6E4673
:1002E000002B1EDD6E4C00250FCC0393237800906D
:1002F000019102928DF810300FE03046D0478446CD
:10030000674C0FCC94F800E006EB0C0446F80C00A8
:100310006160A260E36084F810E0FB6A0135AB42E3
:10032000EBDC3B6A002B40F086807B69002B54D0CD
:100330004FF0E0215B4B5C4AC8F800300433C9F849
:1003400000305A4B30461A60D1F8FC3D584A43F011
:100350008073C1F8FC3DD8F80030396A1960D9F8CB
:1003600000301960D8F800100B6843F001030B60EF
:100370009047D9F800301B687B63D8F800301A68C2
:100380001A607B6BBA6942F82B30FB690BF1010BE9
:100390005B45D7F824D09AD13C69FE69BD693146E6
:1003A000444B284698470346FB63FA6B3146424B61
:1003B000284698473864F86B404B98477864FB6A46
:1003C0007A68A5461344FB62FB6ABA6893427FF7DA
:1003D0006CAF4C37BD46BDE8F08F4FF0E021314B9C
:1003E000314AC8F800300433C9F800302F4B30468A
:1003F0001A60D1F8FC3D324A43F08073C1F8FC3DED
:10040000D8F8003079691960D9F800301960D8F847
:1004100000100B6843F001030B609047D9F80030DF
:100420001B68BB63D8F800301A681A60BB6BBA69E6
:1004300042F82B30A9E74FF0E0250024194B1A4A67
:10044000C8F800300433C9F80030184B396F1A600F
:10045000D5F8FC3D1B4A43F08073C5F8FC3DD8F845
:10046000003030461C60D9F800301C60D8F80040DD
:10047000236843F0010323609047D9F800301B68DC
:100480003B63D8F800301A681A603B6BBA6942F8CF
:100490002B307AE765980800A40A0020A00A002003
:1004A000A0E70800001000E0FCED00E09C0A00203E
:1004B000452B08009D180800ED180800C9760800B3
:1004C000F52B0800F12908002DE9F0418CB010212E
:1004D000794B08A89847DFF8E4810820C047784C9A
:1004E000784A4FF4006114604FF4E132764BCDE965
:1004F0000621764A764D1A60764A774B08201A60B4
:10050000764B0593C04705A92046754B98472B6845
:10051000744C98680021A0472B6800215868A047B8
:100520000122714B1A70BFF35F8F62B600204FF447
:1005300080716E4B6E4A186099806E4E90476E4B7C
:10054000984735466D4F08AC284654F8042B6C4943
:10055000B8470CABA34205F10805F5D100250920E9
:10056000684C86F82050C04767492920A047664953
:100570002A20A04764492B20A04763492C20A0478C
:1005800061492D20A04760492E20A0475E492F20B9
:10059000A0475D493020A0475B493920A0475A4910
:1005A0003A20A04758493B20A04757493C20A04744
:1005B00055493D20A04754493E20A04752493F207D
:1005C000A04752492620A0474F493320A0474E4913
:1005D0003720A0474C493420A0474C492720A0474A
:1005E00049494F20A04749492820A0474649402073
:1005F000A04745494120A04743494220A0474249DE
:100600004320A04740494420A0473F494520A047F8
:100610003D494620A0473C494720A0473A49482049
:10062000A04739494920A04737494A20A0473649C1
:100630004B20A04734495420A04733495520A047B8
:1006400031495620A04730495720A0472E4958200D
:10065000A0472D495920A0472B495A20A0472A4995
:100660003520A04729462A4A2A482B4B98474FF065
:100670000C3229462748294B98474FF0101229463B
:100680002448274B984741F2030229462148254B2D
:100690009847254B9847254B9847254B9847254B1E
:1006A000984701221E230A211046CDE90055224C0D
:1006B0000295A047FEE700BF19360800F53A08008A
:1006C00000060E4000340020FC330020E501080045
:1006D00024050020490108009033002000D8B80507
:1006E000793E080049900800040300209833002058
:1006F0000D3D08009C0100209D350800FD9108007B
:10070000B4E70800013808000100000801000010EB
:100710000004040400000E40993B0800A53B0800BB
:10072000B13B0800BD3B0800B5340800192E080095
:10073000F10D0800510B08007902080070B5084B54
:10074000084A0520D3E9005490470749074A04F1B5
:10075000C0440C6015604C20BDE87040044B184745
:10076000403200206D340800B00A0020AC0A00209E
:10077000093708002DE9F0410E4F0120D7E9004567
:100780000D4EB04710200D4B984774B107EB040C89
:10079000EC1F0B4DFB1DE41B0CF1070CE21813F8CA
:1007A000010F296863458854F8D13346BDE8F0410C
:1007B00000201847403200206D3408000937080037
:1007C0000003002010B5064A064B042054689847E1
:1007D000054A10201460054BBDE81040184700BFC3
:1007E000403200206D340800A80A002009370800B4
:1007F00070B5084B084A0220D3E9005490474C20BA
:10080000064B9847294604F1C040054A054BBDE810
:1008100070401847403200206D3408000937080046
:100820000D090800453F080042F2273310B5074A7A
:1008300014689C4200D910BD4C20054B98472146B6
:10084000BDE81040034A0448044B184740320020DA
:10085000093708000D090800B80A0020453F0800C4
:1008600070B590B969B10F4D0F4A2B680F4C194400
:10087000206812F801CB00F803C001338B42F7D196
:100880002B600B4B9847042807D0BDE870404FF40D
:100890008061084A0448084B1847084B00209847D5
:1008A000F3E700BFA80A0020002E0020000300206C
:1008B000A934080061080800653F08006D3408008D
:1008C0000D4A5378122B03D0152B01D0002070470E
:1008D00010B50024094B0A4819680068918109493C
:1008E00090601C608847052801D0012010BD20467B
:1008F000054B9847F9E700BFE0330020AC0A002021
:10090000B00A0020A93408006D34080000B1704717
:1009100010B5054B04469847022800D010BD20466C
:10092000BDE81040014B1847A93408006D34080099
:100930002DE9F04F374A384B14681B6856681B1B6B
:10094000B34283B003D342F227339C4202D903B0AF
:10095000BDE8F08F4C20314B9847002E40D0304DF1
:100960006B8801339BB20020A4086B80288049D09B
:100970004FEA840A0127D4462A4B2B4A1B68D2E946
:10098000004803EB060B294ED2E902E3B2460022EF
:1009900083EAC32384EAD441CDE9000E5940A1463D
:1009A00081EA13240BEB0001087824FA02F3DBB28E
:1009B000984202F1080280EA030E18BF2F80202A15
:1009C0000AF801EB01F10101EED1DDE9000E04307E
:1009D0008445734606F104060FD0C646C846D5E7DF
:1009E0001349114AD1E90150C2E90150C8680968A8
:1009F00001230B4D1160D060B5E70B4BC3E90049F3
:100A0000C3E9028E04220B490B4B0D601A6003B040
:100A1000BDE8F08F40320020C001002009370800F7
:100A2000B40A002000030020F02D0020B80A0020A6
:100A3000E02D0020B00A0020AC0A00202DE9F0478C
:100A4000234C1020D4E90057224B98476FB9D4E9C2
:100A50000201214A214BC2E90001C3E90001D4E9A6
:100A60000401C2E90201C3E90201AD082ED04FF032
:100A7000000CDFF864901A4C4FEA8508D9E90006AB
:100A8000D9E90252002382EAC22280EAD04A8AEAE5
:100A9000020A864607EB0C018AEA122020FA03F2CA
:100AA000D4F800A00833D2B2202B0AF8012001F1BB
:100AB0000101F3D10CF1040CC4452A4602D035469D
:100AC0007646DFE7C9E9000EC9E90265BDE8F087AF
:100AD0004032002009370800F02D0020E02D0020D2
:100AE0000003002008B5124A5378103B082B0AD89F
:100AF000DFE803F00B0E1114171A090905000D4B5E
:100B00001361012008BD002008BD0B4B1361F8E7FD
:100B10000A4B1361F5E70A4B1361F2E7094B1361C6
:100B2000EFE7094B9847ECE7084B1361E9E700BF93
:100B3000E033002029080800F1070800C507080075
:100B40003D070800750708003D0A08003109080044
:100B500010B5044B04489847BDE810400348044BC7
:100B6000184700BF750B0800C1080800E50A080017
:100B70009D0B080007490A780F2A01D90020704709
:100B8000034610B4044C501C087044F82230012075
:100B900010BC7047C4320020C832002007490A78D0
:100BA0000F2A01D900207047034610B4044C501C92
:100BB000087044F82230012010BC704780320020B9
:100BC00084320020004B1847D1340800004B1847EE
:100BD000F5340800054B1B7803B9704710B5044B7A
:100BE0009847BDE81040034B184700BFC4010020E0
:100BF000094D08001135080038B50124044D4FF4A3
:100C00008061044A044B05482C709847204638BD43
:100C1000C401002061080800653F0800002E002084
:100C20000022014B1A707047C401002038B50F4BE9
:100C30000F4AD9880F48402928BF40211278986070
:100C400099818AB10C4C531EDBB2251FD31A04EBD9
:100C5000820405EB830501E0AC4205D054F8043D65
:100C600098470028F8D038BD002038BDE033002078
:100C700080320020403200208432002038B50B4BF7
:100C80001A788AB10A4C531EDBB2251FD31A04EB23
:100C9000820405EB830501E0AC4205D054F8043D25
:100CA00098470028F8D038BD002038BDC432002055
:100CB000C8320020044B5A78222A03BF034A01207D
:100CC0001A610020704700BFE0330020D10C0800FB
:100CD00010B5224B9B78013B102B0AD8DFE803F0BC
:100CE0000A161B0909090909090909090909092D30
:100CF0003A0010BD3E201A4B98471A4CA0470028D6
:100D0000FCD0BDE810401020174B18471020BDE85C
:100D10001040164B184701220C21154B15489847D7
:100D2000154B9847154A53689903FCD4136843F050
:100D3000254343F005031360FEE70F4B98470F4A26
:100D400053689B03FCD4136843F0254343F0050329
:100D50001360FEE70A4BBDE810401847E03300205F
:100D6000593A08007D3A0800A1390800FD39080009
:100D7000C935080000080E40554C080000120E400E
:100D80009D34080038B5144C6378172B1AD0402BCB
:100D900016D14FF0200C114D114B372293E8030070
:100DA000104B85E80300104905F1090085F808C0DB
:100DB000984728460D4BA5609847A081012038BD73
:100DC000002038BD40F2011000210322034BA28114
:100DD000A36018809970F1E7E03300200032002012
:100DE000D0E9080065950800DCE90800659808006E
:100DF00010B5044B04489847BDE810400348044B25
:100E0000184700BF750B0800850D0800B50C0800D9
:100E10009D0B080084B0F0B505468FB00DF1540C61
:100E20008CE80E00189B06AE00939CE80E0030463E
:100E30000D4FB8471C9B0AAC009319AB20460ECB54
:100E4000B84794E80F000DF1040C8CE80F00099BE3
:100E500028460093054F96E80E00B84728460FB085
:100E6000BDE8F04004B07047511308004511080078
:100E700084B02DE9F04F804693B01DA880E80E00A5
:100E8000209B0AAD009390E80E00344E2846B047F0
:100E9000249B0EAC009321AB0ECB2046B0474046BE
:100EA0002F4B9847DFF8BC90DFF8BCB01BE00D9BE0
:100EB0003046009395E80E00D84796E80F002B4F78
:100EC00085E80F0094E80F00B8470746119B3046AD
:100ED000009394E80E00DFF898A0D04796E80F0042
:100EE00084E80F003FB395E80F00C847E8B194E8E5
:100EF0000F00C847C8B195E80F001E4EB04706AEB8
:100F00000028D4D094E80F0001AFD8F80CC087E8CF
:100F10000F00CDF800C0304698E80E00164FB847D5
:100F200096E80F0088E80F00C1E7404613B0BDE81F
:100F3000F04F04B07047114B0DF1040C0FCB8CE84F
:100F40000F00119B3046009394E80E000A4FB847FB
:100F500096E80F0084E80F00C5E700BF51130800B2
:100F6000DD100800DD1108008D1208003D13080097
:100F70000D1208001913080045110800E8E90800DF
:100F800084B02DE9F04F804693B01DA880E80E0094
:100F9000209B0AAE009390E80E00284D3046A847EB
:100FA000249B0EAC009321AB0ECB2046A8474046B5
:100FB000234B9847DFF88CA0DFF88C90DFF88CB0DB
:100FC00018E001AF96E80F0087E80F000D9B284658
:100FD000009396E80E00C84795E80F00119F009710
:100FE00086E80F0094E80E002846D84795E80F00E1
:100FF00084E80F0094E80F00D047C0B194E80F00D8
:10100000134DA84706AD0028DBD096E80F0001AFCE
:1010100087E80F00D8F80C3006AD0093284698E812
:101020000E00C84795E80F0088E80F00CAE7404661
:1010300013B0BDE8F04F04B0704700BF5113080073
:101040000D110800DD110800710E08008D12080056
:101050001913080084B0F0B506468FB015AC84E8CB
:101060000E000F4B0DF1180C0AAD0FCB0D4F8CE895
:101070000F0061462846B84795E80F000DF1040CB3
:101080008CE80F00189B30460093074F94E80E0041
:10109000B84730460FB0BDE8F04004B0704700BF1D
:1010A000F8E90800AD100800810F080030B5094BC1
:1010B00085B01A680446002A6B4604DD6846064D72
:1010C0009200A84703460FCB84E80F00204605B0E6
:1010D00030BD00BF08EA08007997080030B5094B19
:1010E00085B01A680446002A6B4605DD0021684673
:1010F000054D9200A84703460FCB84E80F00204619
:1011000005B030BD08EA0800C994080070B50B4B63
:1011100084B01D680446002D6B4605DD002168463D
:10112000074EAA00B04703460FCB012684E80F0004
:101130002046013D44F8256004B070BD08EA08006F
:10114000C994080084B02DE9F04391B0074619A86E
:1011500080E80E001F4B08AD1E680FC8002E85E802
:101160000F0034DD0CACB6002946DFF86C90324637
:101170002046C84794E80F000DF1740C8DE80F006D
:101180009CE80F0085E80F00294632462046C847F4
:1011900094E80F000DF11009EC46C846A64689E810
:1011A0000F000DEB06055CF8043B58F8042B654571
:1011B00083EA02034EF8043BF5D194E80F0087E878
:1011C0000F00384611B0BDE8F04304B070470CACD6
:1011D000F3E700BF08EA08007997080084B08DE8BB
:1011E0000F00094B196800290CDD6A46002301E055
:1011F0008B4205D052F8040B01330028F8D00120AF
:1012000004B070470020FBE708EA080084B02DE92D
:10121000F0438DB0054615A880E80E00194B04AFC9
:101220001E6808AC002E0FC887E80F001FDD394686
:10123000154BB2002046984794E80F004FF0000C81
:10124000EE4627468DE80F0006F1FF395EF8043BB5
:10125000CC4518BFDEF800204FEA43030CF1010C27
:1012600018BF43EAD273664547F8043BEED194E8D1
:101270000F0085E80F0028460DB0BDE8F04304B02C
:10128000704700BF08EA08007997080084B02DE98C
:10129000F0418CB0054613A880E80E001C4B04AF4B
:1012A0001E6808AC002E0FC887E80F0025DD394600
:1012B000184BB2002046984794E80F004FF0000EFC
:1012C00027460EF1010E8DE80F00ADF1040C430826
:1012D000B64508930CF1040C07F104070DD0DCE9C6
:1012E00000320EF1010EDB0743EA5203B6453B60C4
:1012F0000CF1040C07F10407F1D194E80F0085E824
:101300000F0028460CB0BDE8F04104B0704700BFA4
:1013100008EA08007997080084B00DF1100C0CE978
:101320000F00054B1B680CEB830353F8140C00F003
:10133000010004B0704700BF08EA080084B00DF156
:10134000100C0CE90F00C043C00F04B0704700BF81
:1013500084B030B585B00DF1240C8CE80E000A4B3A
:1013600004461A686B46002A05DD61466846074D4B
:101370009200A84703460FCB84E80F00204605B033
:10138000BDE8304004B0704708EA080079970800CB
:1013900030B484B08DE80F000C4B1D68002D10DDBB
:1013A0006A46002306A901E0AB420AD052F8044B7A
:1013B00051F8040B01338442F6D0002004B030BC55
:1013C0007047012004B030BC704700BF08EA080035
:1013D00011601860704700BF0B4601461846704701
:1013E00008B5064B9847064B1A68431E48BF831C36
:1013F00002EBA30393FBF2F008BD00BF6598080061
:1014000008EA08002DE9F04F274B074685B008464B
:101410000E469847254B411E1B6848BF811C03EBB5
:10142000A10191FBF3F9B9F1000F804611DD3C46B3
:101430004FF0000A6D46DFF878B028460AF1010A3D
:10144000D84795E80F00CA4584E80F0004F110045E
:10145000F3D109F1FF31B8F1000F22D04FF0000EA7
:101460004FF0030C734606EB080010F8014D07EB34
:10147000011555F82C209C4008332243202B45F8B9
:101480002C200CD100230EF1010EBEF1040F05BF7C
:101490004FF0030C9E460CF1FF3C01F1FF31B042CE
:1014A000E3D105B0BDE8F08F6598080008EA0800B0
:1014B000DD100800002A12DDF8B50C460346084985
:1014C000084F0D6804EB0216AD00214618462A4667
:1014D000B84703461034B4422B44F6D1F8BD7047E8
:1014E00008EA0800799708002DE9F0438FB006ADAF
:1014F00085E80F00184695E80E000AAC114D0090E3
:101500002046A8470026104FDFF84090DFF84080C3
:1015100002AD0EE094E80F00C84784460D9B2846B4
:10152000009394E80E006644C04795E80F0084E8F5
:101530000F0094E80F00B8470028EBD130460FB0F9
:10154000BDE8F08351130800DD11080019130800ED
:101550008D1208002DE9F0431D468DB02C469046B3
:10156000274A0646106802AF4FEA800E0EF1070EBA
:101570002EF00702ADEB020D894602AA3B1D05F1D4
:10158000080143F8044F01348C42FAD16C1C002846
:101590003D607C6009DDA2F1040C431900E00134D8
:1015A0009C424CF8045F2546F9D12EF0070EADEBB6
:1015B0000E0D02AD134C2B463946009007F1080082
:1015C000A04729463046104B9847082300933A68B5
:1015D0004B4601323A6007F1080239461046A047EF
:1015E00002227B6839460133009207F108003A462F
:1015F0007B604346A04730462C37BD46BDE8F083AC
:1016000008EA0800B51B0800AD1008002DE9F04FEE
:10161000264B9FB0934604468A46984700220023F3
:10162000CDE90A23002202230025CDE90C2312A8CC
:101630001F4B0AA9CDE90E55CDE910559847AB458A
:1016400030DDA946AAF1040A0DF158081AAF01AD20
:1016500006AE5AF8043F404611930EA9144B984722
:1016600098E80F0085E80F00159B3846009312ABF1
:10167000DFF840C00ECBE04797E80F00D4F80CC06D
:1016800085E80F00CDF800C0304694E80E00DFF882
:1016900028C009F10109E04796E80F00CB4584E82E
:1016A0000F00D6D120461FB0BDE8F08FDD10080036
:1016B000AD100800810F0800150E080082B02DE95A
:1016C000F04F99B006AF07F1700484E80C00820077
:1016D000D31D23F00703ADEB030D002880463961CD
:1016E00006AB04DD18460021514CA04703460026F6
:1016F0001946B3463346C24608F1FF327A61BBF160
:101700007F0F7ADC534578DA7A6941F823B09A4240
:101710000DD00BF1010BBBF1800F75D0581C824529
:1017200072DD03467A6941F823B09A42F1D107F19C
:101730001806524630463F4CBB60F960A047D7E9D7
:1017400002313A69002A53DDC7E902B34FF00009BC
:101750009346DFF8E48001AC07F1900579602FE053
:1017600007F170030FCB84E80F007B6A07F13800A4
:10177000009396E80E00C04707F13803DFF8BCC0BD
:101780000FCBE04750452EDD07F180030FCB84E8F7
:101790000F00FB6F07F17000009390E80E00C04748
:1017A00007F1A0030FCB84E80F00D7F89C30284640
:1017B000009309F1010995E80E00C047CB4514D00C
:1017C00095E80F0084E80F007B6A07F1280000937A
:1017D00096E80E00C04707F12803DFF860C00FCB82
:1017E000E0475045BCDC00201BE07968D7E902B334
:1017F0000BF1010BBBF1800F86D1013B10D351F8E7
:10180000230000F1010B7AE751F8230000F1010BEE
:10181000BBF17F0FF1DC9A453FF776AF013BEEE776
:1018200001204C37BD46BDE8F04F02B0704700BF05
:10183000C99408000D160800710E0800E91408008C
:1018400084B070B582B00DF11C0C8CE80E00DDE99F
:101850000A350093104E9CE80E000446B0471F2D39
:1018600004DD3F2D10DC0221203D00E00321012298
:10187000204654F82130AA40534044F8213002B0A9
:10188000BDE8704004B070475F2DD5BF0121002135
:10189000403D603DEBE700BF511308002DE9F843E0
:1018A000B1F1000818DD0024051FDFF830900C4F5F
:1018B00005EB880655F8040FC84701462046B8478F
:1018C000B5420446F6D14046064B9847064B0146C2
:1018D00020469847BDE8F8830024F4E779730800B0
:1018E0001972080081730800917508002DE9F04F06
:1018F0000B1E83B0019328DD15460024A0F1040BD4
:10190000DFF84CA0DFF84C80134F144E0BEB83092B
:101910005BF8040FD0472946C0470146B847014647
:101920002046B047D9450446F2D101980C4B984760
:101930000C4B0146204698470B4B98470B4B98475A
:101940000B4B984703B0BDE8F08F0024EDE700BFD4
:1019500079730800157208002974080019720800CC
:1019600081730800917508000D6B0800255508006B
:101970006D7108002DE9F04FD0F80CC00768D0F861
:1019800004E04669026907EB0C038EEA7363D0F842
:1019900018E0856A416A06EB02088EEA7868D0F89A
:1019A0002CE005EB0109C46B8EEA7969D0F838E0C8
:1019B000D0F830A0D0F808B0A6448AEA7E6E07EBD3
:1019C000030A8BEAFA5A436053448CEAF343C0F8A3
:1019D00008A09A4487EABA370760C769C36006EB74
:1019E000080387EAF353C0F81880984482EAF8475E
:1019F000C361026A3B4486EAB33605EB090382EA17
:101A0000F352C0F82C90914481EAF94302621A44DF
:101A100085EAB235426BC0E9093504EB0E0382EA70
:101A2000F351836BC0F830E08E4483EAFE43CA185A
:101A300084EAB234C0E90476C463C0E90D13BDE89A
:101A4000F08F00BF2DE9F04FD0F830C00768D0F814
:101A500010E04669426807EB0C038EEA7363D0F826
:101A600024E0856A816906EB02088EEA7868D0F87E
:101A700038E005EB0109C46B8EEA7969D0F82CE0F7
:101A8000D0F80CA0D0F820B0A6448AEA7E6E07EB0E
:101A9000030A8BEAFA5A036153448CEAF343C0F811
:101AA00020A09A4487EABA370760476B036306EBC6
:101AB000080387EAF353C0F82480984482EAF84781
:101AC000436382683B4486EAB33605EB090382EA46
:101AD000F352C0F83890914481EAF94382601A4485
:101AE00085EAB235C269836104EB0E0382EAF351E1
:101AF000C36AC0F80CE08E4483EAFE43CA1884EA45
:101B0000B234466147608562C463C161C362BDE8A7
:101B1000F08F00BF2DE9F041051F90B0EC460C4658
:101B20002A4652F8043F1BBA4CF8043B136010AB32
:101B30006345F6D10A26DFF830800C4F6846C0476F
:101B4000B847013EFAD1211FADF104020FAC55F8A0
:101B5000040F52F8043F03441BBAA24241F8043F69
:101B6000F5D110B0BDE8F081451A080075190800DC
:101B7000F8B51C46D2E9021015460C4EB047231E9C
:101B8000B8BF0F331E11DC173046214605F108039C
:101B900005F10C02064FB847D5E9022312BA1BBA69
:101BA000C5E9022330462146F8BD00BFD91308001D
:101BB000D11308002DE9F04F0C46A5B0D4F804C0AD
:101BC000DDF8B8A0246890461F4606460021002094
:101BD0002A4D02AB03AACDF804C00094A847BAF17D
:101BE000000F47DD0024A8F10408A346A146043FE6
:101BF0000AE00DEB850558F8043F2A6D0134534087
:101C0000A24547F8043F35D014F00F05F1D1234623
:101C1000584649466A46DFF868C0E047194B834694
:101C2000049303F10E6303F53A2303F6D273099389
:101C3000154B89460E93154B14A91393336804A8CA
:101C4000059373680693B3680793F3680893336941
:101C50000F9373691093B3691193F3691293009B07
:101C60000A93019B0B93029B0C93039B0D93084BD0
:101C70009847BEE725B0BDE8F08F00BFD11308003C
:101C8000711B08006170786579622D326B20657474
:101C9000151B08002DE9F04F8BB0334D02AF834682
:101CA00008460C4690469946A8476A46A2EB0012A1
:101CB00095460646214602AC05012C4B2046984726
:101CC000ADEB050D214602AC32462046284B984725
:101CD000ADEB050DB60002AD2B4622464946404607
:101CE000DFF890A00096D047002E38DD0022BA46DB
:101CF000144601AD05E04446A6421D4602F101022C
:101D00002DD0696804F0030307EB8303032A1961EC
:101D100004F1010805F10403EDD16FF07043504662
:101D200003EBA80907F11001134B98470BEB0919B6
:101D300008F0030307F12002464502EB830C04F18F
:101D400002049AE80F0089E80F0008D0002255F835
:101D5000083FA6424CF8103C02F10102D1D12437D1
:101D6000BD46BDE8F08F00BFE11308000514080070
:101D7000B5140800B51B0800AD1008002DE9F04FA0
:101D80000446AFB0CDE912431C468B463B4819468A
:101D90003B4B0F929847002C5AD00DF158094846FA
:101DA000389B384C14AA26A9A047199B1AAF009358
:101DB00099E80E003846344DA847199B1EAC009395
:101DC00099E80E002046314EB047219B22AE009389
:101DD000304694E80E00A847BBF1000F42DD0AAB85
:101DE000119306AB4FF00108109302AD0DF1600A9C
:101DF00001E0C34536DB96E80F00DDF844C08CE80F
:101E00000F00DDF840C094E80F008CE80F0097E861
:101E10000F0085E80F009AE803008DE80300DFF863
:101E200070C0404699E80C000F99E04708F101089E
:101E30000028DED1389B59462A3300930F9ADDE9FA
:101E40001203013BFFF79AFF12982FB0BDE8F08F05
:101E50000B4B1048984712980F4B984712982FB089
:101E6000BDE8F08F064B0D48984797E80F00129C8D
:101E700084E80F0012982FB0BDE8F08FBCE708008F
:101E80001577080055150800511308005510080073
:101E9000BD160800CCE70800DD100800F8E70800D0
:101EA000844682B02DE9F04F91469FB02C9829AD21
:101EB000009029930EAC364E204608920F4695E8C6
:101EC0000E00CDF824C0B0472C9B12A8009395E8D3
:101ED0000E00B04716AE3046DFF8B8800AADC047F6
:101EE0002846C0474B46002B4CDD4FF000092A4BDB
:101EF000DFF8A8A007930DF168080DF1040BD7F8DF
:101F00000CC094E80F008BE80F00CDF800C097E8F4
:101F10000E004046D04798E80F008BE80F00199B51
:101F200028460093DDF81CC096E80E00E04795E8CF
:101F30000F0086E80F0012AB0FCB8BE80F00119B50
:101F40002846009394E80E00D04795E80F0084E8F7
:101F50000F00089B09F101094B4507F11007CED18D
:101F60002DAB199C0FCB8BE80F000094099C079DAB
:101F7000204696E80E00A84720461FB0BDE8F04F67
:101F800002B07047044B0DF1040B0793E8E700BF64
:101F900051130800DD100800150E0800710E08002E
:101FA00082B02DE9F0410E461746984690B00DF1EB
:101FB0000C0C1BAB04460FCB8CE80F000DF1600E30
:101FC0009EE8070043468DE807000B4D3A46314630
:101FD00008A8A847DDE91F01042308AA0093074DBC
:101FE0000CABA8472046064B0CA99847204610B0DA
:101FF000BDE8F04102B07047A11E0800B51B080003
:10200000AD10080084B0F0B599B00DF17C0C8CE8EF
:102010000E0003AC05469CE80F0084E80F000DF1AC
:10202000980E08AE9EE80700164F8DE80700DDE920
:10203000242330462399B847042310AC009329ABDE
:102040000FCB114F84E80F00DDE92D01224614ABC0
:102050000CACB847204614A90C4B984794E80F00E5
:102060000DF1040C8CE80F000B9B28460093084FE1
:1020700096E80E00B847284619B0BDE8F04004B015
:10208000704700BFA11E0800B51B0800AD10080076
:10209000150E080084B02DE9F04FB5B00EAF07F172
:1020A000C40585E80E0007F1680E07F1580907F12D
:1020B000F006386196E80F0089E80F0095E80F00F8
:1020C0008EE80F0007F15C0C0DF10C0B9EE80F0081
:1020D0008BE80F009CE807008DE807009A4CD7E9D1
:1020E0003512BB6D07F17800A0470423009307F178
:1020F0007802D7E94001954C07F18803A047944B3B
:1021000007F1880107F12800984707F1DC030FCB9E
:102110008DE80F0007F128038E4C0FCBA047002855
:1021200040F0C680D7F8FC3007F13804009396E8F9
:102130000E00DFF82482C7F80CD082462046C04744
:102140007B6CDFF81882009394E80E0007F14800DA
:10215000C047D7F804310DF11C0C0C93D7F80031AF
:10216000DFF8FC810B9307F1DC030FCB8CE80F0049
:1021700096E80F008BE80F00D7F8D8304846029356
:10218000D7F8D4300193D7F8D030009395E80E00FB
:10219000C0476B46D7F8D820A3EB02139D46002A10
:1021A0000DF1380B40F3CC80D046DFF8B8A107F131
:1021B000180601AD94E80F0085E80F007B6E0BEB6D
:1021C0000810009399E80E00D04707F148030FCBA1
:1021D00085E80F007B6C3046009394E80E00D047F2
:1021E00096E80F0084E80F00D7F8D830C44608F10D
:1021F00001084345DED14FF0000A4FF0FF325C4644
:10220000C7F804B0BD60D046E346DFF85C91D7F86C
:10221000EC507A6106E04FF0010AC7F81480C3451C
:1022200054D0984694E80F00C847854208F101034E
:1022300004F11004F3DBBAF1000FECD0BD6807F134
:10224000680607F1DC030FCB86E80F0007F178067C
:1022500007F128030FCB86E80F0096E80F0085E80A
:102260000F007B6F07F18800009307F168030ECB26
:102270003E4CA04707F188030FCBC847D7F8EC3096
:1022800083424FDB01253E69D7F8D43006F10804BC
:10229000736007F128030FCB84E80F003570D7F87F
:1022A0000CD038699C37BD46BDE8F04F04B070478C
:1022B0002F4C07F11800A0473D6905F10800A04721
:1022C000012307F188026A602B70EAE77A69D7E98F
:1022D00001B5BAF1000FB2D0531CB0D0D7F8D4304A
:1022E0000BEB021B03EB02149BE80F0085E80F00C9
:1022F000E3683046009394E80E00DFF87080C04732
:102300003A69D7F8D43002F10805536001231370FD
:1023100096E80F0084E80F0007F1DC030FCB85E897
:102320000F00BCE7124C07F11800A0473D6905F10A
:102330000800A047002307F178026A602B70AEE71F
:10234000DFF8249001AD7AE7A11E0800B51B080054
:10235000AD10080091130800551008005113080033
:1023600005200800710E0800E9140800150E080089
:10237000DD10080008B5114B9847114B1A68431E31
:1023800093FBF2F3134493FBF2F3DA00002AACBFA1
:10239000114602F17F01C91112F0780F18BF013107
:1023A00002EBC1021046002AB8BF02F17F00C01143
:1023B00012F0780F18BF0130184408BD6598080066
:1023C00008EA0800002952DD2DE9F04FC0F10008AD
:1023D0008646C24600F17F0983B009EBC113244F42
:1023E000244E01930024A046A9F17F05A9F18003A2
:1023F0000AF101001A4613F8011F19B10244013411
:1024000088EA02084B45F5D14FF0000B04E00BF1D0
:10241000010BBBF1070F17D048FA0BF3DB07F6D51A
:102420005846154B98470B4602464FF08041002016
:10243000B847B0472B5C0BF1010B83F00103BBF1F4
:10244000070F2B541C44E7D1002C04F00104B8BF43
:102450006442012C019B08BF09F87F4C09F18009F7
:102460009945AAF1800ABDD103B0BDE8F08F70474D
:10247000495408001D710800E96A080000000000C6
:102480002DE9F84F0D46CC018046DFF8ECA0204640
:10249000D047002D5BDD002708F17F0604EB060E18
:1024A00002460B46C4463C463D46A6F1800111F863
:1024B000010F20B17818A0EB0C00454001348E428A
:1024C000F5D18036B6450CF1800C07F18007ECD1D0
:1024D00010461946294B984725A3D3E90023284ED7
:1024E000B047DFF8A090C847071E25DD0026DFF8BB
:1024F00098B002E00136BE421EDA45FA06F3DB0769
:10250000F8D53046D04702460B4600204FF08041B8
:10251000D847C84703460028B8BF00F17F0323F01F
:102520007F0300F07F0043441A5C013682F0010211
:10253000BE421A541444E0DB002C04F00103B8BF7F
:102540005B42012B01D188F80030BDE8F88F0B4BBE
:10255000984707A3D3E90023094CA047DFF824904C
:10256000C847071EF1DD00242546BFE7AFF3008012
:10257000EF39FAFE422EE63FE96A0800E15308000F
:10258000116E08001D710800495408002DE9F04F34
:10259000B1F1000885B030DD174604460026EB4651
:1025A000DFF85CA002F19F095846D0479BE80F0076
:1025B000A44684E80F00C6EB466007F11F01A9EBB3
:1025C000C010A1F12002DCF800305B00CCF8003034
:1025D00012F8015F83F001030DB1CCF80030914295
:1025E000F1D1203188420CF1040CEAD10136B0451A
:1025F00004F1100407F18007D6D105B0BDE8F08FD3
:10260000DD100800F8B5171E2BDD0E46FD0104464F
:102610002A460021134B984706EB0716803D043EDF
:10262000254430464FF07F0C05F1010E00220EEBE1
:102630000C010368D340013203F00103202A01F8A2
:10264000013DF6D1ACF1200CBCF1FF3FA0F104003C
:10265000ECD1A542A6F11006A5F1800301D01D46DC
:10266000DFE7F8BDC99408002DE9F041B3F1000897
:1026700004460D46164600AF04DD0021274B4FEA05
:10268000C81298476B46A3EBC6139D462946684679
:10269000234B32469847B6F1010E6D4658BF7F2353
:1026A00008F1FF301ED41946013B0B424FF07F0268
:1026B00005EBCE1C05D1591C17D01946013B0B4226
:1026C000F9D004EBC0181CF80260013A08F8016068
:1026D0005E1C17D1531C00F1FF3007D17F23BEF1E0
:1026E000010EE0D2BD46BDE8F08101387E231CF822
:1026F000026004EBC01181F87F60013A561CEED0F5
:102700001946DBE7511C03F1FF36E8D0334201D113
:102710003346F3E719463346D5E700BFC9940800AE
:1027200005260800F8B505466846A0EBC31000AFC3
:102730001C468546064EB04721466846054B9847DD
:102740006A4621462846044B9847BD46F8BD00BF5F
:1027500069260800C52308008D2508002DE9F843E7
:10276000B3F1000905460E46904600AF4FEAC91482
:1027700003DD224600212B4B98476B46A3EBC81381
:102780009D4631464246284B68469847B8F10108B5
:102790006E4658BF7F2309F1FF3C04F1FF3129D475
:1027A0007F2006EBC81E4A1E0A4205D1013B2CD3EE
:1027B00011464A1E0A42F9D01EF8004005EBCC1122
:1027C000CC54013B5C1C00F1FF3016D1411C0CF1D4
:1027D000FF3C1FD0511E114211D07E231EF8004035
:1027E00005EBCC1282F87F400138421CDBD1B8F1F6
:1027F0000108D5D2BD46BDE8F8831146F5E7023A97
:10280000114205D111467D23EFE70CF1FF3CE1E7D2
:102810007E23D1E7B8F1010811464FF07F03BFD204
:10282000E8E700BFC994080005260800F8B505468A
:102830006846A0EBC31000AF1C468546064EB04765
:1028400021466846054B98476A4621462846044B70
:102850009847BD46F8BD00BF5D27080081240800E9
:102860008D2508002DE9F04F83B0054668461446D3
:10287000A0EBC2102A4B00AF854679609847002C28
:1028800047DD4FF0000AE84656460DF17F0CC8F1CF
:10289000000B00208646ACF180030BF101091A46BB
:1028A00013F8011F19B14A4401308EEA020E634544
:1028B000F5D1BEF1000F0AD010F0010326D0012699
:1028C00008EBCA1212F80E30734002F80E300AF10B
:1028D000010A54450CF1800CABF1800BD9D1424672
:1028E000214678680F4B984766B9002201231146AC
:1028F00028462B707B680C376A70A9706B60BD46E8
:10290000BDE8F08F012300211A46F1E701211A46A4
:10291000EEE76A4621467868024B9847E5E700BF34
:10292000052608008D2508002DE9F8430546684670
:102930001446A0EBC21000AF2B4B85460E469847BD
:10294000002C4CDD0021E846E9468E468C4620A846
:10295000A0F1800313F8012B32B1A3EB0902013A75
:102960008CEA020C0EF1010E9842F3D101318C4237
:1029700000F18000ECD1BCF1000F22D01EF0010369
:102980002AD06346BCF1000FB8BF0CF17F03DCF125
:10299000000000F07F0023F07F030CF07F0C434425
:1029A00058BFC0F1000C13F80C00424680F0010043
:1029B00003F80C000D4B30469847012300229C463B
:1029C00001E00123624628462B7085F801C0AA70F9
:1029D0006E60BD46BDE8F88301229C46F3E74FF0E8
:1029E000000C01236246EEE7052608008D2508004D
:1029F0002DE9F04F0446BBB00EAF07F10805484E75
:102A000007F118028846002307F170012846C7F82D
:102A100004D0B047434B07F12800984707F1200244
:102A200007F1900101232846B04720463E4B9847C6
:102A300082466846A0EB0A10854621460EAC204629
:102A40003A4E07F1180307F17002B047002607F16C
:102A500038090323524641464846DFF8D4B0009671
:102A6000D84799E80F00DFF8CCB0D84728B9D7F895
:102A700004D0B437BD46BDE8F08F07F120030893BA
:102A800007F19003079303AB9E463B6007F12803D1
:102A90000FCB8EE80F0007F13C0C9CE807008DE897
:102AA0000700DFF894B052462146BB6B07F148009F
:102AB000D847B8F1000F0FDDDFF880B00196E3686A
:102AC0002846009394E80E000136D84795E80F0099
:102AD000B04584E80F00F1D107F120030D9307F111
:102AE00090030C9308AE99E80F0086E80F00CDF82C
:102AF0001C803E6807F148030FCB86E80F00CDE944
:102B0000014A7B6B07F15800009307F128030C4D35
:102B10000ECBA847D7F804D0B437BD46BDE8F08F38
:102B200055150800DD100800E1130800951C080089
:102B30007D1D0800DD110800A11F080041180800D4
:102B4000952008002DE9F04792B0234B02AF0446D0
:102B50009847224B804620469847DFF884900646E7
:102B600007F11002384607F120010023C8476B46E1
:102B7000A3EB08139D460DF108094846214607F1CD
:102B8000100307F12002DFF85CA0D0476B46A3EBEF
:102B900006139D4602AC2046334642464946DFF8BE
:102BA00048A0D0472A230193059B3846009394E818
:102BB0000E00DFF83880C04797E80F00DFF830805C
:102BC00084E80F0007F1180032462146C04740371D
:102BD000BD46BDE8F08700BFE1130800752308007B
:102BE00055150800951C0800252708004118080005
:102BF000652808002DE9F04792B0234B02AF044648
:102C00009847224B804620469847DFF88490064636
:102C100007F11002384607F120010023C8476B4630
:102C2000A3EB08139D460DF108094846214607F11C
:102C3000100307F12002DFF85CA0D0476B46A3EB3E
:102C400006139D4602AC2046334642464946DFF80D
:102C500048A0D0472A230193059B3846009394E867
:102C60000E00DFF83880C04797E80F00DFF83080AB
:102C700084E80F0007F1180032462146C04740376C
:102C8000BD46BDE8F08700BFE113080075230800CA
:102C900055150800951C08002D280800411808004B
:102CA00029290800174B1B7833B3174B1B681B6887
:102CB0001A79824220D930B5144D2B60B3F802C086
:102CC0009C4463451BD24FF0000E06E01A784FF08B
:102CD000010E1344634511D21C465A78042AF5D1DB
:102CE0009A788242F2D1DA788A42EFD1BEF1000FAF
:102CF00000D02C60012030BD002070472B600020E8
:102D000030BD00BF14330020103300200C330020EE
:102D1000024A034B508800F07F001847E033002040
:102D2000D94C08002DE9F04100211A4D0446A8476E
:102D300040B3DFF86480D8F800305B6853F8246053
:102D4000F368984701462046A8470546D0B1134B83
:102D5000134F1C68D8F80020237812681C4453884D
:102D60001A44A24206D808E0052B0FD023781C4451
:102D7000A24202D96378042BF6D17368984728469B
:102D8000BDE8F08100252846BDE8F081A078B8476D
:102D9000E0E700BFA52C0800103300200C33002012
:102DA000254D08002DE9F041144B0546984710B316
:102DB000134B144E1C68144F316823780A681C4466
:102DC00053881A44A24206D808E0052B0DD0237878
:102DD0001C44A24202D96378042BF6D14B6853F805
:102DE0002530BDE8F0411B681847A288E178A0783B
:102DF000B8470028E0D10020BDE8F081A52C0800EC
:102E00000C33002010330020E94F0800014B1868F4
:102E1000704700BF0C330020004B1847914B08004F
:102E2000F8B50C4F3B787BB10B4D2B681B681B79B9
:102E300053B100242046094EB0472B6801341B686B
:102E4000E0B21B798342F7D80023054A3B70138018
:102E5000F8BD00BF1433002010330020252D0800DA
:102E60001633002038B50B4B1B7893B10A4D2B68F5
:102E70001A6812796AB100245B6853F824301B6920
:102E800003B198472B6801341968E2B2097991427D
:102E9000F2D838BD143300201033002000232DE970
:102EA000F0479C4C82B02288C4E90433B2F5E07F3D
:102EB000A38100F0A58094F900202378002A0EDB7E
:102EC00013F0600F6BD013F01E0F36D003F01F030A
:102ED000022B00F09D80002002B0BDE8F087E18861
:102EE0000029F8D013F0600FEDD113F01F0240F06D
:102EF000CB816378062B00F03581082B00F011821E
:102F0000DBB9022919D18448844B98477CE0012A17
:102F100000F08880022A40F089806278012A00F05F
:102F2000F281032ACFD1E28861880A4392B2002A53
:102F300000F01E8213F01E0F6AD1A388022B04BF7B
:102F40000123A380764B1B78002BC4D0754F2579C5
:102F50003E6833681B799D423ED3227802F01F02FF
:102F6000022AB8D1002BB6D00024DFF8BC81254658
:102F700004E03E6833681B79AB42ACD9736853F800
:102F80002460F368984701462846C0470028A2D02D
:102F9000B36898470134E5B20028EAD09CE713F003
:102FA0001F02B4D16378013B082BC6D801A252F8A6
:102FB00023F000BF493108003B2F080045300800CE
:102FC0003B2F0800373008003B2F08003B2F08003C
:102FD0003B2F08006730080000212846DFF84881B1
:102FE000C04758B1736853F82560F36898470146A5
:102FF0002846C04710B1B368984728B9237865E7D9
:103000009E214A48454B9847012002B0BDE8F08711
:10301000434B1B78002B3FF45EAF424F3E68336852
:103020001B799FE762780B2A00F0828113F01E0F54
:103030007FF451AF81E7E388002B7FF47EAF3C4BF8
:103040002361E1E7E388002B7FF477AF6388022BED
:103050007FF473AF374B984718B12379002B00F0FA
:10306000E38123782FE7E388002B7FF466AF324BB0
:1030700098470028F5D0DFF8BC90C847DFF8BCA01F
:10308000A378002800F06D81DAF80820527C9A427B
:10309000E7D3DFF88C8098F800307BB1214F3B6894
:1030A0001B681B7953B100252846254EB0473B6865
:1030B00001351B68E8B21B798342F7D80022164B12
:1030C0001A80A37888F80030002B9DD0C84798F864
:1030D000003003F10053013BDB00002800F06A815F
:1030E000DAF8102013441A680E4F12793B60002A58
:1030F0008AD00025134E2B4604E03A6812681279F4
:103100009A4281D918460021B0470135EBB2002818
:10311000F3D1A6E7E033002016330020194D080054
:103120001433002010330020A52C0800600200207A
:10313000112D0800C94C0800F94C0800200300209C
:10314000252D0800A52D0800E388002B7FF4F5AE9F
:103150006388012B7FF4F1AE9E4A138823F00203AB
:10316000138051E76288130A013BD5B20E2B3FF65C
:10317000E4AE01A252F823F00F320800E531080056
:10318000D73108003B2F08003B2F0800CB31080047
:10319000253208003B2F08003B2F08003B2F08007A
:1031A0003B2F08003B2F08003B2F08003B2F080057
:1031B000B531080021218848884B9847E388A289C7
:1031C0009A427FF621AFA3811EE7854A834BD068E0
:1031D00001789847F2E7032D3FF6AFAEDFE805F040
:1031E0004C4937517F4B98477D4B002800F0D680E3
:1031F0009A68527CAA427FF634AF1A69774B52F82C
:103200003500418898470222A3685A70D6E7754B6B
:103210009847002840F0D280714A704B906801783E
:103220009847CBE76F4B98476D4B002840F0AA803A
:103230009A68527CAA427FF614AF1A69674B52F81B
:103240003500418898470722A3685A70B6E71321D2
:10325000654B664E5D18324613F8010B9D4222F80D
:10326000020FF9D14900023160485C4B3170984738
:10327000A4E715215E4BECE704215E48574B9847C5
:103280009CE720215C4BE4E7012A14D0022A7FF45A
:10329000CDAE6278002A7FF44DAE02297FF44AAEAB
:1032A0002079564B01919847024655484B4B01995E
:1032B00002809847A8E662780A2A7FF4B7AE01290F
:1032C0007FF4B4AE4F4A1278002A3FF4AFAE4E4AB4
:1032D0002579166832681279AA427FF6A7AE0021D6
:1032E0002846DFF82881C04700283FF4BAAE73684B
:1032F00053F82530DB689847024645480121374B93
:103300000270984780E6E28861880A4392B2002AF8
:103310007FF410AE20793F4B984700287FF474AEBD
:103320009FE601297FF409AE36482C4B98476BE69F
:10333000E288002A7FF47AAE324A1278002A3FF4FB
:1033400075AE2579344B28466688984700283FF4A7
:1033500088AE2846314BF1B2984700287FF454AE2E
:103360007FE6DAF80020527C9A42BFF492AE78E60B
:1033700020792B4B98472B4B2079984700287FF4D6
:1033800043AE6EE61A68527CAA427FF66AAE5A686D
:10339000124B52F835004188984754E71A68527C1E
:1033A000AA427FF65EAE5A680C4B52F8350041884F
:1033B000984728E7DAF80420134494E61020022105
:1033C000074B064D1A689070D17018680178A847AD
:1033D000F4E600BF163300203C020020194D08001F
:1033E00020030020C94C08000C020020C801002066
:1033F00020020020380200209C010020754D0800AA
:10340000083300201433002010330020A52C0800BE
:103410000A330020494E0800252D0800A52D08007C
:1034200001520800A94D08000B4B9847A3881B0ABE
:10343000013B032B3FF615AEDFE803F00B08050256
:10344000064B2361E0E5064B2361DDE5054B236177
:10345000DAE5054B2361D7E5212E0800C9520800A3
:10346000B15208008D5208006952080038B5084B67
:1034700004469847074B1A782AB901251C70064B59
:103480009847284638BD0025034B9847284638BD45
:103490006536080018330020A53608000022014BCD
:1034A0001A70704718330020014B1878704700BF1E
:1034B0001833002010B51120044CA0471020A0475D
:1034C0002346BDE810404C20184700BFD136080005
:1034D00010B51120054CA0471020A0474C20A04754
:1034E000BDE810405320024B184700BFD1360800FA
:1034F000D137080010B51120034B9847BDE81040A4
:103500005320024B184700BF09370800E93708006D
:10351000C0F3090310B55BB1B3F5007F044603D0D7
:10352000C4F308043CB110BD1120074B9847F7E7DE
:103530001120064B9847044C1020A0472346BDE8B5
:1035400010404C20184700BFD1360800093708004A
:1035500010B54FF060510D4C1120A0474FF0605155
:103560001020A0474FF060514C20A0474FF0405131
:103570005320A0475320064B9847BDE810404FF01A
:1035800000624FF4C0510348034B1847013808004C
:10359000E9370800000C0E40E93808004FF40042FB
:1035A00010B5064B064C5A650A20A0470B20A047D1
:1035B0000C20A047BDE81040024B184700120E40F7
:1035C000F53A08005135080038B5A1F10E03012B7A
:1035D00017D9EFF3108572B6BFF35F8F00230A4C43
:1035E000C9B22370094B03EA02221143084B41F090
:1035F000B441984725B901232370BFF35F8F62B6AA
:1036000038BD4FF0FF3038BD0403002000FFFF003D
:103610008D000020FEE700BFF0B5042687B0044609
:103620000D460F220E210C480C4F02AB0096B847F6
:1036300070B9042D26462A46044628BF042225B127
:103640003046074B02A992009847204607B0F0BDCC
:103650001024204607B0F0BD00080E4001000020F5
:10366000799708000C4B1A6892B9EFF3108169B989
:1036700010B472B6BFF35F8F0120084C084A217066
:1036800010701A6801321A6010BC704704490A7041
:103690001A6801321A6070471C33002004030020AE
:1036A00019330020074B1A68013A1A601B6843B9A6
:1036B000054B1B782BB10122044B1A70BFF35F8FAF
:1036C00062B670471C330020193300200403002029
:1036D00070B50546094C04F118062368AB4203D0C7
:1036E0000834B442F9D170BD63682846012B044AFE
:1036F00001D09047F4E7034B9847F1E70CEA080044
:10370000D1370800E937080070B50546094C04F1C7
:1037100018062368AB4203D00834B442F9D170BD17
:1037200063682846012B044A01D09047F4E7034B15
:103730009847F1E70CEA0800E9370800D13708009C
:10374000F8B5124B04460E469847114B05462046E5
:103750009847054019D00F4C04F160072368B34225
:1037600005D0BC4211D023691034B342F9D161684D
:103770002942F6D0E368304698476368BC4225EAA0
:10378000030502D01034002DE8D1F8BDC937080078
:10379000CD370800203300200A210148014B18478B
:1037A000000C0E40413708000B210148014B18471F
:1037B000000E0E40413708000C210148014B18470C
:1037C00000100E4041370800C06C7047806C704795
:1037D0000122430903F5001303F2067300F01F00F2
:1037E0005B0282401A6370470122430903F500130C
:1037F00003F2067300F01F005B0282405A637047B9
:10380000430903F5001301F0F04203F20673B2F12D
:10381000205F4FEA432336D016D8B2F1006F43D071
:10382000B2F1805F15D1012200F01F0082405A647E
:10383000186FC90740EA020018675A604FF001008C
:103840004CBF5A661A66704701F0E042B2F1405F21
:1038500001D000207047012200F01F008240C807FD
:103860005A6401F0605C4CBF5A661A6649074CBF47
:103870001A655A65BCF1605F0CBF1A635A63012078
:103880001A611A607047012200F01F008240C807C9
:103890005A644CBF5A661A6611F00A0F18D15A6260
:1038A0005A6101201A607047012210B400F01F0015
:1038B00082405A64186F1C6F204020EA020018678B
:1038C000C8075A604CBF5A661A66012010BC704780
:1038D00088071A6248BFC3F88020E1D4090748BFAF
:1038E000C3F88420DCE700BF02F0F043B3F1205FAF
:1038F0002ED011D8B3F1006F37D0B3F1805F10D163
:103900004164036FD20743EA0103036741604CBF80
:10391000416601660120704702F0E043B3F1405F69
:1039200001D00020704712F0010F416402F0605393
:1039300014BF4166016652074CBF01654165B3F192
:10394000605F0CBF0163416301610160012070474A
:10395000D30741644CBF4166016612F00A0F14D1CF
:103960004162416101600120704710B44164036FFE
:10397000046F234023EA0103D407036741604CBF6F
:103980004166016610BC012070479307016248BF81
:10399000C0F88010E5D4130748BFC0F88410E0E7F2
:1039A00015490B6B23F0030343F001030B638B6E8C
:1039B0001B0758BF4FF4006302D504E0013B16D04B
:1039C0008A6E1207FAD50C490B6B23F07003034380
:1039D0000B63886E10F0080008BF4FF4006302D03C
:1039E00007E0013B03D08A6E1207FAD57047012029
:1039F00070470020704700BF00040E4015490B6B54
:103A000023F0700303430B638B6E1B0758BF4FF407
:103A1000006302D504E0013B17D08A6E1007FAD587
:103A20000C490B6B23F0030343F002030B63886E16
:103A300010F0080008BF4FF4006302D007E0013B1C
:103A400003D08A6E1207FAD5704701207047002014
:103A5000704700BF00040E40074A0302116A9BB280
:103A600021F003010B4343F45C1343F001031362A1
:103A7000936EDB07FCD5704700040E40024B986E36
:103A800000F00100704700BF00040E40024B986E2A
:103A900000F48030704700BF00040E40084B1B6AE2
:103AA00030B1074A43F0807343F45C1313627047EC
:103AB000034A23F0807343F45C131362704700BF22
:103AC00000040E404FF00052014B9A62704700BF55
:103AD00000040E40024B986E00F00200704700BFD9
:103AE00000040E40024B986E00F04000704700BF8B
:103AF00000040E401D2809D80123054983408A6926
:103B0000002033EA020218BF0B61704701207047A2
:103B100000040E401D2809D80123054983408A6905
:103B2000002033EA020208BF4B6170470120704752
:103B300000040E40034BC0F312001A6F10431867C5
:103B4000704700BF00040E402DE9F041A0B9002AE3
:103B500090460DDD0C460A4F0A4E8D1821463868F6
:103B6000336801349847AC42F8D14046BDE8F08153
:103B700080464046BDE8F0814FF0FF38F5E700BFD2
:103B80000034002090330020024B187880F00100B0
:103B9000704700BF9433002001EB810100EB8100EE
:103BA0000267704701EB810100EB810042677047BB
:103BB00001EB810100EB81008267704701EB81011D
:103BC00000EB8100C0F88020704700BF08B518489E
:103BD000184B83420AD0184A904207D2013A121A6F
:103BE00022F0030219460432144B9847144A154B2D
:103BF000934208D2013AD21A22F003021846002159
:103C0000114B04329847114B114923F0604203F1E4
:103C1000604322F07F02B3F5404F8A6003D28B6885
:103C200043F000538B600B4B98470B4B9847FEE7D4
:103C300000000020DCEC0800800A002079970800D2
:103C400018370020800A0020C994080000000800EE
:103C500000ED00E099960800C90408000C4A0346EC
:103C600010680C4930B103448B42CCBF4FF0FF3099
:103C70001360704710B4084C23448B421460D8BFC3
:103C800013602046C8BF4FF0FF3010BC704700BF24
:103C9000A0330020FC3F0820003008204FF0FF3008
:103CA000704700BF4FF4005300204B60704700BFC7
:103CB0000120704700207047014608B50148024BBB
:103CC0009847FEE70CE8080015770800704700BF2A
:103CD0004FF0FF30704700BF10B53E20074B9847AC
:103CE000074CA0470028FCD04FF47102054B064C4E
:103CF000DA61A0470028FCD010BD00BF593A080087
:103D00007D3A080000040E40E53A080070B51248FC
:103D1000124DA8473E20124B9847124CA04700284E
:103D2000FCD04FF08070104B9847104CA0470028F3
:103D3000FCD00F4B98470F4B0F4A104C9A62A0478C
:103D40000028FCD00E4B102098470E4B98472B466E
:103D5000BDE870400048184700D8B8053101002080
:103D6000593A08007D3A08009D3A08008D3A08004B
:103D7000C53A080000040E40013F0F20D53A080064
:103D8000FD390800893D0800334A136B03F0030333
:103D9000012B2ED0023B012B18D8136AD9013CD538
:103DA0002E482F4B03602C4A136B03F00303022BA6
:103DB00040D02C4B28490A6B02F07002702A12D0B6
:103DC0000A6BC2F30212D34003607047264B5B6A52
:103DD0001A061ED520494FF400430A6B1F4802F013
:103DE0007002702AECD1214AA2FB03235B08036016
:103DF0007047136ADB0109D4136A03F07003102BB8
:103E000023D0202B02D01A4B1448D3E7144B13486D
:103E1000D0E74FF4FA431148CCE7154B0F48036045
:103E2000136A03F07003102B12D0202BBBD10C4B64
:103E30000360B8E7916A0368C1F30A4101FB0333E9
:103E4000926AD2B2B3FBF2F3B4E70A4B0348B1E78C
:103E5000084B0360A7E700BF00040E4008030020E2
:103E6000001BB700001C4E0E00120E40ABAAAAAAFF
:103E700000093D0000127A00AC2303600246D1E93C
:103E80000030B3FBF0F34FF6FE7C1B09581E604573
:103E90000CD830B440F20225502413628B68002005
:103EA0005360C2F82051146030BC70470120704745
:103EB00003464269920746BF0020D961012070473E
:103EC0004369DB0743BF836900200B700120704703
:103ED000014B1878704700BFA4330020064B10B583
:103EE0009847064AC37813700BB1012010BD044BEC
:103EF000BDE81040184700BF0D2E0800A433002075
:103F0000F90B0800024B1B7803B17047014B1847AF
:103F1000A4330020210C0800074B1B7803F060023B
:103F20001B0603D4402A05D000207047402AFBD14D
:103F3000024B1847024B1847E03300207D0C080065
:103F40002D0C080030B58446154683B00B466246FA
:103F50000021034C00958120A04703B030BD00BF75
:103F60000D4F080030B58446154683B00B466246B7
:103F70000021034C00950220A04703B030BD00BFD4
:103F80000D4F080090F814C003461CF0010F16D026
:103F900030B404682CF0010C80F814C06CB1084DEA
:103FA000084602F1080149016958090748BF42F073
:103FB00080029968234630BC184730BC7047704770
:103FC00000400A402DE9F043431E674C03EB4301D8
:103FD00004EBC10191F814C01CF0010F37D0024668
:103FE000D1E90250A8424FEA430632D02D1AB5F566
:103FF000803F4FEA421C44D80CF1402E0EF5202E93
:10400000DEF800812F0418F0080F7BD0DEF8008165
:104010004FF0080E08F007080EFA08FE0EF1FF3EFA
:104020001EEA050F7DD091F814E047F029072EF025
:10403000020E81F814E037E04FF400644FF480730F
:104040004A48C1F804419340026913430361BDE843
:10405000F0834FEA421C0CF1402101F52021D1F8F8
:104060000001050705D5F01804EBC000007D8007AE
:10407000E2D4F01804EBC0000021BDE8F0433C4B53
:1040800018470CF1402101F52021D1F8007117F0FB
:10409000080731D1D1F8005105F03005102D5DD061
:1040A0004FF4803547F0350706EB030E04EBCE0ED8
:1040B000DEF8041008442F4901EB02114860EFF3C9
:1040C000108872B6BFF35F8F4FF000092A4880F85E
:1040D0000090D1F80C9019F0100F25D0B8F1000F16
:1040E00004D101210170BFF35F8F62B6F11804EBB8
:1040F000C101C8688860AEE721274FF48035D1F848
:104100000011D1E7DEF8001101F030011029C9D10A
:10411000DEF8001101F0070E082101FA0EF1A942A4
:10412000C0D247F02107BFE74FF000728F6002FA5C
:1041300003F3DEF80C20CEF810502A44CEF80C2001
:104140000A4A11690B431361B8F1000F7FF47FAF86
:1041500001230370BFF35F8F62B678E74FF48035B9
:10416000D1F80011DDE700BFA833002000400A406D
:10417000853F080000430A40040300202DE9F04772
:10418000EFF3108372B6BFF35F8F00204FF48061AE
:10419000594D5A4A2870C2F8081123B901232B70CF
:1041A000BFF35F8F62B6DFF8588198F80030032BB9
:1041B00065D0544F544E3B88B489E41AA4B2002C05
:1041C00039D0DFF848913F2C4CD900224024B06808
:1041D00089F80020EFF3108672B6BFF35F8F0022DC
:1041E0002A70464AD2F81C2192053DD46CB118447D
:1041F0000346C3F1005C20440CF5C01C03EB0C0229
:1042000013F8011B98421170F8D13A884FF480617D
:1042100022443A804FF40062384BC3F81811C3F8B7
:104220001421C3F8041126B901232B70BFF35F8F4B
:1042300062B6BDE8F0873649F0880A881A4492B21F
:1042400090420A8040D0DFF8C49099F800A0BAF1FB
:10425000000F39D172692AB19047002848D1012254
:104260003B88B4E70122B2E726B901232B70BFF3E4
:104270005F8F62B6042388F80030BDE8F087224ED5
:10428000336903B19847EFF3108372B6BFF35F8FC2
:1042900000204FF48061194A2870C2F8081123B930
:1042A00001232B70BFF35F8F62B64FF40071134A86
:1042B0000020C2F8181100210023C6E90401B381CF
:1042C00088F80030BDE8F087042388F80030EFF369
:1042D000108172B6BFF35F8F4FF480420020074B0E
:1042E0002870C3F81821C3F804210029A1D19BE745
:1042F0003C805346B48966E70403002000400A402E
:10430000DC330020D8330020E0330020A533002028
:10431000DA3300202DE9F047A24B1D209847A24B2D
:10432000984728B9A14B5B6913F0020300F09D8008
:104330009E4B5A69150700F189805A69500700F1B0
:104340008E80D3F81C215969C90521D54FF48040CE
:104350004FF40041D704C3F80801C3F8081100F175
:10436000B180560504D5D3F80C315D0500F15B82B0
:10437000940500F15381900404D54FF400518B4B08
:10438000C3F81811110400F17B81530400F1D380AC
:1043900001234FF000774FF480780224834A156997
:1043A00003F1FF3C07FA0CF10D42804803F1010EC6
:1043B0005FFA83F902EB431603D05569294240F0B6
:1043C000CF80116908FA03F5294216D0D6F80C11EE
:1043D0005B0111F4006F034405D0D6F81C1111F4F1
:1043E000006100F03D83D3F80C114E0305D5D3F8DE
:1043F0001C1111F4402100F0F380BEF1030F4FF0C7
:104400000203CCD169494D6915F0100540F0858152
:104410000B69980733D54B699A0730D520238B61F8
:104420000B69634A23F002030B610B691D2043F003
:1044300020030B618C6190475E4B98475E4A13786E
:10444000002B40F0C6820023137013E008229A610B
:104450005B69DC0710D5BDE8F047584B18470421CD
:104460009961574ABDE8F047104772B6BFF35F8FB6
:10447000544A1370BDE8F087514B9847EBE74B4B1C
:104480005B699B06F6D54C4A1378002B00F08282BC
:10449000022401252020454B15709C6198611A6902
:1044A000494922F020021A611A6922431A611A69E5
:1044B00042F008021A611A6942F004021A61BDE86A
:1044C000F0470847414C237813B3414E336903B199
:1044D0009847EFF3108272B6BFF35F8F00214FF45D
:1044E0008060384B19703149C1F8080122B90122A6
:1044F0001A70BFF35F8F62B64FF400722B4B00202F
:104500000021C3F818210023C6E90401B3812370F8
:10451000264A304BD2F81C110B40B3F5000F00F0C7
:10452000C280052020214FF480532070C2F814115E
:10453000C2F818319EE74FF480431C4AC2F8183184
:10454000D2F81C3113F4007394D12048017801296A
:1045500000F0538204298DD12023C2F8143189E759
:1045600000F5407000EB0313D868C70782D41069C8
:1045700020EA01011161DA68120C0ED016480CEB2A
:104580004C0100EBC101C968CCF1000303F0180332
:1045900008338A1AC25003445A604846BDE8F047BF
:1045A0000E4B1847F53A0800893B080000400A40C6
:1045B000153B0800C50B0800F8330020D50B080098
:1045C000652E080004030020CD0B0800DC3300201A
:1045D000E03300200000F07FA8330020C53F080032
:1045E0004FF4802220264024C3F8082102690CEBF6
:1045F0004C0C22EA05020261B24A02EBCC02107DA9
:1046000061F382001075D3F8082122F00202C3F88A
:104610000821C3F81461C3F818412BE7AA4C23788A
:10462000012B00F00481022B00F03981042B00F0F3
:10463000368105212022A54BA54E2170C3F81421F7
:10464000EFF3108272B6BFF35F8F00214FF48060EA
:10465000A04B19709D49C1F8080122B901221A70B6
:10466000BFF35F8F62B64FF40071984A0023C2F81F
:10467000181100200021B381C6E904012370F9E676
:104680004FF40042914BC3F81821D3F81C21520576
:104690003FF5F0AE8C4A1278032A7FF4EBAE20226D
:1046A000C3F81421E6E68C4A8C4B8D481946013339
:1046B0000978834202F8011FF8D18A4B98470028F5
:1046C00000F0F4804FF48051804B814AC3F81811F8
:1046D00092F900100029C0F27181D288002A00F0FE
:1046E000AD81002201254FF480417F482570028072
:1046F0007E480280C3F81811EFF3108472B6BFF33E
:104700005F8F74480270C3F80411002C7FF4B2AEBE
:104710000570BFF35F8F62B6ACE61022694C237D53
:104720008A6113F001020DD0256823F0010323757F
:1047300045B1D1F82031012013F0080F18BF8122B4
:10474000A168A84794F82C30DD0710D5A56923F09F
:10475000010384F82C3055B15C4B0120D3F8403173
:10476000216A13F0080F0CBF02228222A847604B77
:1047700098470120554B1A6822F07F021A601A6888
:1047800042F080021A60D3F800216FF3090242F070
:104790004302C3F80021C3F80401EFF3108472B69A
:1047A000BFF35F8F4FF4805200254A490D70C3F864
:1047B00004214FF40072C3F804211A6942F4807294
:1047C0001A611CB90870BFF35F8F62B6EFF31083F4
:1047D00072B6BFF35F8F00244FF480603B4A0C70C9
:1047E000C2F8080123B901230B70BFF35F8F62B6D3
:1047F0000026002700214FF40074354A334BC2E9EC
:1048000004673148C3F81841017091811A6942F078
:1048100008021A611A6942F004021A611A6942F028
:1048200002021A6126E6334BBDE8F0471847274BD2
:104830002E4FD3F81C51264EB7F800C0B389C5F3EC
:104840000A550CEB05029342B8BFA3EB0C03B26808
:10485000B8BF9DB262447DB1204B18460133007849
:10486000D9B2A94202F8010BF7D3AC441FFA8CFC71
:10487000402DA7F800C067D07369A6F80CC0002BC4
:104880003AD09847002837D1052020214FF40072F4
:104890000E4B2070C3F81411C3F81821EAE50C4E32
:1048A0003369002B3FF4CCAE9847C9E605202021A0
:1048B0004FF48052054B2070C3F81411C3F818212F
:1048C000D8E500BFA8330020DC33002000400A40B8
:1048D000E033002004030020DF3300200000182014
:1048E000080018209D2E0800DA330020D83300205D
:1048F000212E08007D4108004FF400710322684B0F
:10490000C3F818112270EFF3108472B6BFF35F8FF3
:10491000002564484FF4806105704FF400424FF465
:104920000065C3F81811C3F81451C3F80411C3F893
:104930001821C3F80421002C7FF49CAD01230370DF
:10494000BFF35F8F62B695E5574DF2882B886344BD
:104950009A4291DDB389634500F093804FF4007172
:104960004FF480424E4BC3F81811C3F81821EFF3EF
:10497000108072B6BFF35F8F00244A490C70C3F8F1
:10498000042100287FF476AD01230B70BFF35F8F05
:1049900062B66FE5EFF3108472B6BFF35F8F4148E4
:1049A000424903708B7801338B70002C7FF470AD1B
:1049B00001230370BFF35F8F62B669E50023022114
:1049C000394D3B482B80038021703A4ABDE8F047BF
:1049D0001047EFF3108472B6BFF35F8F314833494D
:1049E00005708B78013B8B70002C7FF42CAD01237C
:1049F0000370BFF35F8F62B625E503240470EFF305
:104A0000108572B6BFF35F8F264C4FF48060237021
:104A10004FF400664FF40043C2F81801C2F8146165
:104A2000C2F80401C2F81831C2F80431002D7FF435
:104A300021AD2170BFF35F8F62B61BE503212170AA
:104A4000EFF3108472B6BFF35F8F4FF480611548A7
:104A50004FF4006502704FF40042C3F8181162E78A
:104A60004FF400641448CCF1000303F01803C6F8B7
:104A70000841C6F814414A46BDE8F04718440F4BB8
:104A800018477369002B3FF4FFAE984700283FF4A6
:104A9000FBAE00222B8839883A800B442B805DE7DF
:104AA00000400A4004030020DA330020983300203D
:104AB000D83300207D410800A8330020853F08003E
:104AC0002DE9F041EFF3108672B6BFF35F8F00213E
:104AD000294B2A4C1A782170002A3BD00125284AFC
:104AE0001D201D704FF00808904702274FF0040E5C
:104AF0004FF0100C2021234B1D201A6842F4006255
:104B00001A601A6822F400721A601A6942F01002E0
:104B10001A611A6942F002021A611A6942F020020F
:104B20001A611A6942F008021A611A6942F0040215
:104B30001A61C3F81880144AC3F818E0C3F818C003
:104B40009F61996190471EB92570BFF35F8F62B670
:104B5000BDE8F081EFF3108072B6BFF35F8F0B49B1
:104B600022708A7801328A700028B7D1012222701F
:104B7000BFF35F8F62B6B1E7F83300200403002073
:104B8000F53A080000400A40153B08009833002021
:104B9000F8B5264B9847264B1D209847EFF3108613
:104BA00072B6BFF35F8F00254FF0500E4FF00057E5
:104BB000204A214C92F814C0204B2CF0050C82F8AE
:104BC00014C092F82CC025702CF0050C82F82CC073
:104BD0001A681B4942F480721A6081F81DE30F6065
:104BE000D3F8E0204FF4802022F00302C3F8E02045
:104BF000144B9847144B1D70EFF3108172B6BFF33E
:104C00005F8F124A2570D3780133D37021B9012305
:104C10002370BFF35F8F62B60D4B984726B901230F
:104C20002370BFF35F8F62B6F8BD00BFD93C0800A8
:104C3000F53A0800A83300200403002000400A4091
:104C400000E100E0353B0800F833002098330020F5
:104C5000C14A080010B5164B1D209847154B1D2062
:104C60001A68154942F400721A601A6822F4006248
:104C70001A608847114B1A7812B900221A7010BDB9
:104C8000EFF3108472B6BFF35F8F4FF0000C0C4946
:104C90000C488A78013A8A7080F800C0002CECD168
:104CA00001220270BFF35F8F62B600221A7010BD3E
:104CB000F53A080000400A40153B0800F833002090
:104CC0009833002004030020024B586900F00100D3
:104CD000704700BF00400A40064B1A6822F080026D
:104CE0001A601A6860F306021A601A6842F08002BD
:104CF0001A60704700400A40024B186800F07F00BD
:104D0000704700BF00400A40024B5868C0F3CA0019
:104D1000704700BF00400A40014B9860998170477E
:104D2000E033002000F00F02022A00D97047012171
:104D3000530170B503F1402505F520252B46C5F834
:104D40000811D5F80051501E084C00EB400004EB50
:104D5000C00425F0C005C3F800512046044EB047FA
:104D6000237D23F00403237570BD00BFA83300200A
:104D7000853F080000F00F00430103F1402303F5D5
:104D80002023D3F81C319B0609D4064B00EB4000CE
:104D900003EBC00313F8040CC0F38000704701203C
:104DA000704700BFA833002000F00F03022B2BD860
:104DB00030B5234D590105EB431EDEF81C21920648
:104DC00020D4204C5A1E02EB420204EBC20C9CF889
:104DD000144014F0040215D114F0010F16D102068C
:104DE00016D44FF40054202001F1402303F5202372
:104DF000D3F8082122F00202C3F80821C3F81841B1
:104E0000C3F81401012030BD00207047104630BDAA
:104E1000DEF81C2112F4402FE3D04FF480204FF431
:104E2000807244F004018CF8141005EB4311C1F8B2
:104E30000401296902FA03F30B432B61E2E700BF87
:104E400000400A40A833002000F00F00022857D885
:104E500070B5411E2B4C01EB410304EBC3031D7DD8
:104E60004A006D0725D54FF480264FF4807C1D7DC8
:104E70000CFA00FC25F004051D75234D430105EBDC
:104E8000401ECEF80861286920EA0C002861DEF88F
:104E90001C01850616D4531804EBC302117DDB00F8
:104EA000C80704D521F00101E35811759847012086
:104EB00070BD430103F1402000F52020D0F81C0113
:104EC0008006F4D503F1402000F52020D0F81C51D5
:104ED000AE0406D54FF40055C0F818514025C0F86F
:104EE0001851202503F1402000F520200346C0F88A
:104EF0001851D0F8040140F00200C3F80401CAE7D9
:104F000000207047A833002000400A4000F00F0046
:104F1000022860D82DE9F0414FEA401C0CF1402CEA
:104F20000CF5202CDCF80C41E50751D5DCF81C41D0
:104F3000A4064DD4461E294D06EB460C05EBCC0CC1
:104F40009CF814E074001EF0040E41D1EFF31088B9
:104F500072B6BFF35F8F224F87F800E09CF814E031
:104F60001EF0010F2CD19CF814E04EF0010E8CF8CD
:104F700014E0B8F1000F06D14FF0010C87F800C023
:104F8000BFF35F8F62B63444069E05EBC40C45F850
:104F90003460CCF8042000246246002B08BF41F0A6
:104FA000010142F8104FCCF8083013790D4D61F330
:104FB0004103CCF80C401371A8470120BDE8F081F3
:104FC000B8F1000F04D101233B70BFF35F8F62B6CD
:104FD0000020BDE8F0810020704700BFA83300200A
:104FE00004030020C53F08002DE9F04F00F00F0436
:104FF000022C83B000F2D080650105F1402303F557
:105000002023D3F80C31DE0700F1C68001F003063F
:10501000012E00F0C580023E012E00F2BD8002F498
:10502000C0539FB2002B40F0B7803E4605F14025AB
:1050300005F52025D5F800310901C00923F47F7C4E
:10504000B2F5806F01F030014FEAC0002CF0030C84
:1050500080F0B780082A38BF08225300013BB3FA1A
:1050600083F3C3F11C030FB141EA06214CEA0002AD
:105070000A43134343F04003C5F80031D5F800312B
:10508000002B80F28980012702234FF00008594E3F
:10509000C5F8047106EB4310D0F80C115D1EC9076A
:1050A0004FEA431216D502F1402202F52022D2F82F
:1050B00000115B00C1F38111C0F8087101FA03F31C
:1050C00048EA0308D2F800311FFA88F823F0C00339
:1050D000C2F80031EBB29C42DCD9474E04EB4405E8
:1050E000012706EBC50505E00134E3B2032B05F10A
:1050F000180568D004F1FF39630009EB490C48FA40
:1051000003F306EBCC0013F0030200F110015FFA89
:1051100084FB4FEACC0CE7D0007D6301824603F1AB
:10512000402303F52023D3F800E12AF0010A2EF0F2
:10513000C00E4EEA8212C3F80021C3F80471D3F8FE
:10514000002100F00100002A4FEA490E81F804A076
:105150003DDAD3F8042142F00202C3F8042100280A
:10516000C2D055E903E255F8103C55F814CC13446D
:10517000AEEB020245F80C2C0979624455F818CCC4
:105180005846CDF800C0A3EB0E03DFF870C0C1F3A2
:105190004001E0470028A7D1002003B0BDE8F08F10
:1051A00002F4C053002C3FF43CAFB3F5006F0CD0B9
:1051B000B3F5805F08BF032622F4C052012792B2E4
:1051C00034E707234FE70120E7E70226F4E756F824
:1051D0000C405846002CDFD0D3F80031CE441B07DA
:1051E00048BF4BF0800006EBCE060246F168012076
:1051F000A047D1E700400A40A83300200D4F080027
:105200000021164B00F00F0203EB021310B499605B
:1052100001060AD4124C1348531E03EB430300EB60
:10522000C3000121234610BC1847510101F1402160
:1052300001F52021D1F81C3113F4402FEAD04FF4AE
:10524000007401F58A700460D1F81C319B05FBD411
:10525000D1F81C3113F4402FF5D1DBE700430A40AD
:10526000853F0800A8330020074AD2F8E03023F039
:10527000030343F00203C2F8E030D2F8E03043F019
:105280000403C2F8E030704700400A40074AD2F8F1
:10529000E03023F0030343F00203C2F8E030D2F819
:1052A000E03043F00803C2F8E030704700400A40A5
:1052B000044AD2F8E03023F0030343F00203C2F8BB
:1052C000E030704700400A402DE9F0418EB06D4655
:1052D0004FF00108EC46204E204F0FCE0FC50FCEE9
:1052E0000FC50FCE0FC596E8030045F8040B2970D3
:1052F000C7F80881D7F80031CCF1005E6FF30903DD
:1053000043F06B03C7F80031C7F80481D7F8E030E9
:105310000DF1350423F0030343F00203C7F8E03036
:10532000D7F8E0300EF5C01E43F01003C7F8E030A8
:105330000CEB0E031CF8012BA4451A70F8D14FF4A6
:1053400080614FF40062054BC3F81811C3F81421B3
:105350000EB0BDE8F08100BF24EA080000400A401A
:1053600003464269920743BFC1F308010020D96197
:10537000012070474369DB0705D583690020C3F32B
:1053800008030B6070470120704700BF431E022BCB
:105390001ED82DE9F0411746C2B10D4614460E4EF7
:1053A000DFF8388002E0631E0CD01C463068D8F865
:1053B000003015F8011B98470028F4DA4FF0FF3051
:1053C000BDE8F0810137381BBDE8F0811046F7E7F2
:1053D0004FF0FF30704700BF00340020FC33002046
:1053E000F8B504460D4600F0BFF9224606460F46C2
:1053F0002B462046294601F07BFE98B90022002367
:105400002046294601F06AFE60B9002200232046AA
:10541000294601F03BFE40B104F038F92223002672
:10542000074F036030463946F8BD04F02FF92122BA
:10543000034604481A60BDE8F84000F0A1B800BF78
:105440000000F0FF24E808002DE9F84314461D464B
:105450008046894600F060FB224606460F462B46F2
:105460002046294601F044FE78B900220023404638
:10547000494601F00BFED8B1002200232046294600
:1054800001F004FE28B10026254F30463946BDE81C
:10549000F8832046294600F06DF80028F5D0204614
:1054A00029460022002301F0FBFD0028EDD02CE06E
:1054B0003046394600F05EF8A0B1002200233046A5
:1054C000394601F0E3FD0028DFD04046494600F0B0
:1054D00051F80028D9D02046294600F04BF8002882
:1054E000D3D012E04046494600F044F80028E4D00A
:1054F0002046294600F03EF80028DED032463B46E2
:105500003046394601F0F4FD20B904F0BFF82223FB
:105510000360BAE704F0BAF821230360B5E700BFDF
:105520000000F03FF8B504460D4600F02FF8224683
:1055300006460F462B462046294601F0D9FD30B9D4
:10554000204629460022002301F0AAFD10B930466A
:105550003946F8BD04F09AF80022002321210160A9
:105560001046194601F054FC06460F4630463946AF
:10557000F8BD00BF41F0004000F58010C00F70473B
:1055800000200149704700BF0000F87F734A2DE9F1
:10559000F84F8A4306460F4600F0AC8000290C46BF
:1055A000034655DD081562D0C4F31302C107A0F20B
:1055B000FF3742F4801203D4520002EBD3725B0037
:1055C000002616244FF40011B446520002EBD372A9
:1055D0007F105B000CEB010090424FEAD3754FEA5D
:1055E000430303DC00EB010C121A0E44013C05EBF3
:1055F00042024FEA5101EDD120254FF00040A04674
:105600000AE043D0510001EBD371013D0A464FEA55
:1056100043034FEA500045D0624500EB080EF0DD31
:10562000BEF1000F0EEB00080CDBE146A2EB0C0113
:10563000CC469E4588BF01F1FF314900A3EB0E0324
:105640000444E0E7B8F1000FEFDB0CF10109EDE7EE
:1056500021F00042024344D000296ED1DA0A153C01
:105660005B05002AFAD0D602204673D414460022E5
:105670006400E502114602F10102F9D5C2F12005EC
:1056800023FA05F52C439340401A8DE79E4502D935
:105690004FEA4C01B7E7BEF1000F0EEB000822DB2A
:1056A0000021CBE7194312D0DFF8B4A0DFF8B4B083
:1056B000DAE90001DBE9002301F0C8F8DAE9008942
:1056C00002460B464046494601F0F4FCE0B9650845
:1056D000731003F17F5303F5001303EB075145EA01
:1056E000C670BDE8F88FB8F1000FD9DB00210CF1CE
:1056F000010CA3E702460B4601F060FA32463B4636
:1057000001F0A6F8BDE8F88FB4F1FF3FDAE9000137
:10571000DBE900231AD0DAE9008901F099F80246A2
:105720000B464046494601F0BBFC88B1A31C04F17E
:10573000020508BF01366D08CAE702460B4601F0B4
:1057400085F802460B4601F063FBCAE70136BFE766
:105750000134BCE74FF0FF31144695E70000F07FBD
:1057600068EA080060EA08002DE9F04FB1F5801FF3
:1057700002460B460E4687B080F2858021F0004538
:10578000054300F021810029C0F261810022DC4B39
:1057900001F014FA0E460B46DA496FF035048E42DA
:1057A000024674DC4FEA2658C6F3130606F51521A7
:1057B000A8F2FF3801F6647101F48011A04408EBEF
:1057C000115881F07F5181F4401141EA06031046DF
:1057D00019460022CC4B01F039F8B31CC3F3130374
:1057E000022B82468B464FF0000257DC002301F06B
:1057F0004DFC002840F0F180ADA3D3E900235046D2
:10580000594601F0DBF902460B460020BF4901F082
:105810001DF8524604460D465B465046594601F077
:10582000CDF902460B462046294601F0C7F9044649
:105830000D46B8F1000F00F00181404601F054F927
:10584000804689469CA3D3E9002301F0B7F99CA3C5
:10585000D3E9002306460F464046494601F0AEF91B
:1058600002460B462046294600F0F0FF52465B46B2
:1058700000F0ECFF02460B463046394600F0E6FFEA
:1058800007B0BDE8F08F9F4900248E428ADD1046A4
:10589000194600F0DDFF07B0BDE8F08F4FF0804300
:1058A00000F0D6FF02460B465046594601F0B0FACA
:1058B000044640460D4601F017F922462B46CDE935
:1058C000040120462946CDE9024501F077F9024658
:1058D0000B46CDE9002301F071F97BA3D3E9002346
:1058E00004460D4601F06AF979A3D3E9002300F0DC
:1058F000AFFF22462B4601F061F977A3D3E90023DD
:1059000000F0A6FF22462B4601F058F974A3D3E914
:10591000002300F09DFFDDE9002301F04FF972A3A1
:10592000D3E90023CDE900012046294601F046F9DC
:105930006FA3D3E9002300F08BFF22462B4601F032
:105940003DF96DA3D3E9002300F082FF22462B46E8
:1059500001F034F90B460246DDE9000100F078FF62
:10596000A6F5C227C6F5D723A7F27A4751333B43A2
:10597000002B06460F464DDD0022644B504659462B
:1059800001F01CF952465B4601F018F904460D4639
:105990003046394622462B4600F05AFFDDE9022305
:1059A00001F00CF906460F46B8F1000F56D1024639
:1059B0000B462046294600F049FF02460B4650465A
:1059C000594600F043FF66E70022002300205049BB
:1059D00001F01EFA07B0BDE8F08FB8F1000F62D0F9
:1059E000404601F081F834A3D3E9002306460F4670
:1059F00001F0E4F832A3D3E9002304460D46304613
:105A0000394601F0DBF802460B462046294600F0F5
:105A10001FFF40E702460B465046594600F016FF6E
:105A2000DDE9022301F0CAF804460D46B8F1000F83
:105A300004D0DDE904894046494603E722462B4667
:105A40005046594600F002FF07B0BDE8F08F00F065
:105A5000FDFE0022002301F0DBF91CE7DDE9040173
:105A600015A3D3E9002301F0A9F815A3D3E9002376
:105A700080468946DDE9040101F0A0F832463B4644
:105A800000F0E6FE02460B462046294600F0DEFE08
:105A900052465B4600F0DAFE02460B464046494657
:105AA00000F0D4FEF7E600200021F4E6AFF300801A
:105AB000555555555555D53F0000E0FE422EE63F61
:105AC000763C7935EF39EA3D44523EDF12F1C23F70
:105AD000DE03CB966446C73F599322942449D23FB4
