:0200000280007C
:1000000000300820DD230800251E0800251E0800FA
:10001000251E0800251E0800251E080000000000FF
:10002000000000000000000000000000251E080085
:10003000251E080000000000251E0800251E0800DF
:10004000251E0800251E0800251E0800251E080084
:10005000251E0800251E0800251E0800251E080074
:10006000251E0800251E0800A91F0800B91F08004A
:10007000C91F0800251E0800251E0800251E0800AF
:10008000251E0800251E0800251E0800251E080044
:10009000251E0800251E0800251E0800251E080034
:1000A000251E0800251E0800251E0800251E080024
:1000B000251E0800252B0800251E08000348044BB8
:1000C000834202D0034B03B118477047B4D40800F1
:1000D000B4D40800000000000548064B1B1AD90FD5
:1000E00001EBA301491002D0034B03B1184770473D
:1000F000B4D40800B4D408000000000010B5064CC9
:10010000237843B9FFF7DAFF044B13B10448AFF388
:1001100000800123237010BD800A00200000000031
:10012000B4D4080008B5054B1BB105490548AFF329
:100130000080BDE80840FFF7CFBF00BF000000000F
:10014000840A0020B4D408000022F0B51E4B83B00E
:10015000984204460F4601922ED01C4B984223D061
:100160001B4B984210D01B4B984215D01A4B98420B
:1001700008D11A4E01AD29462046B0470028FAD1D1
:10018000019B3B7003B0F0BD144E01AD29462046E3
:10019000B0470028FAD1F3E7104E01AD29462046BA
:1001A000B0470028FAD1EBE70C4E01AD29462046B6
:1001B000B0470028FAD1E3E7094D39462046A84761
:1001C0000028FAD103B0F0BD00060E40000009403F
:1001D000004009400080094000C00940853B0800FC
:1001E000D12608001D4B70B5984204460D4615D027
:1001F0001B4B98421AD01B4B98421FD01A4B984267
:1002000004D01A4B984221D0002070BD184E2946C8
:100210002046B0470028FAD1012070BD154E29466E
:100220002046B0470028FAD10120F6E7104E2946B3
:100230002046B0470028FAD10120EEE70C4E2946AF
:100240002046B0470028FAD10120E6E7084E2946AB
:100250002046B0470028FAD1DEE700BF00060E4076
:1002600000000940004009400080094000C00940EA
:10027000713B0800C12608002DE9F04F99B000AF8E
:1002800097F88850B863FD610D46D7F838C0834CA5
:1002900007F1500B654516469E46BB6194E80F007A
:1002A0008BE80F00C0F2BF807346C7E902659B0070
:1002B00003F10709C7F804907B686C4623F0070335
:1002C000ADEB030DBB69C7F814D0002B40F38F8052
:1002D0000023DFF8CCA17B623C616946BB6BC7F8A9
:1002E00020D0A1EB03139D46E846BA6BBB6BA8EB8D
:1002F00002129546002BE94631DD07F12804694DCD
:1003000059462046D04794E80F0088E80F000FCDEB
:1003100003932B7800260090019102928DF8103003
:1003200017E059462046D04794E80F0085E80F00B3
:100330005D4B4846984784465A4D0FCD95F800E0EE
:1003400009EB0C0549F80C006960AA60EB6085F8C0
:1003500010E0BB6B0136B34208EB0615E1DCFB692C
:100360004846002B63D0514B98474FF0E0260025BC
:10037000DFF83CC14F4B6C46CCF8003003464E4A88
:100380004E484F4902604F4A1160D6F8FC2D414655
:1003900042F08072C6F8FC2DDCF800208046156023
:1003A000026866461560A4EB03129546DCF800501F
:1003B00068462A6842F001022A60BA6B424DA8479B
:1003C000D8F80030796A1B68FB6333681A681A60D2
:1003D000FB6B7A6942F82130A5467B6A01337B6268
:1003E000BA69D7F820D09A427FF477AF3C69BE69EA
:1003F0007D693146354B2846984703467B647A6CC5
:100400003146334B28469847B864786C314B98474F
:10041000F864BB6BBA68A5461344BB63BB6BFA6850
:1004200093427FF749AF6437BD46BDE8F08F2A4B52
:1004300098474FF0E0251E4E1E4B6C463360034636
:100440001D4A1E481E4902601E4A1160D5F8FC2D47
:10045000414642F08072C5F8FC2D3268FD69804645
:10046000156002681560A4EB03129546356868466E
:100470002A6842F001022A60BA6B184DA847D8F8E2
:100480000030796A1B683B6433681A681A603B6CF9
:100490007A6942F82130A5469FE700BFACD1080039
:1004A000290E0800ACCF0800DD800800610F0800AD
:1004B000A00A0020001000E0041000E0A40A0020C0
:1004C000FCED00E09C0A002075130800890E08006E
:1004D000D90E0800D95E0800B10F08007D1408008D
:1004E0002DE9F0418AB01021784B06A89847DFF833
:1004F000E0810820C047774C774A4FF400611460D0
:100500004FF4E132754BCDE90421754A754D1A60FF
:10051000754A764B08201A60754B0393C04703A9B0
:100520002046744B98472B68734C98680021A0476D
:100530002B6800215868A0470122704B1A70BFF346
:100540005F8F62B600204FF480716D4B6D4A18606A
:1005500099806D4E90476D4B984735466C4F06AC71
:10056000284654F8042B6B49B8470AABA34205F15F
:100570000805F5D100250920674C86F82050C047B2
:1005800066492920A04765492A20A04763492B20B6
:10059000A04762492C20A04760492D20A0475F4911
:1005A0002E20A0475D492F20A0475C493020A0475E
:1005B0005A493920A04759493A20A04757493B207A
:1005C000A04756493C20A04754493D20A0475349E5
:1005D0003E20A04751493F20A04751492620A0472F
:1005E0004E493320A0474D493720A0474B4934207E
:1005F000A0474B492720A04748494F20A0474849DA
:100600002820A04745494020A04744494120A04711
:1006100042494220A04741494320A0473F49442046
:10062000A0473E494520A0473C494620A0473B49BA
:100630004720A04739494820A04738494920A047CA
:1006400036494A20A04735494B20A047334954201A
:10065000A04732495520A04730495620A0472F498E
:100660005720A0472D495820A0472C495920A04782
:100670002A495A20A04729493520A0472946294A16
:1006800029482A4B984729464FF00C322648284BD8
:10069000984729464FF010122348264B9847294681
:1006A000012541F203022048234B9847234B9847EA
:1006B000234B9847234B9847234B9847234C0F23B2
:1006C0001922FA2132200095A047FEE7291E0800D2
:1006D0000523080000060E4000340020FC330020F3
:1006E000E50108002405002049010800903300209E
:1006F00000D8B80589260800C17808000403002046
:10070000983300201D2508009C010020AD1D080025
:10071000757A0800C0CF0800112008000100000809
:10072000010000100004040400000E40A92308008A
:10073000B5230800C1230800CD230800C51C08000C
:1007400029160800050E0800650B0800790208004C
:1007500070B5084B084A0520D3E900549047074973
:10076000074A04F1C0440C6015604C20BDE870409D
:10077000044B1847403200207D1C0800B00A0020BE
:10078000AC0A0020191F08002DE9F0410E4F01208E
:10079000D7E900450D4EB04710200D4B984774B176
:1007A00007EB040CEC1F0B4DFB1DE41B0CF1070CBD
:1007B000E21813F8010F296863458854F8D13346CD
:1007C000BDE8F04100201847403200207D1C0800A1
:1007D000191F08000003002010B5064A064B04202C
:1007E00054689847054A10201460054BBDE8104036
:1007F000184700BF403200207D1C0800A80A0020D6
:10080000191F080070B5084B084A0220D3E90054AC
:1008100090474C20064B9847294604F1C040054AB2
:10082000054BBDE870401847403200207D1C080091
:10083000191F0800210908005527080042F2273334
:1008400010B5074A14689C4200D910BD4C20054BD6
:1008500098472146BDE81040034A0448044B184716
:1008600040320020191F080021090800B80A0020A2
:100870005527080070B590B969B10F4D0F4A2B6824
:100880000F4C1944206812F801CB00F803C0013363
:100890008B42F7D12B600B4B9847042807D0BDE85B
:1008A00070404FF48061084A0448084B1847084BD1
:1008B00000209847F3E700BFA80A0020002E002080
:1008C00000030020B91C08007508080075270800FF
:1008D0007D1C08000D4A5378122B03D0152B01D034
:1008E0000020704710B50024094B0A4819680068B9
:1008F0009181094990601C608847052801D001203A
:1009000010BD2046054B9847F9E700BFE0330020B3
:10091000AC0A0020B00A0020B91C08007D1C0800A9
:1009200000B1704710B5054B04469847022800D027
:1009300010BD2046BDE81040014B1847B91C080007
:100940007D1C08002DE9F04F374A384B14681B68AE
:1009500056681B1BB34283B003D342F227339C4239
:1009600002D903B0BDE8F08F4C20314B9847002EE0
:1009700040D0304D6B8801339BB20020A4086B80BF
:10098000288049D04FEA840A0127D4462A4B2B4AB3
:100990001B68D2E9004803EB060B294ED2E902E3BB
:1009A000B246002283EAC32384EAD441CDE9000E93
:1009B0005940A14681EA13240BEB0001087824FA80
:1009C00002F3DBB2984202F1080280EA030E18BF7C
:1009D0002F80202A0AF801EB01F10101EED1DDE9B7
:1009E000000E04308445734606F104060FD0C64657
:1009F000C846D5E71349114AD1E90150C2E901506F
:100A0000C868096801230B4D1160D060B5E70B4B36
:100A1000C3E90049C3E9028E04220B490B4B0D6068
:100A20001A6003B0BDE8F08F40320020C001002002
:100A3000191F0800B40A002000030020F02D002038
:100A4000B80A0020E02D0020B00A0020AC0A0020E7
:100A50002DE9F047234C1020D4E90057224B98474A
:100A60006FB9D4E90201214A214BC2E90001C3E96F
:100A70000001D4E90401C2E90201C3E90201AD08A1
:100A80002ED04FF0000CDFF864901A4C4FEA850826
:100A9000D9E90006D9E90252002382EAC22280EA9B
:100AA000D04A8AEA020A864607EB0C018AEA12203B
:100AB00020FA03F2D4F800A00833D2B2202B0AF8AF
:100AC000012001F10101F3D10CF1040CC4452A46C7
:100AD00002D035467646DFE7C9E9000EC9E902656E
:100AE000BDE8F08740320020191F0800F02D0020DB
:100AF000E02D00200003002008B5124A5378103B77
:100B0000082B0AD8DFE803F00B0E1114171A090995
:100B100005000D4B1361012008BD002008BD0B4BE3
:100B20001361F8E70A4B1361F5E70A4B1361F2E72B
:100B3000094B1361EFE7094B9847ECE7084B13614A
:100B4000E9E700BFE03300203D0808000508080081
:100B5000D90708005107080089070800510A080052
:100B60004509080010B5044B04489847BDE81040FB
:100B70000348044B184700BF890B0800D50808003C
:100B8000F90A0800B10B080007490A780F2A01D9B1
:100B900000207047034610B4044C501C087044F801
:100BA0002230012010BC7047C4320020C83200201F
:100BB00007490A780F2A01D900207047034610B46C
:100BC000044C501C087044F82230012010BC7047BF
:100BD0008032002084320020004B1847E11C0800BE
:100BE000004B1847051D0800054B1B7803B97047DB
:100BF00010B5044B9847BDE81040034B184700BFA1
:100C0000C401002019350800211D080038B5012451
:100C1000044D4FF48061044A044B05482C709847FA
:100C2000204638BDC401002075080800752708005B
:100C3000002E00200022014B1A707047C4010020D2
:100C400038B50F4B0F4AD9880F48402928BF40219B
:100C50001278986099818AB10C4C531EDBB2251F23
:100C6000D31A04EB820405EB830501E0AC4205D006
:100C700054F8043D98470028F8D038BD002038BD0E
:100C8000E0330020803200204032002084320020F7
:100C900038B50B4B1A788AB10A4C531EDBB2251FAC
:100CA000D31A04EB820405EB830501E0AC4205D0C6
:100CB00054F8043D98470028F8D038BD002038BDCE
:100CC000C4320020C8320020044B5A78222A03BFC5
:100CD000034A01201A610020704700BFE033002062
:100CE000E50C080010B5224B9B78013B102B0AD86D
:100CF000DFE803F00A161B090909090909090909AE
:100D00000909092D3A0010BD3E201A4B98471A4C8C
:100D1000A0470028FCD0BDE810401020174B184712
:100D20001020BDE81040164B184701220C21154B2E
:100D300015489847154B9847154A53689903FCD4B2
:100D4000136843F0254343F005031360FEE70F4BA0
:100D500098470F4A53689B03FCD4136843F025431C
:100D600043F005031360FEE70A4BBDE81040184747
:100D7000E0330020692208008D220800B12108001C
:100D80000D220800D91D080000080E406534080037
:100D900000120E40AD1C080038B5144C6378172BB8
:100DA0001AD0402B16D14FF0200C114D114B372289
:100DB00093E80300104B85E80300104905F1090092
:100DC00085F808C0984728460D4BA5609847A08134
:100DD000012038BD002038BD40F20110002103225F
:100DE000034BA281A36018809970F1E7E0330020E3
:100DF00000320020CCD10800DD7D0800D8D10800E9
:100E0000DD80080010B5044B04489847BDE8104049
:100E10000348044B184700BF890B0800990D0800D0
:100E2000C90C0800B10B080030B5094B85B01A6831
:100E30000446002A6B4604DD6846064D9200A8472A
:100E400003460FCB84E80F00204605B030BD00BF3D
:100E5000E4D10800F17F080030B5094B85B01A686D
:100E60000446002A6B4605DD00216846054D9200C8
:100E7000A84703460FCB84E80F00204605B030BDDD
:100E8000E4D10800417D08002DE9F843B1F10008E4
:100E900018DD0024051FDFF830900C4F05EB8806A5
:100EA00055F8040FC84701462046B847B5420446E6
:100EB000F6D14046064B9847064B014620469847D8
:100EC000BDE8F8830024F4E7895B0800295A08008C
:100ED000915B0800A15D08002DE9F04F0B1E83B067
:100EE000019328DD15460024A0F1040BDFF84CA087
:100EF000DFF84C80134F144E0BEB83095BF8040FA3
:100F0000D0472946C0470146B84701462046B0476A
:100F1000D9450446F2D101980C4B98470C4B014639
:100F2000204698470B4B98470B4B98470B4B9847DD
:100F300003B0BDE8F08F0024EDE700BF895B080037
:100F4000255A0800395C0800295A0800915B0800FE
:100F5000A15D08001D530800353D08007D590800BB
:100F600008B5114B9847114B1A68431E93FBF2F3D7
:100F7000134493FBF2F3DA00002AACBF114602F1EE
:100F80007F01C91112F0780F18BF013102EBC102C5
:100F90001046002AB8BF02F17F00C01112F0780F8E
:100FA00018BF0130184408BDDD800800E4D10800F6
:100FB00038B5134B9847134B441E1B68124A94FBD9
:100FC000F3F41C4494FBF3F4E00190470F4B984773
:100FD00009A3D3E900230E4DA8470E4B9847421CA6
:100FE000002AACBF134600F18003D811530618BF86
:100FF0000130204438BD00BFEF39FAFE422EE63FF3
:10100000DD800800E4D10800F9520800F13B080037
:10101000215608002D590800002952DD2DE9F04F16
:10102000C0F100088646C24600F17F0983B009EB93
:10103000C113244F244E01930024A046A9F17F053B
:10104000A9F180030AF101001A4613F8011F19B132
:101050000244013488EA02084B45F5D14FF0000BF9
:1010600004E00BF1010BBBF1070F17D048FA0BF3AB
:10107000DB07F6D55846154B98470B4602464FF00E
:1010800080410020B847B0472B5C0BF1010B83F087
:101090000103BBF1070F2B541C44E7D1002C04F0D3
:1010A0000104B8BF6442012C019B08BF09F87F4CC2
:1010B00009F180099945AAF1800ABDD103B0BDE8C4
:1010C000F08F7047593C08002D590800F95208006C
:1010D0002DE9F84F0D46CC018046DFF8ECA0204604
:1010E000D047002D5BDD002708F17F0604EB060EDC
:1010F00002460B46C4463C463D46A6F1800111F827
:10110000010F20B17818A0EB0C00454001348E424D
:10111000F5D18036B6450CF1800C07F18007ECD193
:1011200010461946294B984725A3D3E90023284E9A
:10113000B047DFF8A090C847071E25DD0026DFF87E
:1011400098B002E00136BE421EDA45FA06F3DB072C
:10115000F8D53046D04702460B4600204FF080417C
:10116000D847C84703460028B8BF00F17F0323F0E3
:101170007F0300F07F0043441A5C013682F00102D5
:10118000BE421A541444E0DB002C04F00103B8BF43
:101190005B42012B01D188F80030BDE8F88F0B4B82
:1011A000984707A3D3E90023094CA047DFF8249010
:1011B000C847071EF1DD00242546BFE7AFF30080D6
:1011C000EF39FAFE422EE63FF9520800F13B0800E3
:1011D000215608002D590800593C08002DE9F04F10
:1011E000B1F1000885B030DD174604460026EB4615
:1011F000DFF85CA002F19F095846D0479BE80F003A
:10120000A44684E80F00C6EB466007F11F01A9EB76
:10121000C010A1F12002DCF800305B00CCF80030F7
:1012200012F8015F83F001030DB1CCF80030914258
:10123000F1D1203188420CF1040CEAD10136B045DD
:1012400004F1100407F18007D6D105B0BDE8F08F96
:10125000590E0800F8B5171E2BDD0E46FD01044699
:101260002A460021134B984706EB0716803D043EA3
:10127000254430464FF07F0C05F1010E00220EEBA5
:101280000C010368D340013203F00103202A01F866
:10129000013DF6D1ACF1200CBCF1FF3FA0F1040000
:1012A000ECD1A542A6F11006A5F1800301D01D46A0
:1012B000DFE7F8BD417D08002DE9F041B3F10008FA
:1012C00004460D46164600AF04DD0021274B4FEAC9
:1012D000C81298476B46A3EBC6139D46294668463D
:1012E000234B32469847B6F1010E6D4658BF7F2317
:1012F00008F1FF301ED41946013B0B424FF07F022C
:1013000005EBCE1C05D1591C17D01946013B0B42E9
:10131000F9D004EBC0181CF80260013A08F801602B
:101320005E1C17D1531C00F1FF3007D17F23BEF1A3
:10133000010EE0D2BD46BDE8F08101387E231CF8E5
:10134000026004EBC01181F87F60013A561CEED0B8
:101350001946DBE7511C03F1FF36E8D0334201D1D7
:101360003346F3E719463346D5E700BF417D080011
:1013700055120800F8B505466846A0EBC31000AF4B
:101380001C468546064EB04721466846054B9847A1
:101390006A4621462846044B9847BD46F8BD00BF23
:1013A000B912080019100800DD1108002DE9F843F2
:1013B000B3F1000905460E46904600AF4FEAC91446
:1013C00003DD224600212B4B98476B46A3EBC81345
:1013D0009D4631464246284B68469847B8F1010879
:1013E0006E4658BF7F2309F1FF3C04F1FF3129D439
:1013F0007F2006EBC81E4A1E0A4205D1013B2CD3B2
:1014000011464A1E0A42F9D01EF8004005EBCC11E5
:10141000CC54013B5C1C00F1FF3016D1411C0CF197
:10142000FF3C1FD0511E114211D07E231EF80040F8
:1014300005EBCC1282F87F400138421CDBD1B8F1B9
:101440000108D5D2BD46BDE8F8831146F5E7023A5A
:10145000114205D111467D23EFE70CF1FF3CE1E796
:101460007E23D1E7B8F1010811464FF07F03BFD2C8
:10147000E8E700BF417D080055120800F8B50546B1
:101480006846A0EBC31000AF1C468546064EB04729
:1014900021466846054B98476A4621462846044B34
:1014A0009847BD46F8BD00BFAD130800D110080035
:1014B000DD110800174B1B7833B3174B1B681B68F3
:1014C0001A79824220D930B5144D2B60B3F802C08E
:1014D0009C4463451BD24FF0000E06E01A784FF093
:1014E000010E1344634511D21C465A78042AF5D1E3
:1014F0009A788242F2D1DA788A42EFD1BEF1000FB7
:1015000000D02C60012030BD002070472B600020EF
:1015100030BD00BF14330020103300200C330020F6
:10152000024A034B508800F07F001847E033002048
:10153000E93408002DE9F04100211A4D0446A8477E
:1015400040B3DFF86480D8F800305B6853F824605B
:10155000F368984701462046A8470546D0B1134B8B
:10156000134F1C68D8F80020237812681C44538855
:101570001A44A24206D808E0052B0FD023781C4459
:10158000A24202D96378042BF6D1736898472846A3
:10159000BDE8F08100252846BDE8F081A078B84775
:1015A000E0E700BFB5140800103300200C33002022
:1015B000353508002DE9F041144B0546984710B326
:1015C000134B144E1C68144F316823780A681C446E
:1015D00053881A44A24206D808E0052B0DD0237880
:1015E0001C44A24202D96378042BF6D14B6853F80D
:1015F0002530BDE8F0411B681847A288E178A07843
:10160000B8470028E0D10020BDE8F081B5140800FB
:101610000C33002010330020F9370800014B186804
:10162000704700BF0C330020004B1847A13308005F
:10163000F8B50C4F3B787BB10B4D2B681B681B79C1
:1016400053B100242046094EB0472B6801341B6873
:10165000E0B21B798342F7D80023054A3B70138020
:10166000F8BD00BF143300201033002035150800EA
:101670001633002038B50B4B1B7893B10A4D2B68FD
:101680001A6812796AB100245B6853F824301B6928
:1016900003B198472B6801341968E2B20979914285
:1016A000F2D838BD143300201033002000232DE978
:1016B000F0479C4C82B02288C4E90433B2F5E07F45
:1016C000A38100F0A58094F900202378002A0EDB86
:1016D00013F0600F6BD013F01E0F36D003F01F0312
:1016E000022B00F09D80002002B0BDE8F087E18869
:1016F0000029F8D013F0600FEDD113F01F0240F075
:10170000CB816378062B00F03581082B00F0118225
:10171000DBB9022919D18448844B98477CE0012A1F
:1017200000F08880022A40F089806278012A00F067
:10173000F281032ACFD1E28861880A4392B2002A5B
:1017400000F01E8213F01E0F6AD1A388022B04BF83
:101750000123A380764B1B78002BC4D0754F2579CD
:101760003E6833681B799D423ED3227802F01F0207
:10177000022AB8D1002BB6D00024DFF8BC81254660
:1017800004E03E6833681B79AB42ACD9736853F808
:101790002460F368984701462846C0470028A2D035
:1017A000B36898470134E5B20028EAD09CE713F00B
:1017B0001F02B4D16378013B082BC6D801A252F8AE
:1017C00023F000BF591908004B17080055180800EE
:1017D0004B170800471808004B1708004B17080064
:1017E0004B1708007718080000212846DFF84881C9
:1017F000C04758B1736853F82560F36898470146AD
:101800002846C04710B1B368984728B9237865E7E0
:101810009E214A48454B9847012002B0BDE8F08719
:10182000434B1B78002B3FF45EAF424F3E6833685A
:101830001B799FE762780B2A00F0828113F01E0F5C
:101840007FF451AF81E7E388002B7FF47EAF3C4B00
:101850002361E1E7E388002B7FF477AF6388022BF5
:101860007FF473AF374B984718B12379002B00F002
:10187000E38123782FE7E388002B7FF466AF324BB8
:1018800098470028F5D0DFF8BC90C847DFF8BCA027
:10189000A378002800F06D81DAF80820527C9A4283
:1018A000E7D3DFF88C8098F800307BB1214F3B689C
:1018B0001B681B7953B100252846254EB0473B686D
:1018C00001351B68E8B21B798342F7D80022164B1A
:1018D0001A80A37888F80030002B9DD0C84798F86C
:1018E000003003F10053013BDB00002800F06A8167
:1018F000DAF8102013441A680E4F12793B60002A60
:101900008AD00025134E2B4604E03A6812681279FB
:101910009A4281D918460021B0470135EBB2002820
:10192000F3D1A6E7E0330020163300202935080064
:101930001433002010330020B5140800600200208A
:1019400021150800D93408000935080020030020BB
:1019500035150800B5150800E388002B7FF4F5AEB7
:101960006388012B7FF4F1AE9E4A138823F00203B3
:10197000138051E76288130A013BD5B20E2B3FF664
:10198000E4AE01A252F823F01F1A0800F51908006E
:10199000E71908004B1708004B170800DB1908006F
:1019A000351A08004B1708004B1708004B170800A2
:1019B0004B1708004B1708004B1708004B1708007F
:1019C000C519080021218848884B9847E388A289D7
:1019D0009A427FF621AFA3811EE7854A834BD068E8
:1019E00001789847F2E7032D3FF6AFAEDFE805F048
:1019F0004C4937517F4B98477D4B002800F0D680EB
:101A00009A68527CAA427FF634AF1A69774B52F833
:101A10003500418898470222A3685A70D6E7754B73
:101A20009847002840F0D280714A704B9068017846
:101A30009847CBE76F4B98476D4B002840F0AA8042
:101A40009A68527CAA427FF614AF1A69674B52F823
:101A50003500418898470722A3685A70B6E71321DA
:101A6000654B664E5D18324613F8010B9D4222F815
:101A7000020FF9D14900023160485C4B3170984740
:101A8000A4E715215E4BECE704215E48574B9847CD
:101A90009CE720215C4BE4E7012A14D0022A7FF462
:101AA000CDAE6278002A7FF44DAE02297FF44AAEB3
:101AB0002079564B01919847024655484B4B019966
:101AC00002809847A8E662780A2A7FF4B7AE012917
:101AD0007FF4B4AE4F4A1278002A3FF4AFAE4E4ABC
:101AE0002579166832681279AA427FF6A7AE0021DE
:101AF0002846DFF82881C04700283FF4BAAE736853
:101B000053F82530DB689847024645480121374B9A
:101B10000270984780E6E28861880A4392B2002A00
:101B20007FF410AE20793F4B984700287FF474AEC5
:101B30009FE601297FF409AE36482C4B98476BE6A7
:101B4000E288002A7FF47AAE324A1278002A3FF403
:101B500075AE2579344B28466688984700283FF4AF
:101B600088AE2846314BF1B2984700287FF454AE36
:101B70007FE6DAF80020527C9A42BFF492AE78E613
:101B800020792B4B98472B4B2079984700287FF4DE
:101B900043AE6EE61A68527CAA427FF66AAE5A6875
:101BA000124B52F835004188984754E71A68527C26
:101BB000AA427FF65EAE5A680C4B52F83500418857
:101BC000984728E7DAF80420134494E6102002210D
:101BD000074B064D1A689070D17018680178A847B5
:101BE000F4E600BF163300203C020020293508002F
:101BF00020030020D93408000C020020C801002076
:101C000020020020380200209C01002085350800B9
:101C1000083300201433002010330020B5140800CE
:101C20000A3300205936080035150800B51508009C
:101C3000113A0800B93508000B4B9847A3881B0AD6
:101C4000013B032B3FF615AEDFE803F00B0805025E
:101C5000064B2361E0E5064B2361DDE5054B23617F
:101C6000DAE5054B2361D7E531160800D93A0800BB
:101C7000C13A08009D3A0800793A080038B5084B87
:101C800004469847074B1A782AB901251C70064B61
:101C90009847284638BD0025034B9847284638BD4D
:101CA000751E080018330020B51E08000022014BE5
:101CB0001A70704718330020014B1878704700BF26
:101CC0001833002010B51120044CA0471020A04765
:101CD0002346BDE810404C20184700BFE11E080015
:101CE00010B51120054CA0471020A0474C20A0475C
:101CF000BDE810405320024B184700BFE11E08000A
:101D0000E11F080010B51120034B9847BDE81040B3
:101D10005320024B184700BF191F0800F91F080085
:101D2000C0F3090310B55BB1B3F5007F044603D0DF
:101D3000C4F308043CB110BD1120074B9847F7E7E6
:101D40001120064B9847044C1020A0472346BDE8BD
:101D500010404C20184700BFE11E0800191F080062
:101D600010B54FF060510D4C1120A0474FF060515D
:101D70001020A0474FF060514C20A0474FF0405139
:101D80005320A0475320064B9847BDE810404FF022
:101D900000624FF4C0510348034B1847112008005C
:101DA000F91F0800000C0E40F92008004FF4004213
:101DB00010B5064B064C5A650A20A0470B20A047D9
:101DC0000C20A047BDE81040024B184700120E40FF
:101DD00005230800611D080038B5A1F10E03012B91
:101DE00017D9EFF3108572B6BFF35F8F00230A4C4B
:101DF000C9B22370094B03EA02221143084B41F098
:101E0000B441984725B901232370BFF35F8F62B6B1
:101E100038BD4FF0FF3038BD0403002000FFFF0045
:101E20008D000020FEE700BFF0B5042687B0044611
:101E30000D460F220E210C480C4F02AB0096B847FE
:101E400070B9042D26462A46044628BF042225B12F
:101E50003046074B02A992009847204607B0F0BDD4
:101E60001024204607B0F0BD00080E4001000020FD
:101E7000F17F08000C4B1A6892B9EFF3108169B931
:101E800010B472B6BFF35F8F0120084C084A21706E
:101E900010701A6801321A6010BC704704490A7049
:101EA0001A6801321A6070471C33002004030020B6
:101EB00019330020074B1A68013A1A601B6843B9AE
:101EC000054B1B782BB10122044B1A70BFF35F8FB7
:101ED00062B670471C330020193300200403002031
:101EE00070B50546094C04F118062368AB4203D0CF
:101EF0000834B442F9D170BD63682846012B044A06
:101F000001D09047F4E7034B9847F1E7E8D1080088
:101F1000E11F0800F91F080070B50546094C04F1DF
:101F200018062368AB4203D00834B442F9D170BD1F
:101F300063682846012B044A01D09047F4E7034B1D
:101F40009847F1E7E8D10800F91F0800E11F0800F1
:101F5000F8B5124B04460E469847114B05462046ED
:101F60009847054019D00F4C04F160072368B3422D
:101F700005D0BC4211D023691034B342F9D1616855
:101F80002942F6D0E368304698476368BC4225EAA8
:101F9000030502D01034002DE8D1F8BDD91F080088
:101FA000DD1F0800203300200A210148014B18479B
:101FB000000C0E40511F08000B210148014B18472F
:101FC000000E0E40511F08000C210148014B18471C
:101FD00000100E40511F0800C06C7047806C7047A5
:101FE0000122430903F5001303F2067300F01F00FA
:101FF0005B0282401A6370470122430903F5001314
:1020000003F2067300F01F005B0282405A637047C0
:10201000430903F5001301F0F04203F20673B2F135
:10202000205F4FEA432336D016D8B2F1006F43D079
:10203000B2F1805F15D1012200F01F0082405A6486
:10204000186FC90740EA020018675A604FF0010094
:102050004CBF5A661A66704701F0E042B2F1405F29
:1020600001D000207047012200F01F008240C80705
:102070005A6401F0605C4CBF5A661A6649074CBF4F
:102080001A655A65BCF1605F0CBF1A635A63012080
:102090001A611A607047012200F01F008240C807D1
:1020A0005A644CBF5A661A6611F00A0F18D15A6268
:1020B0005A6101201A607047012210B400F01F001D
:1020C00082405A64186F1C6F204020EA0200186793
:1020D000C8075A604CBF5A661A66012010BC704788
:1020E00088071A6248BFC3F88020E1D4090748BFB7
:1020F000C3F88420DCE700BF02F0F043B3F1205FB7
:102100002ED011D8B3F1006F37D0B3F1805F10D16A
:102110004164036FD20743EA0103036741604CBF88
:10212000416601660120704702F0E043B3F1405F71
:1021300001D00020704712F0010F416402F060539B
:1021400014BF4166016652074CBF01654165B3F19A
:10215000605F0CBF01634163016101600120704752
:10216000D30741644CBF4166016612F00A0F14D1D7
:102170004162416101600120704710B44164036F06
:10218000046F234023EA0103D407036741604CBF77
:102190004166016610BC012070479307016248BF89
:1021A000C0F88010E5D4130748BFC0F88410E0E7FA
:1021B00015490B6B23F0030343F001030B638B6E94
:1021C0001B0758BF4FF4006302D504E0013B16D053
:1021D0008A6E1207FAD50C490B6B23F07003034388
:1021E0000B63886E10F0080008BF4FF4006302D044
:1021F00007E0013B03D08A6E1207FAD57047012031
:1022000070470020704700BF00040E4015490B6B5B
:1022100023F0700303430B638B6E1B0758BF4FF40F
:10222000006302D504E0013B17D08A6E1007FAD58F
:102230000C490B6B23F0030343F002030B63886E1E
:1022400010F0080008BF4FF4006302D007E0013B24
:1022500003D08A6E1207FAD570470120704700201C
:10226000704700BF00040E40074A0302116A9BB288
:1022700021F003010B4343F45C1343F001031362A9
:10228000936EDB07FCD5704700040E40024B986E3E
:1022900000F00100704700BF00040E40024B986E32
:1022A00000F48030704700BF00040E40084B1B6AEA
:1022B00030B1074A43F0807343F45C1313627047F4
:1022C000034A23F0807343F45C131362704700BF2A
:1022D00000040E404FF00052014B9A62704700BF5D
:1022E00000040E40024B986E00F00200704700BFE1
:1022F00000040E40024B986E00F04000704700BF93
:1023000000040E401D2809D80123054983408A692D
:10231000002033EA020218BF0B61704701207047AA
:1023200000040E401D2809D80123054983408A690D
:10233000002033EA020208BF4B617047012070475A
:1023400000040E40034BC0F312001A6F10431867CD
:10235000704700BF00040E402DE9F041A0B9002AEB
:1023600090460DDD0C460A4F0A4E8D1821463868FE
:10237000336801349847AC42F8D14046BDE8F0815B
:1023800080464046BDE8F0814FF0FF38F5E700BFDA
:102390000034002090330020024B187880F00100B8
:1023A000704700BF9433002001EB810100EB8100F6
:1023B0000267704701EB810100EB810042677047C3
:1023C00001EB810100EB81008267704701EB810125
:1023D00000EB8100C0F88020704700BF08B51848A6
:1023E000184B83420AD0184A904207D2013A121A77
:1023F00022F0030219460432144B9847144A154B35
:10240000934208D2013AD21A22F003021846002160
:10241000114B04329847114B114923F0604203F1EC
:10242000604322F07F02B3F5404F8A6003D28B688D
:1024300043F000538B600B4B98470B4B9847FEE7DC
:1024400000000020B4D40800800A0020F17F0800BA
:1024500018370020800A0020417D08000000080095
:1024600000ED00E0117F0800E10408000C4A03467B
:1024700010680C4930B103448B42CCBF4FF0FF30A1
:102480001360704710B4084C23448B421460D8BFCB
:1024900013602046C8BF4FF0FF3010BC704700BF2C
:1024A000A0330020FC3F0820003008204FF0FF3010
:1024B000704700BF4FF4005300204B60704700BFCF
:1024C0000120704700207047014608B50148024BC3
:1024D0009847FEE7C8CF08008D5F0800704700BF2F
:1024E0004FF0FF30704700BF10B53E20074B9847B4
:1024F000074CA0470028FCD04FF47102054B064C56
:10250000DA61A0470028FCD010BD00BF6922080096
:102510008D22080000040E40F522080070B5124814
:10252000124DA8473E20124B9847124CA047002856
:10253000FCD04FF08070104B9847104CA0470028FB
:10254000FCD00F4B98470F4B0F4A104C9A62A04794
:102550000028FCD00E4B102098470E4B98472B4676
:10256000BDE870400048184700D8B8053101002088
:10257000692208008D220800AD2208009D22080073
:10258000D522080000040E40013F0F20E52208007C
:102590000D22080099250800334A136B03F003034A
:1025A000012B2ED0023B012B18D8136AD9013CD540
:1025B0002E482F4B03602C4A136B03F00303022BAE
:1025C00040D02C4B28490A6B02F07002702A12D0BE
:1025D0000A6BC2F30212D34003607047264B5B6A5A
:1025E0001A061ED520494FF400430A6B1F4802F01B
:1025F0007002702AECD1214AA2FB03235B0803601E
:102600007047136ADB0109D4136A03F07003102BBF
:1026100023D0202B02D01A4B1448D3E7144B134875
:10262000D0E74FF4FA431148CCE7154B0F4803604D
:10263000136A03F07003102B12D0202BBBD10C4B6C
:102640000360B8E7916A0368C1F30A4101FB0333F1
:10265000926AD2B2B3FBF2F3B4E70A4B0348B1E794
:10266000084B0360A7E700BF00040E4008030020EA
:10267000001BB700001C4E0E00120E40ABAAAAAA07
:1026800000093D0000127A00AC2303600246D1E944
:102690000030B3FBF0F34FF6FE7C1B09581E60457B
:1026A0000CD830B440F20225502413628B6800200D
:1026B0005360C2F82051146030BC7047012070474D
:1026C00003464269920746BF0020D9610120704746
:1026D0004369DB0743BF836900200B70012070470B
:1026E000014B1878704700BFA4330020064B10B58B
:1026F0009847064AC37813700BB1012010BD044BF4
:10270000BDE81040184700BF1D160800A433002084
:102710000D0C0800024B1B7803B17047014B1847A2
:10272000A4330020350C0800074B1B7803F060022F
:102730001B0603D4402A05D000207047402AFBD155
:10274000024B1847024B1847E0330020910C080059
:10275000410C080030B58446154683B00B466246EE
:102760000021034C00958120A04703B030BD00BF7D
:102770001D37080030B58446154683B00B466246C7
:102780000021034C00950220A04703B030BD00BFDC
:102790001D37080090F814C003461CF0010F16D036
:1027A00030B404682CF0010C80F814C06CB1084DF2
:1027B000084602F1080149016958090748BF42F07B
:1027C00080029968234630BC184730BC7047704778
:1027D00000400A402DE9F043431E674C03EB4301E0
:1027E00004EBC10191F814C01CF0010F37D0024670
:1027F000D1E90250A8424FEA430632D02D1AB5F56E
:10280000803F4FEA421C44D80CF1402E0EF5202E9A
:10281000DEF800812F0418F0080F7BD0DEF800816D
:102820004FF0080E08F007080EFA08FE0EF1FF3E02
:102830001EEA050F7DD091F814E047F029072EF02D
:10284000020E81F814E037E04FF400644FF4807317
:102850004A48C1F804419340026913430361BDE84B
:10286000F0834FEA421C0CF1402101F52021D1F800
:102870000001050705D5F01804EBC000007D8007B6
:10288000E2D4F01804EBC0000021BDE8F0433C4B5B
:1028900018470CF1402101F52021D1F8007117F003
:1028A000080731D1D1F8005105F03005102D5DD069
:1028B0004FF4803547F0350706EB030E04EBCE0EE0
:1028C000DEF8041008442F4901EB02114860EFF3D1
:1028D000108872B6BFF35F8F4FF000092A4880F866
:1028E0000090D1F80C9019F0100F25D0B8F1000F1E
:1028F00004D101210170BFF35F8F62B6F11804EBC0
:10290000C101C8688860AEE721274FF48035D1F84F
:102910000011D1E7DEF8001101F030011029C9D112
:10292000DEF8001101F0070E082101FA0EF1A942AC
:10293000C0D247F02107BFE74FF000728F6002FA64
:1029400003F3DEF80C20CEF810502A44CEF80C2009
:102950000A4A11690B431361B8F1000F7FF47FAF8E
:1029600001230370BFF35F8F62B678E74FF48035C1
:10297000D1F80011DDE700BFA833002000400A4075
:102980009527080000430A40040300202DE9F04782
:10299000EFF3108372B6BFF35F8F00204FF48061B6
:1029A000594D5A4A2870C2F8081123B901232B70D7
:1029B000BFF35F8F62B6DFF8588198F80030032BC1
:1029C00065D0544F544E3B88B489E41AA4B2002C0D
:1029D00039D0DFF848913F2C4CD900224024B06810
:1029E00089F80020EFF3108672B6BFF35F8F0022E4
:1029F0002A70464AD2F81C2192053DD46CB1184485
:102A00000346C3F1005C20440CF5C01C03EB0C0230
:102A100013F8011B98421170F8D13A884FF4806185
:102A200022443A804FF40062384BC3F81811C3F8BF
:102A30001421C3F8041126B901232B70BFF35F8F53
:102A400062B6BDE8F0873649F0880A881A4492B227
:102A500090420A8040D0DFF8C49099F800A0BAF103
:102A6000000F39D172692AB19047002848D101225C
:102A70003B88B4E70122B2E726B901232B70BFF3EC
:102A80005F8F62B6042388F80030BDE8F087224EDD
:102A9000336903B19847EFF3108372B6BFF35F8FCA
:102AA00000204FF48061194A2870C2F8081123B938
:102AB00001232B70BFF35F8F62B64FF40071134A8E
:102AC0000020C2F8181100210023C6E90401B381D7
:102AD00088F80030BDE8F087042388F80030EFF371
:102AE000108172B6BFF35F8F4FF480420020074B16
:102AF0002870C3F81821C3F804210029A1D19BE74D
:102B00003C805346B48966E70403002000400A4035
:102B1000DC330020D8330020E0330020A533002030
:102B2000DA3300202DE9F047A24B1D209847A24B35
:102B3000984728B9A14B5B6913F0020300F09D8010
:102B40009E4B5A69150700F189805A69500700F1B8
:102B50008E80D3F81C215969C90521D54FF48040D6
:102B60004FF40041D704C3F80801C3F8081100F17D
:102B7000B180560504D5D3F80C315D0500F15B82B8
:102B8000940500F15381900404D54FF400518B4B10
:102B9000C3F81811110400F17B81530400F1D380B4
:102BA00001234FF000774FF480780224834A15699F
:102BB00003F1FF3C07FA0CF10D42804803F1010ECE
:102BC0005FFA83F902EB431603D05569294240F0BE
:102BD000CF80116908FA03F5294216D0D6F80C11F6
:102BE0005B0111F4006F034405D0D6F81C1111F4F9
:102BF000006100F03D83D3F80C114E0305D5D3F8E6
:102C00001C1111F4402100F0F380BEF1030F4FF0CE
:102C10000203CCD169494D6915F0100540F085815A
:102C20000B69980733D54B699A0730D520238B6100
:102C30000B69634A23F002030B610B691D2043F00B
:102C400020030B618C6190475E4B98475E4A137876
:102C5000002B40F0C6820023137013E008229A6113
:102C60005B69DC0710D5BDE8F047584B18470421D5
:102C70009961574ABDE8F047104772B6BFF35F8FBE
:102C8000544A1370BDE8F087514B9847EBE74B4B24
:102C90005B699B06F6D54C4A1378002B00F08282C4
:102CA000022401252020454B15709C6198611A690A
:102CB000494922F020021A611A6922431A611A69ED
:102CC00042F008021A611A6942F004021A61BDE872
:102CD000F0470847414C237813B3414E336903B1A1
:102CE0009847EFF3108272B6BFF35F8F00214FF465
:102CF0008060384B19703149C1F8080122B90122AE
:102D00001A70BFF35F8F62B64FF400722B4B002036
:102D10000021C3F818210023C6E90401B381237000
:102D2000264A304BD2F81C110B40B3F5000F00F0CF
:102D3000C280052020214FF480532070C2F8141166
:102D4000C2F818319EE74FF480431C4AC2F818318C
:102D5000D2F81C3113F4007394D120480178012972
:102D600000F0538204298DD12023C2F8143189E761
:102D700000F5407000EB0313D868C70782D41069D0
:102D800020EA01011161DA68120C0ED016480CEB32
:102D90004C0100EBC101C968CCF1000303F018033A
:102DA00008338A1AC25003445A604846BDE8F047C7
:102DB0000E4B1847052308009923080000400A40DD
:102DC00025230800D90B0800F8330020E90B080080
:102DD0007516080004030020E10B0800DC33002016
:102DE000E03300200000F07FA8330020D527080042
:102DF0004FF4802220264024C3F8082102690CEBFE
:102E00004C0C22EA05020261B24A02EBCC02107DB0
:102E100061F382001075D3F8082122F00202C3F892
:102E20000821C3F81461C3F818412BE7AA4C237892
:102E3000012B00F00481022B00F03981042B00F0FB
:102E4000368105212022A54BA54E2170C3F81421FF
:102E5000EFF3108272B6BFF35F8F00214FF48060F2
:102E6000A04B19709D49C1F8080122B901221A70BE
:102E7000BFF35F8F62B64FF40071984A0023C2F827
:102E8000181100200021B381C6E904012370F9E67E
:102E90004FF40042914BC3F81821D3F81C2152057E
:102EA0003FF5F0AE8C4A1278032A7FF4EBAE202275
:102EB000C3F81421E6E68C4A8C4B8D481946013341
:102EC0000978834202F8011FF8D18A4B98470028FD
:102ED00000F0F4804FF48051804B814AC3F8181100
:102EE00092F900100029C0F27181D288002A00F006
:102EF000AD81002201254FF480417F48257002807A
:102F00007E480280C3F81811EFF3108472B6BFF345
:102F10005F8F74480270C3F80411002C7FF4B2AEC6
:102F20000570BFF35F8F62B6ACE61022694C237D5B
:102F30008A6113F001020DD0256823F00103237587
:102F400045B1D1F82031012013F0080F18BF8122BC
:102F5000A168A84794F82C30DD0710D5A56923F0A7
:102F6000010384F82C3055B15C4B0120D3F840317B
:102F7000216A13F0080F0CBF02228222A847604B7F
:102F800098470120554B1A6822F07F021A601A6890
:102F900042F080021A60D3F800216FF3090242F078
:102FA0004302C3F80021C3F80401EFF3108472B6A2
:102FB000BFF35F8F4FF4805200254A490D70C3F86C
:102FC00004214FF40072C3F804211A6942F480729C
:102FD0001A611CB90870BFF35F8F62B6EFF31083FC
:102FE00072B6BFF35F8F00244FF480603B4A0C70D1
:102FF000C2F8080123B901230B70BFF35F8F62B6DB
:103000000026002700214FF40074354A334BC2E9F3
:1030100004673148C3F81841017091811A6942F080
:1030200008021A611A6942F004021A611A6942F030
:1030300002021A6126E6334BBDE8F0471847274BDA
:103040002E4FD3F81C51264EB7F800C0B389C5F3F4
:103050000A550CEB05029342B8BFA3EB0C03B26810
:10306000B8BF9DB262447DB1204B18460133007851
:10307000D9B2A94202F8010BF7D3AC441FFA8CFC79
:10308000402DA7F800C067D07369A6F80CC0002BCC
:103090003AD09847002837D1052020214FF40072FC
:1030A0000E4B2070C3F81411C3F81821EAE50C4E3A
:1030B0003369002B3FF4CCAE9847C9E605202021A8
:1030C0004FF48052054B2070C3F81411C3F8182137
:1030D000D8E500BFA8330020DC33002000400A40C0
:1030E000E033002004030020DF330020000018201C
:1030F00008001820AD160800DA330020D83300206D
:10310000311608008D2908004FF400710322684B26
:10311000C3F818112270EFF3108472B6BFF35F8FFB
:10312000002564484FF4806105704FF400424FF46D
:103130000065C3F81811C3F81451C3F80411C3F89B
:103140001821C3F80421002C7FF49CAD01230370E7
:10315000BFF35F8F62B695E5574DF2882B886344C5
:103160009A4291DDB389634500F093804FF400717A
:103170004FF480424E4BC3F81811C3F81821EFF3F7
:10318000108072B6BFF35F8F00244A490C70C3F8F9
:10319000042100287FF476AD01230B70BFF35F8F0D
:1031A00062B66FE5EFF3108472B6BFF35F8F4148EC
:1031B000424903708B7801338B70002C7FF470AD23
:1031C00001230370BFF35F8F62B669E5002302211C
:1031D000394D3B482B80038021703A4ABDE8F047C7
:1031E0001047EFF3108472B6BFF35F8F3148334955
:1031F00005708B78013B8B70002C7FF42CAD012384
:103200000370BFF35F8F62B625E503240470EFF30C
:10321000108572B6BFF35F8F264C4FF48060237029
:103220004FF400664FF40043C2F81801C2F814616D
:10323000C2F80401C2F81831C2F80431002D7FF43D
:1032400021AD2170BFF35F8F62B61BE503212170B2
:10325000EFF3108472B6BFF35F8F4FF480611548AF
:103260004FF4006502704FF40042C3F8181162E792
:103270004FF400641448CCF1000303F01803C6F8BF
:103280000841C6F814414A46BDE8F04718440F4BC0
:1032900018477369002B3FF4FFAE984700283FF4AE
:1032A000FBAE00222B8839883A800B442B805DE7E7
:1032B00000400A4004030020DA3300209833002045
:1032C000D83300208D290800A83300209527080056
:1032D0002DE9F041EFF3108672B6BFF35F8F002146
:1032E000294B2A4C1A782170002A3BD00125284A04
:1032F0001D201D704FF00808904702274FF0040E64
:103300004FF0100C2021234B1D201A6842F400625C
:103310001A601A6822F400721A601A6942F01002E8
:103320001A611A6942F002021A611A6942F0200217
:103330001A611A6942F008021A611A6942F004021D
:103340001A61C3F81880144AC3F818E0C3F818C00B
:103350009F61996190471EB92570BFF35F8F62B678
:10336000BDE8F081EFF3108072B6BFF35F8F0B49B9
:1033700022708A7801328A700028B7D10122227027
:10338000BFF35F8F62B6B1E7F8330020040300207B
:103390000523080000400A40252308009833002038
:1033A000F8B5264B9847264B1D209847EFF310861B
:1033B00072B6BFF35F8F00254FF0500E4FF00057ED
:1033C000204A214C92F814C0204B2CF0050C82F8B6
:1033D00014C092F82CC025702CF0050C82F82CC07B
:1033E0001A681B4942F480721A6081F81DE30F606D
:1033F000D3F8E0204FF4802022F00302C3F8E0204D
:10340000144B9847144B1D70EFF3108172B6BFF345
:103410005F8F124A2570D3780133D37021B901230D
:103420002370BFF35F8F62B60D4B984726B9012317
:103430002370BFF35F8F62B6F8BD00BFE9240800B8
:1034400005230800A83300200403002000400A40A0
:1034500000E100E045230800F83300209833002005
:10346000D132080010B5164B1D209847154B1D2072
:103470001A68154942F400721A601A6822F4006250
:103480001A608847114B1A7812B900221A7010BDC1
:10349000EFF3108472B6BFF35F8F4FF0000C0C494E
:1034A0000C488A78013A8A7080F800C0002CECD170
:1034B00001220270BFF35F8F62B600221A7010BD46
:1034C0000523080000400A4025230800F8330020A7
:1034D0009833002004030020024B586900F00100DB
:1034E000704700BF00400A40064B1A6822F0800275
:1034F0001A601A6860F306021A601A6842F08002C5
:103500001A60704700400A40024B186800F07F00C4
:10351000704700BF00400A40024B5868C0F3CA0021
:10352000704700BF00400A40014B98609981704786
:10353000E033002000F00F02022A00D97047012179
:10354000530170B503F1402505F520252B46C5F83C
:103550000811D5F80051501E084C00EB400004EB58
:10356000C00425F0C005C3F800512046044EB04702
:10357000237D23F00403237570BD00BFA833002012
:103580009527080000F00F00430103F1402303F5E5
:103590002023D3F81C319B0609D4064B00EB4000D6
:1035A00003EBC00313F8040CC0F380007047012044
:1035B000704700BFA833002000F00F03022B2BD868
:1035C00030B5234D590105EB431EDEF81C21920650
:1035D00020D4204C5A1E02EB420204EBC20C9CF891
:1035E000144014F0040215D114F0010F16D1020694
:1035F00016D44FF40054202001F1402303F520237A
:10360000D3F8082122F00202C3F80821C3F81841B8
:10361000C3F81401012030BD00207047104630BDB2
:10362000DEF81C2112F4402FE3D04FF480204FF439
:10363000807244F004018CF8141005EB4311C1F8BA
:103640000401296902FA03F30B432B61E2E700BF8F
:1036500000400A40A833002000F00F00022857D88D
:1036600070B5411E2B4C01EB410304EBC3031D7DE0
:103670004A006D0725D54FF480264FF4807C1D7DD0
:103680000CFA00FC25F004051D75234D430105EBE4
:10369000401ECEF80861286920EA0C002861DEF897
:1036A0001C01850616D4531804EBC302117DDB0000
:1036B000C80704D521F00101E3581175984701208E
:1036C00070BD430103F1402000F52020D0F81C011B
:1036D0008006F4D503F1402000F52020D0F81C51DD
:1036E000AE0406D54FF40055C0F818514025C0F877
:1036F0001851202503F1402000F520200346C0F892
:103700001851D0F8040140F00200C3F80401CAE7E0
:1037100000207047A833002000400A4000F00F004E
:10372000022860D82DE9F0414FEA401C0CF1402CF2
:103730000CF5202CDCF80C41E50751D5DCF81C41D8
:10374000A4064DD4461E294D06EB460C05EBCC0CC9
:103750009CF814E074001EF0040E41D1EFF31088C1
:1037600072B6BFF35F8F224F87F800E09CF814E039
:103770001EF0010F2CD19CF814E04EF0010E8CF8D5
:1037800014E0B8F1000F06D14FF0010C87F800C02B
:10379000BFF35F8F62B63444069E05EBC40C45F858
:1037A0003460CCF8042000246246002B08BF41F0AE
:1037B000010142F8104FCCF8083013790D4D61F338
:1037C0004103CCF80C401371A8470120BDE8F081FB
:1037D000B8F1000F04D101233B70BFF35F8F62B6D5
:1037E0000020BDE8F0810020704700BFA833002012
:1037F00004030020D52708002DE9F04F00F00F0446
:10380000022C83B000F2D080650105F1402303F55E
:103810002023D3F80C31DE0700F1C68001F0030647
:10382000012E00F0C580023E012E00F2BD8002F4A0
:10383000C0539FB2002B40F0B7803E4605F14025B3
:1038400005F52025D5F800310901C00923F47F7C56
:10385000B2F5806F01F030014FEAC0002CF0030C8C
:1038600080F0B780082A38BF08225300013BB3FA22
:1038700083F3C3F11C030FB141EA06214CEA0002B5
:103880000A43134343F04003C5F80031D5F8003133
:10389000002B80F28980012702234FF00008594E47
:1038A000C5F8047106EB4310D0F80C115D1EC90772
:1038B0004FEA431216D502F1402202F52022D2F837
:1038C00000115B00C1F38111C0F8087101FA03F324
:1038D00048EA0308D2F800311FFA88F823F0C00341
:1038E000C2F80031EBB29C42DCD9474E04EB4405F0
:1038F000012706EBC50505E00134E3B2032B05F112
:10390000180568D004F1FF39630009EB490C48FA47
:1039100003F306EBCC0013F0030200F110015FFA91
:1039200084FB4FEACC0CE7D0007D6301824603F1B3
:10393000402303F52023D3F800E12AF0010A2EF0FA
:10394000C00E4EEA8212C3F80021C3F80471D3F806
:10395000002100F00100002A4FEA490E81F804A07E
:103960003DDAD3F8042142F00202C3F80421002812
:10397000C2D055E903E255F8103C55F814CC134475
:10398000AEEB020245F80C2C0979624455F818CCCC
:103990005846CDF800C0A3EB0E03DFF870C0C1F3AA
:1039A0004001E0470028A7D1002003B0BDE8F08F18
:1039B00002F4C053002C3FF43CAFB3F5006F0CD0C1
:1039C000B3F5805F08BF032622F4C052012792B2EC
:1039D00034E707234FE70120E7E70226F4E756F82C
:1039E0000C405846002CDFD0D3F80031CE441B07E2
:1039F00048BF4BF0800006EBCE060246F16801207E
:103A0000A047D1E700400A40A83300201D37080036
:103A10000021164B00F00F0203EB021310B4996063
:103A200001060AD4124C1348531E03EB430300EB68
:103A3000C3000121234610BC1847510101F1402168
:103A400001F52021D1F81C3113F4402FEAD04FF4B6
:103A5000007401F58A700460D1F81C319B05FBD419
:103A6000D1F81C3113F4402FF5D1DBE700430A40B5
:103A700095270800A8330020074AD2F8E03023F049
:103A8000030343F00203C2F8E030D2F8E03043F021
:103A90000403C2F8E030704700400A40074AD2F8F9
:103AA000E03023F0030343F00203C2F8E030D2F821
:103AB000E03043F00803C2F8E030704700400A40AD
:103AC000044AD2F8E03023F0030343F00203C2F8C3
:103AD000E030704700400A402DE9F0418EB06D465D
:103AE0004FF00108EC46204E204F0FCE0FC50FCEF1
:103AF0000FC50FCE0FC596E8030045F8040B2970DB
:103B0000C7F80881D7F80031CCF1005E6FF30903E4
:103B100043F06B03C7F80031C7F80481D7F8E030F1
:103B20000DF1350423F0030343F00203C7F8E0303E
:103B3000D7F8E0300EF5C01E43F01003C7F8E030B0
:103B40000CEB0E031CF8012BA4451A70F8D14FF4AE
:103B500080614FF40062054BC3F81811C3F81421BB
:103B60000EB0BDE8F08100BF00D2080000400A405E
:103B700003464269920743BFC1F308010020D9619F
:103B8000012070474369DB0705D583690020C3F333
:103B900008030B6070470120704700BF431E022BD3
:103BA0001ED82DE9F0411746C2B10D4614460E4EFF
:103BB000DFF8388002E0631E0CD01C463068D8F86D
:103BC000003015F8011B98470028F4DA4FF0FF3059
:103BD000BDE8F0810137381BBDE8F0811046F7E7FA
:103BE0004FF0FF30704700BF00340020FC3300204E
:103BF000F8B504460D4600F0BFF9224606460F46CA
:103C00002B462046294601F07BFE98B9002200236E
:103C10002046294601F06AFE60B9002200232046B2
:103C2000294601F03BFE40B104F06CF92223002646
:103C3000074F036030463946F8BD04F063F921228E
:103C4000034604481A60BDE8F84000F0A1B800BF80
:103C50000000F0FFE0CF08002DE9F84314461D46B0
:103C60008046894600F060FB224606460F462B46FA
:103C70002046294601F044FE78B900220023404640
:103C8000494601F00BFED8B1002200232046294608
:103C900001F004FE28B10026254F30463946BDE824
:103CA000F8832046294600F06DF80028F5D020461C
:103CB00029460022002301F0FBFD0028EDD02CE076
:103CC0003046394600F05EF8A0B1002200233046AD
:103CD000394601F0E3FD0028DFD04046494600F0B8
:103CE00051F80028D9D02046294600F04BF800288A
:103CF000D3D012E04046494600F044F80028E4D012
:103D00002046294600F03EF80028DED032463B46E9
:103D10003046394601F0F4FD20B904F0F3F82223CF
:103D20000360BAE704F0EEF821230360B5E700BFB3
:103D30000000F03FF8B504460D4600F02FF822468B
:103D400006460F462B462046294601F0D9FD30B9DC
:103D5000204629460022002301F0AAFD10B9304672
:103D60003946F8BD04F0CEF800220023212101607D
:103D70001046194601F054FC06460F4630463946B7
:103D8000F8BD00BF41F0004000F58010C00F704743
:103D900000200149704700BF0000F87F734A2DE9F9
:103DA000F84F8A4306460F4600F0AC8000290C46C7
:103DB000034655DD081562D0C4F31302C107A0F213
:103DC000FF3742F4801203D4520002EBD3725B003F
:103DD000002616244FF40011B446520002EBD372B1
:103DE0007F105B000CEB010090424FEAD3754FEA65
:103DF000430303DC00EB010C121A0E44013C05EBFB
:103E000042024FEA5101EDD120254FF00040A0467B
:103E10000AE043D0510001EBD371013D0A464FEA5D
:103E200043034FEA500045D0624500EB080EF0DD39
:103E3000BEF1000F0EEB00080CDBE146A2EB0C011B
:103E4000CC469E4588BF01F1FF314900A3EB0E032C
:103E50000444E0E7B8F1000FEFDB0CF10109EDE7F6
:103E600021F00042024344D000296ED1DA0A153C09
:103E70005B05002AFAD0D602204673D414460022ED
:103E80006400E502114602F10102F9D5C2F12005F4
:103E900023FA05F52C439340401A8DE79E4502D93D
:103EA0004FEA4C01B7E7BEF1000F0EEB000822DB32
:103EB0000021CBE7194312D0DFF8B4A0DFF8B4B08B
:103EC000DAE90001DBE9002301F0C8F8DAE900894A
:103ED00002460B464046494601F0F4FCE0B965084D
:103EE000731003F17F5303F5001303EB075145EA09
:103EF000C670BDE8F88FB8F1000FD9DB00210CF1D6
:103F0000010CA3E702460B4601F060FA32463B463D
:103F100001F0A6F8BDE8F88FB4F1FF3FDAE900013F
:103F2000DBE900231AD0DAE9008901F099F80246AA
:103F30000B464046494601F0BBFC88B1A31C04F186
:103F4000020508BF01366D08CAE702460B4601F0BC
:103F500085F802460B4601F063FBCAE70136BFE76E
:103F60000134BCE74FF0FF31144695E70000F07FC5
:103F700040D2080038D208002DE9F04FB1F5801F7B
:103F800002460B460E4687B080F2858021F0004540
:103F9000054300F021810029C0F261810022DC4B41
:103FA00001F014FA0E460B46DA496FF035048E42E2
:103FB000024674DC4FEA2658C6F3130606F51521AF
:103FC000A8F2FF3801F6647101F48011A04408EBF7
:103FD000115881F07F5181F4401141EA06031046E7
:103FE00019460022CC4B01F039F8B31CC3F313037C
:103FF000022B82468B464FF0000257DC002301F073
:104000004DFC002840F0F180ADA3D3E900235046D9
:10401000594601F0DBF902460B460020BF4901F08A
:104020001DF8524604460D465B465046594601F07F
:10403000CDF902460B462046294601F0C7F9044651
:104040000D46B8F1000F00F00181404601F054F92F
:10405000804689469CA3D3E9002301F0B7F99CA3CD
:10406000D3E9002306460F464046494601F0AEF923
:1040700002460B462046294600F0F0FF52465B46BA
:1040800000F0ECFF02460B463046394600F0E6FFF2
:1040900007B0BDE8F08F9F4900248E428ADD1046AC
:1040A000194600F0DDFF07B0BDE8F08F4FF0804308
:1040B00000F0D6FF02460B465046594601F0B0FAD2
:1040C000044640460D4601F017F922462B46CDE93D
:1040D000040120462946CDE9024501F077F9024660
:1040E0000B46CDE9002301F071F97BA3D3E900234E
:1040F00004460D4601F06AF979A3D3E9002300F0E4
:10410000AFFF22462B4601F061F977A3D3E90023E4
:1041100000F0A6FF22462B4601F058F974A3D3E91C
:10412000002300F09DFFDDE9002301F04FF972A3A9
:10413000D3E90023CDE900012046294601F046F9E4
:104140006FA3D3E9002300F08BFF22462B4601F03A
:104150003DF96DA3D3E9002300F082FF22462B46F0
:1041600001F034F90B460246DDE9000100F078FF6A
:10417000A6F5C227C6F5D723A7F27A4751333B43AA
:10418000002B06460F464DDD0022644B5046594633
:1041900001F01CF952465B4601F018F904460D4641
:1041A0003046394622462B4600F05AFFDDE902230D
:1041B00001F00CF906460F46B8F1000F56D1024641
:1041C0000B462046294600F049FF02460B46504662
:1041D000594600F043FF66E70022002300205049C3
:1041E00001F01EFA07B0BDE8F08FB8F1000F62D001
:1041F000404601F081F834A3D3E9002306460F4678
:1042000001F0E4F832A3D3E9002304460D4630461A
:10421000394601F0DBF802460B462046294600F0FD
:104220001FFF40E702460B465046594600F016FF76
:10423000DDE9022301F0CAF804460D46B8F1000F8B
:1042400004D0DDE904894046494603E722462B466F
:104250005046594600F002FF07B0BDE8F08F00F06D
:10426000FDFE0022002301F0DBF91CE7DDE904017B
:1042700015A3D3E9002301F0A9F815A3D3E900237E
:1042800080468946DDE9040101F0A0F832463B464C
:1042900000F0E6FE02460B462046294600F0DEFE10
:1042A00052465B4600F0DAFE02460B46404649465F
:1042B00000F0D4FEF7E600200021F4E6AFF3008022
:1042C000555555555555D53F0000E0FE422EE63F69
:1042D000763C7935EF39EA3D44523EDF12F1C23F78
:1042E000DE03CB966446C73F599322942449D23FBC
:1042F000935555555555E53F9FC678D0099AC33F0C
:10430000AF788E1DC571CC3F04FA97999999D93F22
:1043100000005043FFFFEF7F0000F03F0000E03F50
:10432000000050C3000000002DE9F04F23F0004BC7
:104330000D4652EA0B0191469A46044693B010D1BD
:104340002319684885F4002252419942904122D2B3
:104350004A4653462046294600F082FE13B0BDE887
:10436000F08F9846604B174625F000429A422E4641
:104370000090029214D9009B06F1404606F5801683
:104380001E43E5D14B465749DB188AF400225241BF
:104390009E429141DCD30020544913B0BDE8F08F18
:1043A00013D09B45E7D8029B52D0002E15DB002F7F
:1043B00040F087804D4A934540F00784B8F1000FE4
:1043C000C0F2DA8420462946C8E70028C0D19345C8
:1043D000BED800F00A84029BE7E7454A934500F205
:1043E0009083444A934500F29183002F40F0B983B3
:1043F000B8F1804F00F0CB8420462946049300F0AA
:1044000077FD009A049B002A38D0F20F013A52EA55
:10441000070C63D00024013F174314BF334D364DC2
:10442000BBF1844FCDE908456AD9344B029A9B45CC
:10443000304B40F20F849A4200F2B984B8F1000F79
:10444000C0F2B984002013B0BDE8F04F00F0F6BD13
:10445000002F90D1029B009A03F1404303F5801393
:10446000134398D0234B029A9A4240F25F84B8F1EA
:10447000000FC0F2D784484651466FE71B4A26F02A
:10448000404C944502D0029A002ABED1B8F1000FE8
:10449000C0F24484002EBFF661AF029B03F1404A94
:1044A0000AF5801A5AEA070A40F0798402460B4658
:1044B0001046194600F0D2FD02460B4601F0B0F856
:1044C0004CE7002720462946049300F011FD009A8E
:1044D000049B002AD2D0F20F013A9BE722462B46DA
:1044E000E6E700BF0000F0FF0000F07F0000F03FB3
:1044F000FFFF3F43FFFFEF3F0000F0BF0000F0432E
:10450000CD4A3240002A40F00284CC4B002200F019
:104510005DFF6FF034040B461A15A2F2FF3202EB76
:104520000408C74AC3F3130343F07F54934244F48F
:10453000401407DDC34A934240F3438408F1010865
:10454000A4F580140022002300260025BE4FCDE9EB
:104550000C23CDE90667CDE91023DDE906232146CA
:10456000CDE9040100F07AFDDDE9062306460F4699
:10457000DDE9040100F074FD02460B460020B2495B
:1045800001F04EF88C46834663465A46304639461B
:10459000CDE90ABC00F01AFF83468C46CDE902BC87
:1045A000DDE902BC00204FF0000B641044F0005421
:1045B00004F50023591904460D4602460B46584699
:1045C0006146CDE90EBCCDE9000100F0FFFE0246D8
:1045D0000B463046394600F041FDDDE9062306462C
:1045E0000F462046294600F039FD02460B46DDE91C
:1045F000040100F033FDDDE9002300F0E7FE024690
:104600000B463046394600F029FDDDE90A2300F06B
:10461000DDFEDDE902BCCDE90401634661465A4690
:10462000584600F0D3FE72A3D3E9002304460D469A
:1046300000F0CCFE70A3D3E9002300F011FD224668
:104640002B4600F0C3FE6EA3D3E9002300F008FD63
:1046500022462B4600F0BAFE6BA3D3E9002300F0FC
:10466000FFFC22462B4600F0B1FE69A3D3E90023EC
:1046700000F0F6FC22462B4600F0A8FE66A3D3E924
:10468000002300F0EDFC224606460F462B4620464E
:10469000294600F09BFE02460B463046394600F0A4
:1046A00095FEDDE9006704460D46DDE9020132466C
:1046B0003B4600F0D5FCDDE9042300F087FE2246EE
:1046C0002B4600F0CDFC32463B46CDE90601304694
:1046D000394600F07BFE00225C4B04460D4600F09C
:1046E000BFFCDDE9062300F0BBFCDDE90EBC0F4694
:1046F000DDE900015A463B46CDE90ABC5E4600F0C2
:1047000065FE0022CDE90001504B3046394600F0ED
:10471000A5FC22462B4600F0A1FC02460B46DDE933
:10472000060100F09BFCDDE9022300F04FFE32465B
:1047300004460D46DDE904013B4600F047FE024613
:104740000B462046294600F08BFC06460F46DDE965
:10475000000132463B4600F083FCDDE90ABC30A391
:10476000D3E900235846CDE902BC0D465C4600F073
:104770002DFEDDE90023CDE900012046294600F0A9
:104780006DFC02460B463046394600F067FC26A316
:10479000D3E9002300F01AFE02460B4620462946C4
:1047A00014461D4622A3D3E9002300F00FFE024663
:1047B0000B462046294600F053FCDDE9102300F0AB
:1047C0004FFC044640460D4600F096FD06460F4657
:1047D000DDE9000122462B4600F042FCDDE90C2316
:1047E00000F03EFC32463B4632E000BFAFF30080B3
:1047F000EF4E454A287ECA3F65DBC9934A86CD3FC6
:1048000001411DA96074D13F4D268F515555D53FAB
:10481000FFAB6FDBB66DDB3F033333333333E33F43
:10482000000000E009C7EE3FFD033ADC09C7EE3F98
:10483000F5015B14E02F3EBE0000F07F0000404316
:104840008E98030079B60B000000F03F000008408E
:1048500000F006FCDDE902BC32465E463B465846A7
:104860000F4600F0FBFBDDE90C2300F0F7FBDDE970
:10487000002300F0F3FB02460B462046294600F0D9
:10488000EDFB0023CDE9009A0093DDE90034CDE98A
:1048900004011A46CDE9023448462346514600F049
:1048A000DDFB32463B4600F091FD4A4604460D468C
:1048B000DDE90401534600F089FD02460B4620461F
:1048C000294600F0CDFBDDE9022304460D463046C3
:1048D0003946CDE9024500F079FD06460F462046EF
:1048E00029463B46324600F0BBFBD54B0446994275
:1048F0000D46884640F3498101F13F4303F5E0034B
:10490000034340F07482BCA3D3E90023DDE9020134
:1049100000F0A6FB02460B462046294614461D46DB
:1049200032463B4600F09AFB02460B46204629469B
:1049300000F0DCFF002840F05A824FF400730020A2
:104940004344C3F30A52BF4CA2F2FF321441C3F3F3
:10495000130AC2F1140204EA03014AF4801A0B4656
:104960004AFA02FAB8F1000F024639463046B8BF9B
:10497000CAF1000A00F072FB06460F46DDE90201AB
:1049800032463B4600F06CFB0D464FEA0A5B0024C2
:104990009BA3D3E900232046294600F017FD3246A9
:1049A000804689463B462046294600F057FB024692
:1049B0000B46DDE9020100F051FB93A3D3E900238C
:1049C00000F004FD02460B462046294614461D46CB
:1049D0008FA3D3E9002300F0F9FC02460B462046E2
:1049E000294600F03DFB06460F4632463B46404610
:1049F000494600F035FB42464B4604460D4600F062
:104A00002DFB02460B463046394600F027FB224676
:104A1000804689462B462046294600F0D7FC7EA3D7
:104A2000D3E9002306460F4600F0D0FC7CA3D3E96F
:104A3000002300F013FB32463B4600F0C7FC7AA38C
:104A4000D3E9002300F00CFB32463B4600F0BEFCED
:104A500077A3D3E9002300F001FB32463B4600F088
:104A6000B5FC75A3D3E9002300F0FAFA32463B46C1
:104A700000F0ACFC02460B462046294600F0EEFA58
:104A800006460F4632463B462046294600F09EFC2D
:104A900002460B463046394616461F4600224FF066
:104AA000804300F0DBFA02460B463046394600F000
:104AB000B7FD424606460F464B462046294600F0C3
:104AC00085FC42464B4600F0CBFA02460B46304688
:104AD000394600F0C3FA22462B4600F0BFFA0246E0
:104AE0000B460020584900F0B9FA0C465C44B4F576
:104AF000801FC0F278812146DDE9082300F066FCC2
:104B00002CE4002F00F08B810227DBE44FEA2B52CC
:104B1000A2F2FF32142A40F31681C2F1340227FABE
:104B200002F101FA02F2BA4200F08D81CFB9B8F178
:104B3000804F049300F02B812046294600F0D8F9DD
:104B4000009B002B7FF4CAAC3F4A26F040479742B7
:104B500000F09E81029A049B002A00F0DA80002770
:104B600053E420462946049300F0C2F9009B002B31
:104B70007FF4B4AC344A26F040479742EAD1B8F10A
:104B8000000FC0F27C81002787E4DFF8C0C021F06D
:104B90000043634540F2E8802D4B0B4403430AD1A8
:104BA00032463B4600F05AFADDE9022300F094FE5B
:104BB00000283FF4C2AEDDE908010022002300F026
:104BC00077FE003818BF01203DE4B8F1804F00F0B7
:104BD000DE80A2F5801290457FF40EAC2046294677
:104BE00013B0BDE8F04FFFF7D9B8002F7FF4B0AB9A
:104BF00038E400BFAFF30080FE822B654715973C79
:104C000000000000432EE63FEF39FAFE422EE63F59
:104C1000396CA80C615C20BED0A4BE726937663EB8
:104C2000F16BD2C541BDBB3E2CDE25AF6A56113FAC
:104C300093BDBE166CC1663F3E5555555555C53F93
:104C4000FFFF8F400000F0FF0000F03FFFCB9040DF
:104C500000346F3F9A42C0F0D480029AA04B9A422F
:104C60004FF0000200F2E2809D4B00F0F7F990A3B4
:104C7000D3E9002304460D4600F0A8FB8EA3D3E938
:104C8000002306460F462046294600F09FFB0022DF
:104C9000CDE90001934B2046294600F097FB0246E0
:104CA0000B4687A1D1E9000100F0D8F922462B4636
:104CB00000F08CFB02460B4600208B4900F0CEF939
:104CC00022462B46CDE902012046294600F07EFB14
:104CD00002460B46DDE9020100F078FB7AA3D3E936
:104CE000002300F073FB02460B46DDE9000100F0F3
:104CF000B5F904460D463046394622462B4600F0AB
:104D0000AFF9002032463B4606460F46B1E5002487
:104D100002E4B8F1000FBFF636AF002702460B469B
:104D200000206F4900F07CFCFFF7B4BBB8F1000F26
:104D30004FF000004FF00001BFF610AB48460AF1FB
:104D40000041FFF70BBB002F7FF40BAFC2F1140241
:104D50004BFA02F101FA02F25A45614A7BD09345BF
:104D60003FF42CABFFF744BB5F4A93427FD8DDE9A9
:104D70000023934692460AE622462B4600205849D5
:104D800000F04EFCFFF7EABAB8F1804F47D1224657
:104D90002B462046294600F019FBFFF7DFBA012F0A
:104DA0007FF4DCAA01F100431946FFF7D7BAB8F146
:104DB000000F7FF747AB002013B0BDE8F04F00F0C5
:104DC00043B90022494B4FF48025CDE9062340A387
:104DD000D3E90023CDE90C233FA3D3E90023CDE998
:104DE0001023FFF7BABB524600F086F884E6002293
:104DF000DDE90801002300F05BFD003818BF012049
:104E0000DAE70022DDE90801002300F051FD003857
:104E100018BF0120B8F1000FBFF615ABCCE7022791
:104E2000FFF7EABA00200021FFF798BA0023DDE976
:104E3000080100F03DFD003818BF0120B8F1000F57
:104E4000BADCFFF700BB002F9ED001F00101C1F1D9
:104E50000207FFF737BB93453FF4B0AAB8F1804F84
:104E600095D001F00101C1F10207FFF7C5BA4FF477
:104E700080121B15A3F2FE3342FA03F35FE50246EC
:104E80000B460020164900F0CBFB009FFFF705BB47
:104E9000B8F1000FBFF677AE02460B46002010496E
:104EA00000F0BEFB0027FFF7F8BA00BFAFF30080A9
:104EB000000000604715F73F44DF5DF80BAE543E3D
:104EC000555555555555D53FFE822B654715F73F2E
:104ED0000000004003B8E23F06D0CF43EBFD4C3E5C
:104EE0000000F03F0000D03F0000E03F0000F83F2E
:104EF00021F00043194670472DE9F0411646C1F3F1
:104F00000A52074688460B466ABB21F0004303431A
:104F100027D0334B002200F059FA324B07469E420D
:104F200088463CDB0B46C1F30A52363A4CF250310C
:104F30008E4221DC164440F2FE7296421CDC002EAA
:104F400026DC16F1350F31DB23F0FF4121F4E001BF
:104F5000363641EA0655002238462946224B00F0F3
:104F600035FABDE8F08140F2FF7C6245DED10246B1
:104F700000F076F8BDE8F081454615A3D3E900239B
:104F800063F31E052946194800F020FABDE8F081B8
:104F90006FF31E53384643EA0651BDE8F0810EA375
:104FA000D3E9002300F012FABDE8F08108F00044D4
:104FB00044F0D27141F4B73107A3D3E900230C4880
:104FC00041F01F0100F002FACBE700BFAFF3008011
:104FD0009C7500883CE4377E59F3F8C21F6EA5012A
:104FE00000005043B03CFFFF0000903C9C750088DF
:104FF00059F3F8C2D0B506460F46144602F082FFB8
:105000000346394630461C60D0BD00BF00B583B0B2
:1050100080B1104603F10041CDE900011046194668
:10502000DDE9002300F0D2F9222203B05DF804EBA1
:10503000FFF7E0BF10461946EEE700BF00224FF031
:105040008053FFF7E3BF00BF00224FF0E043FFF7BC
:10505000DDBF00BF81F0004102E000BF83F00043EC
:1050600030B54FEA41044FEA430594EA050F08BF03
:1050700090EA020F1FBF54EA000C55EA020C7FEAC7
:10508000645C7FEA655C00F0E2804FEA5454D4EB44
:105090005555B8BF6D420CDD2C4480EA020281EA0E
:1050A000030382EA000083EA010180EA020281EA46
:1050B0000303362D88BF30BD11F0004F4FEA013198
:1050C0004FF4801C4CEA113102D0404261EB4101A7
:1050D00013F0004F4FEA03334CEA133302D052422D
:1050E00063EB430394EA050F00F0A780A4F10104E9
:1050F000D5F1200E0DDB02FA0EFC22FA05F2801823
:1051000041F1000103FA0EF2801843FA05F3594108
:105110000EE0A5F120050EF1200E012A03FA0EFC87
:1051200028BF4CF0020C43FA05F3C01851EBE371B1
:1051300001F0004507D54FF0000EDCF1000C7EEBCE
:1051400000006EEB0101B1F5801F1BD3B1F5001F0C
:105150000CD349085FEA30004FEA3C0C04F101042B
:105160004FEA445212F5800F80F09A80BCF1004F54
:1051700008BF5FEA500C50F1000041EB045141EAD6
:10518000050130BD5FEA4C0C404141EB0101013C9F
:1051900028BFB1F5801FE9D291F0000F04BF01468E
:1051A0000020B1FA81F308BF2033A3F10B03B3F160
:1051B00020020CDA0C3208DD02F1140CC2F10C02F0
:1051C00001FA0CF021FA02F10CE002F11402D8BF4E
:1051D000C2F1200C01FA02F120FA0CFCDCBF41EA1A
:1051E0000C019040E41AA2BF01EB0451294330BDE9
:1051F0006FEA04041F3C1CDA0C340EDC04F11404C6
:10520000C4F1200220FA04F001FA02F340EA03009C
:1052100021FA04F345EA030130BDC4F10C04C4F1E2
:10522000200220FA02F001FA04F340EA03002946C2
:1052300030BD21FA04F0294630BD94F0000F83F40C
:10524000801306BF81F480110134013D4EE77FEAEF
:10525000645C18BF7FEA655C29D094EA050F08BF3B
:1052600090EA020F05D054EA000C04BF194610461C
:1052700030BD91EA030F1EBF0021002030BD5FEA60
:10528000545C05D14000494128BF41F0004130BD88
:1052900014F580043CBF01F5801130BD01F00045DC
:1052A00045F0FE4141F470014FF0000030BD7FEA4F
:1052B000645C1ABF194610467FEA655C1CBF0B464A
:1052C000024650EA013406BF52EA033591EA030F61
:1052D00041F4002130BD00BF90F0000F04BF002159
:1052E000704730B54FF4806404F132044FF000058C
:1052F0004FF0000150E700BF90F0000F04BF002105
:10530000704730B54FF4806404F1320410F000456A
:1053100048BF40424FF000013EE700BF42004FEA65
:10532000E2014FEA31014FEA02701FBF12F07F43E2
:1053300093F07F4F81F06051704732F07F4208BF99
:10534000704793F07F4F04BF41F40021704730B5A0
:105350004FF4607401F0004521F000411CE700BFEC
:1053600050EA010208BF704730B54FF000050AE06F
:1053700050EA010208BF704730B511F0004502D570
:10538000404261EB41014FF4806404F132045FEA72
:10539000915C3FF4D8AE4FF003025FEADC0C18BF1B
:1053A00003325FEADC0C18BF033202EBDC02C2F10D
:1053B000200300FA03FC20FA02F001FA03FE40EA9F
:1053C0000E0021FA02F11444BDE600BF70B54FF0A3
:1053D000FF0C4CF4E06C1CEA11541DBF1CEA135581
:1053E00094EA0C0F95EA0C0F00F0DEF82C4481EAE9
:1053F000030621EA4C5123EA4C5350EA013518BF09
:1054000052EA033541F4801143F4801338D0A0FBF5
:1054100002CE4FF00005E1FB02E506F00042E0FBA2
:1054200003E54FF00006E1FB03569CF0000F18BFA8
:105430004EF0010EA4F1FF04B6F5007F64F5407450
:1054400004D25FEA4E0E6D4146EB060642EAC621E3
:1054500041EA55514FEAC52040EA5E504FEACE2E50
:10546000B4F1FD0C88BFBCF5E06F1ED8BEF1004F53
:1054700008BF5FEA500E50F1000041EB045170BDCF
:1054800006F0004646EA010140EA020081EA030113
:10549000B4EB5C04C2BFD4EB0C0541EA045170BD0F
:1054A00041F480114FF0000E013C00F3AB8014F189
:1054B000360FDEBF002001F0004170BDC4F10004D2
:1054C000203C35DA0C341BDC04F11404C4F1200553
:1054D00000FA05F320FA04F001FA05F240EA0200AE
:1054E00001F0004221F0004110EBD37021FA04F6E4
:1054F00042EB06015EEA430E08BF20EAD37070BD9E
:10550000C4F10C04C4F1200500FA04F320FA05F0FC
:1055100001FA04F240EA020001F0004110EBD370FE
:1055200041F100015EEA430E08BF20EAD37070BD6E
:10553000C4F1200500FA05F24EEA020E20FA04F347
:1055400001FA05F243EA020321FA04F001F00041F6
:1055500021FA04F220EA020000EBD3705EEA430E67
:1055600008BF20EAD37070BD94F0000F0FD101F096
:105570000046400041EB010111F4801F08BF013CCF
:10558000F7D041EA060195F0000F18BF704703F00D
:105590000046520043EB030313F4801F08BF013D94
:1055A000F7D043EA0603704794EA0C0F0CEA135550
:1055B00018BF95EA0C0F0CD050EA410618BF52EA0A
:1055C0004306D1D181EA030101F000414FF0000010
:1055D00070BD50EA410606BF1046194652EA43061E
:1055E00019D094EA0C0F02D150EA013613D195EA92
:1055F0000C0F05D152EA03361CBF104619460AD1DA
:1056000081EA030101F0004141F0FE4141F47001E3
:105610004FF0000070BD41F0FE4141F4780170BDD3
:1056200070B54FF0FF0C4CF4E06C1CEA11541DBF38
:105630001CEA135594EA0C0F95EA0C0F00F0A7F83A
:10564000A4EB050481EA030E52EA03354FEA013167
:1056500000F088804FEA03334FF0805545EA13137A
:1056600043EA12634FEA022245EA111545EA106542
:105670004FEA00260EF000419D4208BF964244F1D9
:10568000FD0404F5407402D25B084FEA3202B61AF8
:1056900065EB03055B084FEA32024FF480104FF4CC
:1056A000002CB6EB020E75EB030E22BFB61A754640
:1056B00040EA0C005B084FEA3202B6EB020E75EBD3
:1056C000030E22BFB61A754640EA5C005B084FEA3B
:1056D0003202B6EB020E75EB030E22BFB61A754608
:1056E00040EA9C005B084FEA3202B6EB020E75EB13
:1056F000030E22BFB61A754640EADC0055EA060ED4
:1057000018D04FEA051545EA16754FEA06164FEA16
:10571000C30343EA52734FEAC2025FEA1C1CC0D1C2
:1057200011F4801F0BD141EA00014FF000004FF04F
:10573000004CB6E711F4801F04BF01430020B4F110
:10574000FD0C88BFBCF5E06F3FF6AFAEB5EB030CC8
:1057500004BFB6EB020C5FEA500C50F1000041EBC5
:10576000045170BD0EF0004E4EEA113114EB5C0492
:10577000C2BFD4EB0C0541EA045170BD41F4801165
:105780004FF0000E013C90E645EA060E8DE60CEA6D
:10579000135594EA0C0F08BF95EA0C0F3FF43BAF8A
:1057A00094EA0C0F0AD150EA01347FF434AF95EA41
:1057B0000C0F7FF425AF104619462CE795EA0C0F25
:1057C00006D152EA03353FF4FDAE1046194622E7F2
:1057D00050EA410618BF52EA43067FF4C5AE50EACC
:1057E00041047FF40DAF52EA43057FF4EBAE12E7BC
:1057F0004FF0FF3C06E000BF4FF0010C02E000BF9D
:105800004FF0010C4DF804CD4FEA410C7FEA6C5C7F
:105810004FEA430C18BF7FEA6C5C1BD001B050EA22
:10582000410C0CBF52EA430C91EA030F02BF90EA0D
:10583000020F0020704710F1000F91EA030F58BFCC
:10584000994208BF90422CBFD8176FEAE37040F02E
:10585000010070474FEA410C7FEA6C5C02D150EACC
:10586000013C07D14FEA430C7FEA6C5CD6D152EA87
:10587000033CD3D05DF8040B704700BF844610464C
:1058800062468C461946634600E000BF01B5FFF74B
:10589000B7FF002848BF10F1000F01BD4DF808ED1B
:1058A000FFF7F4FF0CBF012000205DF808FB00BFEC
:1058B0004DF808EDFFF7EAFF34BF012000205DF846
:1058C00008FB00BF4DF808EDFFF7E0FF94BF012093
:1058D00000205DF808FB00BF4DF808EDFFF7CEFF94
:1058E00094BF012000205DF808FB00BF4DF808EDD3
:1058F000FFF7C4FF34BF012000205DF808FB00BFA4
:105900004FEA410C7FEA6C5C02D150EA013C0AD1BB
:105910004FEA430C7FEA6C5C02D152EA033C02D1AD
:105920004FF0000070474FF0010070474FEA41020E
:1059300012F5001215D211D56FF47873B3EB6252E1
:1059400012D94FEAC12343F0004343EA505311F008
:10595000004F23FA02F018BF404270474FF000009A
:10596000704750EA013005D111F0004008BF6FF0D8
:10597000004070474FF00000704700BF4FEA4102FF
:10598000B2F1E04324BFB3F5001CDCF1FE5C0DD99D
:1059900001F0004C4FEAC0024CEA5070B2F1004FE7
:1059A00040EB830008BF20F00100704711F0804FEA
:1059B00021D113F13872BCBF01F00040704741F4AF
:1059C00080114FEA5252C2F11802C2F1200C10FAB3
:1059D0000CF320FA02F018BF40F001004FEAC12397
:1059E0004FEAD32303FA0CFC40EA0C0023FA02F33B
:1059F0004FEA4303CCE77FEA625307D150EA013311
:105A00001EBF4FF0FE4040F44000704701F00040E0
:105A100040F0FE4040F40000704700BF80F00040BE
:105A200002E000BF81F0004142001FBF5FEA410376
:105A300092EA030F7FEA226C7FEA236C6AD04FEA76
:105A40001262D2EB1363C1BFD218414048404140BB
:105A5000B8BF5B42192B88BF704710F0004F40F46D
:105A6000000020F07F4018BF404211F0004F41F489
:105A7000000121F07F4118BF494292EA030F3FD055
:105A8000A2F1010241FA03FC10EB0C00C3F1200368
:105A900001FA03F100F0004302D5494260EB4000F7
:105AA000B0F5000F13D3B0F1807F06D340084FEA62
:105AB000310102F10102FE2A51D2B1F1004F40EB57
:105AC000C25008BF20F0010040EA030070474900BF
:105AD00040EB0000013A28BFB0F5000FEDD2B0FA5C
