:0200000280007C
:1000000000300820D91A0800211508002115080021
:100010002115080021150800211508000000000026
:100020000000000000000000000000002115080092
:100030002115080000000000211508002115080006
:1000400021150800211508002115080021150800B8
:1000500021150800211508002115080021150800A8
:100060002115080021150800A5160800B51608007E
:10007000C5160800211508002115080021150800E3
:100080002115080021150800211508002115080078
:100090002115080021150800211508002115080068
:1000A0002115080021150800211508002115080058
:1000B0002115080021220800211508000348044BDF
:1000C000834202D0034B03B11847704744B1080084
:1000D00044B10800000000000548064B1B1AD90F68
:1000E00001EBA301491002D0034B03B1184770473D
:1000F00044B1080044B108000000000010B5064CEF
:10010000237843B9FFF7DAFF044B13B10448AFF388
:1001100000800123237010BD800A00200000000031
:1001200044B1080008B5054B1BB105490548AFF3BC
:100130000080BDE80840FFF7CFBF00BF000000000F
:10014000840A002044B108000022F0B51E4B83B0A1
:10015000984204460F4601922ED01C4B984223D061
:100160001B4B984210D01B4B984215D01A4B98420B
:1001700008D11A4E01AD29462046B0470028FAD1D1
:10018000019B3B7003B0F0BD144E01AD29462046E3
:10019000B0470028FAD1F3E7104E01AD29462046BA
:1001A000B0470028FAD1EBE70C4E01AD29462046B6
:1001B000B0470028FAD1E3E7094D39462046A84761
:1001C0000028FAD103B0F0BD00060E40000009403F
:1001D000004009400080094000C009408132080009
:1001E000CD1D08001D4B70B5984204460D4615D034
:1001F0001B4B98421AD01B4B98421FD01A4B984267
:1002000004D01A4B984221D0002070BD184E2946C8
:100210002046B0470028FAD1012070BD154E29466E
:100220002046B0470028FAD10120F6E7104E2946B3
:100230002046B0470028FAD10120EEE70C4E2946AF
:100240002046B0470028FAD10120E6E7084E2946AB
:100250002046B0470028FAD1DEE700BF00060E4076
:1002600000000940004009400080094000C00940EA
:100270006D320800BD1D080010212DE9F04188B045
:100280000DEB0100744B9847DFF8D0810820C04780
:10029000734C744A4FF4006114604FF4E132724BB6
:1002A000CDE90221714A724D1A60724A724B0820E0
:1002B0001A60724B0193C04701A92046704B9847C2
:1002C0002B68704C98680021A0472B680021586863
:1002D000A04701226C4B1A70BFF35F8F62B60020FB
:1002E0004FF48071694B6A4A18609980694E904753
:1002F000694B98473546694F04AC284654F8042B9F
:100300006749B84708ABA34205F10805F5D10025B8
:100310000920644C86F82050C04763492920A04733
:1003200061492A20A04760492B20A0475E492C2024
:10033000A0475D492D20A0475B492E20A0475A4980
:100340002F20A04758493020A04757493920A047BF
:1003500055493A20A04754493B20A04752493C20E8
:10036000A04751493D20A0474F493E20A0474E4954
:100370003F20A0474D492620A0474B493320A047A6
:1003800049493720A04748493420A04747492720FA
:10039000A04745494F20A04744492820A04742494B
:1003A0004020A04740494120A0473F494220A04764
:1003B0003D494320A0473C494420A0473A494520B5
:1003C000A04739494620A04737494720A04736492A
:1003D0004820A04734494920A04733494A20A04734
:1003E00031494B20A04730495420A0472E49552081
:1003F000A0472D495620A0472B495720A0472A49FE
:100400005820A04728495920A04727495A20A047EB
:1004100025493520A0472946254A2648264B984796
:100420004FF00C3229462348244B98474FF01012C6
:1004300029462048224B984741F2030229461D488D
:10044000204B9847204B9847204B9847204B984784
:10045000204B9847FEE700BF25150800011A080049
:1004600000060E40F8330020F4330020E5010800B8
:1004700024050020490108008833002000D8B80571
:10048000851D0800214C0800040300209033002043
:10049000191C08009C010020A9140800D54D080073
:1004A000A0AC08000D1708000100000801000010B2
:1004B0000004040400000E40A51A0800B11A080048
:1004C000BD1A0800C91A0800C1130800250D08004C
:1004D0008D0B0800ED08080070B5084B084A052090
:1004E000D3E9005490470749074A04F1C0440C601F
:1004F00015604C20BDE87040044B1847383200208E
:1005000079130800A40A0020A00A0020151608008C
:100510002DE9F0410E4F0120D7E900450D4EB047BF
:1005200010200D4B984774B107EB040CEC1F0B4DDA
:10053000FB1DE41B0CF1070CE21813F8010F2968EE
:1005400063458854F8D13346BDE8F0410020184790
:100550003832002079130800151608000003002027
:1005600010B5064A064B042054689847054A1020E7
:100570001460054BBDE81040184700BF383200201A
:10058000791308009C0A00201516080070B5084B66
:10059000084A0220D3E9005490474C20064B984764
:1005A000294604F1C040054A054BBDE87040184794
:1005B000383200207913080015160800A906080033
:1005C000511E080042F2273310B5074A14689C42B6
:1005D00000D910BD4C20054B98472146BDE810407E
:1005E000034A0448044B1847383200201516080007
:1005F000A9060800AC0A0020511E080070B590B989
:1006000069B10F4D0F4A2B680F4C1944206812F83E
:1006100001CB00F803C001338B42F7D12B600B4BA9
:100620009847042807D0BDE870404FF48061084A1D
:100630000448084B1847084B00209847F3E700BFD1
:100640009C0A0020F82D002000030020B5130800AC
:10065000FD050800711E0800791308000D4A537843
:10066000122B03D0152B01D00020704710B50024A9
:10067000094B0A48196800689181094990601C601B
:100680008847052801D0012010BD2046054B98471A
:10069000F9E700BFD8330020A00A0020A40A0020F8
:1006A000B51308007913080000B1704710B5054B69
:1006B00004469847022800D010BD2046BDE81040EF
:1006C000014B1847B5130800791308002DE9F04FC6
:1006D000374A384B14681B6856681B1BB34283B0FB
:1006E00003D342F227339C4202D903B0BDE8F08F16
:1006F0004C20314B9847002E40D0304D6B88013351
:100700009BB20020A4086B80288049D04FEA840A5D
:100710000127D4462A4B2B4A1B68D2E9004803EB39
:10072000060B294ED2E902E3B246002283EAC32334
:1007300084EAD441CDE9000E5940A14681EA132450
:100740000BEB0001087824FA02F3DBB2984202F1C5
:10075000080280EA030E18BF2F80202A0AF801EB56
:1007600001F10101EED1DDE9000E0430844573464C
:1007700006F104060FD0C646C846D5E71349114A0C
:10078000D1E90150C2E90150C868096801230B4D45
:100790001160D060B5E70B4BC3E90049C3E9028E95
:1007A00004220B490B4B0D601A6003B0BDE8F08FBB
:1007B00038320020C001002015160800A80A0020C9
:1007C00000030020E82D0020AC0A0020D82D0020D6
:1007D000A40A0020A00A00202DE9F047234C102095
:1007E000D4E90057224B98476FB9D4E90201214A56
:1007F000214BC2E90001C3E90001D4E90401C2E9C7
:100800000201C3E90201AD082ED04FF0000CDFF861
:1008100064901A4C4FEA8508D9E90006D9E90252DA
:10082000002382EAC22280EAD04A8AEA020A864685
:1008300007EB0C018AEA122020FA03F2D4F800A098
:100840000833D2B2202B0AF8012001F10101F3D1C3
:100850000CF1040CC4452A4602D035467646DFE743
:10086000C9E9000EC9E90265BDE8F0873832002009
:1008700015160800E82D0020D82D002000030020C8
:1008800008B5124A5378103B082B0AD8DFE803F06A
:100890000B0E1114171A090905000D4B13610120E5
:1008A00008BD002008BD0B4B1361F8E70A4B13612C
:1008B000F5E70A4B1361F2E7094B1361EFE7094BC8
:1008C0009847ECE7084B1361E9E700BFD8330020F5
:1008D000C50508008D05080061050800D904080059
:1008E00011050800D9070800CD06080010B5044B13
:1008F00004489847BDE810400348044B184700BF20
:10090000110908005D06080081080800390908007F
:1009100007490A780F2A01D900207047034610B40E
:10092000044C501C087044F82230012010BC704761
:10093000BC320020C032002007490A780F2A01D9B2
:1009400000207047034610B4044C501C087044F853
:100950002230012010BC7047783200207C32002009
:10096000004B1847DD130800004B1847011408001E
:10097000054B1B7803B9704710B5044B9847BDE889
:100980001040034B184700BFC4010020152C08007D
:100990001D14080038B50124044D4FF48061044A49
:1009A000044B05482C709847204638BDC4010020F0
:1009B000FD050800711E0800F82D00200022014BE3
:1009C0001A707047C401002038B50F4B0F4AD98800
:1009D0000F48402928BF40211278986099818AB138
:1009E0000C4C531EDBB2251FD31A04EB820405EB1B
:1009F000830501E0AC4205D054F8043D9847002837
:100A0000F8D038BD002038BDD8330020783200201F
:100A1000383200207C32002038B50B4B1A788AB16E
:100A20000A4C531EDBB2251FD31A04EB820405EBDC
:100A3000830501E0AC4205D054F8043D98470028F6
:100A4000F8D038BD002038BDBC320020C0320020B4
:100A5000044B5A78222A03BF034A01201A6100205E
:100A6000704700BFD83300206D0A080010B5224B34
:100A70009B78013B102B0AD8DFE803F00A161B090C
:100A800009090909090909090909092D3A0010BDCF
:100A90003E201A4B98471A4CA0470028FCD0BDE8CE
:100AA00010401020174B18471020BDE81040164B7F
:100AB000184701220C21154B15489847154B9847AC
:100AC000154A53689903FCD4136843F0254343F057
:100AD00005031360FEE70F4B98470F4A53689B03CB
:100AE000FCD4136843F0254343F005031360FEE78D
:100AF0000A4BBDE810401847D8330020651908009C
:100B000089190800AD18080009190800D514080053
:100B100000080E40612B080000120E40A9130800C7
:100B200038B5144C6378172B1AD0402B16D14FF0E0
:100B3000200C114D114B372293E80300104B85E830
:100B40000300104905F1090085F808C098472846B8
:100B50000D4BA5609847A081012038BD002038BD0D
:100B600040F2011000210322034BA281A3601880F0
:100B70009970F1E7D8330020F83100206CAE0800FE
:100B80003D51080078AE08003154080010B5044B00
:100B900004489847BDE810400348044B184700BF7D
:100BA00011090800210B0800510A08003909080042
:100BB000174B1B7833B3174B1B681B681A7982429B
:100BC00020D930B5144D2B60B3F802C09C44634566
:100BD0001BD24FF0000E06E01A784FF0010E1344BE
:100BE000634511D21C465A78042AF5D19A7882427C
:100BF000F2D1DA788A42EFD1BEF1000F00D02C603A
:100C0000012030BD002070472B60002030BD00BFA8
:100C10000C3300200833002004330020024A034B29
:100C2000508800F07F001847D8330020E52B0800DB
:100C30002DE9F04100211A4D0446A84740B3DFF8E2
:100C40006480D8F800305B6853F82460F3689847F4
:100C500001462046A8470546D0B1134B134F1C68E8
:100C6000D8F80020237812681C4453881A44A24202
:100C700006D808E0052B0FD023781C44A24202D9E5
:100C80006378042BF6D1736898472846BDE8F08155
:100C900000252846BDE8F081A078B847E0E700BF0E
:100CA000B10B08000833002004330020312C080069
:100CB0002DE9F041144B0546984710B3134B144EE1
:100CC0001C68144F316823780A681C4453881A44FE
:100CD000A24206D808E0052B0DD023781C44A2427E
:100CE00002D96378042BF6D14B6853F82530BDE860
:100CF000F0411B681847A288E178A078B84700281F
:100D0000E0D10020BDE8F081B10B080004330020E1
:100D100008330020F52E0800014B1868704700BF0B
:100D200004330020004B18479D2A0800F8B50C4FEB
:100D30003B787BB10B4D2B681B681B7953B10024AA
:100D40002046094EB0472B6801341B68E0B21B797E
:100D50008342F7D80023054A3B701380F8BD00BFDB
:100D60000C33002008330020310C08000E33002023
:100D700038B50B4B1B7893B10A4D2B681A68127962
:100D80006AB100245B6853F824301B6903B19847AB
:100D90002B6801341968E2B209799142F2D838BD62
:100DA0000C3300200833002000232DE9F0479C4C31
:100DB00082B02288C4E90433B2F5E07FA38100F059
:100DC000A58094F900202378002A0EDB13F0600F31
:100DD0006BD013F01E0F36D003F01F03022B00F070
:100DE0009D80002002B0BDE8F087E1880029F8D09E
:100DF00013F0600FEDD113F01F0240F0CB81637848
:100E0000062B00F03581082B00F01182DBB9022996
:100E100019D18448844B98477CE0012A00F08880EF
:100E2000022A40F089806278012A00F0F281032AC8
:100E3000CFD1E28861880A4392B2002A00F01E8274
:100E400013F01E0F6AD1A388022B04BF0123A380D5
:100E5000764B1B78002BC4D0754F25793E683368DC
:100E60001B799D423ED3227802F01F02022AB8D19C
:100E7000002BB6D00024DFF8BC81254604E03E6894
:100E800033681B79AB42ACD9736853F82460F368BC
:100E9000984701462846C0470028A2D0B368984723
:100EA0000134E5B20028EAD09CE713F01F02B4D168
:100EB0006378013B082BC6D801A252F823F000BF8B
:100EC00055100800470E0800510F0800470E080093
:100ED000430F0800470E0800470E0800470E0800A1
:100EE000730F080000212846DFF84881C04758B139
:100EF000736853F82560F368984701462846C04751
:100F000010B1B368984728B9237865E79E214A480D
:100F1000454B9847012002B0BDE8F087434B1B7852
:100F2000002B3FF45EAF424F3E6833681B799FE76A
:100F300062780B2A00F0828113F01E0F7FF451AF0C
:100F400081E7E388002B7FF47EAF3C4B2361E1E730
:100F5000E388002B7FF477AF6388022B7FF473AFB5
:100F6000374B984718B12379002B00F0E3812378A1
:100F70002FE7E388002B7FF466AF324B98470028B9
:100F8000F5D0DFF8BC90C847DFF8BCA0A3780028F4
:100F900000F06D81DAF80820527C9A42E7D3DFF83E
:100FA0008C8098F800307BB1214F3B681B681B791F
:100FB00053B100252846254EB0473B6801351B68D4
:100FC000E8B21B798342F7D80022164B1A80A37827
:100FD00088F80030002B9DD0C84798F8003003F106
:100FE0000053013BDB00002800F06A81DAF8102092
:100FF00013441A680E4F12793B60002A8AD00025EC
:10100000134E2B4604E03A68126812799A4281D94D
:1010100018460021B0470135EBB20028F3D1A6E70E
:10102000D83300200E330020252C08000C3300207C
:1010300008330020B10B0800600200201D0C0800DE
:10104000D52B0800052C080020030020310C0800D7
:10105000B10C0800E388002B7FF4F5AE6388012B08
:101060007FF4F1AE9E4A138823F00203138051E708
:101070006288130A013BD5B20E2B3FF6E4AE01A203
:1010800052F823F01B110800F1100800E3100800CB
:10109000470E0800470E0800D7100800311108005D
:1010A000470E0800470E0800470E0800470E0800CC
:1010B000470E0800470E0800470E0800C110080040
:1010C00021218848884B9847E388A2899A427FF675
:1010D00021AFA3811EE7854A834BD06801789847EA
:1010E000F2E7032D3FF6AFAEDFE805F04C4937518C
:1010F0007F4B98477D4B002800F0D6809A68527C41
:10110000AA427FF634AF1A69774B52F8350041880E
:1011100098470222A3685A70D6E7754B9847002873
:1011200040F0D280714A704B906801789847CBE7C5
:101130006F4B98476D4B002840F0AA809A68527C0C
:10114000AA427FF614AF1A69674B52F835004188FE
:1011500098470722A3685A70B6E71321654B664E7D
:101160005D18324613F8010B9D4222F8020FF9D1A7
:101170004900023160485C4B31709847A4E7152163
:101180005E4BECE704215E48574B98479CE72021D3
:101190005C4BE4E7012A14D0022A7FF4CDAE6278DA
:1011A000002A7FF44DAE02297FF44AAE2079564BD7
:1011B00001919847024655484B4B01990280984748
:1011C000A8E662780A2A7FF4B7AE01297FF4B4AEAC
:1011D0004F4A1278002A3FF4AFAE4E4A257916687E
:1011E00032681279AA427FF6A7AE00212846DFF8BE
:1011F0002881C04700283FF4BAAE736853F8253001
:10120000DB689847024645480121374B02709847F2
:1012100080E6E28861880A4392B2002A7FF410AE29
:1012200020793F4B984700287FF474AE9FE6012950
:101230007FF409AE36482C4B98476BE6E288002ACB
:101240007FF47AAE324A1278002A3FF475AE2579DF
:10125000344B28466688984700283FF488AE2846D5
:10126000314BF1B2984700287FF454AE7FE6DAF8AC
:101270000020527C9A42BFF492AE78E620792B4B44
:1012800098472B4B2079984700287FF443AE6EE6B1
:101290001A68527CAA427FF66AAE5A68124B52F81C
:1012A00035004188984754E71A68527CAA427FF675
:1012B0005EAE5A680C4B52F835004188984728E7D3
:1012C000DAF80420134494E610200221074B064D5F
:1012D0001A689070D17018680178A847F4E600BFCA
:1012E0000E3300203C020020252C080020030020A3
:1012F000D52B08000C020020C8010020200200208D
:10130000380200209C010020812C080000330020BE
:101310000C33002008330020B10B080002330020FA
:10132000552D0800310C0800B10C08000D310800E3
:10133000B52C08000B4B9847A3881B0A013B032BD5
:101340003FF615AEDFE803F00B080502064B2361FC
:10135000E0E5064B2361DDE5054B2361DAE5054B4E
:101360002361D7E52D0D0800D5310800BD310800F7
:10137000993108007531080038B5084B0446984784
:10138000074B1A782AB901251C70064B9847284646
:1013900038BD0025034B9847284638BD7115080015
:1013A00010330020B11508000022014B1A7070475D
:1013B00010330020014B1878704700BF1033002015
:1013C00010B51120044CA0471020A0472346BDE8CB
:1013D00010404C20184700BFDD15080010B5112043
:1013E000054CA0471020A0474C20A047BDE8104066
:1013F0005320024B184700BFDD150800DD1608001A
:1014000010B51120034B9847BDE810405320024B04
:10141000184700BF15160800F5160800C0F30903A9
:1014200010B55BB1B3F5007F044603D0C4F30804E4
:101430003CB110BD1120074B9847F7E71120064B30
:101440009847044C1020A0472346BDE810404C208C
:10145000184700BFDD1508001516080010B54FF03D
:1014600060510D4C1120A0474FF060511020A04753
:101470004FF060514C20A0474FF040515320A047FF
:101480005320064B9847BDE810404FF000624FF4E0
:10149000C0510348034B18470D170800F516080004
:1014A000000C0E40F51708004FF4004210B5064B33
:1014B000064C5A650A20A0470B20A0470C20A047E5
:1014C000BDE81040024B184700120E40011A0800F8
:1014D0005D14080038B5A1F10E03012B17D9EFF305
:1014E000108572B6BFF35F8F00230A4CC9B2237018
:1014F000094B03EA02221143084B41F0B4419847DB
:1015000025B901232370BFF35F8F62B638BD4FF05A
:10151000FF3038BD0403002000FFFF008D000020D5
:10152000FEE700BFF0B5042687B004460D460F2243
:101530000E210C480C4F02AB0096B84770B9042D31
:1015400026462A46044628BF042225B13046074BCA
:1015500002A992009847204607B0F0BD102420460B
:1015600007B0F0BD00080E40010000204553080000
:101570000C4B1A6892B9EFF3108169B910B472B6C6
:10158000BFF35F8F0120084C084A217010701A6861
:1015900001321A6010BC704704490A701A6801329F
:1015A0001A60704714330020040300201133002018
:1015B000074B1A68013A1A601B6843B9054B1B7840
:1015C0002BB10122044B1A70BFF35F8F62B67047D4
:1015D00014330020113300200403002070B50546A9
:1015E000094C04F118062368AB4203D00834B44216
:1015F000F9D170BD63682846012B044A01D0904799
:10160000F4E7034B9847F1E784AE0800DD160800C5
:10161000F516080070B50546094C04F11806236854
:10162000AB4203D00834B442F9D170BD6368284698
:10163000012B044A01D09047F4E7034B9847F1E7A8
:1016400084AE0800F5160800DD160800F8B5124B48
:1016500004460E469847114B0546204698470540DC
:1016600019D00F4C04F160072368B34205D0BC4287
:1016700011D023691034B342F9D161682942F6D000
:10168000E368304698476368BC4225EA030502D008
:101690001034002DE8D1F8BDD5160800D916080081
:1016A000183300200A210148014B1847000C0E4056
:1016B0004D1608000B210148014B1847000E0E4043
:1016C0004D1608000C210148014B184700100E4030
:1016D0004D160800C06C7047806C704701224309AA
:1016E00003F5001303F2067300F01F005B02824053
:1016F0001A6370470122430903F5001303F20673CE
:1017000000F01F005B0282405A637047430903F5F3
:10171000001301F0F04203F20673B2F1205F4FEACA
:10172000432336D016D8B2F1006F43D0B2F1805FB8
:1017300015D1012200F01F0082405A64186FC907BA
:1017400040EA020018675A604FF001004CBF5A6629
:101750001A66704701F0E042B2F1405F01D000200C
:101760007047012200F01F008240C8075A6401F050
:10177000605C4CBF5A661A6649074CBF1A655A65C9
:10178000BCF1605F0CBF1A635A6301201A611A60D2
:101790007047012200F01F008240C8075A644CBF06
:1017A0005A661A6611F00A0F18D15A625A6101205E
:1017B0001A607047012210B400F01F0082405A6482
:1017C000186F1C6F204020EA02001867C8075A6093
:1017D0004CBF5A661A66012010BC704788071A620F
:1017E00048BFC3F88020E1D4090748BFC3F884206C
:1017F000DCE700BF02F0F043B3F1205F2ED011D838
:10180000B3F1006F37D0B3F1805F10D14164036F43
:10181000D20743EA0103036741604CBF416601669A
:101820000120704702F0E043B3F1405F01D0002097
:10183000704712F0010F416402F0605314BF41661B
:10184000016652074CBF01654165B3F1605F0CBF93
:10185000016341630161016001207047D307416466
:101860004CBF4166016612F00A0F14D1416241611A
:1018700001600120704710B44164036F046F23407E
:1018800023EA0103D407036741604CBF4166016648
:1018900010BC012070479307016248BFC0F8801058
:1018A000E5D4130748BFC0F88410E0E715490B6B77
:1018B00023F0030343F001030B638B6E1B0758BF38
:1018C0004FF4006302D504E0013B16D08A6E120784
:1018D000FAD50C490B6B23F0700303430B63886E3E
:1018E00010F0080008BF4FF4006302D007E0013B8E
:1018F00003D08A6E1207FAD5704701207047002086
:10190000704700BF00040E4015490B6B23F07003B5
:1019100003430B638B6E1B0758BF4FF4006302D564
:1019200004E0013B17D08A6E1007FAD50C490B6B07
:1019300023F0030343F002030B63886E10F00800EA
:1019400008BF4FF4006302D007E0013B03D08A6E6A
:101950001207FAD57047012070470020704700BF7A
:1019600000040E40074A0302116A9BB221F00301F2
:101970000B4343F45C1343F001031362936EDB07E4
:10198000FCD5704700040E40024B986E00F0010039
:10199000704700BF00040E40024B986E00F4803088
:1019A000704700BF00040E40084B1B6A30B1074A65
:1019B00043F0807343F45C1313627047034A23F0CF
:1019C000807343F45C131362704700BF00040E4041
:1019D0004FF00052014B9A62704700BF00040E4066
:1019E000024B986E00F00200704700BF00040E40EA
:1019F000024B986E00F04000704700BF00040E409C
:101A00001D2809D80123054983408A69002033EA4B
:101A1000020218BF0B6170470120704700040E409E
:101A20001D2809D80123054983408A69002033EA2B
:101A3000020208BF4B6170470120704700040E404E
:101A4000034BC0F312001A6F10431867704700BFB2
:101A500000040E402DE9F041A0B9002A90460DDDAA
:101A60000C460A4F0A4E8D182146386833680134F7
:101A70009847AC42F8D14046BDE8F08180464046E8
:101A8000BDE8F0814FF0FF38F5E700BFF8330020E4
:101A900088330020024B187880F00100704700BFA7
:101AA0008C33002001EB810100EB8100026770475D
:101AB00001EB810100EB81004267704701EB81017E
:101AC00000EB81008267704701EB810100EB810030
:101AD000C0F88020704700BF08B51848184B8342F3
:101AE0000AD0184A904207D2013A121A22F0030291
:101AF00019460432144B9847144A154B934208D2A6
:101B0000013AD21A22F0030218460021114B043286
:101B10009847114B114923F0604203F1604322F0D2
:101B20007F02B3F5404F8A6003D28B6843F00053C5
:101B30008B600B4B98470B4B9847FEE7000000204B
:101B400044B10800800A00204553080010370020E7
:101B5000800A0020A15008000000080000ED00E00D
:101B600065520800790208000C4A034610680C49C7
:101B700030B103448B42CCBF4FF0FF30136070474D
:101B800010B4084C23448B421460D8BF1360204625
:101B9000C8BF4FF0FF3010BC704700BF9833002023
:101BA000FC3F0820003008204FF0FF30704700BF96
:101BB0004FF4005300204B60704700BF0120704776
:101BC00000207047014608B50148024B9847FEE7E0
:101BD000A8AC0800ED320800704700BF4FF0FF309E
:101BE000704700BF10B53E20074B9847074CA047F1
:101BF0000028FCD04FF47102054B064CDA61A04777
:101C00000028FCD010BD00BF651908008919080024
:101C100000040E40F119080070B51248124DA84793
:101C20003E20124B9847124CA0470028FCD04FF0A2
:101C30008070104B9847104CA0470028FCD00F4BE9
:101C400098470F4B0F4A104C9A62A0470028FCD0CF
:101C50000E4B102098470E4B98472B46BDE870401E
:101C60000048184700D8B805310100206519080060
:101C700089190800A919080099190800D119080044
:101C800000040E40013F0F20E11908000919080067
:101C9000951C0800334A136B03F00303012B2ED06D
:101CA000023B012B18D8136AD9013CD52E482F4B83
:101CB00003602C4A136B03F00303022B40D02C4B20
:101CC00028490A6B02F07002702A12D00A6BC2F324
:101CD0000212D34003607047264B5B6A1A061ED57A
:101CE00020494FF400430A6B1F4802F07002702A2B
:101CF000ECD1214AA2FB03235B0803607047136AFF
:101D0000DB0109D4136A03F07003102B23D0202BBE
:101D100002D01A4B1448D3E7144B1348D0E74FF4C2
:101D2000FA431148CCE7154B0F480360136A03F0E0
:101D30007003102B12D0202BBBD10C4B0360B8E7E3
:101D4000916A0368C1F30A4101FB0333926AD2B27C
:101D5000B3FBF2F3B4E70A4B0348B1E7084B036067
:101D6000A7E700BF00040E4008030020001BB700D7
:101D7000001C4E0E00120E40ABAAAAAA00093D009C
:101D800000127A00AC2303600246D1E90030B3FBB5
:101D9000F0F34FF6FE7C1B09581E60450CD830B49A
:101DA00040F20225502413628B6800205360C2F871
:101DB0002051146030BC70470120704703464269CF
:101DC000920746BF0020D961012070474369DB07B5
:101DD00043BF836900200B7001207047014B1878C6
:101DE000704700BF9C330020064B10B59847064A49
:101DF000C37813700BB1012010BD044BBDE8104037
:101E0000184700BF190D08009C33002095090800F1
:101E1000024B1B7803B17047014B18479C330020DD
:101E2000BD090800074B1B7803F060021B0603D4B2
:101E3000402A05D000207047402AFBD1024B1847AA
:101E4000024B1847D8330020190A0800C9090800B6
:101E500030B58446154683B00B4662460021034CDC
:101E600000958120A04703B030BD00BF192E0800A7
:101E700030B58446154683B00B4662460021034CBC
:101E800000950220A04703B030BD00BF192E080006
:101E900090F814C003461CF0010F16D030B404684B
:101EA0002CF0010C80F814C06CB1084D084602F10A
:101EB000080149016958090748BF42F08002996842
:101EC000234630BC184730BC7047704700400A407A
:101ED0002DE9F043431E674C03EB430104EBC101C2
:101EE00091F814C01CF0010F37D00246D1E902501E
:101EF000A8424FEA430632D02D1AB5F5803F4FEA8B
:101F0000421C44D80CF1402E0EF5202EDEF8008144
:101F10002F0418F0080F7BD0DEF800814FF0080E78
:101F200008F007080EFA08FE0EF1FF3E1EEA050F44
:101F30007DD091F814E047F029072EF0020E81F8C9
:101F400014E037E04FF400644FF480734A48C1F85E
:101F500004419340026913430361BDE8F0834FEAF3
:101F6000421C0CF1402101F52021D1F800010507A8
:101F700005D5F01804EBC000007D8007E2D4F0180E
:101F800004EBC0000021BDE8F0433C4B18470CF1C6
:101F9000402101F52021D1F8007117F0080731D157
:101FA000D1F8005105F03005102D5DD04FF480358B
:101FB00047F0350706EB030E04EBCE0EDEF80410F7
:101FC00008442F4901EB02114860EFF3108872B604
:101FD000BFF35F8F4FF000092A4880F80090D1F8D6
:101FE0000C9019F0100F25D0B8F1000F04D1012189
:101FF0000170BFF35F8F62B6F11804EBC101C868CE
:102000008860AEE721274FF48035D1F80011D1E781
:10201000DEF8001101F030011029C9D1DEF80011FD
:1020200001F0070E082101FA0EF1A942C0D247F0D3
:102030002107BFE74FF000728F6002FA03F3DEF86A
:102040000C20CEF810502A44CEF80C200A4A116910
:102050000B431361B8F1000F7FF47FAF01230370CE
:10206000BFF35F8F62B678E74FF48035D1F8001187
:10207000DDE700BFA033002000400A40911E0800A9
:1020800000430A40040300202DE9F047EFF31083DA
:1020900072B6BFF35F8F00204FF48061594D5A4AEA
:1020A0002870C2F8081123B901232B70BFF35F8F8A
:1020B00062B6DFF8588198F80030032B65D0544F92
:1020C000544E3B88B489E41AA4B2002C39D0DFF80E
:1020D00048913F2C4CD900224024B06889F8002058
:1020E000EFF3108672B6BFF35F8F00222A70464A64
:1020F000D2F81C2192053DD46CB118440346C3F1BB
:10210000005C20440CF5C01C03EB0C0213F8011B0F
:1021100098421170F8D13A884FF4806122443A8095
:102120004FF40062384BC3F81811C3F81421C3F8F8
:10213000041126B901232B70BFF35F8F62B6BDE88F
:10214000F0873649F0880A881A4492B290420A8091
:1021500040D0DFF8C49099F800A0BAF1000F39D14F
:1021600072692AB19047002848D101223B88B4E720
:102170000122B2E726B901232B70BFF35F8F62B64D
:10218000042388F80030BDE8F087224E336903B19C
:102190009847EFF3108372B6BFF35F8F00204FF4C0
:1021A0008061194A2870C2F8081123B901232B70E5
:1021B000BFF35F8F62B64FF40071134A0020C2F87C
:1021C000181100210023C6E90401B38188F800300A
:1021D000BDE8F087042388F80030EFF3108172B671
:1021E000BFF35F8F4FF480420020074B2870C3F885
:1021F0001821C3F804210029A1D19BE73C80534654
:10220000B48966E70403002000400A40D43300206C
:10221000D0330020D83300209D330020D23300205B
:102220002DE9F047A24B1D209847A24B984728B9AB
:10223000A14B5B6913F0020300F09D809E4B5A692D
:10224000150700F189805A69500700F18E80D3F894
:102250001C215969C90521D54FF480404FF4004134
:10226000D704C3F80801C3F8081100F1B18056057E
:1022700004D5D3F80C315D0500F15B82940500F1C3
:102280005381900404D54FF400518B4BC3F81811BF
:10229000110400F17B81530400F1D38001234FF03E
:1022A00000774FF480780224834A156903F1FF3CDC
:1022B00007FA0CF10D42804803F1010E5FFA83F931
:1022C00002EB431603D05569294240F0CF801169D3
:1022D00008FA03F5294216D0D6F80C115B0111F467
:1022E000006F034405D0D6F81C1111F4006100F012
:1022F0003D83D3F80C114E0305D5D3F81C1111F40E
:10230000402100F0F380BEF1030F4FF00203CCD167
:1023100069494D6915F0100540F085810B699807F2
:1023200033D54B699A0730D520238B610B69634AFB
:1023300023F002030B610B691D2043F020030B61A6
:102340008C6190475E4B98475E4A1378002B40F0B3
:10235000C6820023137013E008229A615B69DC07D0
:1023600010D5BDE8F047584B184704219961574AEA
:10237000BDE8F047104772B6BFF35F8F544A137041
:10238000BDE8F087514B9847EBE74B4B5B699B06E9
:10239000F6D54C4A1378002B00F0828202240125E6
:1023A0002020454B15709C6198611A69494922F0BB
:1023B00020021A611A6922431A611A6942F008025E
:1023C0001A611A6942F004021A61BDE8F047084731
:1023D000414C237813B3414E336903B19847EFF36F
:1023E000108272B6BFF35F8F00214FF48060384BCC
:1023F00019703149C1F8080122B901221A70BFF3DE
:102400005F8F62B64FF400722B4B00200021C3F89F
:1024100018210023C6E90401B3812370264A304BFA
:10242000D2F81C110B40B3F5000F00F0C28005205C
:1024300020214FF480532070C2F81411C2F81831D3
:102440009EE74FF480431C4AC2F81831D2F81C3181
:1024500013F4007394D120480178012900F05382CD
:1024600004298DD12023C2F8143189E700F540708A
:1024700000EB0313D868C70782D4106920EA010172
:102480001161DA68120C0ED016480CEB4C0100EB0F
:10249000C101C968CCF1000303F0180308338A1A9C
:1024A000C25003445A604846BDE8F0470E4B1847F7
:1024B000011A0800951A080000400A40211A080075
:1024C00061090800F033002071090800710D08004F
:1024D0000403002069090800D4330020D833002009
:1024E0000000F07FA0330020D11E08004FF48022AE
:1024F00020264024C3F8082102690CEB4C0C22EA88
:1025000005020261B24A02EBCC02107D61F3820047
:102510001075D3F8082122F00202C3F80821C3F88D
:102520001461C3F818412BE7AA4C2378012B00F063
:102530000481022B00F03981042B00F03681052143
:102540002022A54BA54E2170C3F81421EFF3108271
:1025500072B6BFF35F8F00214FF48060A04B1970FB
:102560009D49C1F8080122B901221A70BFF35F8F9B
:1025700062B64FF40071984A0023C2F81811002087
:102580000021B381C6E904012370F9E64FF400424B
:10259000914BC3F81821D3F81C2152053FF5F0AE3A
:1025A0008C4A1278032A7FF4EBAE2022C3F8142160
:1025B000E6E68C4A8C4B8D481946013309788342F4
:1025C00002F8011FF8D18A4B9847002800F0F480E8
:1025D0004FF48051804B814AC3F8181192F90010D2
:1025E0000029C0F27181D288002A00F0AD8100225A
:1025F00001254FF480417F48257002807E4802808B
:10260000C3F81811EFF3108472B6BFF35F8F7448EC
:102610000270C3F80411002C7FF4B2AE0570BFF352
:102620005F8F62B6ACE61022694C237D8A6113F09D
:1026300001020DD0256823F00103237545B1D1F8BF
:102640002031012013F0080F18BF8122A168A8478C
:1026500094F82C30DD0710D5A56923F0010384F828
:102660002C3055B15C4B0120D3F84031216A13F076
:10267000080F0CBF02228222A847604B9847012016
:10268000554B1A6822F07F021A601A6842F08002E5
:102690001A60D3F800216FF3090242F04302C3F835
:1026A0000021C3F80401EFF3108472B6BFF35F8F0B
:1026B0004FF4805200254A490D70C3F804214FF4AD
:1026C0000072C3F804211A6942F480721A611CB9BD
:1026D0000870BFF35F8F62B6EFF3108372B6BFF37B
:1026E0005F8F00244FF480603B4A0C70C2F80801F1
:1026F00023B901230B70BFF35F8F62B6002600275A
:1027000000214FF40074354A334BC2E90467314865
:10271000C3F81841017091811A6942F008021A61E8
:102720001A6942F004021A611A6942F002021A613F
:1027300026E6334BBDE8F0471847274B2E4FD3F81A
:102740001C51264EB7F800C0B389C5F30A550CEBEF
:1027500005029342B8BFA3EB0C03B268B8BF9DB2A9
:1027600062447DB1204B184601330078D9B2A942AA
:1027700002F8010BF7D3AC441FFA8CFC402DA7F8EC
:1027800000C067D07369A6F80CC0002B3AD09847F8
:10279000002837D1052020214FF400720E4B207005
:1027A000C3F81411C3F81821EAE50C4E3369002B65
:1027B0003FF4CCAE9847C9E6052020214FF4805263
:1027C000054B2070C3F81411C3F81821D8E500BFD9
:1027D000A0330020D433002000400A40D83300202A
:1027E00004030020D7330020000018200800182020
:1027F000A90D0800D2330020D03300202D0D080091
:10280000892008004FF400710322684BC3F81811A7
:102810002270EFF3108472B6BFF35F8F0025644817
:102820004FF4806105704FF400424FF40065C3F827
:102830001811C3F81451C3F80411C3F81821C3F8D0
:102840000421002C7FF49CAD01230370BFF35F8F44
:1028500062B695E5574DF2882B8863449A4291DD24
:10286000B389634500F093804FF400714FF48042C8
:102870004E4BC3F81811C3F81821EFF3108072B64D
:10288000BFF35F8F00244A490C70C3F8042100286D
:102890007FF476AD01230B70BFF35F8F62B66FE5F7
:1028A000EFF3108472B6BFF35F8F41484249037063
:1028B0008B7801338B70002C7FF470AD0123037093
:1028C000BFF35F8F62B669E500230221394D3B48B3
:1028D0002B80038021703A4ABDE8F0471047EFF3A0
:1028E000108472B6BFF35F8F3148334905708B781F
:1028F000013B8B70002C7FF42CAD01230370BFF3E0
:102900005F8F62B625E503240470EFF3108572B67D
:10291000BFF35F8F264C4FF4806023704FF4006646
:102920004FF40043C2F81801C2F81461C2F8040160
:10293000C2F81831C2F80431002D7FF421AD2170A6
:10294000BFF35F8F62B61BE503212170EFF31084A4
:1029500072B6BFF35F8F4FF4806115484FF4006586
:1029600002704FF40042C3F8181162E74FF400649C
:102970001448CCF1000303F01803C6F80841C6F868
:1029800014414A46BDE8F04718440F4B1847736995
:10299000002B3FF4FFAE984700283FF4FBAE002227
:1029A0002B8839883A800B442B805DE700400A4031
:1029B00004030020D233002090330020D0330020C5
:1029C00089200800A0330020911E08002DE9F04165
:1029D000EFF3108672B6BFF35F8F0021294B2A4CAC
:1029E0001A782170002A3BD00125284A1D201D702D
:1029F0004FF00808904702274FF0040E4FF0100CDC
:102A00002021234B1D201A6842F400621A601A68C4
:102A100022F400721A601A6942F010021A611A69EF
:102A200042F002021A611A6942F020021A611A6920
:102A300042F008021A611A6942F004021A61C3F8EE
:102A40001880144AC3F818E0C3F818C09F61996150
:102A500090471EB92570BFF35F8F62B6BDE8F08165
:102A6000EFF3108072B6BFF35F8F0B4922708A7844
:102A700001328A700028B7D101222270BFF35F8F24
:102A800062B6B1E7F033002004030020011A080009
:102A900000400A40211A080090330020F8B5264B68
:102AA0009847264B1D209847EFF3108672B6BFF368
:102AB0005F8F00254FF0500E4FF00057204A214CF9
:102AC00092F814C0204B2CF0050C82F814C092F838
:102AD0002CC025702CF0050C82F82CC01A681B49FC
:102AE00042F480721A6081F81DE30F60D3F8E02091
:102AF0004FF4802022F00302C3F8E020144B9847E3
:102B0000144B1D70EFF3108172B6BFF35F8F124A42
:102B10002570D3780133D37021B901232370BFF31B
:102B20005F8F62B60D4B984726B901232370BFF320
:102B30005F8F62B6F8BD00BFE51B0800011A0800F0
:102B4000A03300200403002000400A4000E100E020
:102B5000411A0800F033002090330020CD290800EE
:102B600010B5164B1D209847154B1D201A681549A6
:102B700042F400721A601A6822F400621A608847F0
:102B8000114B1A7812B900221A7010BDEFF310849D
:102B900072B6BFF35F8F4FF0000C0C490C488A7877
:102BA000013A8A7080F800C0002CECD1012202703A
:102BB000BFF35F8F62B600221A7010BD011A0800C1
:102BC00000400A40211A0800F03300209033002012
:102BD00004030020024B586900F00100704700BF59
:102BE00000400A40064B1A6822F080021A601A68F8
:102BF00060F306021A601A6842F080021A60704799
:102C000000400A40024B186800F07F00704700BF88
:102C100000400A40024B5868C0F3CA00704700BF2A
:102C200000400A40014B986099817047D8330020DA
:102C300000F00F02022A00D970470121530170B53C
:102C400003F1402505F520252B46C5F80811D5F8D8
:102C50000051501E084C00EB400004EBC00425F06E
:102C6000C005C3F800512046044EB047237D23F031
:102C70000403237570BD00BFA0330020911E08001F
:102C800000F00F00430103F1402303F52023D3F8A4
:102C90001C319B0609D4064B00EB400003EBC0033C
:102CA00013F8040CC0F3800070470120704700BF88
:102CB000A033002000F00F03022B2BD830B5234D9A
:102CC000590105EB431EDEF81C21920620D4204C4E
:102CD0005A1E02EB420204EBC20C9CF8144014F0A2
:102CE000040215D114F0010F16D1020616D44FF4C8
:102CF0000054202001F1402303F52023D3F80821BC
:102D000022F00202C3F80821C3F81841C3F81401E5
:102D1000012030BD00207047104630BDDEF81C2178
:102D200012F4402FE3D04FF480204FF4807244F02F
:102D300004018CF8141005EB4311C1F80401296952
:102D400002FA03F30B432B61E2E700BF00400A40A5
:102D5000A033002000F00F00022857D870B5411EA4
:102D60002B4C01EB410304EBC3031D7D4A006D07AF
:102D700025D54FF480264FF4807C1D7D0CFA00FC95
:102D800025F004051D75234D430105EB401ECEF8CB
:102D90000861286920EA0C002861DEF81C0185061C
:102DA00016D4531804EBC302117DDB00C80704D509
:102DB00021F00101E35811759847012070BD4301CE
:102DC00003F1402000F52020D0F81C018006F4D546
:102DD00003F1402000F52020D0F81C51AE0406D5A8
:102DE0004FF40055C0F818514025C0F8185120255F
:102DF00003F1402000F520200346C0F81851D0F818
:102E0000040140F00200C3F80401CAE70020704743
:102E1000A033002000400A4000F00F00022860D8D4
:102E20002DE9F0414FEA401C0CF1402C0CF5202C10
:102E3000DCF80C41E50751D5DCF81C41A4064DD463
:102E4000461E294D06EB460C05EBCC0C9CF814E015
:102E500074001EF0040E41D1EFF3108872B6BFF378
:102E60005F8F224F87F800E09CF814E01EF0010FFE
:102E70002CD19CF814E04EF0010E8CF814E0B8F15F
:102E8000000F06D14FF0010C87F800C0BFF35F8F31
:102E900062B63444069E05EBC40C45F83460CCF8A9
:102EA000042000246246002B08BF41F0010142F8D3
:102EB000104FCCF8083013790D4D61F34103CCF875
:102EC0000C401371A8470120BDE8F081B8F1000F54
:102ED00004D101233B70BFF35F8F62B60020BDE8D1
:102EE000F0810020704700BFA033002004030020C1
:102EF000D11E08002DE9F04F00F00F04022C83B022
:102F000000F2D080650105F1402303F52023D3F8BA
:102F10000C31DE0700F1C68001F00306012E00F03F
:102F2000C580023E012E00F2BD8002F4C0539FB264
:102F3000002B40F0B7803E4605F1402505F52025E1
:102F4000D5F800310901C00923F47F7CB2F5806F08
:102F500001F030014FEAC0002CF0030C80F0B78084
:102F6000082A38BF08225300013BB3FA83F3C3F1A8
:102F70001C030FB141EA06214CEA00020A43134345
:102F800043F04003C5F80031D5F80031002B80F242
:102F90008980012702234FF00008594EC5F80471BB
:102FA00006EB4310D0F80C115D1EC9074FEA43121F
:102FB00016D502F1402202F52022D2F800115B0062
:102FC000C1F38111C0F8087101FA03F348EA03085C
:102FD000D2F800311FFA88F823F0C003C2F800319C
:102FE000EBB29C42DCD9474E04EB4405012706EBCB
:102FF000C50505E00134E3B2032B05F1180568D0DF
:1030000004F1FF39630009EB490C48FA03F306EBBE
:10301000CC0013F0030200F110015FFA84FB4FEAC9
:10302000CC0CE7D0007D6301824603F1402303F519
:103030002023D3F800E12AF0010A2EF0C00E4EEA58
:103040008212C3F80021C3F80471D3F8002100F004
:103050000100002A4FEA490E81F804A03DDAD3F8B6
:10306000042142F00202C3F804210028C2D055E92D
:1030700003E255F8103C55F814CC1344AEEB0202B1
:1030800045F80C2C0979624455F818CC5846CDF80F
:1030900000C0A3EB0E03DFF870C0C1F34001E047AE
:1030A0000028A7D1002003B0BDE8F08F02F4C05380
:1030B000002C3FF43CAFB3F5006F0CD0B3F5805F4C
:1030C00008BF032622F4C052012792B234E7072337
:1030D0004FE70120E7E70226F4E756F80C40584690
:1030E000002CDFD0D3F80031CE441B0748BF4BF093
:1030F000800006EBCE060246F1680120A047D1E72A
:1031000000400A40A0330020192E08000021164B71
:1031100000F00F0203EB021310B4996001060AD409
:10312000124C1348531E03EB430300EBC300012171
:10313000234610BC1847510101F1402101F520211F
:10314000D1F81C3113F4402FEAD04FF4007401F58C
:103150008A700460D1F81C319B05FBD4D1F81C3176
:1031600013F4402FF5D1DBE700430A40911E08001D
:10317000A0330020074AD2F8E03023F0030343F0E5
:103180000203C2F8E030D2F8E03043F00403C2F8A2
:10319000E030704700400A40074AD2F8E03023F0A0
:1031A000030343F00203C2F8E030D2F8E03043F00A
:1031B0000803C2F8E030704700400A40044AD2F8E1
:1031C000E03023F0030343F00203C2F8E03070471D
:1031D00000400A402DE9F0418EB06D464FF00108E5
:1031E000EC46204E204F0FCE0FC50FCE0FC50FCE91
:1031F0000FC596E8030045F8040B2970C7F808814D
:10320000D7F80031CCF1005E6FF3090343F06B0394
:10321000C7F80031C7F80481D7F8E0300DF1350464
:1032200023F0030343F00203C7F8E030D7F8E0309F
:103230000EF5C01E43F01003C7F8E0300CEB0E0390
:103240001CF8012BA4451A70F8D14FF480614FF49B
:103250000062054BC3F81811C3F814210EB0BDE885
:10326000F08100BF9CAE080000400A40034642695E
:10327000920743BFC1F308010020D96101207047C4
:103280004369DB0705D583690020C3F308030B609E
:1032900070470120704700BF431E022B1ED82DE946
:1032A000F0411746C2B10D4614460E4EDFF8388085
:1032B00002E0631E0CD01C463068D8F8003015F8C8
:1032C000011B98470028F4DA4FF0FF30BDE8F08189
:1032D0000137381BBDE8F0811046F7E74FF0FF30AB
:1032E000704700BFF8330020F43300200FB400B55E
:1032F000074A83B004AB106853F8042B816801932C
:1033000000F008F803B05DF804EB04B0704700BFAC
:10331000240500202DE9F04F05460E46C3B012AF3C
:1033200092460021082238461C46AB460296099375
:1033300001F0B6FE1DB16B6B002B00F01F87029AE7
:10334000536EB2F90C20DE0740F14081950400F184
:10335000DB85029942F4005223F400538A814B66C4
:1033600012B2160740F1BE80029B1B69002B00F0D1
:10337000B98002F01A030A2B00F0C380002319AAB7
:103380009146CDE91733CDE90B3316920D93059392
:103390005546934BD3F8E44001F006FF2A46034616
:1033A00010A958460097A047002800F0C980C0F235
:1033B000BF80109B252B01D00544EAE7B5EB0A0638
:1033C000044640F0C18000224FF0FF339046049342
:1033D0006B7805F1010A8DF83B2006920AF1010A8B
:1033E000A3F120025A2A00F2FD80DFE812F09103D7
:1033F000FB00FB008C03FB00FB00FB006E03FB00EB
:10340000FB006B003302FB002E02A103FB009C03B8
:103410005B005B005B005B005B005B005B005B00D4
:103420005B00FB00FB00FB00FB00FB00FB00FB0064
:10343000FB00FB00EA010903FB00FB00FB00FB00B3
:10344000FB00FB00FB00FB00FB00FB003902FB0064
:10345000FB00FB00BD01FB003403FB00FB00DE05AD
:10346000FB00FB00FB00FB00FB00FB00FB00FB0084
:10347000FB00FB00EA017B01FB00FB00FB002703D4
:103480007B017600FB003204FB0023040C04BD0327
:103490007600FB00BD0173007102FB00FB000A0611
:1034A000FB007300A3F13002002319461AF8013B18
:1034B00001EB810102EB4101A3F13002092AF5D9A8
:1034C00006918DE7099B53F8042B002A0692099375
:1034D000C0F2B8819AF8003080E79AF8003048F0DE
:1034E00020087BE7029D5846294601F0DDFC0028B4
:1034F00040F0F387B5F90C2002F01A030A2B7FF491
:103500003DAF0299B1F90E30002BFFF637AF4B6E8D
:10351000D80702D4920540F1878723465246584681
:10352000029901F013F80590059843B0BDE8F08FBB
:1035300008220021384601F0B3FD0120054428E7A8
:10354000B5EB0A06044611D0189BC9E900A633441E
:103550001893179B0133072B179311DC09F1080906
:10356000059B33440593002C7FF42DAF189B002B53
:1035700040F066870022029B1792B3F90C3019E0E5
:103580005846029916AA01F023F880B90DF1640992
:10359000E6E75846029916AA01F01AF8002800F04A
:1035A0008C80079B1BB15846079901F0DBFF029BFB
:1035B000B3F90C30029A526ED00740F189805B0655
:1035C00000F13C81059843B0BDE8F08F910540F1D2
:1035D0001E8196047FF5BDAE9D047FF5C2AE25E148
:1035E000B8030020002BC1D001228DF8A4300023A5
:1035F000CDE90323089229AD8DF83B30079318F0ED
:103600008406DDE917C0014662462BD1069B039C68
:103610001C1B002C00F320849DF83B302BB30026AC
:103620000A96012301320131C9F80430072A0DF14D
:103630003B03CDE91721C9F8003000F3A68309F157
:1036400008090A9B73B1022301320231C9F8043020
:10365000072A0FABCDE91721C9F8003000F38883A2
:1036600009F10809802E00F00283049B08981C1AB7
:10367000002C00F33E83089B01321944072ACDE950
:103680001721C9F80050C9F8043000F3658309F127
:10369000080918F0040F05D0069B039A9C1A002C09
:1036A00000F38083DDE9053203988242ACBF9B18AA
:1036B0001B18059300297FF46CAF00231793079B19
:1036C0001BB15846079901F04DFF0DF164095FE603
:1036D0009A053FF574AF029CA06D01F0F1FDB4F9BD
:1036E0000C306CE718F0200F00F04484099B07337E
:1036F00023F007031A465B6852F8084B1E460992EE
:10370000002BC0F28E81049A002A05DB54EA0603DE
:1037100028F0800800F095840A2C76F1000380F0F0
:10372000F78004F13003DBB2049A8DF80731012AE7
:10373000B8BF01229DF83B300392002B00F0DD83DF
:10374000039B0024013303930123CDE907430DF2CA
:10375000071518F08406DDE91721084694463FF462
:1037600055AF00230A935CE70022099E8DF83B20A9
:1037700056F8042B0792002A00F02A85532B00F0FC
:10378000668418F0100440F06284049A002AC0F2A3
:103790002E862146079801F095FD9DF83B20079D58
:1037A000002800F07C86431B089323EAE37303930D
:1037B000002A00F06B860133049409960393079462
:1037C000C7E7099A432B02F1040403D018F0100F45
:1037D00000F02D840822002114A801F061FC099A50
:1037E00029AD14AB29465846126802F04DFC034639
:1037F0000133089000F03B86089B23EAE3730393B0
:10380000002309948DF83B3007930493F7E6029D5B
:10381000A86D01F053FDB5F90C206B6E90047FF597
:1038200098AD99047FF59DADDB0707D4029B9B897A
:103830009F0503D4029B986D01F042FD4FF0FF33CA
:103840000593BFE6069B5B4206939AF8003048F06A
:103850000408C3E52B238DF83B309AF80030BDE512
:1038600018F0200F48F0100000F09683099B0733F2
:1038700023F007031A46596852F8083B09920022C0
:103880008DF83B20049A002AC0F2348353EA0102E7
:1038900020F4906800F03C8342AD03F00702DB089F
:1038A00043EA4173C908303253EA0104284605F857
:1038B000012DF2D118F0010340F0AC82049A079375
:1038C00042AB5B1B9A42B8BF1A460893039296E636
:1038D00018F0200F40F0DA80099A18F0100652F81C
:1038E000043B40F0088618F0400100F088849CB248
:1038F000049B8DF83B60002B04DB28F08008002C33
:1039000000F0BF800A2C76F100030992FFF409AFA2
:10391000CDE9078A0020DDF82CA042A908F48065D3
:10392000CDF80C9025E0A319C04A43F10003A2FB97
:10393000032C2CF0030202EB9C024FF0CC3CA1467E
:10394000B6469B1AE31A0CFB03F2B84C66F100066C
:1039500004FB0622A3FB0443B9F10A0F13444FEA08
:1039600054047EF1000E414644EAC3744FEA530604
:103970002CD3DFF8B8E2A31943F10003AEFB032C0C
:103980002CF0030202EB9C029B1AE31AA3FB0E32FB
:1039900066F1000C0EFB0C225B0843EAC27303EBDA
:1039A0008303A4EB43033033013001F1FF3801F806
:1039B000013C002DB7D09AF800308342B3D1FF28E4
:1039C000B1D00A2C76F1000380F061844546049959
:1039D00042AA521B9142B8BF11469DF83B30DDF818
:1039E0000C90CDF82CA00391DDE9078A0892002BFA
:1039F00000F0E683039B0133039300230793A8E6BB
:103A000018F0200F48F0100340F09B82099A04320E
:103A1000099998460C680992E6173346002BBFF6C1
:103A200072AE2D238DF83B30049B644266EB460654
:103A3000002BFFF671AE28F080086DE69AF8003092
:103A4000682B03BF9AF8013048F400780AF1010AA4
:103A500048F04008C2E418F0200F48F0100116D1D9
:103A6000099B1A1D0026099B04981B68B0421C463E
:103A70008DF83B60C0F2C78221F08008002B7FF4F4
:103A800041AF049B0992DBB100244AE64146099B01
:103A9000073323F007031A465E6800238DF83B3096
:103AA000049B52F8084B002B0992C0F2AD8254EAF5
:103AB000060321F080087FF42FAE049B002BE3D196
:103AC00008930393079342AD99E5584601F072FBC2
:103AD000436818460D9301F0ABFC0C900446584621
:103AE00001F068FB81689AF800300B91002C3FF4DC
:103AF00075AC00293FF472AC0A78002A3FF46EAC32
:103B000048F480686AE49AF8003048F0010865E4F7
:103B10009DF83B209AF80030002A7FF45FAC202209
:103B20008DF83B205AE49AF8003048F0800855E4BC
:103B3000504610F8013B2A2B00F0C384A3F1300259
:103B4000092A98BF002100F2748410F8013B01EBB0
:103B5000810102EB4101A3F13002092AF5D941EAC2
:103B6000E172824604923BE447F630030022099C4E
:103B7000049DADF83C3054F8043B9542114618467C
:103B80008DF83B20C0F2438228F0800242F0020808
:103B90000994002B00F027830224254A03F00F0329
:103BA000D35C03948DF80731030943EA01730809D4
:103BB00053EA111100F0BA840DF2071503F00F015A
:103BC000515C1B0943EA0073000905F8011D53EA23
:103BD0000001F3D1049A42AB5B1B9A42B8BF1A466C
:103BE00008931346039A002A00F08F84DDE9172119
:103BF000023318F0840608469446039300F050827E
:103C0000002307931FE518F0200F40F0CC81099A9C
:103C100018F0100152F8043B40F0838418F0400083
:103C200000F00783404609929BB228E6CDCCCCCC6D
:103C3000D8AC080018F0200F00F08681099B059A87
:103C40001B681A60D2175A60099B04330993FFF767
:103C50009FBB9AF800306C2B03BF9AF8013048F0F4
:103C600020080AF1010A48F01008FFF7B7BB069BCD
:103C700003981C1A002C7FF7F8AC102C40F3F58346
:103C8000BA4B48461026C146A8461D4604E0103CE3
:103C9000102C00F1080015DD01321031072AC0E9AF
:103CA0000056CDE91721F2DD5846029916AA00F018
:103CB0008FFC00287FF475ACDDE91721103C102C37
:103CC00019A8E9DC2B464546C84681460132214405
:103CD000072ACDE91721C9F80030C9F8044000F3DC
:103CE0005E82049B089809F108091C1A002C7FF7D2
:103CF000C2AC102C9D4B21DD48461026994604E0AD
:103D0000103C102C00F1080016DD0132974B1031E9
:103D1000072AC0E90036CDE91721F1DD584602999E
:103D200016AA00F055FC00287FF43BACDDE9172112
:103D3000103C102C19A8E8DC4B4681460132214486
:103D4000072ACDE91721C9F80030C9F8044000F36B
:103D5000C38009F108098EE45846029916AA00F0BA
:103D600037FC00287FF41DAC18990DF1640990E42C
:103D70005846029916AA00F02BFC00287FF411ACDB
:103D8000DDE917210DF164096CE45846029916AA81
:103D900000F01EFC00287FF404ACDDE917210DF1D2
:103DA00064094EE4102C179B40F354831025704E89
:103DB000DDF8088004E0103C102C09F1080916DD3C
:103DC00001331031072BC9E90065CDE91731F2DD68
:103DD0004146584616AA00F0FBFB00287FF4E1ABF1
:103DE000DDE91731103C102C0DF16409E8DC0133DA
:103DF0002144072BC9E90064CDE917317FF752ACA4
:103E00005846029916AA00F0E3FB00287FF4C9ABDC
:103E1000189947E4302A00F0B6813023049A02381A
:103E200005F8013C42AB1B1A9A42B8BF1A46054638
:103E30000893039218F08406DDE91721084694469A
:103E400000F078839DF83B30002B00F07683002350
:103E500007930A93FFF7E5BB00230A93102C6246F1
:103E600040F3EC8249461023C146414EA846029DCC
:103E700004E0103C102C01F1080117DD0132103074
:103E8000072AC1E90063CDE91720F2DD294658462B
:103E900016AA00F09DFB00287FF483ABDDE9172014
:103EA000103C102C4FF0100319A9E7DC4546C8461A
:103EB000894601322118072ACDE91721C9F8006087
:103EC000C9F8044000F32E819DF83B6009F1080910
:103ED0008EB30026FFF7A5BB5846029916AA00F03C
:103EE00077FB00287FF45DABDDE917210DF1640954
:103EF000FFF7C1BB20F48068CEE4079301230DF2E5
:103F000007150893FFF77BBB98047FF52AAA95E471
:103F1000049A002A7FF4C0AC10F00102039200F072
:103F2000FB8030238DF80731049B089207930DF234
:103F30000715FFF764BB0A9B002B7FF484ABFFF7E8
:103F400094BB9846FFF7D2BB18F0100F40F03B81AE
:103F500018F0400F40F0468218F4007F00F03381E3
:103F6000099B059A1B681A706EE600BFD4AE080064
:103F7000E4AE0800099A18F0100F52F8044B40F014
:103F8000D28218F0400F099200F05D8144F3C036F0
:103F9000334624B2FFF7B4BB099B1A1D099B0021CD
:103FA0001B6809926BE4404660E4B14A18F02001B6
:103FB00000F098800999073121F00701084604466E
:103FC00054F8080B4968099418F00105039571D05D
:103FD00050EA010440F0BD8000238DF83B30049B83
:103FE000002BC0F24B8128F4906800F0E681137832
:103FF0000DF207158DF80731039B0893049B03937B
:1040000018E79C4AD2E709928846FFF785BB10461D
:10401000984A03F00F01515C1B0948F002088DF823
:104020000711099400F0738202210391C4E5099BF2
:1040300029AD1B688DF8A430012303930893FFF783
:10404000DFBB002A00F0AE813023FFF76DBB079B7A
:104050000822002114A8119301F022F8049B002BE0
:10406000C0F25E810024CDF80C90254699460FE001
:1040700014AB584629A902F007F8431C04F10404C4
:10408000284400F0F481484506DC00F0058205462E
:10409000119B1A59002AEBD1DDF80C9004954EE1E2
:1040A000069C039B0796E41A002C7FF7CCAA0223F8
:1040B0000A93D3E6039B8DF83B30049B002B22DB55
:1040C00050EA010328F4906854D10499002900F0C3
:1040D000CB80137803918DF8073101230DF207157A
:1040E0000893A7E6099C54F8040B099418F01004EF
:1040F0007FF46AAF18F0400100F0B080214680B232
:1041000062E748F0020808F0020400F00F03D35CF5
:10411000039428F4806845E5049B42ADCDE907335C
:10412000FFF76DBA5846029916AA00F051FA0646F2
:1041300000287FF436AADDE917219DF83B30002BDB
:1041400073D10A9B0DF16409002B7FF47CAAFFF761
:104150008CBA8DF83D3030238DF83C3000238DF83B
:104160003B30049B002BCCDB28F4906343F0020827
:104170000223039300F00F03D35C13E5284600F0FD
:1041800097FBFFF7DCB8049A42AB5B1B9A42B8BFBF
:104190001A460893002303920793FFF730BA584654
:1041A000029916AA00F014FA00287FF4FAA9DDE9B2
:1041B00017210DF16409FFF758BA079D049309967A
:1041C0000793FFF71CBA099B059A1B681A603BE529
:1041D000049B294D062B28BF0623099603930492BE
:1041E0000893FFF70CBA002D00F0EA80302301227B
:1041F0008DF8073108922B460DF20715F6E418F4F6
:10420000007640F0E18004991C4600298DF83B605F
:10421000FFF678AB28F08008002B7FF473AB0B46D9
:10422000099200297FF430AC4AE40DF16409FFF7EC
:10423000F8B918F4007100F0D180014609924046A7
:10424000DBB2FFF71CBB18F4007F14BF44F3C016A9
:10425000E617334618BF64B2FFF752BA18F4007479
:104260000CBF2146C0B2AFE6049B42AD0893E1E526
:10427000C4AC0800D8AC0800ECAC08001378089572
:104280008DF8073128F480680DF20715D2E50C9AF5
:104290000D99A8EB0209484600F050FF9AF801304A
:1042A0000BB10AF1010A4FF0CC310120A44AA31945
:1042B00043F10003A2FB03CE2EF0030C0CEB9E0C8B
:1042C000A3EB0C03E31A03FB01F166F10006A3FB69
:1042D000023402FB0611C340214443EAC17421FAAF
:1042E00000F6A31943F10003A2FB031C2CF0030109
:1042F00001EB9C015B1AE31AA3FB023166F1000C8F
:1043000002FB0C12C34043EAC27303EB8303A4EB2A
:104310004303303309F1FF3809F8013CFFF74BBB89
:1043200014AB009300235846194611AA01F0D2FE9F
:1043300003460133049000F09A80079B1193049B7D
:104340002BB3632B68DC002329AD079308220021DF
:1043500014A800F0A5FE049C14AB00932946234644
:10436000584611AA01F0B6FE844240F0C7800023EF
:10437000049A22EAE271AB54039111469DF83B2066
:10438000002A69D1CDE908160492FFF738B99DF8E3
:104390003B30079D003B18BF01230393049B099604
:1043A000089347E59DF83B303BB1049B42ADCDE916
:1043B000073301230393FFF7CCB9049BFFF780BBBE
:1043C000049B42AD089311E4DCB2049B0E46002B23
:1043D0008DF83B10BFF691AAFFF794BA40460992B8
:1043E000FFF74DBA099B059A1B681A802CE4079DBC
:1043F000284601F01DF89DF83B3020EAE072089055
:104400000392002B3FF4D9AE13460133049409966E
:1044100003930794FFF79DB95846591C01F09EF984
:10442000054620B3079091E7886D00F049FFFFF73C
:1044300074B8002282460492FEF7D2BF414E38E59E
:104440005846029916AA00F0C3F800283FF492A833
:10445000FFF7ADB83B4ECAE4049A0493039BCDE941
:10446000082601330393FFF774B9374B2EE4029803
:10447000B0F90C30426E43F04001D50781813FF521
:10448000DDA999053FF5DAA9FFF725B9079D049243
:1044900009960792FFF7B3B8DDF80C904FE742B1E9
:1044A000049A099608920132CDE903200790FFF79C
:1044B00050B9049B0792CDE9033209960893FFF7A0
:1044C0009EB8099A9AF8013052F8041B8246099264
:1044D00041EAE1720492FEF781BF029A536EDD0752
:1044E0003FF5ACA993899C053FF5A8A9906D00F014
:1044F000E7FEFFF7A3B94146FFF7B4BA029A9389E2
:1045000043F040039381FFF74CB8039392E40122F8
:10451000049B0892012BB8BF01230DF20715FFF78A
:1045200065BB40463AE54346FFF772BA0DF2071500
:10453000FFF750BB0796FFF769B80793FFF792B8EC
:10454000CDCCCCCCE4AE0800D4AE08002DE9F041CF
:104550004FF480650027ADF58D6D1AAECDE9055796
:10456000984607460096049616468B8916A823F0AF
:104570000203ADF80C304B6E02951993CB890D46B2
:10458000ADF80E30CB696C4607934B6A099300F087
:1045900091FE3246434669463846FEF7BBFE061E8C
:1045A00007DB6946384600F0B5F8002818BF4FF021
:1045B000FF36A3895B0603D5AB8943F04003AB818B
:1045C000A06D00F079FE30460DF58D6DBDE8F081EF
:1045D000936810B514461BB918460023636010BDDC
:1045E00000F090F90023A3600023636010BD00BFBA
:1045F000B1F90C20F8B513070C46074648D44968B2
:1046000042F400630029A3815FDDA66A002E3DD03D
:10461000002112F480523D68396062D1012338468E
:10462000E169B047461C024668D0B4F90C30A66A6E
:10463000580705D56368D21A236B0BB1E36BD21A06
:104640000023E1693846B047411CB4F90C304AD127
:1046500039681D293FD82E4ACA40D2073BD50022CF
:1046600062602269DE04226023F40062A28101D527
:10467000002941D0216B3D6041B104F140039942D2
:1046800002D0384600F06EFF002323630020F8BDFF
:104690000E69002EFAD0920718BF00230D6808BFDC
:1046A0004B690E60AD1B8B600CE02B463246D4F894
:1046B00024C03846E169E047B0F1000CA5EB0C05D9
:1046C000664406DD002DF0DCE0E7E16B00299CDCB0
:1046D000DCE7B4F90C3043F040034FF0FF30A38126
:1046E000F8BD226DA4E7002262602269226023F4F3
:1046F0000062DB04A281BDD52065BBE73B68002BCF
:1047000093D01D2B01D0162BE3D13D60BEE700BF37
:104710000100402038B505460C4608B1436B03B391
:10472000B4F90C0088B1636EDB0701D481050FD5A5
:1047300028462146FFF75CFF636E0546DA0702D480
:10474000A3899B0508D5284638BD0546284638BDAF
:10475000A06D00F0B3FDEBE7A06D00F0B1FD2846C1
:1047600038BD00F0A5F8DBE7024A0349034800F032
:1047700035BA00BFAC03002095830800280500204F
:104780000C4B416810B59942044601D003F002FE7B
:10479000A168094B994202D0204603F0FBFDE16875
:1047A000064B994204D02046BDE8104003F0F2BD0C
:1047B00010BD00BFFC33002064340020CC34002046
:1047C0002DE9F84300250423304C314A3149DFF804
:1047D000C890DFF8C880324F324E116004F15C009F
:1047E00029460822C4E90335C4E90055C4E9055542
:1047F000A560656600F054FC04F15800C4E907495F
:10480000C4E90987E66200F055FD274B29460822D6
:1048100004F1C4006367C4E91A55C4E91E5525674D
:10482000C4F8CC50C4F8805000F03AFC04F168039E
:1048300004F1C000C4F88430C4E92298C4E92476A5
:1048400000F038FD194B294604F596700822C4F88B
:10485000DC30C4E93455C4E93855C4F8D850C4F83C
:104860003451C4F8E85000F01BFC04F1D003C4E953
:104870003D87C4F8F09004F59470C4F8FC60C4F867
:10488000EC30BDE8F84300F015BD00BFFC3300205C
:104890003435002069470800194E08003D4E0800D5
:1048A0007D4E0800A14E0800090001001200020020
:1048B00010B504460A4800F001FD636B23B9094BAB
:1048C000094A1B68626323B1BDE81040044800F048
:1048D000F7BCFFF775FFBDE81040014800F0F0BCE1
:1048E000443500203435002081470800014800F09D
:1048F000E5BC00BF44350020014800F0E1BC00BF2A
:10490000443500209368002B00F0B2802DE9F04F71
:10491000B1F90CC017461CF0080F80460C4683B056
:1049200025D00B691BB31CF002033D682BD04FF060
:10493000000B5E46DFF8A0A2002E00F088805645EE
:1049400033465A4628BF53464046E169D4F824C04E
:10495000E047002840F38480BB6883441B1A361A62
:10496000BB60002BE8D1002003B0BDE8F08F2146EA
:10497000404600F099FA002877D1B4F90CC03D68A0
:104980001CF00203D3D11CF0010973D14E46002E56
:1049900059D01CF4007F2068D4F808B000F0AD8036
:1049A000B3455A4600F2DC801CF4906F32D0236984
:1049B0006269A0EB030A02EB420202EBD2720AF137
:1049C000010152103144914292BF93468B460A46F0
:1049D0001CF4806F00F0E2801146404600F0BEFEFD
:1049E000002800F0F28052462169019000F0AAFCF4
:1049F000A289019B22F4906242F08002A28103EB23
:104A00000A002361C4F814B0ABEB0A033246B34684
:104A1000A3602060B24600264946019200F0C2FA27
:104A2000A368019AA3EB0B012368A16013442360E0
:104A3000BB68D144A3EB0A03BB60002B93D0B4F94D
:104A40000CC0002EA5D1D5E9009608359FE7D5E921
:104A500000B6083570E721464046FFF75BFE68B3B5
:104A6000B4F90C3043F04003A3814FF0FF307BE7F3
:104A7000002070471E46BA46994618461F465EB348
:104A800080B34A4620682169B24228BF3246884234
:104A9000636904D9A16803EB010B5A4570DC9342AA
:104AA00061DC3A464046E169D4F824C0E047B0F101
:104AB000000BD5DDB9EB0B09CDD00120DAF80830B9
:104AC0005F44A3EB0B03A6EB0B06CAF80830002BE0
:104AD0003FF449AF002ED3D16E682B460835002E27
:104AE000FAD01F6832460A21384600F0EBFB002856
:104AF00068D00130A0EB0709C3E72369834217D3CD
:104B00006369B34214D86FF0004CB44528BFB44673
:104B10009CFBF3FC4A4603FB0CF34046E169D4F8E6
:104B200024C0E047B0F1000A9ADDA6EB0A067FE751
:104B3000B345DA4628BFB2464946524600F032FA3B
:104B4000A3682268A3EB0A035244A3602260002BEF
:104B5000EBD121464046FFF7DDFD0028E5D07FE799
:104B6000B346324656E73946019200F01BFA019AE5
:104B7000A36893469B1AA36023681344236099E7B4
:104B800039465A4600F00EFA236821465B444046F7
:104B90002360FFF7BFFD00288CD061E7194640462F
:104BA00001F0BCF8034600287FF429AF4046216994
:104BB00000F0D8FC0C22B4F90C30C8F8002023F027
:104BC00080034FE7721C91465CE70C22B4F90C306D
:104BD000C8F8002046E700BF00FCFF7F2DE9F8433E
:104BE0004FF0000980460F461646D6E90154013DB4
:104BF00010D4A389012B08D9B4F90E30013304D0A5
:104C000021464046B84749EA0009013D6B1C04F1C2
:104C10006804EED13668002EE7D14846BDE8F88337
:104C2000B1FA81F252094FF48063520000F000B8EB
:104C30002DE9F041664C0E46D4F800801746044634
:104C40001D4684B0B8F1000F04D0D8F83430002BE2
:104C500000F0A680022F05D0012F00F2A580002DC4
:104C6000C0F2A280636EDB073DD521464046FFF7C8
:104C700051FD216B41B104F14003994202D04046FD
:104C800000F070FC002323630022B4F90C30A26111
:104C90001906626057D423F44A6323F00303022FFA
:104CA000A3815DD003AB2146404602AA03F03AFC43
:104CB000A3891843A081EDB1EEB1D8F8343043B3E5
:104CC000029AB4F90C30AA421CBF43F40063A381DA
:104CD000012F22D01807C4E90465266027D5D9071B
:104CE00053D4A56025E0A3899805BED4A06D00F03B
:104CF000E5FABAE7029D284600F028FD064600289E
:104D000055D0A38943F08003A381D8F83430002B19
:104D1000D6D14046FFF7CCFDD2E743F00102C4E90B
:104D2000046512B226601E07A2812FD4134600220A
:104D3000A260626ED20701D49B052DD500252846BE
:104D400004B0BDE8F0814046216900F00BFCB4F9E5
:104D50000C30022F23F44A6323F00303A381A1D173
:104D600000250020012104F1430222602261626ECD
:104D700043F00206D207A681A0606161DFD49F05DF
:104D8000DDD4A06D00F09CFAD9E71A4600216D42EF
:104D90001346A561A160CCE7A06D00F091FACDE7C4
:104DA0004046FFF785FD55E74FF0FF35C7E7029B0B
:104DB000AB4208D01846019300F0C8FC019B0646A0
:104DC0001D4600289DD14FF0FF35B4F90C30C8E7DF
:104DD000240500200EB470B504466FF0004600258F
:104DE0009DB00B4A21AB0B49106853F8042B059179
:104DF00002A9CDE90134049607961B95069401F0AB
:104E000075F9029B1D701DB0BDE8704003B070477E
:104E1000240500200802FFFF10B50C46B1F90E1062
:104E200000F0F4F9002803DB236D0344236510BD73
:104E3000A38923F48053A38110BD00BF2DE9F04165
:104E40000C46B1F90C101F46CB05054616460BD48F
:104E500021F48051A1813B4632462846B4F90E1018
:104E6000BDE8F04100F0E8B9B4F90E1002230022C9
:104E700000F0B6F9B4F90C10EAE700BF10B50C4623
:104E8000B1F90E1000F0ACF9B4F90C30421C0EBFB1
:104E900023F4805343F480532065A38110BD00BFE9
:104EA000B1F90E1000F08AB938B53D4B05461B68C4
:104EB0000C4613B15A6B002A5AD0B4F90C301907BA
:104EC0000BD522699AB113F0010221D19B0756BF7D
:104ED0006369A260A360002038BDDA0658D5580780
:104EE0001CD4226943F00803A381002AEBD1990561
:104EF00028D5180603F0800124D4D80741D49D0793
:104F00003CD5A2600029E6D043F04003A38144E0F1
:104F100000226369A2605B42A361DCE7216B51B1AF
:104F200004F14002914204D0284600F01BFBB4F982
:104F30000C30002222630021226923F02403C4E9FB
:104F40000021CFE72146284603F084FAB4F90C305B
:104F5000226913F001010FD000206169A06049426D
:104F6000A161002AB7D103F080010029B3D0CBE7BB
:104F70001846FFF79DFCA0E7980700D46169A1607F
:104F8000EFE76069A2604042A0610029A3D0BBE7BF
:104F9000092243F040032A60A3814FF0FF3038BD5F
:104FA0002405002088420DD98B1883420AD900EBD2
:104FB000020C5AB3624613F801CD994202F801CDB2
:104FC000F9D170470F2A0DD802F1FF3CF2B10CF174
:104FD000010C431E8C4411F8012B614503F8012F8D
:104FE000F9D1704740EA01039B07F0B50C460ED09B
:104FF000034602F1FF3C0CF1010C013B8C4411F81B
:10500000012B614503F8012FF9D1F0BD7047A2F1E2
:10501000100525F00F0501F1200E01F11003AE443B
:1050200000F1100C53F8106C10334CF8106C53F85E
:105030001C6C0CF1100C4CF81C6C53F8186C4CF8F0
:10504000186C53F8146C73454CF8146CEAD101EBEE
:10505000050C0CF11001054412F00C0F05F11003C2
:105060008E4602F00F0518D0043D25F00305AC4430
:105070000CF1140C041B0F460E193F6804316145F6
:105080003760F8D12C1D04EB0E01234402F003021B
:1050900002F1FF3C002AAED1F0BD2A46F8E700BF7E
:1050A000830730B546D08446841805E0634603F88C
:1050B000011B9D0703D09C46A445F7D130BD013AA2
:1050C0000244A2EB0C02032A29D9CCB204EB04243B
:1050D0000F2A04EB04442FD9A2F1100C2CF00F0C72
:1050E00003F11005AC44C3E90044C3E902441033A2
:1050F0006345F8D112F00C0F02F00F0E18D01A46CB
:105100002EF0030C9C44AEF1040542F8044B6245BA
:10511000FBD125F0030404330EF003022344002ADC
:10512000CCD0C9B21A4403F8011B9342FBD130BD65
:105130007246F4E70346C6E79646E0E740EA010315
:105140009B0710B524D1032A22D98E468446DEF867
:1051500000407146A4F1013323EA040313F0803FB9
:105160000EF1040E15D1043A032A4CF8044BEED884
:10517000714601F1FF3E52B163461EF8011F541EF5
:1051800003F8011B41B122469C46002AF4D110BD10
:10519000844601F1FF3EEEE79444002CF7D003F87B
:1051A000011B6345FBD110BD014B93F828017047EB
:1051B000B803002000487047A8040020002238B53A
:1051C000064D044608462A60FCF7EEFC431C00D05E
:1051D00038BD2B68002BFBD0236038BD383500204C
:1051E00038B50C46114600228446074D20462A60F9
:1051F0001A466446FCF7E4FC431C00D038BD2B681B
:10520000002BFBD0236038BD3835002038B50C4664
:10521000114600228446074D20462A601A466446FD
:10522000FCF718FC431C00D038BD2B68002BFBD0CA
:10523000236038BD3835002038B50C4611460022B1
:105240008446074D20462A601A466446FEF724F835
:10525000431C00D038BD2B68002BFBD0236038BD29
:105260003835002070B50F4B0F4DAB42A3EB050650
:1052700007D00024B61055F8043B01349847A642E5
:10528000F9D805F049FF094D094B5E1BAB424FEAC7
:10529000A60606D0002455F8043B01349847A642E0
:1052A000F9D870BD24B1080024B1080024B1080069
:1052B0002CB10800704700BF704700BF704700BFA7
:1052C000704700BF30B586468007CCB215D0F44693
:1052D0000EEB020507E0634613F8011BA14206D05E
:1052E000990705D09C4665456046F4D1002030BD45
:1052F000013A72449E46A2EB0C02032A0CD8002A03
:10530000F4D07346724401E09A42EFD0184613F885
:10531000011BA142F8D130BD714604EB042505EB19
:1053200005458E4651F8043B6B40A3F1013020EA5D
:10533000030313F0803FE4D1043A032AF1D88E46E8
:10534000DDE700BF844641EA000313F0030349D1BF
:10535000403A23D30B6803604B6843608B688360DB
:10536000CB68C3600B6903614B6943618B698361DF
:10537000CB69C3610B6A03624B6A43628B6A8362C7
:10538000CB6AC3620B6B03634B6B43638B6B8363AF
:10539000CB6BC36340304031403ADBD230320BD369
:1053A0000B6803604B6843608B688360CB68C360A5
:1053B00010301031103AF3D20C3205D351F8043BBF
:1053C00040F8043B043AF9D2043208D0D2071CBF9B
:1053D00011F8013B00F8013B01D30B8803806046C4
:1053E000704700BF082A13D38B07B1D010F0030316
:1053F000AED0C3F10403D21ADB071CBF11F8013B86
:1054000000F8013BA4D331F8023B20F8023B9FE7B0
:10541000043AD9D3013A11F8013B00F8013BF9D223
:105420000B7803704B7843708B78837060467047BD
:1054300020F0030110F00300C0F1000051F8043B1C
:1054400000F1040C4FEACC0C6FF000021CBF22FAF2
:105450000CF213434FF0010C4CEA0C2C4CEA0C4CB0
:10546000A3EB0C0222EA030212EACC1204BF51F8A9
:10547000043B0430F4D0C2F1000102EA0102B2FAA6
:1054800082F2C2F11F0200EBD2007047024B13B14F
:10549000024800F005B870470000000001860800CF
:1054A000002301461A46184603F002B92DE9F843D5
:1054B00006460820894603F0B7F80546DFF89880CD
:1054C000304600F01FFCD8F808305F6827F003076B
:1054D000A7F11104A4EB09042C44B4FBF5F4013C3E
:1054E00005FB04F4A54208DC0021304603F070F807
:1054F000D8F808303B44984205D0304600F008FC0C
:105500000020BDE8F8833046614203F061F80130C5
:105510000FD0124AD8F808303F1B47F001075F60F0
:10552000136830461B1B136000F0F2FB0120BDE83E
:10553000F8830021304603F04BF8D8F80820831A8E
:105540000F2BDADD43F001035360054B03491B6861
:10555000C01A0860D1E700BF780600204C35002053
:105560006C06002000295AD0F8B50C46074600F01A
:10557000C9FB54F804CC724DA4F108022CF00103CD
:10558000D118A8684E68884226F003060CF0010E78
:105590007CD04E608819406800F00100BEF1000F19
:1055A0002ED154F8084C05F1080C121B23449468C2
:1055B000644560D0D2F80CE0C4F80CE0CEF80840A6
:1055C00000287DD043F0010050600B60B3F5007FF0
:1055D0002ED25809D908012383406868013103435A
:1055E0006B6055F8310005EBC103083BC2E90203CB
:1055F00045F83120C2603846BDE8F84000F088BB6D
:1056000070B9334405F1080C886843F00104604523
:105610006ED0C968C16088605460D350D6E77047C7
:105620004CF00101B3F5007F44F8041CD350D0D3F3
:10563000B3F5206F4FEA532144D2990901F13900A3
:1056400001F13804C100681869580838884203D14C
:1056500055E08968884204D04C6824F003049C42D9
:10566000F7D8C868C2E9021082603846BDE8F84041
:10567000CA6000F04DBB80BB1E44D1E90213CB6071
:10568000996046F0010353609651B4E71E44BEF1A1
:10569000000F07D154F8083CD21A1E44D2E9021375
:1056A000CB60996046F001035360264BAA601B68EB
:1056B000B342A0D8244B38461968FFF7F7FE9AE7A3
:1056C0003344A1E714290DD954291FD8190B01F12E
:1056D0006F0001F16E04C100B5E743F001005060B6
:1056E0000B6088E701F15C0001F15B04C100AAE7EF
:1056F000C5E90422C2E902CC5460D3507BE7012300
:10570000A410A3406C6823436B60ABE7B1F5AA7F9C
:1057100006D8D90B01F1780001F17704C10092E7B6
:1057200040F25450814206D8990C01F17D0001F1FC
:105730007C04C10087E74FF47E717E2483E700BFBD
:1057400078060020700600207C350020024B0146C0
:10575000186800F003B800BF240500202DE9F04FC1
:1057600001F10B05162D064683B024D8102900F24E
:10577000AE8000F0C7FA102518234FF0020CC04F7E
:105780003B445C68A3F10802944200F05F8130461C
:105790006368E268A16823F00303CA602344916050
:1057A0005A68083442F001025A6000F0B1FA20460B
:1057B00003B0BDE8F08F35F0070500F18880A942FD
:1057C00000F2858000F09EFAB5F5FC7FC0F0B18153
:1057D0006B0A00F08380042B00F26E81AB0903F1A9
:1057E000390C03F1380E4FEACC00A54F3844446819
:1057F0000838A04207D10DE0002AE16880F220813C
:10580000884207D00C46636823F003035A1B0F2A13
:10581000F2DDF446DFF86C823C69444500F0FD801F
:10582000636823F00309A9EB05030F2B00F38681BE
:10583000002BC7E9048880F27081B9F5007FD7F8A2
:1058400004E080F00A8101234FEAD9014FEA591997
:10585000194403FA09F357F831204EEA030E07EB17
:10586000C103083BA260E360C7F804E047F8314099
:10587000D46001204FEAAC039840704535D810EA57
:105880000E0F07D12CF0030C400010EA0E0F0CF1A4
:10589000040CF9D007EBCC0AD646E146DEF80C3012
:1058A0000BE059681C4621F003014A1B0F2ADB68F4
:1058B00000F30F81002A80F223819E45F1D109F186
:1058C000010919F0030F0EF1080EE7D160E10C2376
:1058D00033600024204603B0BDE8F08F4FF4007021
:1058E0004FF0400C4FF03F0E7FE7BC68636823F039
:1058F0000309A94504D3A9EB05030F2B00F39080FE
:10590000614B08201B6803F1100804EB09030093A6
:1059100002F08AFE5D4A83461368A844013305D02D
:1059200008F1FF388044434203EA08084146304604
:1059300002F04EFEB0F1FF3F8246544A00F019815A
:1059400004EB0903834200F21281514B0BF1FF3C3F
:1059500018684044186000F068811168013100F057
:10596000708104EB0902AAEB020202441A601AF0E9
:105970000702CDE9002300F02A81C2F10802924417
:10598000D04408EA0C015A44521A02EA0C0B594658
:10599000304602F01DFE421C019B00F06F81A0EB1F
:1059A0000A0000EB0B08186848F001025844BC429A
:1059B000C7F808A01860CAF8042017D0B9F10F0F73
:1059C00040F242814FF0050C6168A9F10C0222F00F
:1059D000070201F00101114361600F2A04EB02018B
:1059E000C1E901CC00F25281DAF804205446294B77
:1059F0001968814238BF1860274B1968814238BF47
:105A0000186022F00308A845A8EB050301D30F2B6B
:105A100006DC304600F07CF95BE7D7F804E028E7C5
:105A2000621943F0010345F0010565603046BA6034
:105A30000834536000F06CF9204603B0BDE8F08FE5
:105A4000A2683046D16023448A60A9E6DC68A3429C
:105A50007FF49DAE0CF1020CDCE6B9F5206F4FEA45
:105A600059227DD3142A00F2C58002F15C03DB00C9
:105A70005B32F918FB580839994212D19EE000BFF9
:105A800078060020800600207C3500206C0600206F
:105A90004C35002078350020743500209B689942F1
:105AA00004D05A6822F003024A45F7D8D968C4E9FD
:105AB00002318C60DC60DCE6142B5DD9542B00F2E3
:105AC000A2802B0B03F16F0C03F16E0E4FEACC009A
:105AD0008BE6D4F808C03046661945F001056560CC
