:0200000280007C
:1000000000300820DD2E08002529080025290800D9
:1000100025290800252908002529080000000000DE
:10002000000000000000000000000000252908007A
:1000300025290800000000002529080025290800BE
:100040002529080025290800252908002529080058
:100050002529080025290800252908002529080048
:100060002529080025290800A92A0800B92A08001E
:10007000C92A080025290800252908002529080083
:100080002529080025290800252908002529080018
:100090002529080025290800252908002529080008
:1000A00025290800252908002529080025290800F8
:1000B0002529080025360800252908000348044B97
:1000C000834202D0034B03B118477047E4D40800C1
:1000D000E4D40800000000000548064B1B1AD90FA5
:1000E00001EBA301491002D0034B03B1184770473D
:1000F000E4D40800E4D408000000000010B5064C69
:10010000237843B9FFF7DAFF044B13B10448AFF388
:1001100000800123237010BD800A00200000000031
:10012000E4D4080008B5054B1BB105490548AFF3F9
:100130000080BDE80840FFF7CFBF00BF000000000F
:10014000840A0020E4D408000022F0B51E4B83B0DE
:10015000984204460F4601922ED01C4B984223D061
:100160001B4B984210D01B4B984215D01A4B98420B
:1001700008D11A4E01AD29462046B0470028FAD1D1
:10018000019B3B7003B0F0BD144E01AD29462046E3
:10019000B0470028FAD1F3E7104E01AD29462046BA
:1001A000B0470028FAD1EBE70C4E01AD29462046B6
:1001B000B0470028FAD1E3E7094D39462046A84761
:1001C0000028FAD103B0F0BD00060E40000009403F
:1001D000004009400080094000C0094085460800F1
:1001E000D13108001D4B70B5984204460D4615D01C
:1001F0001B4B98421AD01B4B98421FD01A4B984267
:1002000004D01A4B984221D0002070BD184E2946C8
:100210002046B0470028FAD1012070BD154E29466E
:100220002046B0470028FAD10120F6E7104E2946B3
:100230002046B0470028FAD10120EEE70C4E2946AF
:100240002046B0470028FAD10120E6E7084E2946AB
:100250002046B0470028FAD1DEE700BF00060E4076
:1002600000000940004009400080094000C00940EA
:1002700071460800C131080010212DE9F04188B015
:100280000DEB0100754B9847DFF8D4810820C0477B
:10029000744C754A4FF4006114604FF4E132734BB3
:1002A000CDE90221724A734D1A60734A734B0820DC
:1002B0001A60734B0193C04701A92046714B9847C0
:1002C0002B68714C98680021A0472B680021586862
:1002D000A04701226D4B1A70BFF35F8F62B60020FA
:1002E0004FF480716A4B6B4A186099806A4E904750
:1002F0006A4B984735466A4F04AC284654F8042B9D
:100300006849B84708ABA34205F10805F5D10025B7
:100310000920654C86F82050C04764492920A04731
:1003200062492A20A04761492B20A0475F492C2021
:10033000A0475E492D20A0475C492E20A0475B497D
:100340002F20A04759493020A04758493920A047BD
:1003500056493A20A04755493B20A04753493C20E5
:10036000A04752493D20A04750493E20A0474F4951
:100370003F20A0474E492620A0474C493320A047A4
:100380004A493720A04749493420A04748492720F7
:10039000A04746494F20A04745492820A047434948
:1003A0004020A04741494120A04740494220A04762
:1003B0003E494320A0473D494420A0473B494520B2
:1003C000A0473A494620A04738494720A047374927
:1003D0004820A04735494920A04734494A20A04732
:1003E00032494B20A04731495420A0472F4955207E
:1003F000A0472E495620A0472C495720A0472B49FB
:100400005820A04729495920A04728495A20A047E9
:1004100026493520A0472946264A2748274B984792
:100420004FF00C3229462448254B98474FF01012C4
:1004300029462148234B984741F2030229461E488A
:10044000214B9847214B9847214B9847214B984780
:10045000214B9847214B9847FEE700BF2929080008
:10046000052E080000060E40F8330020F43300206B
:10047000E501080024050020490108008833002018
:1004800000D8B8058931080029720800040300204B
:10049000903300201D3008009C010020AD2808008A
:1004A000DD730800D4CA0800112B08000100000801
:1004B000010000100004040400000E40A92E0800F2
:1004C000B52E0800C12E0800CD2E0800C527080053
:1004D00029210800950B0800F5080800E11E080016
:1004E00070B5084B084A0520D3E9005490470749E6
:1004F000074A04F1C0440C6015604C20BDE8704010
:10050000044B1847383200207D270800A40A002039
:10051000A00A0020192A08002DE9F0410E4F012001
:10052000D7E900450D4EB04710200D4B984774B1E8
:1005300007EB040CEC1F0B4DFB1DE41B0CF1070C2F
:10054000E21813F8010F296863458854F8D133463F
:10055000BDE8F04100201847383200207D27080010
:10056000192A08000003002010B5064A064B042093
:1005700054689847054A10201460054BBDE81040A8
:10058000184700BF383200207D2708009C0A002051
:10059000192A080070B5084B084A0220D3E9005414
:1005A00090474C20064B9847294604F1C040054A25
:1005B000054BBDE870401847383200207D27080001
:1005C000192A0800B10608005532080042F2273304
:1005D00010B5074A14689C4200D910BD4C20054B49
:1005E00098472146BDE81040034A0448044B184789
:1005F00038320020192A0800B1060800AC0A002091
:100600005532080070B590B969B10F4D0F4A2B688B
:100610000F4C1944206812F801CB00F803C00133D5
:100620008B42F7D12B600B4B9847042807D0BDE8CD
:1006300070404FF48061084A0448084B1847084B43
:1006400000209847F3E700BF9C0A0020F82D002007
:1006500000030020B92708000506080075320800CD
:100660007D2708000D4A5378122B03D0152B01D09B
:100670000020704710B50024094B0A48196800682B
:100680009181094990601C608847052801D00120AC
:1006900010BD2046054B9847F9E700BFD83300202E
:1006A000A00A0020A40A0020B92708007D2708001E
:1006B00000B1704710B5054B04469847022800D09A
:1006C00010BD2046BDE81040014B1847B92708006F
:1006D0007D2708002DE9F04F374A384B14681B6816
:1006E00056681B1BB34283B003D342F227339C42AC
:1006F00002D903B0BDE8F08F4C20314B9847002E53
:1007000040D0304D6B8801339BB20020A4086B8031
:10071000288049D04FEA840A0127D4462A4B2B4A25
:100720001B68D2E9004803EB060B294ED2E902E32D
:10073000B246002283EAC32384EAD441CDE9000E05
:100740005940A14681EA13240BEB0001087824FAF2
:1007500002F3DBB2984202F1080280EA030E18BFEE
:100760002F80202A0AF801EB01F10101EED1DDE929
:10077000000E04308445734606F104060FD0C646C9
:10078000C846D5E71349114AD1E90150C2E90150E1
:10079000C868096801230B4D1160D060B5E70B4BA9
:1007A000C3E90049C3E9028E04220B490B4B0D60DB
:1007B0001A6003B0BDE8F08F38320020C00100207D
:1007C000192A0800A80A002000030020E82D0020B4
:1007D000AC0A0020D82D0020A40A0020A00A002086
:1007E0002DE9F047234C1020D4E90057224B9847BD
:1007F0006FB9D4E90201214A214BC2E90001C3E9E2
:100800000001D4E90401C2E90201C3E90201AD0813
:100810002ED04FF0000CDFF864901A4C4FEA850898
:10082000D9E90006D9E90252002382EAC22280EA0D
:10083000D04A8AEA020A864607EB0C018AEA1220AD
:1008400020FA03F2D4F800A00833D2B2202B0AF821
:10085000012001F10101F3D10CF1040CC4452A4639
:1008600002D035467646DFE7C9E9000EC9E90265E0
:10087000BDE8F08738320020192A0800E82D002052
:10088000D82D00200003002008B5124A5378103BF1
:10089000082B0AD8DFE803F00B0E1114171A090908
:1008A00005000D4B1361012008BD002008BD0B4B56
:1008B0001361F8E70A4B1361F5E70A4B1361F2E79E
:1008C000094B1361EFE7094B9847ECE7084B1361BD
:1008D000E9E700BFD8330020CD05080095050800E2
:1008E00069050800E104080019050800E10708008F
:1008F000D506080010B5044B04489847BDE81040E1
:100900000348044B184700BF190908006506080092
:10091000890808004109080007490A780F2A01D907
:1009200000207047034610B4044C501C087044F873
:100930002230012010BC7047BC320020C0320020A1
:1009400007490A780F2A01D900207047034610B4DE
:10095000044C501C087044F82230012010BC704731
:10096000783200207C320020004B1847E127080035
:10097000004B184705280800054B1B7803B9704742
:1009800010B5044B9847BDE81040034B184700BF13
:10099000C4010020194008002128080038B50124AE
:1009A000044D4FF48061044A044B05482C7098476D
:1009B000204638BDC4010020050608007532080035
:1009C000F82D00200022014B1A707047C40100204E
:1009D00038B50F4B0F4AD9880F48402928BF40210E
:1009E0001278986099818AB10C4C531EDBB2251F96
:1009F000D31A04EB820405EB830501E0AC4205D079
:100A000054F8043D98470028F8D038BD002038BD80
:100A1000D833002078320020383200207C32002089
:100A200038B50B4B1A788AB10A4C531EDBB2251F1E
:100A3000D31A04EB820405EB830501E0AC4205D038
:100A400054F8043D98470028F8D038BD002038BD40
:100A5000BC320020C0320020044B5A78222A03BF47
:100A6000034A01201A610020704700BFD8330020DC
:100A7000750A080010B5224B9B78013B102B0AD851
:100A8000DFE803F00A161B09090909090909090920
:100A90000909092D3A0010BD3E201A4B98471A4CFF
:100AA000A0470028FCD0BDE810401020174B184785
:100AB0001020BDE81040164B184701220C21154BA1
:100AC00015489847154B9847154A53689903FCD425
:100AD000136843F0254343F005031360FEE70F4B13
:100AE00098470F4A53689B03FCD4136843F025438F
:100AF00043F005031360FEE70A4BBDE810401847BA
:100B0000D8330020692D08008D2D0800B12C080075
:100B10000D2D0800D928080000080E40653F080088
:100B200000120E40AD27080038B5144C6378172B1F
:100B30001AD0402B16D14FF0200C114D114B3722FB
:100B400093E80300104B85E80300104905F1090004
:100B500085F808C0984728460D4BA5609847A081A6
:100B6000012038BD002038BD40F2011000210322D1
:100B7000034BA281A36018809970F1E7D83300205D
:100B8000F831002048CE08004577080054CE080010
:100B9000017C080010B5044B04489847BDE810409C
:100BA0000348044B184700BF19090800290B080027
:100BB000590A08004109080084B0F0B505468FB015
:100BC0000DF1540C8CE80E00189B06AE00939CE8C7
:100BD0000E0030460D4FB8471C9B0AAC009319AB72
:100BE00020460ECBB84794E80F000DF1040C8CE8BA
:100BF0000F00099B28460093054F96E80E00B84762
:100C000028460FB0BDE8F04004B07047F51008006A
:100C1000E90E080084B02DE9F04F804693B01DA87E
:100C200080E80E00209B0AAD009390E80E00344E41
:100C30002846B047249B0EAC009321AB0ECB204638
:100C4000B04740462F4B9847DFF8BC90DFF8BCB068
:100C50001BE00D9B3046009395E80E00D84796E8C0
:100C60000F002B4F85E80F0094E80F00B8470746A8
:100C7000119B3046009394E80E00DFF898A0D0470F
:100C800096E80F0084E80F003FB395E80F00C847CF
:100C9000E8B194E80F00C847C8B195E80F001E4EB0
:100CA000B04706AE0028D4D094E80F0001AFD8F8C2
:100CB0000CC087E80F00CDF800C0304698E80E0061
:100CC000164FB84796E80F0088E80F00C1E7404686
:100CD00013B0BDE8F04F04B07047114B0DF1040C98
:100CE0000FCB8CE80F00119B3046009394E80E0068
:100CF0000A4FB84796E80F0084E80F00C5E700BF29
:100D0000F5100800810E0800810F0800311008005E
:100D1000E1100800B10F0800BD100800E90E08003E
:100D200060CE080084B02DE9F04F804693B01DA836
:100D300080E80E00209B0AAE009390E80E00284D3C
:100D40003046A847249B0EAC009321AB0ECB204627
:100D5000A8474046234B9847DFF88CA0DFF88C90DB
:100D6000DFF88CB018E001AF96E80F0087E80F00BD
:100D70000D9B2846009396E80E00C84795E80F00A3
:100D8000119F009786E80F0094E80E002846D84788
:100D900095E80F0084E80F0094E80F00D047C0B139
:100DA00094E80F00134DA84706AD0028DBD096E865
:100DB0000F0001AF87E80F00D8F80C3006AD0093A4
:100DC000284698E80E00C84795E80F0088E80F000D
:100DD000CAE7404613B0BDE8F04F04B0704700BF0B
:100DE000F5100800B10E0800810F0800150C08006E
:100DF00031100800BD10080084B0F0B506468FB071
:100E000015AC84E80E000F4B0DF1180C0AAD0FCB9A
:100E10000D4F8CE80F0061462846B84795E80F0053
:100E20000DF1040C8CE80F00189B30460093074F1F
:100E300094E80E00B84730460FB0BDE8F04004B06B
:100E4000704700BF70CE0800510E0800250D080045
:100E500030B5094B85B01A680446002A6B4604DD9C
:100E60006846064D9200A84703460FCB84E80F0062
:100E7000204605B030BD00BF80CE0800157B0800BD
:100E800030B5094B85B01A680446002A6B4605DD6B
:100E900000216846054D9200A84703460FCB84E821
:100EA0000F00204605B030BD80CE0800A9760800AE
:100EB00070B50B4B84B01D680446002D6B4605DDF4
:100EC00000216846074EAA00B04703460FCB012613
:100ED00084E80F002046013D44F8256004B070BD51
:100EE00080CE0800A976080084B02DE9F04391B0C7
:100EF000074619A880E80E001F4B08AD1E680FC8F2
:100F0000002E85E80F0034DD0CACB6002946DFF872
:100F10006C9032462046C84794E80F000DF1740CDF
:100F20008DE80F009CE80F0085E80F002946324647
:100F30002046C84794E80F000DF11009EC46C8465A
:100F4000A64689E80F000DEB06055CF8043B58F84F
:100F5000042B654583EA02034EF8043BF5D194E87F
:100F60000F0087E80F00384611B0BDE8F04304B029
:100F700070470CACF3E700BF80CE0800157B08007B
:100F800084B08DE80F00094B196800290CDD6A4612
:100F9000002301E08B4205D052F8040B01330028F6
:100FA000F8D0012004B070470020FBE780CE080095
:100FB00084B02DE9F0438DB0054615A880E80E00F9
:100FC000194B04AF1E6808AC002E0FC887E80F004D
:100FD0001FDD3946154BB2002046984794E80F00B4
:100FE0004FF0000CEE4627468DE80F0006F1FF3962
:100FF0005EF8043BCC4518BFDEF800204FEA4303FF
:101000000CF1010C18BF43EAD273664547F8043B64
:10101000EED194E80F0085E80F0028460DB0BDE83A
:10102000F04304B0704700BF80CE0800157B080075
:1010300084B02DE9F0418CB0054613A880E80E007D
:101040001C4B04AF1E6808AC002E0FC887E80F00C9
:1010500025DD3946184BB2002046984794E80F002A
:101060004FF0000E27460EF1010E8DE80F00ADF196
:10107000040C4308B64508930CF1040C07F104076F
:101080000DD0DCE900320EF1010EDB0743EA52031A
:10109000B6453B600CF1040C07F10407F1D194E86C
:1010A0000F0085E80F0028460CB0BDE8F04104B001
:1010B000704700BF80CE0800157B080084B00DF19A
:1010C000100C0CE90F00054B1B680CEB830353F865
:1010D000140C00F0010004B0704700BF80CE08007F
:1010E00084B00DF1100C0CE90F00C043C00F04B028
:1010F000704700BF84B030B585B00DF1240C8CE88A
:101100000E000A4B04461A686B46002A05DD61464C
:101110006846074D9200A84703460FCB84E80F00AE
:10112000204605B0BDE8304004B0704780CE0800CE
:10113000157B080011601860704700BF0B46014620
:101140001846704708B5064B9847064B1A68431E69
:1011500048BF831C02EBA30393FBF2F008BD00BF62
:10116000017C080080CE08002DE9F04F274B074690
:1011700085B008460E469847254B411E1B6848BF60
:10118000811C03EBA10191FBF3F9B9F1000F80463B
:1011900011DD3C464FF0000A6D46DFF878B0284676
:1011A0000AF1010AD84795E80F00CA4584E80F0004
:1011B00004F11004F3D109F1FF31B8F1000F22D08E
:1011C0004FF0000E4FF0030C734606EB080010F8CA
:1011D000014D07EB011555F82C209C4008332243A4
:1011E000202B45F82C200CD100230EF1010EBEF16E
:1011F000040F05BF4FF0030C9E460CF1FF3C01F1BC
:10120000FF31B042E3D105B0BDE8F08F017C0800AA
:1012100080CE0800810E080070B50E46294B002EC6
:101220001B6803FB01F14FEA810E1CDD0025041F42
:10123000002941DDA44600220AE013F47F0F15D1F6
:1012400013F47F4F1CD128BB9142AEF1040E2BD07A
:101250005CF8043F0132180ED8B2EED00135AE4230
:1012600004F11004E6D10EF1010070BD0135AE426B
:101270000EF1FF3E04F11004DCD10EF1010070BD4F
:101280000135AE42AEF1020E04F11004D2D10EF1DE
:10129000010070BD0135AE42AEF1030E04F1100441
:1012A000C8D10EF1010070BD0135B54204F1100442
:1012B000C0D10EF1010070BD0135AE4204F1100441
:1012C000B6D1D0E780CE0800F8B50F4606461146E5
:1012D0003846134B541E984701281CDD0025032176
:1012E0002B4600F1FF3EB64407EB041252F82120D2
:1012F00022FA03FC0833202B0EF801CD09D100237C
:101300000135042D05BF03211D4601F1FF3104F114
:10131000FF347645E8D10023064406F8013CF8BDC9
:1013200019120800002A12DDF8B50C4603460849D8
:10133000084F0D6804EB0216AD00214618462A46F8
:10134000B84703461034B4422B44F6D1F8BD704779
:1013500080CE0800157B08002DE9F0438FB006AD64
:1013600085E80F00184695E80E000AAC114D009074
:101370002046A8470026104FDFF84090DFF8408055
:1013800002AD0EE094E80F00C84784460D9B284646
:10139000009394E80E006644C04795E80F0084E887
:1013A0000F0094E80F00B8470028EBD130460FB08B
:1013B000BDE8F083F5100800810F0800BD1008009B
:1013C000311008002DE9F04F264B9FB0934604469C
:1013D0008A46984700220023CDE90A2300220223EF
:1013E0000025CDE90C2312A81F4B0AA9CDE90E5503
:1013F000CDE910559847AB4530DDA946AAF1040A5E
:101400000DF158081AAF01AD06AE5AF8043F404638
:1014100011930EA9144B984798E80F0085E80F0028
:10142000159B3846009312ABDFF840C00ECBE04767
:1014300097E80F00D4F80CC085E80F00CDF800C085
:10144000304694E80E00DFF828C009F10109E047B2
:1014500096E80F00CB4584E80F00D6D120461FB098
:10146000BDE8F08F810E0800510E0800250D080020
:10147000B90B080082B02DE9F04F99B006AF07F123
:10148000700484E80C008200D31D23F00703ADEB49
:10149000030D00288046396106AB04DD18460021A3
:1014A000514CA047034600261946B3463346C24670
:1014B00008F1FF327A61BBF17F0F7ADC534578DAAD
:1014C0007A6941F823B09A420DD00BF1010BBBF1C0
:1014D000800F75D0581C824572DD03467A6941F849
:1014E00023B09A42F1D107F11806524630463F4CDC
:1014F000BB60F960A047D7E902313A69002A53DDA1
:10150000C7E902B34FF000099346DFF8E48001AC6D
:1015100007F1900579602FE007F170030FCB84E8A5
:101520000F007B6A07F13800009396E80E00C04771
:1015300007F13803DFF8BCC00FCBE04750452EDD84
:1015400007F180030FCB84E80F00FB6F07F17000F9
:10155000009390E80E00C04707F1A0030FCB84E88A
:101560000F00D7F89C302846009309F1010995E84F
:101570000E00C047CB4514D095E80F0084E80F005B
:101580007B6A07F12800009396E80E00C04707F138
:101590002803DFF860C00FCBE0475045BCDC0020DB
:1015A0001BE07968D7E902B30BF1010BBBF1800FA7
:1015B00086D1013B10D351F8230000F1010B7AE7EB
:1015C00051F8230000F1010BBBF17F0FF1DC9A45CC
:1015D0003FF776AF013BEEE701204C37BD46BDE853
:1015E000F04F02B0704700BFA9760800C51308008D
:1015F000150C08005913080084B070B582B00DF1C5
:101600001C0C8CE80E00DDE90A350093104E9CE8B6
:101610000E000446B0471F2D04DD3F2D10DC0221D3
:10162000203D00E003210122204654F82130AA4049
:10163000534044F8213002B0BDE8704004B0704718
:101640005F2DD5BF01210021403D603DEBE700BF8C
:10165000F51008002DE9F843B1F1000818DD002469
:10166000051FDFF830900C4F05EB880655F8040F86
:10167000C84701462046B847B5420446F6D1404621
:10168000064B9847064B014620469847BDE8F8832D
:101690000024F4E751540800F1520800595408009E
:1016A000695608002DE9F04F0B1E83B0019328DD29
:1016B00015460024A0F1040BDFF84CA0DFF84C80A5
:1016C000134F144E0BEB83095BF8040FD0472946E8
:1016D000C0470146B84701462046B047D9450446B1
:1016E000F2D101980C4B98470C4B01462046984785
:1016F0000B4B98470B4B98470B4B984703B0BDE8F3
:10170000F08F0024EDE700BF51540800ED520800AF
:1017100001550800F15208005954080069560800A4
:10172000E54B0800F14608004552080008B52E2197
:10173000024B034A0348044CA04700BFDCCA080020
:101740008CD00800F0CA08008D58080008B5362172
:10175000024B034A0348044CA04700BF20CB0800BB
:101760005CD00800F0CA08008D58080008B53E217A
:10177000024B034A0348044CA04700BF2CCB08008F
:1017800028D00800F0CA08008D58080000000000AA
:1017900010B516A1D1E9000182B001AB6A460C4C2C
:1017A000A047009B2BB90B4B019A9A4207D102B07C
:1017B00010BD1421084B094A09480A4CA0471521BD
:1017C000094B064A0648074CA04700BFAFF300800C
:1017D00035110800A4CD53FF38CB0800ECD0080029
:1017E000F0CA08008D58080048CB0800A4CD53FF6C
:1017F000000000000000000010B516A1D1E90001B2
:1018000082B06A4601AB0C4CA0474FF65373009A66
:101810009A4205D1094B019A9A4207D102B010BDF4
:101820002121074B074A0848084CA0472221084BB2
:10183000044A0548054CA047351108005743A4CD7C
:1018400038CB0800B0D00800F0CA08008D58080056
:1018500048CB08005743A4CD53FF000030B51A4BC6
:1018600091B003F1100C04AD0FCB8DE80F009CE894
:101870000F0085E80F00154B154908A898476C46DE
:101880002A4608AB0DF1300C53F8040B52F8041B38
:1018900088420DD16345F7D123460BAA53F8041BA8
:1018A00052F8040F884209D1AB42F7D111B030BDD4
:1018B0004C21084B084A0948094CA0474D21094BC7
:1018C000054A0648064CA04728D1080069110800BF
:1018D00058CB080070CB080010D00800F0CA0800F0
:1018E0008D58080094CB080030B585B0684608498B
:1018F000084B98479DE80F00074DA84708B905B069
:1019000030BD5821054B064A0648074CA04700BF8A
:10191000A0CC080069110800810F0800B8CB0800AE
:10192000E8CF0800F0CA08008D580800F0B5174B42
:1019300099B003F1100C04AC08AD0FCB144F8DE837
:101940000F009CE80F0084E80F00214628460CACED
:10195000B84720466946B84795E80F000DF1400C9E
:101960008CE80F0094E80F0018AC04E90F00094E52
:1019700002216046B047172801D119B0F0BD65219A
:10198000054B064A0648074CA04700BF28D108006F
:10199000510E080019120800D8CB0800B4CF080077
:1019A000F0CA08008D580800F0B5194B9FB003F13C
:1019B000100C04AC08AD0FCB164F8DE80F009CE85F
:1019C0000F0084E80F00214628460CACB84720469B
:1019D0006946B84795E80F000DF1580C8CE80F00E8
:1019E00094E80F001EAC04E90F000B4E614610A8EE
:1019F0000222B04709490A4B10A8984708B91FB0FE
:101A0000F0BD7521074B084A0848094CA04700BFA4
:101A100028D10800510E0800C912080058CB080050
:101A2000D9780800E8CB08009CCF0800F0CA08006D
:101A30008D5808002DE9F041224CA8B004F1100C9B
:101A400004AF08AE94E80F000CAD8DE80F009CE8E1
:101A50000F00DFF8748087E80F0069463046C04702
:101A600039462846C04796E80F000DF1800E8EE8F3
:101A70000F0095E80F0004F1200C28AD10AC05E92B
:101A80000F00BCE80F000FC49CE80F000F4F84E864
:101A90000F000222714618A8B8471FAC17AB0FAA57
:101AA00053F8040F52F8041F884204D1A342F7D11F
:101AB00028B0BDE8F0818921054B064A0648074C4D
:101AC000A04700BF48D10800510E080025130800A8
:101AD00010CC080070CF0800F0CA08008D5808002C
:101AE0002DE9F0434FF000084FF00009002689B0BF
:101AF00004AC0C4F204669460B4BCDE90089CDE97B
:101B000002670A4D984794E80F00A8470A2802D1B7
:101B100009B0BDE8F0839421054B064A0648074CFE
:101B2000A04700BFDE230100510E08005913080032
:101B30002CCC08005CCF0800F0CA08008D580800C3
:101B400030B5134C8FB00DF1240C0FCCACE80F0066
:101B5000234653F8042B0F4DCCF800200FCB8DE813
:101B60000F00052209A904A8A8476A4604AB08ACDF
:101B700053F8040B52F8041B884203D1A342F7D157
:101B80000FB030BDA021044B044A0548054CA047C6
:101B900088D10800C51308003CCC080044CF0800D9
:101BA000F0CA08008D5808002DE9F0479EB00EAC31
:101BB0002046214B9847119B12AE0093DFF87C80A2
:101BC00094E80E003046C047119B16AD009394E890
:101BD0000E0028461A4FB847199B1AAF0093384693
:101BE00095E80E00C04797E80F000DF1280888E837
:101BF0000F000DF1180E95E80F008EE80F000DF1A3
:101C0000080C96E80F008CE80F000DF1400A9AE8E6
:101C1000030094E80C00DFF82C908DE8030002210B
:101C20000120C84710B91EB0BDE8F087B121064BAE
:101C3000064A0748074CA047810E0800F510080027
:101C4000F90D08007514080058CC08002CCF0800C6
:101C5000F0CA08008D5808002DE9F047254BA2B0C6
:101C600012AC0EAD0FCB85E80F0029462046224B63
:101C70009847159B16AE0093DFF8808094E80E001D
:101C80003046C047159B1AAD009394E80E002846D5
:101C90001B4FB8471D9B1EAF0093384695E80E00BA
:101CA000C04797E80F000DF1280888E80F000DF1F4
:101CB000180E95E80F008EE80F000DF1080C96E85D
:101CC0000F008CE80F000DF1500A9AE8030094E829
:101CD0000C00DFF830908DE8030002210120C84796
:101CE00010B122B0BDE8F087C221074B074A08486F
:101CF000084CA047ACD10800510E0800F5100800B0
:101D0000F90D08007514080060CC080014CF080015
:101D1000F0CA08008D5808002DE9F041174D92B027
:101D20000AAE0EAF95E80F0086E80F003146384640
:101D3000134B98470123119A0193009202AC10357E
:101D400095E80F00DFF83C8084E80F0097E80E006C
:101D500006A8C047224606AB53F8040B52F8041BF2
:101D6000884204D1B342F7D112B0BDE8F081CE2150
:101D7000054B064A0648074CA04700BFBCD10800E7
:101D8000510E0800F915080068CC0800E0CE0800E4
:101D9000F0CA08008D5808002DE9F041174D92B0A7
:101DA0000AAE0EAF95E80F0086E80F0031463846C0
:101DB000134B98477E23119A0193009202AC203571
:101DC00095E80F00DFF83C8084E80F0097E80E00EC
:101DD00006A8C047224606AB53F8040B52F8041B72
:101DE000884204D1B342F7D112B0BDE8F081DB21C3
:101DF000054B064A0648074CA04700BFBCD1080067
:101E0000510E0800F915080068CC0800ACCE080097
:101E1000F0CA08008D58080010B58AB0EC460D4C89
:101E20000FCCACE80F000FCCACE80F0094E8030037
:101E3000094B8CE803000A2168469847074B08497C
:101E4000984708B10AB010BDE621064B064A07487C
:101E5000074CA047ECD10800551608002958080087
:101E600033332043E0CA08009CCE0800F0CA0800C3
:101E70008D58080010B58AB0EC46104C0FCCACE879
:101E80000F000FCCACE80F0094E803000C4B8CE87B
:101E900003000A21684698470A210246094B684612
:101EA0009847094B0949984708B10AB010BDF1217C
:101EB000074B084A0848094CA04700BFECD108006E
:101EC00055160800A51608002958080081D1674357
:101ED000E0CA080084CE0800F0CA08008D58080047
:101EE00010B51D4B98471D4B98471D4B4FF653702F
:101EF0001C4998474FF653731A4A994208BF9042BB
:101F000024D11948194CA047022823D11848A047CA
:101F100001281DD1174B9847174B9847174B9847E7
:101F2000174B9847174B9847174B9847174B9847AD
:101F3000174B9847174B9847174B9847174B98479D
:101F4000174B9847BDE81040164B1847164B98475B
:101F5000164B9847164B984791170800F917080039
:101F60003D1108005743A4CD58CB08004511080087
:101F7000A0CC08005D180800E91808002D19080019
:101F8000A9190800351A0800E11A0800411B0800C9
:101F9000A91B0800591C0800191D0800991D0800FC
:101FA000191E0800751E08002D1708006D1708007F
:101FB0004D170800174B1B7833B3174B1B681B6872
:101FC0001A79824220D930B5144D2B60B3F802C083
:101FD0009C4463451BD24FF0000E06E01A784FF088
:101FE000010E1344634511D21C465A78042AF5D1D8
:101FF0009A788242F2D1DA788A42EFD1BEF1000FAC
:1020000000D02C60012030BD002070472B600020E4
:1020100030BD00BF0C330020083300200433002003
:10202000024A034B508800F07F001847D833002045
:10203000E93F08002DE9F04100211A4D0446A84768
:1020400040B3DFF86480D8F800305B6853F8246050
:10205000F368984701462046A8470546D0B1134B80
:10206000134F1C68D8F80020237812681C4453884A
:102070001A44A24206D808E0052B0FD023781C444E
:10208000A24202D96378042BF6D173689847284698
:10209000BDE8F08100252846BDE8F081A078B8476A
:1020A000E0E700BFB51F080008330020043300201C
:1020B000354008002DE9F041144B0546984710B310
:1020C000134B144E1C68144F316823780A681C4463
:1020D00053881A44A24206D808E0052B0DD0237875
:1020E0001C44A24202D96378042BF6D14B6853F802
:1020F0002530BDE8F0411B681847A288E178A07838
:10210000B8470028E0D10020BDE8F081B51F0800E5
:102110000433002008330020F9420800014B1868FE
:10212000704700BF04330020004B1847A13E080051
:10213000F8B50C4F3B787BB10B4D2B681B681B79B6
:1021400053B100242046094EB0472B6801341B6868
:10215000E0B21B798342F7D80023054A3B70138015
:10216000F8BD00BF0C3300200833002035200800E4
:102170000E33002038B50B4B1B7893B10A4D2B68FA
:102180001A6812796AB100245B6853F824301B691D
:1021900003B198472B6801341968E2B2097991427A
:1021A000F2D838BD0C3300200833002000232DE97D
:1021B000F0479C4C82B02288C4E90433B2F5E07F3A
:1021C000A38100F0A58094F900202378002A0EDB7B
:1021D00013F0600F6BD013F01E0F36D003F01F0307
:1021E000022B00F09D80002002B0BDE8F087E1885E
:1021F0000029F8D013F0600FEDD113F01F0240F06A
:10220000CB816378062B00F03581082B00F011821A
:10221000DBB9022919D18448844B98477CE0012A14
:1022200000F08880022A40F089806278012A00F05C
:10223000F281032ACFD1E28861880A4392B2002A50
:1022400000F01E8213F01E0F6AD1A388022B04BF78
:102250000123A380764B1B78002BC4D0754F2579C2
:102260003E6833681B799D423ED3227802F01F02FC
:10227000022AB8D1002BB6D00024DFF8BC81254655
:1022800004E03E6833681B79AB42ACD9736853F8FD
:102290002460F368984701462846C0470028A2D02A
:1022A000B36898470134E5B20028EAD09CE713F000
:1022B0001F02B4D16378013B082BC6D801A252F8A3
:1022C00023F000BF592408004B22080055230800C2
:1022D0004B220800472308004B2208004B2208002D
:1022E0004B2208007723080000212846DFF84881A8
:1022F000C04758B1736853F82560F36898470146A2
:102300002846C04710B1B368984728B9237865E7D5
:102310009E214A48454B9847012002B0BDE8F0870E
:10232000434B1B78002B3FF45EAF424F3E6833684F
:102330001B799FE762780B2A00F0828113F01E0F51
:102340007FF451AF81E7E388002B7FF47EAF3C4BF5
:102350002361E1E7E388002B7FF477AF6388022BEA
:102360007FF473AF374B984718B12379002B00F0F7
:10237000E38123782FE7E388002B7FF466AF324BAD
:1023800098470028F5D0DFF8BC90C847DFF8BCA01C
:10239000A378002800F06D81DAF80820527C9A4278
:1023A000E7D3DFF88C8098F800307BB1214F3B6891
:1023B0001B681B7953B100252846254EB0473B6862
:1023C00001351B68E8B21B798342F7D80022164B0F
:1023D0001A80A37888F80030002B9DD0C84798F861
:1023E000003003F10053013BDB00002800F06A815C
:1023F000DAF8102013441A680E4F12793B60002A55
:102400008AD00025134E2B4604E03A6812681279F0
:102410009A4281D918460021B0470135EBB2002815
:10242000F3D1A6E7D83300200E330020294008005E
:102430000C33002008330020B51F08006002002084
:1024400021200800D93F080009400800200300208F
:1024500035200800B5200800E388002B7FF4F5AE96
:102460006388012B7FF4F1AE9E4A138823F00203A8
:10247000138051E76288130A013BD5B20E2B3FF659
:10248000E4AE01A252F823F01F250800F52408004D
:10249000E72408004B2208004B220800DB24080038
:1024A000352508004B2208004B2208004B2208006B
:1024B0004B2208004B2208004B2208004B22080048
:1024C000C524080021218848884B9847E388A289C1
:1024D0009A427FF621AFA3811EE7854A834BD068DD
:1024E00001789847F2E7032D3FF6AFAEDFE805F03D
:1024F0004C4937517F4B98477D4B002800F0D680E0
:102500009A68527CAA427FF634AF1A69774B52F828
:102510003500418898470222A3685A70D6E7754B68
:102520009847002840F0D280714A704B906801783B
:102530009847CBE76F4B98476D4B002840F0AA8037
:102540009A68527CAA427FF614AF1A69674B52F818
:102550003500418898470722A3685A70B6E71321CF
:10256000654B664E5D18324613F8010B9D4222F80A
:10257000020FF9D14900023160485C4B3170984735
:10258000A4E715215E4BECE704215E48574B9847C2
:102590009CE720215C4BE4E7012A14D0022A7FF457
:1025A000CDAE6278002A7FF44DAE02297FF44AAEA8
:1025B0002079564B01919847024655484B4B01995B
:1025C00002809847A8E662780A2A7FF4B7AE01290C
:1025D0007FF4B4AE4F4A1278002A3FF4AFAE4E4AB1
:1025E0002579166832681279AA427FF6A7AE0021D3
:1025F0002846DFF82881C04700283FF4BAAE736848
:1026000053F82530DB689847024645480121374B8F
:102610000270984780E6E28861880A4392B2002AF5
:102620007FF410AE20793F4B984700287FF474AEBA
:102630009FE601297FF409AE36482C4B98476BE69C
:10264000E288002A7FF47AAE324A1278002A3FF4F8
:1026500075AE2579344B28466688984700283FF4A4
:1026600088AE2846314BF1B2984700287FF454AE2B
:102670007FE6DAF80020527C9A42BFF492AE78E608
:1026800020792B4B98472B4B2079984700287FF4D3
:1026900043AE6EE61A68527CAA427FF66AAE5A686A
:1026A000124B52F835004188984754E71A68527C1B
:1026B000AA427FF65EAE5A680C4B52F8350041884C
:1026C000984728E7DAF80420134494E61020022102
:1026D000074B064D1A689070D17018680178A847AA
:1026E000F4E600BF0E3300203C0200202940080021
:1026F00020030020D93F08000C020020C801002060
:1027000020020020380200209C01002085400800A3
:10271000003300200C33002008330020B51F0800D0
:10272000023300205941080035200800B520080078
:1027300011450800B94008000B4B9847A3881B0AB5
:10274000013B032B3FF615AEDFE803F00B08050253
:10275000064B2361E0E5064B2361DDE5054B236174
:10276000DAE5054B2361D7E531210800D94508009A
:10277000C14508009D4508007945080038B5084B5B
:1027800004469847074B1A782AB901251C70064B56
:102790009847284638BD0025034B9847284638BD42
:1027A0007529080010330020B52908000022014BCC
:1027B0001A70704710330020014B1878704700BF23
:1027C0001033002010B51120044CA0471020A04762
:1027D0002346BDE810404C20184700BFE1290800FF
:1027E00010B51120054CA0471020A0474C20A04751
:1027F000BDE810405320024B184700BFE1290800F4
:10280000E12A080010B51120034B9847BDE810409D
:102810005320024B184700BF192A0800F92A080064
:10282000C0F3090310B55BB1B3F5007F044603D0D4
:10283000C4F308043CB110BD1120074B9847F7E7DB
:102840001120064B9847044C1020A0472346BDE8B2
:1028500010404C20184700BFE1290800192A080041
:1028600010B54FF060510D4C1120A0474FF0605152
:102870001020A0474FF060514C20A0474FF040512E
:102880005320A0475320064B9847BDE810404FF017
:1028900000624FF4C0510348034B1847112B080046
:1028A000F92A0800000C0E40F92B08004FF40042F2
:1028B00010B5064B064C5A650A20A0470B20A047CE
:1028C0000C20A047BDE81040024B184700120E40F4
:1028D000052E08006128080038B5A1F10E03012B70
:1028E00017D9EFF3108572B6BFF35F8F00230A4C40
:1028F000C9B22370094B03EA02221143084B41F08D
:10290000B441984725B901232370BFF35F8F62B6A6
:1029100038BD4FF0FF3038BD0403002000FFFF003A
:102920008D000020FEE700BFF0B5042687B0044606
:102930000D460F220E210C480C4F02AB0096B847F3
:1029400070B9042D26462A46044628BF042225B124
:102950003046074B02A992009847204607B0F0BDC9
:102960001024204607B0F0BD00080E4001000020F2
:10297000157B08000C4B1A6892B9EFF3108169B906
:1029800010B472B6BFF35F8F0120084C084A217063
:1029900010701A6801321A6010BC704704490A703E
:1029A0001A6801321A6070471433002004030020B3
:1029B00011330020074B1A68013A1A601B6843B9AB
:1029C000054B1B782BB10122044B1A70BFF35F8FAC
:1029D00062B6704714330020113300200403002036
:1029E00070B50546094C04F118062368AB4203D0C4
:1029F0000834B442F9D170BD63682846012B044AFB
:102A000001D09047F4E7034B9847F1E714D2080050
:102A1000E12A0800F92A080070B50546094C04F1BE
:102A200018062368AB4203D00834B442F9D170BD14
:102A300063682846012B044A01D09047F4E7034B12
:102A40009847F1E714D20800F92A0800E12A0800A3
:102A5000F8B5124B04460E469847114B05462046E2
:102A60009847054019D00F4C04F160072368B34222
:102A700005D0BC4211D023691034B342F9D161684A
:102A80002942F6D0E368304698476368BC4225EA9D
:102A9000030502D01034002DE8D1F8BDD92A080072
:102AA000DD2A0800183300200A210148014B18478D
:102AB000000C0E40512A08000B210148014B184719
:102AC000000E0E40512A08000C210148014B184706
:102AD00000100E40512A0800C06C7047806C70478F
:102AE0000122430903F5001303F2067300F01F00EF
:102AF0005B0282401A6370470122430903F5001309
:102B000003F2067300F01F005B0282405A637047B5
:102B1000430903F5001301F0F04203F20673B2F12A
:102B2000205F4FEA432336D016D8B2F1006F43D06E
:102B3000B2F1805F15D1012200F01F0082405A647B
:102B4000186FC90740EA020018675A604FF0010089
:102B50004CBF5A661A66704701F0E042B2F1405F1E
:102B600001D000207047012200F01F008240C807FA
:102B70005A6401F0605C4CBF5A661A6649074CBF44
:102B80001A655A65BCF1605F0CBF1A635A63012075
:102B90001A611A607047012200F01F008240C807C6
:102BA0005A644CBF5A661A6611F00A0F18D15A625D
:102BB0005A6101201A607047012210B400F01F0012
:102BC00082405A64186F1C6F204020EA0200186788
:102BD000C8075A604CBF5A661A66012010BC70477D
:102BE00088071A6248BFC3F88020E1D4090748BFAC
:102BF000C3F88420DCE700BF02F0F043B3F1205FAC
:102C00002ED011D8B3F1006F37D0B3F1805F10D15F
:102C10004164036FD20743EA0103036741604CBF7D
:102C2000416601660120704702F0E043B3F1405F66
:102C300001D00020704712F0010F416402F0605390
:102C400014BF4166016652074CBF01654165B3F18F
:102C5000605F0CBF01634163016101600120704747
:102C6000D30741644CBF4166016612F00A0F14D1CC
:102C70004162416101600120704710B44164036FFB
:102C8000046F234023EA0103D407036741604CBF6C
:102C90004166016610BC012070479307016248BF7E
:102CA000C0F88010E5D4130748BFC0F88410E0E7EF
:102CB00015490B6B23F0030343F001030B638B6E89
:102CC0001B0758BF4FF4006302D504E0013B16D048
:102CD0008A6E1207FAD50C490B6B23F0700303437D
:102CE0000B63886E10F0080008BF4FF4006302D039
:102CF00007E0013B03D08A6E1207FAD57047012026
:102D000070470020704700BF00040E4015490B6B50
:102D100023F0700303430B638B6E1B0758BF4FF404
:102D2000006302D504E0013B17D08A6E1007FAD584
:102D30000C490B6B23F0030343F002030B63886E13
:102D400010F0080008BF4FF4006302D007E0013B19
:102D500003D08A6E1207FAD5704701207047002011
:102D6000704700BF00040E40074A0302116A9BB27D
:102D700021F003010B4343F45C1343F0010313629E
:102D8000936EDB07FCD5704700040E40024B986E33
:102D900000F00100704700BF00040E40024B986E27
:102DA00000F48030704700BF00040E40084B1B6ADF
:102DB00030B1074A43F0807343F45C1313627047E9
:102DC000034A23F0807343F45C131362704700BF1F
:102DD00000040E404FF00052014B9A62704700BF52
:102DE00000040E40024B986E00F00200704700BFD6
:102DF00000040E40024B986E00F04000704700BF88
:102E000000040E401D2809D80123054983408A6922
:102E1000002033EA020218BF0B617047012070479F
:102E200000040E401D2809D80123054983408A6902
:102E3000002033EA020208BF4B617047012070474F
:102E400000040E40034BC0F312001A6F10431867C2
:102E5000704700BF00040E402DE9F041A0B9002AE0
:102E600090460DDD0C460A4F0A4E8D1821463868F3
:102E7000336801349847AC42F8D14046BDE8F08150
:102E800080464046BDE8F0814FF0FF38F5E700BFCF
:102E9000F833002088330020024B187880F00100BE
:102EA000704700BF8C33002001EB810100EB8100F3
:102EB0000267704701EB810100EB810042677047B8
:102EC00001EB810100EB81008267704701EB81011A
:102ED00000EB8100C0F88020704700BF08B518489B
:102EE000184B83420AD0184A904207D2013A121A6C
:102EF00022F0030219460432144B9847144A154B2A
:102F0000934208D2013AD21A22F003021846002155
:102F1000114B04329847114B114923F0604203F1E1
:102F2000604322F07F02B3F5404F8A6003D28B6882
:102F300043F000538B600B4B98470B4B9847FEE7D1
:102F400000000020E4D40800800A0020157B08005F
:102F500010370020800A0020A97608000000080031
:102F600000ED00E079780800790208000C4A034679
:102F700010680C4930B103448B42CCBF4FF0FF3096
:102F80001360704710B4084C23448B421460D8BFC0
:102F900013602046C8BF4FF0FF3010BC704700BF21
:102FA00098330020FC3F0820003008204FF0FF300D
:102FB000704700BF4FF4005300204B60704700BFC4
:102FC0000120704700207047014608B50148024BB8
:102FD0009847FEE788CC0800F5580800704700BF06
:102FE0004FF0FF30704700BF10B53E20074B9847A9
:102FF000074CA0470028FCD04FF47102054B064C4B
:10300000DA61A0470028FCD010BD00BF692D080080
:103010008D2D080000040E40F52D080070B51248F3
:10302000124DA8473E20124B9847124CA04700284B
:10303000FCD04FF08070104B9847104CA0470028F0
:10304000FCD00F4B98470F4B0F4A104C9A62A04789
:103050000028FCD00E4B102098470E4B98472B466B
:10306000BDE870400048184700D8B805310100207D
:10307000692D08008D2D0800AD2D08009D2D08003C
:10308000D52D080000040E40013F0F20E52D08005B
:103090000D2D080099300800334A136B03F0030329
:1030A000012B2ED0023B012B18D8136AD9013CD535
:1030B0002E482F4B03602C4A136B03F00303022BA3
:1030C00040D02C4B28490A6B02F07002702A12D0B3
:1030D0000A6BC2F30212D34003607047264B5B6A4F
:1030E0001A061ED520494FF400430A6B1F4802F010
:1030F0007002702AECD1214AA2FB03235B08036013
:103100007047136ADB0109D4136A03F07003102BB4
:1031100023D0202B02D01A4B1448D3E7144B13486A
:10312000D0E74FF4FA431148CCE7154B0F48036042
:10313000136A03F07003102B12D0202BBBD10C4B61
:103140000360B8E7916A0368C1F30A4101FB0333E6
:10315000926AD2B2B3FBF2F3B4E70A4B0348B1E789
:10316000084B0360A7E700BF00040E4008030020DF
:10317000001BB700001C4E0E00120E40ABAAAAAAFC
:1031800000093D0000127A00AC2303600246D1E939
:103190000030B3FBF0F34FF6FE7C1B09581E604570
:1031A0000CD830B440F20225502413628B68002002
:1031B0005360C2F82051146030BC70470120704742
:1031C00003464269920746BF0020D961012070473B
:1031D0004369DB0743BF836900200B700120704700
:1031E000014B1878704700BF9C330020064B10B588
:1031F0009847064AC37813700BB1012010BD044BE9
:10320000BDE81040184700BF1D2108009C33002076
:103210009D090800024B1B7803B17047014B18470A
:103220009C330020C5090800074B1B7803F060029F
:103230001B0603D4402A05D000207047402AFBD14A
:10324000024B1847024B1847D8330020210A0800C8
:10325000D109080030B58446154683B00B46624656
:103260000021034C00958120A04703B030BD00BF72
:103270001D42080030B58446154683B00B466246B1
:103280000021034C00950220A04703B030BD00BFD1
:103290001D42080090F814C003461CF0010F16D020
:1032A00030B404682CF0010C80F814C06CB1084DE7
:1032B000084602F1080149016958090748BF42F070
:1032C00080029968234630BC184730BC704770476D
:1032D00000400A402DE9F043431E674C03EB4301D5
:1032E00004EBC10191F814C01CF0010F37D0024665
:1032F000D1E90250A8424FEA430632D02D1AB5F563
:10330000803F4FEA421C44D80CF1402E0EF5202E8F
:10331000DEF800812F0418F0080F7BD0DEF8008162
:103320004FF0080E08F007080EFA08FE0EF1FF3EF7
:103330001EEA050F7DD091F814E047F029072EF022
:10334000020E81F814E037E04FF400644FF480730C
:103350004A48C1F804419340026913430361BDE840
:10336000F0834FEA421C0CF1402101F52021D1F8F5
:103370000001050705D5F01804EBC000007D8007AB
:10338000E2D4F01804EBC0000021BDE8F0433C4B50
:1033900018470CF1402101F52021D1F8007117F0F8
:1033A000080731D1D1F8005105F03005102D5DD05E
:1033B0004FF4803547F0350706EB030E04EBCE0ED5
:1033C000DEF8041008442F4901EB02114860EFF3C6
:1033D000108872B6BFF35F8F4FF000092A4880F85B
:1033E0000090D1F80C9019F0100F25D0B8F1000F13
:1033F00004D101210170BFF35F8F62B6F11804EBB5
:10340000C101C8688860AEE721274FF48035D1F844
:103410000011D1E7DEF8001101F030011029C9D107
:10342000DEF8001101F0070E082101FA0EF1A942A1
:10343000C0D247F02107BFE74FF000728F6002FA59
:1034400003F3DEF80C20CEF810502A44CEF80C20FE
:103450000A4A11690B431361B8F1000F7FF47FAF83
:1034600001230370BFF35F8F62B678E74FF48035B6
:10347000D1F80011DDE700BFA033002000400A4072
:103480009532080000430A40040300202DE9F0476C
:10349000EFF3108372B6BFF35F8F00204FF48061AB
:1034A000594D5A4A2870C2F8081123B901232B70CC
:1034B000BFF35F8F62B6DFF8588198F80030032BB6
:1034C00065D0544F544E3B88B489E41AA4B2002C02
:1034D00039D0DFF848913F2C4CD900224024B06805
:1034E00089F80020EFF3108672B6BFF35F8F0022D9
:1034F0002A70464AD2F81C2192053DD46CB118447A
:103500000346C3F1005C20440CF5C01C03EB0C0225
:1035100013F8011B98421170F8D13A884FF480617A
:1035200022443A804FF40062384BC3F81811C3F8B4
:103530001421C3F8041126B901232B70BFF35F8F48
:1035400062B6BDE8F0873649F0880A881A4492B21C
:1035500090420A8040D0DFF8C49099F800A0BAF1F8
:10356000000F39D172692AB19047002848D1012251
:103570003B88B4E70122B2E726B901232B70BFF3E1
:103580005F8F62B6042388F80030BDE8F087224ED2
:10359000336903B19847EFF3108372B6BFF35F8FBF
:1035A00000204FF48061194A2870C2F8081123B92D
:1035B00001232B70BFF35F8F62B64FF40071134A83
:1035C0000020C2F8181100210023C6E90401B381CC
:1035D00088F80030BDE8F087042388F80030EFF366
:1035E000108172B6BFF35F8F4FF480420020074B0B
:1035F0002870C3F81821C3F804210029A1D19BE742
:103600003C805346B48966E70403002000400A402A
:10361000D4330020D0330020D83300209D33002045
:10362000D23300202DE9F047A24B1D209847A24B32
:10363000984728B9A14B5B6913F0020300F09D8005
:103640009E4B5A69150700F189805A69500700F1AD
:103650008E80D3F81C215969C90521D54FF48040CB
:103660004FF40041D704C3F80801C3F8081100F172
:10367000B180560504D5D3F80C315D0500F15B82AD
:10368000940500F15381900404D54FF400518B4B05
:10369000C3F81811110400F17B81530400F1D380A9
:1036A00001234FF000774FF480780224834A156994
:1036B00003F1FF3C07FA0CF10D42804803F1010EC3
:1036C0005FFA83F902EB431603D05569294240F0B3
:1036D000CF80116908FA03F5294216D0D6F80C11EB
:1036E0005B0111F4006F034405D0D6F81C1111F4EE
:1036F000006100F03D83D3F80C114E0305D5D3F8DB
:103700001C1111F4402100F0F380BEF1030F4FF0C3
:103710000203CCD169494D6915F0100540F085814F
:103720000B69980733D54B699A0730D520238B61F5
:103730000B69634A23F002030B610B691D2043F000
:1037400020030B618C6190475E4B98475E4A13786B
:10375000002B40F0C6820023137013E008229A6108
:103760005B69DC0710D5BDE8F047584B18470421CA
:103770009961574ABDE8F047104772B6BFF35F8FB3
:10378000544A1370BDE8F087514B9847EBE74B4B19
:103790005B699B06F6D54C4A1378002B00F08282B9
:1037A000022401252020454B15709C6198611A69FF
:1037B000494922F020021A611A6922431A611A69E2
:1037C00042F008021A611A6942F004021A61BDE867
:1037D000F0470847414C237813B3414E336903B196
:1037E0009847EFF3108272B6BFF35F8F00214FF45A
:1037F0008060384B19703149C1F8080122B90122A3
:103800001A70BFF35F8F62B64FF400722B4B00202B
:103810000021C3F818210023C6E90401B3812370F5
:10382000264A304BD2F81C110B40B3F5000F00F0C4
:10383000C280052020214FF480532070C2F814115B
:10384000C2F818319EE74FF480431C4AC2F8183181
:10385000D2F81C3113F4007394D120480178012967
:1038600000F0538204298DD12023C2F8143189E756
:1038700000F5407000EB0313D868C70782D41069C5
:1038800020EA01011161DA68120C0ED016480CEB27
:103890004C0100EBC101C968CCF1000303F018032F
:1038A00008338A1AC25003445A604846BDE8F047BC
:1038B0000E4B1847052E0800992E080000400A40BC
:1038C000252E080069090800F03300207909080056
:1038D000752108000403002071090800D43300207A
:1038E000D83300200000F07FA0330020D53208003C
:1038F0004FF4802220264024C3F8082102690CEBF3
:103900004C0C22EA05020261B24A02EBCC02107DA5
:1039100061F382001075D3F8082122F00202C3F887
:103920000821C3F81461C3F818412BE7AA4C237887
:10393000012B00F00481022B00F03981042B00F0F0
:10394000368105212022A54BA54E2170C3F81421F4
:10395000EFF3108272B6BFF35F8F00214FF48060E7
:10396000A04B19709D49C1F8080122B901221A70B3
:10397000BFF35F8F62B64FF40071984A0023C2F81C
:10398000181100200021B381C6E904012370F9E673
:103990004FF40042914BC3F81821D3F81C21520573
:1039A0003FF5F0AE8C4A1278032A7FF4EBAE20226A
:1039B000C3F81421E6E68C4A8C4B8D481946013336
:1039C0000978834202F8011FF8D18A4B98470028F2
:1039D00000F0F4804FF48051804B814AC3F81811F5
:1039E00092F900100029C0F27181D288002A00F0FB
:1039F000AD81002201254FF480417F48257002806F
:103A00007E480280C3F81811EFF3108472B6BFF33A
:103A10005F8F74480270C3F80411002C7FF4B2AEBB
:103A20000570BFF35F8F62B6ACE61022694C237D50
:103A30008A6113F001020DD0256823F0010323757C
:103A400045B1D1F82031012013F0080F18BF8122B1
:103A5000A168A84794F82C30DD0710D5A56923F09C
:103A6000010384F82C3055B15C4B0120D3F8403170
:103A7000216A13F0080F0CBF02228222A847604B74
:103A800098470120554B1A6822F07F021A601A6885
:103A900042F080021A60D3F800216FF3090242F06D
:103AA0004302C3F80021C3F80401EFF3108472B697
:103AB000BFF35F8F4FF4805200254A490D70C3F861
:103AC00004214FF40072C3F804211A6942F4807291
:103AD0001A611CB90870BFF35F8F62B6EFF31083F1
:103AE00072B6BFF35F8F00244FF480603B4A0C70C6
:103AF000C2F8080123B901230B70BFF35F8F62B6D0
:103B00000026002700214FF40074354A334BC2E9E8
:103B100004673148C3F81841017091811A6942F075
:103B200008021A611A6942F004021A611A6942F025
:103B300002021A6126E6334BBDE8F0471847274BCF
:103B40002E4FD3F81C51264EB7F800C0B389C5F3E9
:103B50000A550CEB05029342B8BFA3EB0C03B26805
:103B6000B8BF9DB262447DB1204B18460133007846
:103B7000D9B2A94202F8010BF7D3AC441FFA8CFC6E
:103B8000402DA7F800C067D07369A6F80CC0002BC1
:103B90003AD09847002837D1052020214FF40072F1
:103BA0000E4B2070C3F81411C3F81821EAE50C4E2F
:103BB0003369002B3FF4CCAE9847C9E6052020219D
:103BC0004FF48052054B2070C3F81411C3F818212C
:103BD000D8E500BFA0330020D433002000400A40C5
:103BE000D833002004030020D73300200000182021
:103BF00008001820AD210800D2330020D033002067
:103C0000312108008D3408004FF400710322684B05
:103C1000C3F818112270EFF3108472B6BFF35F8FF0
:103C2000002564484FF4806105704FF400424FF462
:103C30000065C3F81811C3F81451C3F80411C3F890
:103C40001821C3F80421002C7FF49CAD01230370DC
:103C5000BFF35F8F62B695E5574DF2882B886344BA
:103C60009A4291DDB389634500F093804FF400716F
:103C70004FF480424E4BC3F81811C3F81821EFF3EC
:103C8000108072B6BFF35F8F00244A490C70C3F8EE
:103C9000042100287FF476AD01230B70BFF35F8F02
:103CA00062B66FE5EFF3108472B6BFF35F8F4148E1
:103CB000424903708B7801338B70002C7FF470AD18
:103CC00001230370BFF35F8F62B669E50023022111
:103CD000394D3B482B80038021703A4ABDE8F047BC
:103CE0001047EFF3108472B6BFF35F8F314833494A
:103CF00005708B78013B8B70002C7FF42CAD012379
:103D00000370BFF35F8F62B625E503240470EFF301
:103D1000108572B6BFF35F8F264C4FF4806023701E
:103D20004FF400664FF40043C2F81801C2F8146162
:103D3000C2F80401C2F81831C2F80431002D7FF432
:103D400021AD2170BFF35F8F62B61BE503212170A7
:103D5000EFF3108472B6BFF35F8F4FF480611548A4
:103D60004FF4006502704FF40042C3F8181162E787
:103D70004FF400641448CCF1000303F01803C6F8B4
:103D80000841C6F814414A46BDE8F04718440F4BB5
:103D900018477369002B3FF4FFAE984700283FF4A3
:103DA000FBAE00222B8839883A800B442B805DE7DC
:103DB00000400A4004030020D2330020903300204A
:103DC000D03300208D340800A03300209532080045
:103DD0002DE9F041EFF3108672B6BFF35F8F00213B
:103DE000294B2A4C1A782170002A3BD00125284AF9
:103DF0001D201D704FF00808904702274FF0040E59
:103E00004FF0100C2021234B1D201A6842F4006251
:103E10001A601A6822F400721A601A6942F01002DD
:103E20001A611A6942F002021A611A6942F020020C
:103E30001A611A6942F008021A611A6942F0040212
:103E40001A61C3F81880144AC3F818E0C3F818C000
:103E50009F61996190471EB92570BFF35F8F62B66D
:103E6000BDE8F081EFF3108072B6BFF35F8F0B49AE
:103E700022708A7801328A700028B7D1012222701C
:103E8000BFF35F8F62B6B1E7F03300200403002078
:103E9000052E080000400A40252E0800903300201F
:103EA000F8B5264B9847264B1D209847EFF3108610
:103EB00072B6BFF35F8F00254FF0500E4FF00057E2
:103EC000204A214C92F814C0204B2CF0050C82F8AB
:103ED00014C092F82CC025702CF0050C82F82CC070
:103EE0001A681B4942F480721A6081F81DE30F6062
:103EF000D3F8E0204FF4802022F00302C3F8E02042
:103F0000144B9847144B1D70EFF3108172B6BFF33A
:103F10005F8F124A2570D3780133D37021B9012302
:103F20002370BFF35F8F62B60D4B984726B901230C
:103F30002370BFF35F8F62B6F8BD00BFE92F0800A2
:103F4000052E0800A03300200403002000400A4092
:103F500000E100E0452E0800F033002090330020FF
:103F6000D13D080010B5164B1D209847154B1D205C
:103F70001A68154942F400721A601A6822F4006245
:103F80001A608847114B1A7812B900221A7010BDB6
:103F9000EFF3108472B6BFF35F8F4FF0000C0C4943
:103FA0000C488A78013A8A7080F800C0002CECD165
:103FB00001220270BFF35F8F62B600221A7010BD3B
:103FC000052E080000400A40252E0800F03300208E
:103FD0009033002004030020024B586900F00100D8
:103FE000704700BF00400A40064B1A6822F080026A
:103FF0001A601A6860F306021A601A6842F08002BA
:104000001A60704700400A40024B186800F07F00B9
:10401000704700BF00400A40024B5868C0F3CA0016
:10402000704700BF00400A40014B9860998170477B
:10403000D833002000F00F02022A00D97047012176
:10404000530170B503F1402505F520252B46C5F831
:104050000811D5F80051501E084C00EB400004EB4D
:10406000C00425F0C005C3F800512046044EB047F7
:10407000237D23F00403237570BD00BFA03300200F
:104080009532080000F00F00430103F1402303F5CF
:104090002023D3F81C319B0609D4064B00EB4000CB
:1040A00003EBC00313F8040CC0F380007047012039
:1040B000704700BFA033002000F00F03022B2BD865
:1040C00030B5234D590105EB431EDEF81C21920645
:1040D00020D4204C5A1E02EB420204EBC20C9CF886
:1040E000144014F0040215D114F0010F16D1020689
:1040F00016D44FF40054202001F1402303F520236F
:10410000D3F8082122F00202C3F80821C3F81841AD
:10411000C3F81401012030BD00207047104630BDA7
:10412000DEF81C2112F4402FE3D04FF480204FF42E
:10413000807244F004018CF8141005EB4311C1F8AF
:104140000401296902FA03F30B432B61E2E700BF84
:1041500000400A40A033002000F00F00022857D88A
:1041600070B5411E2B4C01EB410304EBC3031D7DD5
:104170004A006D0725D54FF480264FF4807C1D7DC5
:104180000CFA00FC25F004051D75234D430105EBD9
:10419000401ECEF80861286920EA0C002861DEF88C
:1041A0001C01850616D4531804EBC302117DDB00F5
:1041B000C80704D521F00101E35811759847012083
:1041C00070BD430103F1402000F52020D0F81C0110
:1041D0008006F4D503F1402000F52020D0F81C51D2
:1041E000AE0406D54FF40055C0F818514025C0F86C
:1041F0001851202503F1402000F520200346C0F887
:104200001851D0F8040140F00200C3F80401CAE7D5
:1042100000207047A033002000400A4000F00F004B
:10422000022860D82DE9F0414FEA401C0CF1402CE7
:104230000CF5202CDCF80C41E50751D5DCF81C41CD
:10424000A4064DD4461E294D06EB460C05EBCC0CBE
:104250009CF814E074001EF0040E41D1EFF31088B6
:1042600072B6BFF35F8F224F87F800E09CF814E02E
:104270001EF0010F2CD19CF814E04EF0010E8CF8CA
:1042800014E0B8F1000F06D14FF0010C87F800C020
:10429000BFF35F8F62B63444069E05EBC40C45F84D
:1042A0003460CCF8042000246246002B08BF41F0A3
:1042B000010142F8104FCCF8083013790D4D61F32D
:1042C0004103CCF80C401371A8470120BDE8F081F0
:1042D000B8F1000F04D101233B70BFF35F8F62B6CA
:1042E0000020BDE8F0810020704700BFA03300200F
:1042F00004030020D53208002DE9F04F00F00F0430
:10430000022C83B000F2D080650105F1402303F553
:104310002023D3F80C31DE0700F1C68001F003063C
:10432000012E00F0C580023E012E00F2BD8002F495
:10433000C0539FB2002B40F0B7803E4605F14025A8
:1043400005F52025D5F800310901C00923F47F7C4B
:10435000B2F5806F01F030014FEAC0002CF0030C81
:1043600080F0B780082A38BF08225300013BB3FA17
:1043700083F3C3F11C030FB141EA06214CEA0002AA
:104380000A43134343F04003C5F80031D5F8003128
:10439000002B80F28980012702234FF00008594E3C
:1043A000C5F8047106EB4310D0F80C115D1EC90767
:1043B0004FEA431216D502F1402202F52022D2F82C
:1043C00000115B00C1F38111C0F8087101FA03F319
:1043D00048EA0308D2F800311FFA88F823F0C00336
:1043E000C2F80031EBB29C42DCD9474E04EB4405E5
:1043F000012706EBC50505E00134E3B2032B05F107
:10440000180568D004F1FF39630009EB490C48FA3C
:1044100003F306EBCC0013F0030200F110015FFA86
:1044200084FB4FEACC0CE7D0007D6301824603F1A8
:10443000402303F52023D3F800E12AF0010A2EF0EF
:10444000C00E4EEA8212C3F80021C3F80471D3F8FB
:10445000002100F00100002A4FEA490E81F804A073
:104460003DDAD3F8042142F00202C3F80421002807
:10447000C2D055E903E255F8103C55F814CC13446A
:10448000AEEB020245F80C2C0979624455F818CCC1
:104490005846CDF800C0A3EB0E03DFF870C0C1F39F
:1044A0004001E0470028A7D1002003B0BDE8F08F0D
:1044B00002F4C053002C3FF43CAFB3F5006F0CD0B6
:1044C000B3F5805F08BF032622F4C052012792B2E1
:1044D00034E707234FE70120E7E70226F4E756F821
:1044E0000C405846002CDFD0D3F80031CE441B07D7
:1044F00048BF4BF0800006EBCE060246F168012073
:10450000A047D1E700400A40A03300201D42080028
:104510000021164B00F00F0203EB021310B4996058
:1045200001060AD4124C1348531E03EB430300EB5D
:10453000C3000121234610BC1847510101F140215D
:1045400001F52021D1F81C3113F4402FEAD04FF4AB
:10455000007401F58A700460D1F81C319B05FBD40E
:10456000D1F81C3113F4402FF5D1DBE700430A40AA
:1045700095320800A0330020074AD2F8E03023F03B
:10458000030343F00203C2F8E030D2F8E03043F016
:104590000403C2F8E030704700400A40074AD2F8EE
:1045A000E03023F0030343F00203C2F8E030D2F816
:1045B000E03043F00803C2F8E030704700400A40A2
:1045C000044AD2F8E03023F0030343F00203C2F8B8
:1045D000E030704700400A402DE9F0418EB06D4652
:1045E0004FF00108EC46204E204F0FCE0FC50FCEE6
:1045F0000FC50FCE0FC596E8030045F8040B2970D0
:10460000C7F80881D7F80031CCF1005E6FF30903D9
:1046100043F06B03C7F80031C7F80481D7F8E030E6
:104620000DF1350423F0030343F00203C7F8E03033
:10463000D7F8E0300EF5C01E43F01003C7F8E030A5
:104640000CEB0E031CF8012BA4451A70F8D14FF4A3
:1046500080614FF40062054BC3F81811C3F81421B0
:104660000EB0BDE8F08100BF2CD2080000400A4027
:1046700003464269920743BFC1F308010020D96194
:10468000012070474369DB0705D583690020C3F328
:1046900008030B6070470120704700BF431E022BC8
:1046A0001ED82DE9F0411746C2B10D4614460E4EF4
:1046B000DFF8388002E0631E0CD01C463068D8F862
:1046C000003015F8011B98470028F4DA4FF0FF304E
:1046D000BDE8F0810137381BBDE8F0811046F7E7EF
:1046E0004FF0FF30704700BFF8330020F433002054
:1046F000F8B504460D4600F023F8224606460F465C
:104700002B462046294600F05FFD30B92046294659
:104710000022002300F030FD10B930463946F8BDC4
:1047200003F0A4F80022002321210160104619465D
:1047300000F0DAFB06460F4630463946F8BD00BFAA
:10474000734A2DE9F84F8A4306460F4600F0AC80C5
:1047500000290C46034655DD081562D0C4F3130248
:10476000C107A0F2FF3742F4801203D4520002EBDB
:10477000D3725B00002616244FF40011B446520099
:1047800002EBD3727F105B000CEB010090424FEA0A
:10479000D3754FEA430303DC00EB010C121A0E44FD
:1047A000013C05EB42024FEA5101EDD120254FF0CB
:1047B0000040A0460AE043D0510001EBD371013D17
:1047C0000A464FEA43034FEA500045D0624500EBEA
:1047D000080EF0DDBEF1000F0EEB00080CDBE14629
:1047E000A2EB0C01CC469E4588BF01F1FF31490088
:1047F000A3EB0E030444E0E7B8F1000FEFDB0CF18C
:104800000109EDE721F00042024344D000296ED1B6
:10481000DA0A153C5B05002AFAD0D602204673D48A
:10482000144600226400E502114602F10102F9D5A6
:10483000C2F1200523FA05F52C439340401A8DE779
:104840009E4502D94FEA4C01B7E7BEF1000F0EEBCF
:10485000000822DB0021CBE7194312D0DFF8B4A017
:10486000DFF8B4B0DAE90001DBE9002300F05AF820
:10487000DAE9008902460B464046494600F086FCCC
:10488000E0B96508731003F17F5303F5001303EBE0
:10489000075145EAC670BDE8F88FB8F1000FD9DBC3
:1048A00000210CF1010CA3E702460B4600F0F2F9DF
:1048B00032463B4600F038F8BDE8F88FB4F1FF3FD0
:1048C000DAE90001DBE900231AD0DAE9008900F017
:1048D0002BF802460B464046494600F04DFC88B195
:1048E000A31C04F1020508BF01366D08CAE70246A1
:1048F0000B4600F017F802460B4600F0F5FACAE73F
:104900000136BFE70134BCE74FF0FF31144695E7AD
:104910000000F07F70D2080068D2080081F00041EA
:1049200002E000BF83F0004330B54FEA41044FEA94
:10493000430594EA050F08BF90EA020F1FBF54EA2F
:10494000000C55EA020C7FEA645C7FEA655C00F0CB
:10495000E2804FEA5454D4EB5555B8BF6D420CDD9C
:104960002C4480EA020281EA030382EA000083EA1F
:10497000010180EA020281EA0303362D88BF30BDBF
:1049800011F0004F4FEA01314FF4801C4CEA113115
:1049900002D0404261EB410113F0004F4FEA033374
:1049A0004CEA133302D0524263EB430394EA050FFF
:1049B00000F0A780A4F10104D5F1200E0DDB02FA6E
:1049C0000EFC22FA05F2801841F1000103FA0EF202
:1049D000801843FA05F359410EE0A5F120050EF1C8
:1049E000200E012A03FA0EFC28BF4CF0020C43FAF9
:1049F00005F3C01851EBE37101F0004507D54FF006
:104A0000000EDCF1000C7EEB00006EEB0101B1F555
:104A1000801F1BD3B1F5001F0CD349085FEA30009B
:104A20004FEA3C0C04F101044FEA445212F5800FA6
:104A300080F09A80BCF1004F08BF5FEA500C50F143
:104A4000000041EB045141EA050130BD5FEA4C0C26
:104A5000404141EB0101013C28BFB1F5801FE9D283
:104A600091F0000F04BF01460020B1FA81F308BFA6
:104A70002033A3F10B03B3F120020CDA0C3208DD72
:104A800002F1140CC2F10C0201FA0CF021FA02F14D
:104A90000CE002F11402D8BFC2F1200C01FA02F1BD
:104AA00020FA0CFCDCBF41EA0C019040E41AA2BFE2
:104AB00001EB0451294330BD6FEA04041F3C1CDAAA
:104AC0000C340EDC04F11404C4F1200220FA04F0CA
:104AD00001FA02F340EA030021FA04F345EA030174
:104AE00030BDC4F10C04C4F1200220FA02F001FA36
:104AF00004F340EA0300294630BD21FA04F02946B8
:104B000030BD94F0000F83F4801306BF81F4801150
:104B10000134013D4EE77FEA645C18BF7FEA655CC3
:104B200029D094EA050F08BF90EA020F05D054EA95
:104B3000000C04BF1946104630BD91EA030F1EBF9A
:104B40000021002030BD5FEA545C05D1400049419E
:104B500028BF41F0004130BD14F580043CBF01F591
:104B6000801130BD01F0004545F0FE4141F4700177
:104B70004FF0000030BD7FEA645C1ABF1946104652
:104B80007FEA655C1CBF0B46024650EA013406BF53
:104B900052EA033591EA030F41F4002130BD00BF12
:104BA00090F0000F04BF0021704730B54FF48064CF
:104BB00004F132044FF000054FF0000150E700BF50
:104BC00090F0000F04BF0021704730B54FF48064AF
:104BD00004F1320410F0004548BF40424FF000019C
:104BE0003EE700BF42004FEAE2014FEA31014FEADF
:104BF00002701FBF12F07F4393F07F4F81F060512E
:104C0000704732F07F4208BF704793F07F4F04BF78
:104C100041F40021704730B54FF4607401F0004555
:104C200021F000411CE700BF50EA010208BF7047B5
:104C300030B54FF000050AE050EA010208BF7047A6
:104C400030B511F0004502D5404261EB41014FF40F
:104C5000806404F132045FEA915C3FF4D8AE4FF017
:104C600003025FEADC0C18BF03325FEADC0C18BFFA
:104C7000033202EBDC02C2F1200300FA03FC20FA4B
:104C800002F001FA03FE40EA0E0021FA02F1144498
:104C9000BDE600BF70B54FF0FF0C4CF4E06C1CEAB1
:104CA00011541DBF1CEA135594EA0C0F95EA0C0F22
:104CB00000F0DEF82C4481EA030621EA4C5123EA95
:104CC0004C5350EA013518BF52EA033541F48011C4
:104CD00043F4801338D0A0FB02CE4FF00005E1FB77
:104CE00002E506F00042E0FB03E54FF00006E1FBC1
:104CF00003569CF0000F18BF4EF0010EA4F1FF0404
:104D0000B6F5007F64F5407404D25FEA4E0E6D4143
:104D100046EB060642EAC62141EA55514FEAC52054
:104D200040EA5E504FEACE2EB4F1FD0C88BFBCF5D0
:104D3000E06F1ED8BEF1004F08BF5FEA500E50F181
:104D4000000041EB045170BD06F0004646EA010147
:104D500040EA020081EA0301B4EB5C04C2BFD4EB79
:104D60000C0541EA045170BD41F480114FF0000E72
:104D7000013C00F3AB8014F1360FDEBF002001F0E0
:104D8000004170BDC4F10004203C35DA0C341BDC5A
:104D900004F11404C4F1200500FA05F320FA04F02C
:104DA00001FA05F240EA020001F0004221F0004160
:104DB00010EBD37021FA04F642EB06015EEA430ED3
:104DC00008BF20EAD37070BDC4F10C04C4F1200503
:104DD00000FA04F320FA05F001FA04F240EA0200B6
:104DE00001F0004110EBD37041F100015EEA430E87
:104DF00008BF20EAD37070BDC4F1200500FA05F2A7
:104E00004EEA020E20FA04F301FA05F243EA020325
:104E100021FA04F001F0004121FA04F220EA020034
:104E200000EBD3705EEA430E08BF20EAD37070BD7A
:104E300094F0000F0FD101F00046400041EB01015A
:104E400011F4801F08BF013CF7D041EA060195F03C
:104E5000000F18BF704703F00046520043EB0303F6
:104E600013F4801F08BF013DF7D043EA06037047E3
:104E700094EA0C0F0CEA135518BF95EA0C0F0CD0EE
:104E800050EA410618BF52EA4306D1D181EA030134
:104E900001F000414FF0000070BD50EA410606BF2E
:104EA0001046194652EA430619D094EA0C0F02D173
:104EB00050EA013613D195EA0C0F05D152EA0336B8
:104EC0001CBF104619460AD181EA030101F00041D6
:104ED00041F0FE4141F470014FF0000070BD41F01F
:104EE000FE4141F4780170BD70B54FF0FF0C4CF4F9
:104EF000E06C1CEA11541DBF1CEA135594EA0C0F18
:104F000095EA0C0F00F0A7F8A4EB050481EA030E64
:104F100052EA03354FEA013100F088804FEA03334B
:104F20004FF0805545EA131343EA12634FEA022219
:104F300045EA111545EA10654FEA00260EF00041DA
:104F40009D4208BF964244F1FD0404F5407402D22C
:104F50005B084FEA3202B61A65EB03055B084FEABD
:104F600032024FF480104FF4002CB6EB020E75EBBA
:104F7000030E22BFB61A754640EA0C005B084FEAE2
:104F80003202B6EB020E75EB030E22BFB61A75465F
:104F900040EA5C005B084FEA3202B6EB020E75EBAA
:104FA000030E22BFB61A754640EA9C005B084FEA22
:104FB0003202B6EB020E75EB030E22BFB61A75462F
:104FC00040EADC0055EA060E18D04FEA051545EA1E
:104FD00016754FEA06164FEAC30343EA52734FEAC7
:104FE000C2025FEA1C1CC0D111F4801F0BD141EA40
:104FF00000014FF000004FF0004CB6E711F4801FA5
:1050000004BF01430020B4F1FD0C88BFBCF5E06F84
:105010003FF6AFAEB5EB030C04BFB6EB020C5FEA94
:10502000500C50F1000041EB045170BD0EF0004EE9
:105030004EEA113114EB5C04C2BFD4EB0C0541EA1B
:10504000045170BD41F480114FF0000E013C90E618
:1050500045EA060E8DE60CEA135594EA0C0F08BFDC
:1050600095EA0C0F3FF43BAF94EA0C0F0AD150EADB
:1050700001347FF434AF95EA0C0F7FF425AF10466E
:1050800019462CE795EA0C0F06D152EA03353FF496
:10509000FDAE1046194622E750EA410618BF52EA13
:1050A00043067FF4C5AE50EA41047FF40DAF52EAE7
:1050B00043057FF4EBAE12E74FF0FF3C06E000BF84
:1050C0004FF0010C02E000BF4FF0010C4DF804CD91
:1050D0004FEA410C7FEA6C5C4FEA430C18BF7FEA51
:1050E0006C5C1BD001B050EA410C0CBF52EA430C7F
:1050F00091EA030F02BF90EA020F0020704710F1FF
:10510000000F91EA030F58BF994208BF90422CBF8D
:10511000D8176FEAE37040F0010070474FEA410C86
:105120007FEA6C5C02D150EA013C07D14FEA430CA4
:105130007FEA6C5CD6D152EA033CD3D05DF8040B15
:10514000704700BF8446104662468C461946634647
:1051500000E000BF01B5FFF7B7FF002848BF10F11E
:10516000000F01BD4DF808EDFFF7F4FF0CBF012063
:1051700000205DF808FB00BF4DF808EDFFF7EAFFDF
:1051800034BF012000205DF808FB00BF4DF808ED9A
:10519000FFF7E0FF94BF012000205DF808FB00BF8F
:1051A0004DF808EDFFF7CEFF94BF012000205DF819
:1051B00008FB00BF4DF808EDFFF7C4FF34BF012026
:1051C00000205DF808FB00BF4FEA410C7FEA6C5CF1
:1051D00002D150EA013C0AD14FEA430C7FEA6C5CF1
:1051E00002D152EA033C02D14FF0000070474FF069
:1051F000010070474FEA410212F5001215D211D595
:105200006FF47873B3EB625212D94FEAC12343F0C3
:10521000004343EA505311F0004F23FA02F018BF45
:10522000404270474FF00000704750EA013005D10E
:1052300011F0004008BF6FF0004070474FF00000D1
:10524000704700BF4FEA4102B2F1E04324BFB3F51B
:10525000001CDCF1FE5C0DD901F0004C4FEAC002ED
:105260004CEA5070B2F1004F40EB830008BF20F0D1
:105270000100704711F0804F21D113F13872BCBF8B
:1052800001F00040704741F480114FEA5252C2F1E0
:105290001802C2F1200C10FA0CF320FA02F018BF29
:1052A00040F001004FEAC1234FEAD32303FA0CFC7C
:1052B00040EA0C0023FA02F34FEA4303CCE77FEA0B
:1052C000625307D150EA01331EBF4FF0FE4040F455
:1052D0004000704701F0004040F0FE4040F4000004
:1052E000704700BF80F0004002E000BF81F0004145
:1052F00042001FBF5FEA410392EA030F7FEA226C7C
:105300007FEA236C6AD04FEA1262D2EB1363C1BF0B
:10531000D218414048404140B8BF5B42192B88BF7A
:10532000704710F0004F40F4000020F07F4018BF9D
:10533000404211F0004F41F4000121F07F4118BFBD
:10534000494292EA030F3FD0A2F1010241FA03FC65
:1053500010EB0C00C3F1200301FA03F100F000434D
:1053600002D5494260EB4000B0F5000F13D3B0F115
:10537000807F06D340084FEA310102F10102FE2A84
:1053800051D2B1F1004F40EBC25008BF20F00100F4
:1053900040EA03007047490040EB0000013A28BF93
:1053A000B0F5000FEDD2B0FA80FCACF1080CB2EB16
:1053B0000C0200FA0CF0AABF00EBC2505242184394
:1053C000BCBFD0401843704792F0000F81F4000139
:1053D00006BF80F400000132013BB5E74FEA41030C
:1053E0007FEA226C18BF7FEA236C21D092EA030F78
:1053F00004D092F0000F08BF0846704790EA010FF2
:105400001CBF0020704712F07F4F04D1400028BF1E
:1054100040F00040704712F100723CBF00F5000000
:10542000704700F0004343F0FE4040F40000704736
:105430007FEA226216BF08467FEA236301464202E2
:1054400006BF5FEA412390EA010F40F480007047F5
:105450004FF0000304E000BF10F0004348BF40429B
:105460005FEA000C08BF704743F0964301464FF0D7
:1054700000001CE050EA010208BF70474FF0000333
:105480000AE000BF50EA010208BF704711F0004374
:1054900002D5404261EB41015FEA010C02BF844644
:1054A0000146002043F0B64308BFA3F18053A3F5A3
:1054B0000003BCFA8CF2083AA3EBC25310DB01FAEA
:1054C00002FC634400FA02FCC2F12002BCF1004F6E
:1054D00020FA02F243EB020008BF20F001007047FF
:1054E00002F1200201FA02FCC2F1200250EA4C0053
:1054F00021FA02F243EB020008BF20EADC70704799
:105500004FF0FF0C1CEAD0521EBF1CEAD15392EAA6
:105510000C0F93EA0C0F6FD01A4480EA010C400282
:1055200018BF5FEA41211ED04FF0006343EA5010DC
:1055300043EA5111A0FB01310CF00040B1F5000F1E
:105540003EBF490041EAD3715B0040EA010062F1CD
:105550007F02FD2A1DD8B3F1004F40EBC25008BFB7
:1055600020F00100704790F0000F0CF0004C08BFD5
:1055700049024CEA502040EA51207F3AC2BFD2F1A2
:10558000FF0340EAC250704740F400004FF00003B0
:10559000013A5DDC12F1190FDCBF00F000407047EA
:1055A000C2F10002410021FA02F1C2F1200200FA28
:1055B00002FC5FEA310040F1000053EA4C0308BFEF
:1055C00020EADC70704792F0000F00F0004C02BF40
:1055D000400010F4000F013AF9D040EA0C0093F0BB
:1055E000000F01F0004C02BF490011F4000F013B15
:1055F000F9D041EA0C018FE70CEAD15392EA0C0F83
:1056000018BF93EA0C0F0AD030F0004C18BF31F0ED
:10561000004CD8D180EA010000F00040704790F0C3
:10562000000F17BF90F0004F084691F0000F91F067
:10563000004F14D092EA0C0F01D142020FD193EA2D
:105640000C0F03D14B0218BF084608D180EA0100B5
:1056500000F0004040F0FE4040F40000704740F091
:10566000FE4040F4400070474FF0FF0C1CEAD0525F
:105670001EBF1CEAD15392EA0C0F93EA0C0F69D0BB
:10568000A2EB030280EA010C49024FEA402037D026
:105690004FF0805343EA111143EA10130CF000401D
:1056A0008B4238BF5B0042F17D024FF4000C8B420D
:1056B00024BF5B1A40EA0C00B3EB510F24BFA3EBED
:1056C000510340EA5C00B3EB910F24BFA3EB9103BD
:1056D00040EA9C00B3EBD10F24BFA3EBD10340EA17
:1056E000DC001B0118BF5FEA1C1CE0D1FD2A3FF65D
:1056F00050AF8B4240EBC25008BF20F00100704712
:105700000CF0004C4CEA50207F32C2BFD2F1FF03B4
:1057100040EAC250704740F400004FF00003013AE5
:1057200037E792F0000F00F0004C02BF400010F489
:10573000000F013AF9D040EA0C0093F0000F01F09D
:10574000004C02BF490011F4000F013BF9D041EABF
:105750000C0195E70CEAD15392EA0C0F08D14202F2
:105760007FF47DAF93EA0C0F7FF470AF084676E7C5
:1057700093EA0C0F04D14B023FF44CAF08466EE79E
:1057800030F0004C18BF31F0004CCAD130F000426C
:105790007FF45CAF31F000437FF43CAF5FE700BFC4
:1057A0004FF0FF3C06E000BF4FF0010C02E000BFED
:1057B0004FF0010C4DF804CD4FEA40024FEA41038F
:1057C0007FEA226C18BF7FEA236C11D001B052EA45
:1057D000530C18BF90EA010F58BFB2EB030088BF0B
:1057E000C81738BF6FEAE17018BF40F0010070477A
:1057F0007FEA226C02D15FEA402C05D17FEA236C5C
:10580000E4D15FEA412CE1D05DF8040B704700BFA2
:10581000844608466146FFE70FB5FFF7C9FF002839
:1058200048BF10F1000F0FBD4DF808EDFFF7F4FF72
:105830000CBF012000205DF808FB00BF4DF808ED0B
:10584000FFF7EAFF34BF012000205DF808FB00BF2E
:105850004DF808EDFFF7E0FF94BF012000205DF850
:1058600008FB00BF4DF808EDFFF7D2FF94BF012001
:1058700000205DF808FB00BF4DF808EDFFF7C8FFFA
:1058800034BF012000205DF808FB00BF144600B5BE
:105890001A460A4B0D461B6885B0DE6803464CB1BC
:1058A00007490191304607490294009500F00EF82F
:1058B00002F0DEF904490C46F3E700BF240500209E
:1058C000A4CC0800B4CC0800A0CC08000EB400B5ED
:1058D000074A82B003AB0146106853F8042B0193CA
:1058E00000F01CF802B05DF804EB03B0704700BF95
:1058F000240500200FB400B5074A83B004AB10683C
:1059000053F8042B8168019300F008F803B05DF8A8
:1059100004EB04B0704700BF240500202DE9F04FD0
:1059200005460E46C3B012AF924600210822384603
:105930001C46AB460296099301F0B6FE1DB16B6B97
:10594000002B00F01F87029A536EB2F90C20DE077D
:1059500040F14081950400F1DB85029942F4005248
:1059600023F400538A814B6612B2160740F1BE80C1
:10597000029B1B69002B00F0B98002F01A030A2B6E
:1059800000F0C380002319AA9146CDE91733CDE971
:105990000B3316920D9305935546934BD3F8E44081
:1059A00001F006FF2A46034610A958460097A04773
:1059B000002800F0C980C0F2BF80109B252B01D0C9
:1059C0000544EAE7B5EB0A06044640F0C180002230
:1059D0004FF0FF33904604936B7805F1010A8DF880
:1059E0003B2006920AF1010AA3F120025A2A00F292
:1059F000FD80DFE812F09103FB00FB008C03FB004D
:105A0000FB00FB006E03FB00FB006B003302FB009E
:105A10002E02A103FB009C035B005B005B005B00AC
:105A20005B005B005B005B005B00FB00FB00FB00BE
:105A3000FB00FB00FB00FB00FB00FB00EA0109038D
:105A4000FB00FB00FB00FB00FB00FB00FB00FB007E
:105A5000FB00FB003902FB00FB00FB00BD01FB006B
:105A60003403FB00FB00DE05FB00FB00FB00FB003A
:105A7000FB00FB00FB00FB00FB00FB00EA017B01DD
:105A8000FB00FB00FB0027037B017600FB003204D8
:105A9000FB0023040C04BD037600FB00BD01730072
:105AA0007102FB00FB000A06FB007300A3F1300249
:105AB000002319461AF8013B01EB810102EB410179
:105AC000A3F13002092AF5D906918DE7099B53F815
:105AD000042B002A06920993C0F2B8819AF800308C
