:0200000280007C
:1000000000300820F57D08003D7808003D780800A4
:100010003D7808003D7808003D78080000000000A9
:100020000000000000000000000000003D78080013
:100030003D780800000000003D7808003D78080089
:100040003D7808003D7808003D7808003D780800BC
:100050003D7808003D7808003D7808003D780800AC
:100060003D7808003D780800C1790800D179080082
:10007000E17908003D7808003D7808003D780800E7
:100080003D7808003D7808003D7808003D7808007C
:100090003D7808003D7808003D7808003D7808006C
:1000A0003D7808003D7808003D7808003D7808005C
:1000B0003D7808003D8508003D7808000348044B62
:1000C000834202D0034B03B11847704754550900CF
:1000D00054550900000000000548064B1B1AD90FB3
:1000E00001EBA301491002D0034B03B1184770473D
:1000F00054550900545509000000000010B5064C85
:10010000237843B9FFF7DAFF044B13B10448AFF388
:1001100000800123237010BD800A00200000000031
:100120005455090008B5054B1BB105490548AFF307
:100130000080BDE80840FFF7CFBF00BF000000000F
:10014000840A0020545509000022F0B51E4B83B0EC
:10015000984204460F4601922ED01C4B984223D061
:100160001B4B984210D01B4B984215D01A4B98420B
:1001700008D11A4E01AD29462046B0470028FAD1D1
:10018000019B3B7003B0F0BD144E01AD29462046E3
:10019000B0470028FAD1F3E7104E01AD29462046BA
:1001A000B0470028FAD1EBE70C4E01AD29462046B6
:1001B000B0470028FAD1E3E7094D39462046A84761
:1001C0000028FAD103B0F0BD00060E40000009403F
:1001D000004009400080094000C009409D9508008A
:1001E000E98008001D4B70B5984204460D4615D0B5
:1001F0001B4B98421AD01B4B98421FD01A4B984267
:1002000004D01A4B984221D0002070BD184E2946C8
:100210002046B0470028FAD1012070BD154E29466E
:100220002046B0470028FAD10120F6E7104E2946B3
:100230002046B0470028FAD10120EEE70C4E2946AF
:100240002046B0470028FAD10120E6E7084E2946AB
:100250002046B0470028FAD1DEE700BF00060E4076
:1002600000000940004009400080094000C00940EA
:1002700089950800D980080010212DE9F04188B047
:100280000DEB01007A4B9847DFF8E8810820C04762
:10029000794C7A4A4FF4006114604FF4E132784BA4
:1002A000CDE90221774A784D1A60784A784B0820C8
:1002B0001A60784B0193C04701A92046764B9847B6
:1002C0002B68764C98680021A0472B68002158685D
:1002D000A0470122724B1A70BFF35F8F62B60020F5
:1002E0004FF480716F4B704A186099806F4E904741
:1002F0006F4B984735466F4F04AC284654F8042B93
:100300006D49B84708ABA34205F10805F5D10025B2
:1003100009206A4C86F82050C04769492920A04727
:1003200067492A20A04766492B20A04764492C2012
:10033000A04763492D20A04761492E20A04760496E
:100340002F20A0475E493020A0475D493920A047B3
:100350005B493A20A0475A493B20A04758493C20D6
:10036000A04757493D20A04755493E20A047544942
:100370003F20A04753492620A04751493320A0479A
:100380004F493720A0474E493420A0474D492720E8
:10039000A0474B494F20A0474A492820A047484939
:1003A0004020A04746494120A04745494220A04758
:1003B00043494320A04742494420A04740494520A3
:1003C000A0473F494620A0473D494720A0473C4918
:1003D0004820A0473A494920A04739494A20A04728
:1003E00037494B20A04736495420A047344955206F
:1003F000A04733495620A04731495720A0473049EC
:100400005820A0472E495920A0472D495A20A047DF
:100410002B493520A04729462B4A2C482C4B98477E
:100420004FF00C32294629482A4B98474FF01012BA
:1004300029462648284B984741F20302294623487B
:10044000264B9847264B9847264B9847264B98476C
:10045000264B9847264B9847264B9847264B98475C
:10046000264B9847264B9847264B9847FEE700BFF8
:10047000417808001D7D080000060E40F83300207A
:10048000F4330020E501080024050020490108009C
:100490008833002000D8B805A180080079D308006F
:1004A0000403002090330020357F08009C010020C9
:1004B000C57708002DD50800242C0900297A0800EA
:1004C00001000008010000100004040400000E40B8
:1004D000C17D0800CD7D0800D97D0800E57D0800BC
:1004E000DD76080041700800BD0B08001D090800FA
:1004F000CD32080021370800E54D0800295C0800CE
:100500007D650800F96D080070B5084B084A0520A4
:10051000D3E9005490470749074A04F1C0440C60EE
:1005200015604C20BDE87040044B1847383200205D
:1005300095760800A40A0020A00A0020317908005E
:100540002DE9F0410E4F0120D7E900450D4EB0478F
:1005500010200D4B984774B107EB040CEC1F0B4DAA
:10056000FB1DE41B0CF1070CE21813F8010F2968BE
:1005700063458854F8D13346BDE8F0410020184760
:1005800038320020957608003179080000030020F9
:1005900010B5064A064B042054689847054A1020B7
:1005A0001460054BBDE81040184700BF38320020EA
:1005B000957608009C0A00203179080070B5084B38
:1005C000084A0220D3E9005490474C20064B984734
:1005D000294604F1C040054A054BBDE87040184764
:1005E000383200209576080031790800D9060800D5
:1005F0006D81080042F2273310B5074A14689C4207
:1006000000D910BD4C20054B98472146BDE810404D
:10061000034A0448044B1847383200203179080057
:10062000D9060800AC0A00206D81080070B590B9A9
:1006300069B10F4D0F4A2B680F4C1944206812F80E
:1006400001CB00F803C001338B42F7D12B600B4B79
:100650009847042807D0BDE870404FF48061084AED
:100660000448084B1847084B00209847F3E700BFA1
:100670009C0A0020F82D002000030020D1760800FD
:100680002D0608008D810800957608000D4A5378E4
:10069000122B03D0152B01D00020704710B5002479
:1006A000094B0A48196800689181094990601C60EB
:1006B0008847052801D0012010BD2046054B9847EA
:1006C000F9E700BFD8330020A00A0020A40A0020C8
:1006D000D17608009576080000B1704710B5054B3B
:1006E00004469847022800D010BD2046BDE81040BF
:1006F000014B1847D1760800957608002DE9F04F98
:10070000374A384B14681B6856681B1BB34283B0CA
:1007100003D342F227339C4202D903B0BDE8F08FE5
:100720004C20314B9847002E40D0304D6B88013320
:100730009BB20020A4086B80288049D04FEA840A2D
:100740000127D4462A4B2B4A1B68D2E9004803EB09
:10075000060B294ED2E902E3B246002283EAC32304
:1007600084EAD441CDE9000E5940A14681EA132420
:100770000BEB0001087824FA02F3DBB2984202F195
:10078000080280EA030E18BF2F80202A0AF801EB26
:1007900001F10101EED1DDE9000E0430844573461C
:1007A00006F104060FD0C646C846D5E71349114ADC
:1007B000D1E90150C2E90150C868096801230B4D15
:1007C0001160D060B5E70B4BC3E90049C3E9028E65
:1007D00004220B490B4B0D601A6003B0BDE8F08F8B
:1007E00038320020C001002031790800A80A00201A
:1007F00000030020E82D0020AC0A0020D82D0020A6
:10080000A40A0020A00A00202DE9F047234C102064
:10081000D4E90057224B98476FB9D4E90201214A25
:10082000214BC2E90001C3E90001D4E90401C2E996
:100830000201C3E90201AD082ED04FF0000CDFF831
:1008400064901A4C4FEA8508D9E90006D9E90252AA
:10085000002382EAC22280EAD04A8AEA020A864655
:1008600007EB0C018AEA122020FA03F2D4F800A068
:100870000833D2B2202B0AF8012001F10101F3D193
:100880000CF1040CC4452A4602D035467646DFE713
:10089000C9E9000EC9E90265BDE8F08738320020D9
:1008A00031790800E82D0020D82D00200003002019
:1008B00008B5124A5378103B082B0AD8DFE803F03A
:1008C0000B0E1114171A090905000D4B13610120B5
:1008D00008BD002008BD0B4B1361F8E70A4B1361FC
:1008E000F5E70A4B1361F2E7094B1361EFE7094B98
:1008F0009847ECE7084B1361E9E700BFD8330020C5
:10090000F5050800BD050800910508000905080067
:100910004105080009080800FD06080010B5044B51
:1009200004489847BDE810400348044B184700BFEF
:10093000410908008D060800B1080800690908008F
:1009400007490A780F2A01D900207047034610B4DE
:10095000044C501C087044F82230012010BC704731
:10096000BC320020C032002007490A780F2A01D982
:1009700000207047034610B4044C501C087044F823
:100980002230012010BC7047783200207C320020D9
:10099000004B1847F9760800004B18471D770800F0
:1009A000054B1B7803B9704710B5044B9847BDE859
:1009B0001040034B184700BFC4010020318F0800CE
:1009C0003977080038B50124044D4FF48061044A9A
:1009D000044B05482C709847204638BDC4010020C0
:1009E0002D0608008D810800F82D00200022014B03
:1009F0001A707047C401002038B50F4B0F4AD988D0
:100A00000F48402928BF40211278986099818AB107
:100A10000C4C531EDBB2251FD31A04EB820405EBEA
:100A2000830501E0AC4205D054F8043D9847002806
:100A3000F8D038BD002038BDD833002078320020EF
:100A4000383200207C32002038B50B4B1A788AB13E
:100A50000A4C531EDBB2251FD31A04EB820405EBAC
:100A6000830501E0AC4205D054F8043D98470028C6
:100A7000F8D038BD002038BDBC320020C032002084
:100A8000044B5A78222A03BF034A01201A6100202E
:100A9000704700BFD83300209D0A080010B5224BD4
:100AA0009B78013B102B0AD8DFE803F00A161B09DC
:100AB00009090909090909090909092D3A0010BD9F
:100AC0003E201A4B98471A4CA0470028FCD0BDE89E
:100AD00010401020174B18471020BDE81040164B4F
:100AE000184701220C21154B15489847154B98477C
:100AF000154A53689903FCD4136843F0254343F027
:100B000005031360FEE70F4B98470F4A53689B039A
:100B1000FCD4136843F0254343F005031360FEE75C
:100B20000A4BBDE810401847D8330020817C0800EC
:100B3000A57C0800C97B0800257C0800F177080027
:100B400000080E407D8E080000120E40C576080099
:100B500038B5144C6378172B1AD0402B16D14FF0B0
:100B6000200C114D114B372293E80300104B85E800
:100B70000300104905F1090085F808C09847284688
:100B80000D4BA5609847A081012038BD002038BDDD
:100B900040F2011000210322034BA281A3601880C0
:100BA0009970F1E7D8330020F8310020BC390900F2
:100BB00095D80800C839090051DD080010B5044B6C
:100BC00004489847BDE810400348044B184700BF4D
:100BD00041090800510B0800810A08006909080052
:100BE00084B0F0B505468FB00DF1540C8CE80E00C2
:100BF000189B06AE00939CE80E0030460D4FB84798
:100C00001C9B0AAC009319AB20460ECBB84794E866
:100C10000F000DF1040C8CE80F00099B284600938F
:100C2000054F96E80E00B84728460FB0BDE8F040E3
:100C300004B07047AD110800A10F080084B02DE981
:100C4000F04F804693B01DA880E80E00209B0AADAF
:100C5000009390E80E00344E2846B047249B0EAC1B
:100C6000009321AB0ECB2046B04740462F4B984710
:100C7000DFF8BC90DFF8BCB01BE00D9B3046009362
:100C800095E80E00D84796E80F002B4F85E80F0037
:100C900094E80F00B8470746119B3046009394E84C
:100CA0000E00DFF898A0D04796E80F0084E80F0008
:100CB0003FB395E80F00C847E8B194E80F00C84774
:100CC000C8B195E80F001E4EB04706AE0028D4D03C
:100CD00094E80F0001AFD8F80CC087E80F00CDF8FA
:100CE00000C0304698E80E00164FB84796E80F004F
:100CF00088E80F00C1E7404613B0BDE8F04F04B0EC
:100D00007047114B0DF1040C0FCB8CE80F00119BB9
:100D10003046009394E80E000A4FB84796E80F005B
:100D200084E80F00C5E700BFAD110800390F0800C7
:100D300039100800E910080099110800691008002E
:100D400075110800A10F0800D439090084B02DE9FD
:100D5000F04F804693B01DA880E80E00209B0AAE9D
:100D6000009390E80E00284D3046A847249B0EAC17
:100D7000009321AB0ECB2046A8474046234B984713
:100D8000DFF88CA0DFF88C90DFF88CB018E001AFB2
:100D900096E80F0087E80F000D9B2846009396E821
:100DA0000E00C84795E80F00119F009786E80F00D6
:100DB00094E80E002846D84795E80F0084E80F0015
:100DC00094E80F00D047C0B194E80F00134DA84736
:100DD00006AD0028DBD096E80F0001AF87E80F00D2
:100DE000D8F80C3006AD0093284698E80E00C847A6
:100DF00095E80F0088E80F00CAE7404613B0BDE849
:100E0000F04F04B0704700BFAD110800690F080033
:100E1000391008003D0C0800E910080075110800A1
:100E200084B0F0B506468FB015AC84E80E000F4BC9
:100E30000DF1180C0AAD0FCB0D4F8CE80F00614679
:100E40002846B84795E80F000DF1040C8CE80F0018
:100E5000189B30460093074F94E80E00B847304681
:100E60000FB0BDE8F04004B0704700BFE43909009E
:100E7000790E08004D0D080030B5094B85B01A6891
:100E80000446002A6B4604DD6846064D9200A847DA
:100E900003460FCB84E80F00204605B030BD00BFED
:100EA000F439090065DC08002DE9F04F00291F46E0
:100EB0008DB001F1FF3C21DD05461D4BCDE901C0A0
:100EC000D3F80090DFF86CB000EB01184FEA890A04
:100ED00004AE08AC0392B9F1000F03DD52460021C5
:100EE0003046D84796E80F0085E80F001035454595
:100EF00084E80F00EFD1DDE901C0039A002F14DD73
:100F00000325002402EB870151F8046D0134042C01
:100F100000EB0C1343F8256005BF0024032505F101
:100F2000FF350CF1FF3C8A42EED10DB0BDE8F08FE9
:100F3000F4390900F9D7080030B5094B85B01A68B3
:100F40000446002A6B4605DD00216846054D9200E7
:100F5000A84703460FCB84E80F00204605B030BDFC
:100F6000F4390900F9D7080070B50B4B84B01D683F
:100F70000446002D6B4605DD00216846074EAA0099
:100F8000B04703460FCB012684E80F002046013D01
:100F900044F8256004B070BDF4390900F9D70800A1
:100FA00084B02DE9F04391B0074619A880E80E00FF
:100FB0001F4B08AD1E680FC8002E85E80F0034DDFA
:100FC0000CACB6002946DFF86C9032462046C84784
:100FD00094E80F000DF1740C8DE80F009CE80F00F1
:100FE00085E80F00294632462046C84794E80F009E
:100FF0000DF11009EC46C846A64689E80F000DEB36
:1010000006055CF8043B58F8042B654583EA0203A7
:101010004EF8043BF5D194E80F0087E80F003846FE
:1010200011B0BDE8F04304B070470CACF3E700BF6B
:10103000F439090065DC080084B08DE80F00094B25
:10104000196800290CDD6A46002301E08B4205D0B7
:1010500052F8040B01330028F8D0012004B0704787
:101060000020FBE7F439090084B02DE9F0438DB08E
:10107000054615A880E80E00194B04AF1E6808ACA1
:10108000002E0FC887E80F001FDD3946154BB20050
:101090002046984794E80F004FF0000CEE46274694
:1010A0008DE80F0006F1FF395EF8043BCC4518BF10
:1010B000DEF800204FEA43030CF1010C18BF43EAAD
:1010C000D273664547F8043BEED194E80F0085E8FB
:1010D0000F0028460DB0BDE8F04304B0704700BFD4
:1010E000F439090065DC080084B02DE9F0418CB0CA
:1010F000054613A880E80E001C4B04AF1E6808AC20
:10110000002E0FC887E80F0025DD3946184BB200C6
:101110002046984794E80F004FF0000E27460EF146
:10112000010E8DE80F00ADF1040C4308B64508939D
:101130000CF1040C07F104070DD0DCE900320EF1CC
:10114000010EDB0743EA5203B6453B600CF1040C89
:1011500007F10407F1D194E80F0085E80F00284655
:101160000CB0BDE8F04104B0704700BFF43909008D
:1011700065DC080084B00DF1100C0CE90F00054B84
:101180001B680CEB830353F8140C00F0010004B04F
:10119000704700BFF439090084B00DF1100C0CE960
:1011A0000F00C043C00F04B0704700BF84B030B51B
:1011B00085B00DF1240C8CE80E000A4B04461A6829
:1011C0006B46002A05DD61466846074D9200A84738
:1011D00003460FCB84E80F00204605B0BDE8304041
:1011E00004B07047F439090065DC080030B484B0FD
:1011F0008DE80F000C4B1D68002D10DD6A460023A2
:1012000006A901E0AB420AD052F8044B51F8040B96
:1012100001338442F6D0002004B030BC7047012076
:1012200004B030BC704700BFF43909001160186089
:10123000704700BF0B4601461846704708B5064B7D
:101240009847064B1A68431E48BF831C02EBA30352
:1012500093FBF2F008BD00BF51DD0800F43909002E
:101260002DE9F04F274B074685B008460E469847B4
:10127000254B411E1B6848BF811C03EBA10191FB5C
:10128000F3F9B9F1000F804611DD3C464FF0000A3A
:101290006D46DFF878B028460AF1010AD84795E88C
:1012A0000F00CA4584E80F0004F11004F3D109F1DE
:1012B000FF31B8F1000F22D04FF0000E4FF0030CB9
:1012C000734606EB080010F8014D07EB011555F8C1
:1012D0002C209C4008332243202B45F82C200CD195
:1012E00000230EF1010EBEF1040F05BF4FF0030CF9
:1012F0009E460CF1FF3C01F1FF31B042E3D105B055
:10130000BDE8F08F51DD0800F4390900390F0800FD
:1013100070B50E46294B002E1B6803FB01F14FEA06
:10132000810E1CDD0025041F002941DDA44600229A
:101330000AE013F47F0F15D113F47F4F1CD128BBA3
:101340009142AEF1040E2BD05CF8043F0132180E2E
:10135000D8B2EED00135AE4204F11004E6D10EF160
:10136000010070BD0135AE420EF1FF3E04F11004E4
:10137000DCD10EF1010070BD0135AE42AEF1020EBE
:1013800004F11004D2D10EF1010070BD0135AE425E
:10139000AEF1030E04F11004C8D10EF1010070BDCE
:1013A0000135B54204F11004C0D10EF1010070BD49
:1013B0000135AE4204F11004B6D1D0E7F43909008A
:1013C000F8B50F46064611463846134B541E98474B
:1013D00001281CDD002503212B4600F1FF3EB64409
:1013E00007EB041252F8212022FA03FC0833202BC9
:1013F0000EF801CD09D100230135042D05BF0321CD
:101400001D4601F1FF3104F1FF347645E8D1002398
:10141000064406F8013CF8BD11130800002A12DD4D
:10142000F8B50C4603460849084F0D6804EB021650
:10143000AD00214618462A46B84703461034B44248
:101440002B44F6D1F8BD7047F439090065DC08007B
:101450002DE9F0438FB006AD85E80F00184695E8FA
:101460000E000AAC114D00902046A8470026104FF0
:10147000DFF84090DFF8408002AD0EE094E80F0006
:10148000C84784460D9B2846009394E80E006644A6
:10149000C04795E80F0084E80F0094E80F00B847B4
:1014A0000028EBD130460FB0BDE8F083AD11080045
:1014B0003910080075110800E91008002DE9F04FF7
:1014C000264B9FB0934604468A4698470022002345
:1014D000CDE90A23002202230025CDE90C2312A81E
:1014E0001F4B0AA9CDE90E55CDE910559847AB45DC
:1014F00030DDA946AAF1040A0DF158081AAF01AD72
:1015000006AE5AF8043F404611930EA9144B984773
:1015100098E80F0085E80F00159B3846009312AB42
:10152000DFF840C00ECBE04797E80F00D4F80CC0BE
:1015300085E80F00CDF800C0304694E80E00DFF8D3
:1015400028C009F10109E04796E80F00CB4584E87F
:101550000F00D6D120461FB0BDE8F08F390F08002C
:10156000790E08004D0D0800E10B080082B02DE94E
:10157000F04F99B006AF07F1700484E80C008200C8
:10158000D31D23F00703ADEB030D0028804639611E
:1015900006AB04DD18460021514CA0470346002647
:1015A0001946B3463346C24608F1FF327A61BBF1B1
:1015B0007F0F7ADC534578DA7A6941F823B09A4292
:1015C0000DD00BF1010BBBF1800F75D0581C82457B
:1015D00072DD03467A6941F823B09A42F1D107F1EE
:1015E0001806524630463F4CBB60F960A047D7E929
:1015F00002313A69002A53DDC7E902B34FF000090E
:101600009346DFF8E48001AC07F1900579602FE0A4
:1016100007F170030FCB84E80F007B6A07F13800F5
:10162000009396E80E00C04707F13803DFF8BCC00E
:101630000FCBE04750452EDD07F180030FCB84E848
:101640000F00FB6F07F17000009390E80E00C04799
:1016500007F1A0030FCB84E80F00D7F89C30284691
:10166000009309F1010995E80E00C047CB4514D05D
:1016700095E80F0084E80F007B6A07F128000093CB
:1016800096E80E00C04707F12803DFF860C00FCBD3
:10169000E0475045BCDC00201BE07968D7E902B385
:1016A0000BF1010BBBF1800F86D1013B10D351F838
:1016B000230000F1010B7AE751F8230000F1010B40
:1016C000BBF17F0FF1DC9A453FF776AF013BEEE7C8
:1016D00001204C37BD46BDE8F04F02B0704700BF57
:1016E000F9D70800BD1408003D0C0800511408008B
:1016F00084B070B582B00DF11C0C8CE80E00DDE9F1
:101700000A350093104E9CE80E000446B0471F2D8A
:1017100004DD3F2D10DC0221203D00E003210122E9
:10172000204654F82130AA40534044F8213002B0FA
:10173000BDE8704004B070475F2DD5BF0121002186
:10174000403D603DEBE700BFAD1108002DE9F843D7
:10175000B1F1000818DD0024051FDFF830900C4FB0
:1017600005EB880655F8040FC84701462046B847E0
:10177000B5420446F6D14046064B9847064B014613
:1017800020469847BDE8F8830024F4E7A1B5080097
:1017900041B40800A9B50800B9B708002DE9F04F19
:1017A0000B1E83B0019328DD15460024A0F1040B25
:1017B000DFF84CA0DFF84C80134F144E0BEB83097D
:1017C0005BF8040FD0472946C0470146B847014699
:1017D0002046B047D9450446F2D101980C4B9847B2
:1017E0000C4B0146204698470B4B98470B4B9847AC
:1017F0000B4B984703B0BDE8F08F0024EDE700BF26
:10180000A1B508003DB4080051B6080041B4080075
:10181000A9B50800B9B7080035AD08004D97080014
:1018200095B30800C1F12001C8417047F0B40768C2
:101830001C680E683D1986EA7566156807EB060C8C
:1018400085EAFC5506EB050C84EAFC4405EB040C28
:1018500087EABC3707600E6015601C60F0BC7047FB
:101860002DE9F04FD0F80CC00768D0F804E04669C5
:10187000026907EB0C038EEA7363D0F818E0856AFF
:10188000416A06EB02088EEA7868D0F82CE005EB96
:101890000109C46B8EEA7969D0F838E0D0F830A03D
:1018A000D0F808B0A6448AEA7E6E07EB030A8BEAFA
:1018B000FA5A436053448CEAF343C0F808A09A44B0
:1018C00087EABA370760C769C36006EB080387EA8F
:1018D000F353C0F81880984482EAF847C361026A5B
:1018E0003B4486EAB33605EB090382EAF352C0F8BB
:1018F0002C90914481EAF94302621A4485EAB23598
:10190000426BC0E9093504EB0E0382EAF351836BA5
:10191000C0F830E08E4483EAFE43CA1884EAB23449
:10192000C0E90476C463C0E90D13BDE8F08F00BFC1
:101930002DE9F04FD0F830C00768D0F810E04669C4
:10194000426807EB0C038EEA7363D0F824E0856AE3
:10195000816906EB02088EEA7868D0F838E005EB7A
:101960000109C46B8EEA7969D0F82CE0D0F80CA09C
:10197000D0F820B0A6448AEA7E6E07EB030A8BEA11
:10198000FA5A036153448CEAF343C0F820A09A4406
:1019900087EABA370760476B036306EB080387EAF9
:1019A000F353C0F82480984482EAF847436382687E
:1019B0003B4486EAB33605EB090382EAF352C0F8EA
:1019C0003890914481EAF94382601A4485EAB2353D
:1019D000C269836104EB0E0382EAF351C36AC0F863
:1019E0000CE08E4483EAFE43CA1884EAB2344661AE
:1019F00047608562C463C161C362BDE8F08F00BF08
:101A000010B5034B9847BDE81040024B184700BF84
:101A1000311908006118080000BA70472DE9F0413B
:101A2000051F90B0EC460C462A4652F8043F1BBAFC
:101A30004CF8043B136010AB6345F6D10A26DFF87F
:101A400030800C4F6846C047B847013EFAD1211F8D
:101A5000ADF104020FAC55F8040F52F8043F0344F3
:101A60001BBAA24241F8043FF5D110B0BDE8F081A5
:101A70003119080061180800F0B5DFF84CE0134F89
:101A8000134E144DC0F800E047618662C5631568C7
:101A9000114C4560556885609568C560D5680561DD
:101AA0001569C5625569056395694563D2698263A5
:101AB0001A6882615A68C2619A680262DB6843628E
:101AC0002346BDE8F0401847617078653320646EA6
:101AD00079622D326B2065741D1A0800F8B51C461A
:101AE000D2E9021015460C4EB047231EB8BF0F3383
:101AF0001E11DC173046214605F1080305F10C02E2
:101B0000064FB847D5E9022312BA1BBAC5E902232A
:101B100030462146F8BD00BF351208002D120800DE
:101B20002DE9F04F0C46A5B0D4F804C0DDF8B8A0FC
:101B3000246890461F460646002100202A4D02AB2D
:101B400003AACDF804C00094A847BAF1000F47DDFE
:101B50000024A8F10408A346A146043F0AE00DEBC7
:101B6000850558F8043F2A6D01345340A24547F8D3
:101B7000043F35D014F00F05F1D1234658464946AD
:101B80006A46DFF868C0E047194B8346049303F1C7
:101B90000E6303F53A2303F6D2730993154B894676
:101BA0000E93154B14A91393336804A80593736817
:101BB0000693B3680793F368089333690F937369C7
:101BC0001093B3691193F3691293009B0A93019BDD
:101BD0000B93029B0C93039B0D93084B9847BEE716
:101BE00025B0BDE8F08F00BF2D120800DD1A0800F7
:101BF0006170786579622D326B2065741D1A08005A
:101C00002DE9F04F8BB0334D02AF834608460C46AA
:101C100090469946A8476A46A2EB001295460646AA
:101C2000214602AC05012C4B20469847ADEB050D33
:101C3000214602AC32462046284B9847ADEB050DB5
:101C4000B60002AD2B46224649464046DFF890A03A
:101C50000096D047002E38DD0022BA46144601AD6A
:101C600005E04446A6421D4602F101022DD06968F6
:101C700004F0030307EB8303032A196104F101084D
:101C800005F10403EDD16FF07043504603EBA80952
:101C900007F11001134B98470BEB091908F00303E8
:101CA00007F12002464502EB830C04F102049AE896
:101CB0000F0089E80F0008D0002255F8083FA6421F
:101CC0004CF8103C02F10102D1D12437BD46BDE8E9
:101CD000F08F00BF3D120800611208001D140800BB
:101CE000211B0800790E08002DE9F04F85B01E4633
:101CF0006B46A3EB021302AF9D46144605464FEA1E
:101D0000021A02A8DFF84C804FEA82097860C047C7
:101D10007868ADEB0A0D0DF10808CDF80090434648
:101D20000246396B3046DFF830B0D847ADEB0A0DCC
:101D300002AE30464B4642462146DFF820A0D0474F
:101D4000224631462846064B98470C37BD46BDE82B
:101D5000F08F00BF1D140800211B0800A90E080009
:101D6000C1130800844682B02DE9F04F91469FB020
:101D70002C9829AD009029930EAC364E204608923F
:101D80000F4695E80E00CDF824C0B0472C9B12A852
:101D9000009395E80E00B04716AE3046DFF8B880E5
:101DA0000AADC0472846C0474B46002B4CDD4FF0DC
:101DB00000092A4BDFF8A8A007930DF168080DF180
:101DC000040BD7F80CC094E80F008BE80F00CDF897
:101DD00000C097E80E004046D04798E80F008BE817
:101DE0000F00199B28460093DDF81CC096E80E00F2
:101DF000E04795E80F0086E80F0012AB0FCB8BE8A9
:101E00000F00119B2846009394E80E00D04795E8F8
:101E10000F0084E80F00089B09F101094B4507F109
:101E20001007CED12DAB199C0FCB8BE80F0000947F
:101E3000099C079D204696E80E00A84720461FB043
:101E4000BDE8F04F02B07047044B0DF1040B07934F
:101E5000E8E700BFAD110800390F0800E10B0800EA
:101E60003D0C080082B02DE9F0410E461746984619
:101E700090B00DF10C0C1BAB04460FCB8CE80F009F
:101E80000DF1600E9EE8070043468DE807000B4DFC
:101E90003A46314608A8A847DDE91F01042308AAED
:101EA0000093074D0CABA8472046064B0CA998475A
:101EB000204610B0BDE8F04102B07047651D080033
:101EC000211B0800790E080084B070B50426044672
:101ED00086B00BA880E80E00084D0246DDE90F0130
:101EE00002AB0096A8472046054B02A9984720461A
:101EF00006B0BDE8704004B0704700BF211B080069
:101F0000790E080084B0F0B599B00DF17C0C8CE826
:101F10000E0003AC05469CE80F0084E80F000DF1AD
:101F2000980E08AE9EE80700164F8DE80700DDE921
:101F3000242330462399B847042310AC009329ABDF
:101F40000FCB114F84E80F00DDE92D01224614ABC1
:101F50000CACB847204614A90C4B984794E80F00E6
:101F60000DF1040C8CE80F000B9B28460093084FE2
:101F700096E80E00B847284619B0BDE8F04004B016
:101F8000704700BF651D0800211B0800790E08007E
:101F9000E10B080084B02DE9F04FB5B00EAF07F1AA
:101FA000C40585E80E0007F1680E07F1580907F12E
:101FB000F0067861804696E80F0089E80F0095E802
:101FC0000F008EE80F0007F15C0C0DF10C0B9EE882
:101FD0000F008BE80F009CE807008DE80700974C86
:101FE000D7E93512BB6D07F17800A04704230093B1
:101FF00007F17802D7E94001914C07F18803A04727
:10200000904B07F1880107F12800984707F1DC039E
:102010000FCB8DE80F0007F128038B4C0FCBA047A7
:10202000A8B1D7F8D43008F10804C8F8043007F193
:10203000DC030FCB84E80F004FF48073A8F8003066
:1020400078699C37BD46BDE8F04F04B07047D7F8BB
:10205000FC3007F13804009396E80E00DFF8EC81BD
:10206000C7F80CD082462046C0477B6CDFF8E08181
:10207000009394E80E0007F14800C047D7F80431F8
:102080000DF11C0C0C93D7F80031DFF8C8810B93CD
:1020900007F1DC030FCB8CE80F0096E80F008BE80C
:1020A0000F00D7F8D83048460293D7F8D4300193C0
:1020B000D7F8D030009395E80E00C0476B46D7F8AC
:1020C000D820A3EB02139D46002A0DF1380B40F3F4
:1020D000B080D046DFF880A101AD07F1180694E882
:1020E0000F0085E80F007B6E0BEB0810009399E85A
:1020F0000E00D04707F148030FCB85E80F007B6C3B
:102100003046009394E80E00D04796E80F0084E82C
:102110000F00D7F8D830C44608F101084345DED196
:102120004FF0000A4FF0FF325C46C7F804B0BD60C4
:10213000D046E346DFF82491D7F8EC503A6106E048
:102140004FF0010AC7F81080C34543D0984694E881
:102150000F00C847854208F1010304F11004F3DBC6
:10216000BAF1000FECD0BD6807F1680607F1DC0397
:102170000FCB86E80F0007F1780607F128030FCB95
:1021800086E80F0096E80F0085E80F007B6F344C5F
:10219000009307F168030ECB07F18800A04707F111
:1021A00088030FCBC847D7F8EC3083427B6903F133
:1021B000080437DB012507F128030FCB84E80F0063
:1021C00001237A69D7F8D410557051601370D7F88D
:1021D0000CD035E73A69D7E901B5BAF1000FC3D0A1
:1021E000531CC1D0D7F8D4300BEB021B03EB021405
:1021F0009BE80F0085E80F00E3683046009394E801
:102200000E00DFF85C80C0477B6903F1080596E8A3
:102210000F0084E80F0007F1DC030FCB85E80F0007
:102220000125CDE707F1DC030FCB002584E80F0083
:10223000C6E7DFF8289001AD96E700BF651D0800EE
:10224000211B0800790E0800ED110800210E08007E
:10225000AD110800051F08003D0C080051140800CE
:10226000E10B080008B5114B9847114B1A68431E43
:1022700093FBF2F3134493FBF2F3DA00002AACBFB2
:10228000114602F17F01C91112F0780F18BF013118
:1022900002EBC1021046002AB8BF02F17F00C01154
:1022A00012F0780F18BF0130184408BD51DD080046
:1022B000F43909000000000038B5134B9847134B60
:1022C000441E1B68124A94FBF3F41C4494FBF3F481
:1022D000E00190470F4B984709A3D3E900230E4D27
:1022E000A8470E4B9847421C002AACBF134600F18A
:1022F0008003D811530618BF0130204438BD00BFF9
:10230000EF39FAFE422EE63F51DD0800F4390900AC
:1023100011AD08000996080039B0080045B308005F
:10232000002952DD2DE9F04FC0F100088646C24673
:1023300000F17F0983B009EBC113244F244E0193B0
:102340000024A046A9F17F05A9F180030AF101004C
:102350001A4613F8011F19B10244013488EA020831
:102360004B45F5D14FF0000B04E00BF1010BBBF135
:10237000070F17D048FA0BF3DB07F6D55846154B75
:1023800098470B4602464FF080410020B847B047BF
:102390002B5C0BF1010B83F00103BBF1070F2B54F6
:1023A0001C44E7D1002C04F00104B8BF6442012CA6
:1023B000019B08BF09F87F4C09F180099945AAF1F2
:1023C000800ABDD103B0BDE8F08F70477196080058
:1023D00045B3080011AD08002DE9F84F0D46CC01BA
:1023E0008046DFF8ECA02046D047002D5BDD0027BB
:1023F00008F17F0604EB060E02460B46C4463C4637
:102400003D46A6F1800111F8010F20B17818A0EB2C
:102410000C00454001348E42F5D18036B6450CF1B2
:10242000800C07F18007ECD110461946294B9847DC
:1024300025A3D3E90023284EB047DFF8A090C84772
:10244000071E25DD0026DFF898B002E00136BE4207
:102450001EDA45FA06F3DB07F8D53046D0470246C8
:102460000B4600204FF08041D847C847034600285C
:10247000B8BF00F17F0323F07F0300F07F004344E7
:102480001A5C013682F00102BE421A541444E0DBA9
:10249000002C04F00103B8BF5B42012B01D188F886
:1024A0000030BDE8F88F0B4B984707A3D3E9002312
:1024B000094CA047DFF82490C847071EF1DD00242F
:1024C0002546BFE7AFF30080EF39FAFE422EE63F24
:1024D00011AD08000996080039B0080045B308009E
:1024E000719608002DE9F04FB1F1000885B030DD9C
:1024F000174604460026EB46DFF85CA002F19F0970
:102500005846D0479BE80F00A44684E80F00C6EB6E
:10251000466007F11F01A9EBC010A1F12002DCF811
:1025200000305B00CCF8003012F8015F83F001034B
:102530000DB1CCF800309142F1D1203188420CF13C
:10254000040CEAD10136B04504F1100407F180070C
:10255000D6D105B0BDE8F08F390F0800F8B5171EC9
:102560002BDD0E46FD0104462A460021134B9847F9
:1025700006EB0716803D043E254430464FF07F0CA5
:1025800005F1010E00220EEB0C010368D34001326D
:1025900003F00103202A01F8013DF6D1ACF1200C33
:1025A000BCF1FF3FA0F10400ECD1A542A6F110065A
:1025B000A5F1800301D01D46DFE7F8BDF9D708007B
:1025C0002DE9F041B3F1000804460D46164600AF70
:1025D00004DD0021274B4FEAC81298476B46A3EB56
:1025E000C6139D4629466846234B32469847B6F1A6
:1025F000010E6D4658BF7F2308F1FF301ED41946E7
:10260000013B0B424FF07F0205EBCE1C05D1591C5C
:1026100017D01946013B0B42F9D004EBC0181CF847
:102620000260013A08F801605E1C17D1531C00F1EA
:10263000FF3007D17F23BEF1010EE0D2BD46BDE8D9
:10264000F08101387E231CF8026004EBC01181F890
:102650007F60013A561CEED01946DBE7511C03F1AE
:10266000FF36E8D0334201D13346F3E7194633460B
:10267000D5E700BFF9D708005D250800F8B5054685
:102680006846A0EBC31000AF1C468546064EB04717
:1026900021466846054B98476A4621462846044B22
:1026A0009847BD46F8BD00BFC1250800212308009A
:1026B000E52408002DE9F843B3F1000905460E466C
:1026C000904600AF4FEAC91403DD224600212B4B90
:1026D00098476B46A3EBC8139D4631464246284BAC
:1026E00068469847B8F101086E4658BF7F2309F144
:1026F000FF3C04F1FF3129D47F2006EBC81E4A1E9F
:102700000A4205D1013B2CD311464A1E0A42F9D098
:102710001EF8004005EBCC11CC54013B5C1C00F1D1
:10272000FF3016D1411C0CF1FF3C1FD0511E11424D
:1027300011D07E231EF8004005EBCC1282F87F40BA
:102740000138421CDBD1B8F10108D5D2BD46BDE845
:10275000F8831146F5E7023A114205D111467D236F
:10276000EFE70CF1FF3CE1E77E23D1E7B8F1010888
:1027700011464FF07F03BFD2E8E700BFF9D708004A
:102780005D250800F8B505466846A0EBC31000AF0C
:102790001C468546064EB04721466846054B98477D
:1027A0006A4621462846044B9847BD46F8BD00BFFF
:1027B000B5260800D9230800E524080084B02DE9D7
:1027C000F04F91B00AAF07F1440686E80E00FB6FA8
:1027D000BC6D0793D7F880300DF10C0C08930546BB
:1027E00096E80F008CE80F0007F1700E9EE80700D6
:1027F000FB6E8DE8070007F1080822464046796D18
:10280000DFF8D890C84707F15C030FCB8DE80F00C5
:10281000334E98E80F00B04780B100234FF0010C11
:102820001A466B707B6D85F800C0AA706B602846F5
:102830001C37BD46BDE8F04F04B070476B46A3EBB4
:10284000C4139D46064622460AA8796D254B78603A
:102850009847002C78683BDDB2460DF1A70EC0F119
:10286000000B4FF0000CE046AEF180030BF10109C4
:102870001A4613F8011F21B14A440CF1010C88EAF1
:1028800002087345F4D1B8F1000F0AD01CF0010C16
:102890001BD0012600EBCA1212F80830734002F870
:1028A00008300AF1010A54450EF1800EABF1800B9D
:1028B000D7D102462146786D0B4B9847002EB6D0F3
:1028C0004FF0010C00226346ABE701226346A8E704
:1028D00002462146786D044B9847A8E7651E08001C
:1028E000ED1108005D250800E524080084B02DE9FD
:1028F000F0478EB00AAF07F1340C8CE80E00D7E930
:102900001164FB6E0DF10C0E07933B6F05460893A7
:102910009CE80F008EE80F0007F1600A9AE80700B4
:10292000FB6DDFF8E0908DE807002246314638461F
:10293000C84707F14C030FCB8DE80F00DFF8C890B4
:1029400097E80F00C84768B10022012311462B7099
:102950006A70A9706E6028461037BD46BDE8F04722
:1029600004B070476B46A3EBC4139D460DF12809D4
:102970008046224631464846244B9847002CEADDE3
:102980004146C6460DF1A80CACF1800313F8012BAB
:102990002AB1A3EB0902013A8EEA020E01319C45ED
:1029A000F4D108F1010844450CF1800CECD1BEF1E2
:1029B000000FD0D011F0010320D07346BEF1000FFC
:1029C000B8BF0EF17F03DEF1000000F07F0023F0BE
:1029D0007F030EF07F0E4B4458BFC0F1000E13F87A
:1029E0000E004A4680F0010003F80E004146084BF5
:1029F00030469847012300211A46A8E701211A46CC
:102A0000A5E700BF651E0800ED1108005D25080060
:102A1000E52408002DE9F0471D466B46A3EBC213E1
:102A200000AF9D46E9461C4C8246684616464FEA72
:102A3000C218A047A9EBC5139D46002D6C4604DDC6
:102A400000216846154BEA019847013E05F1FF3C1D
:102A50001AD4CE467F22A8F17F08C6447F231946A8
:102A6000013B0B4204EBCC1007D01EF8031081543D
:102A7000013A3CBF7F220CF1FF3C591CEFD1013ED3
:102A8000731CAEF1800EE9D1224629465046044B14
:102A90009847BD46BDE8F0875D250800F9D70800D6
:102AA000E52408002DE9F0471E466B46A3EBC21350
:102AB00000AF9D466D461C4C8246684691464FEAE3
:102AC000C218A047A5EBC6139D46002E6C4604DD38
:102AD00000216846154BF2019847B9F1000F06F145
:102AE000FF3C18DD7F22A8F1810E0EF1800319460C
:102AF000013B0B4204EBCC1006D0695C8154013AD7
:102B00003CBF7F220CF1FF3C7345F0D1AEF1800E4B
:102B10001EF1810FE9D1224631465046044B9847B9
:102B2000BD46BDE8F08700BF5D250800F9D7080065
:102B3000E524080010B50E4B88B00FCB8DE80F00D0
:102B400069460C4B04A89847694604AB53F8040B3C
:102B500051F8042B904204D108AA9342F6D108B050
:102B600010BD0E21044B054A0548064CA04700BF86
:102B7000743C0900790E08002C2C0900603C090007
:102B8000442C0900DDB9080010B51F4C90B00DF1C0
:102B9000040C0FCCACE80F0094E8070007238CE886
:102BA00007001A4C01AA022108A8A04710AB08AAE6
:102BB0000CAC53F8040D52F8041D884211D19C420C
:102BC000F7D10B9A039B9A4211D10A9A029B9A421F
:102BD0000DD1099A019B9A4209D1089B6BB910B09B
:102BE00010BD1A210A4B0B4A0B480C4CA0471D2163
:102BF0000B4B084A0848094CA0471F21094B054ABE
:102C00000548064CA04700BF843C0900A90E0800F7
:102C10006C2C0900483C0900442C0900DDB908006F
:102C2000942C0900C02C090010B584B0084B6846EC
:102C300098476B4653F8042B22B904AA9A42F9D15B
:102C400004B010BD2721034B034A0448044CA0479D
:102C5000390F0800E42C09002C3C0900442C090021
:102C6000DDB9080010B584B00C4B68469847DDE923
:102C70000031029A0B43134304D1039B012B07D16C
:102C800004B010BD3021064B064A0748074CA04748
:102C90003221074B034A0448044CA047690F08003F
:102CA000E42C0900143C0900442C0900DDB908009B
:102CB000F82C09002DE9F0411F4B9EB003F1100ED6
:102CC00003F1200C12AE0EAD06AC16AFDFF86C802F
:102CD0000FCB85E80F009EE80F0086E80F009CE808
:102CE0000F0084E80F0029463846C04731461AAE27
:102CF0003046C04796E80F000DF1040C8CE80F0039
:102D0000199BDFF83C80009397E80E000AA8C047A3
:102D100022460AAB53F8040B52F8041B884204D134
:102D2000AB42F7D11EB0BDE8F0814321054B064A06
:102D30000648074CA04700BFA03C0900790E0800D8
:102D4000A10F08000C2D0900F03B0900442C0900DC
:102D5000DDB90800F0B5154B93B00AAC0EAD0FCB42
:102D600085E80F0029462046114B984794E80F004C
:102D70000DF1040C8CE80F000D9B06AE009330465D
:102D800094E80E000B4FB84796E80F00A44684E87D
:102D90000F005CF8043B1BB96545FAD113B0F0BDD8
:102DA0005021054B054A0648064CA047A03C0900A7
:102DB000790E0800A10F0800E42C0900C03B0900AF
:102DC000442C0900DDB9080030B585B06846074BD2
:102DD00098479DE80F00064DA84708B105B030BDE3
:102DE0005721044B044A0548054CA047690F0800C9
:102DF000391008002C2D0900A03B0900442C0900C3
:102E0000DDB9080030B585B06846074B98479DE8A6
:102E10000F00064DA84708B905B030BD5D21044B31
:102E2000044A0548054CA047390F0800391008002E
:102E3000442D0900803B0900442C0900DDB908003D
:102E4000F0B5154B93B003F1300C0AAD02AC0EAEE9
:102E50000FCB85E80F009CE80F0084E80F0029469F
:102E600030460E4B9847119B0D4F009396E80E008D
:102E700006A8B847224606AB53F8040B52F8041BC9
:102E8000884203D1AB42F7D113B0F0BD7121054B9D
:102E9000054A0648064CA047A03C0900790E0800E8
:102EA000691008000C2D0900543B0900442C09004E
:102EB000DDB908002DE9F04300264FF000484FF03F
:102EC000000900278FB00AAC2046114B06A9CDE9B6
:102ED0000867CDE9068998470D9B02AD0093284607
:102EE00094E80E000B4EB04795E80F0084E80F0001
:102EF000204650F8043B2BB90EAB9842F9D10FB0E5
:102F0000BDE8F0838121044B044A0548054CA047E5
:102F1000790E0800691008005C2D0900143B0900B7
:102F2000442C0900DDB90800F0B5154B93B003F14E
:102F3000400C0AAD02AC0EAE0FCB85E80F009CE84A
:102F40000F0084E80F00294630460E4B9847119B2E
:102F50000D4F009396E80E0006A8B847224606AB30
:102F600053F8040B52F8041B884203D1AB42F7D14B
:102F700013B0F0BD9021054B054A0648064CA0470A
:102F8000A03C0900790E0800E91008000C2D09008A
:102F9000FC3A0900442C0900DDB908002DE9F04194
:102FA000184B92B00AAD06AC03F140070EAE0FCB42
:102FB00086E80F0097E80F0084E80F0031462846A6
:102FC000114B98470D9B02AF0093384695E80E00D1
:102FD000DFF83880C04797E80F00A4462C4685E804
:102FE0000F0054F8042B5CF8043B9A4204D1B4421D
:102FF000F7D112B0BDE8F081A021054B054A064883
:10300000064CA047A03C0900790E0800E910080012
:103010005C2D0900D03A0900442C0900DDB90800F4
:1030200030B50B4B89B004AC0FCB8DE80F0069466F
:103030002046084B984794E80F00074DA84708B171
:1030400009B030BDAC21054B054A0648064CA047E7
:10305000F03C0900790E080075110800E02E090007
:10306000B83A0900442C0900DDB9080030B50B4B13
:1030700089B004AC0FCB8DE80F0069462046084BA1
:10308000984794E80F00074DA84708B909B030BD2C
:10309000B721054B054A0648064CA047A03C09004D
:1030A000790E080075110800782D09009C3A090076
:1030B000442C0900DDB9080030B50B4B89B004ACD5
:1030C0000FCB8DE80F0069462046084B984794E8DF
:1030D0000F00074DA84708B109B030BDC221054B0C
:1030E000054A0648064CA047003D0900790E080035
:1030F00099110800E02E0900743A0900442C0900D7
:10310000DDB908002DE9F0434FF070484FF0000999
:103110000026002789B004AC20466946094BCDE95A
:103120000089CDE90267084D984794E80F00A84749
:1031300010B909B0BDE8F083CD21044B044A05481D
:10314000054CA047790E080099110800782D090058
:10315000483A0900442C0900DDB9080070B51B4B42
:103160008EB00AAD02AC0FCB85E80F002946204691
:10317000174B9847059B06AD009394E80E00284630
:10318000144EB04723462A4653F8044B52F8041B0A
:103190008C4209D1AB42F7D1099B012B10D0029B85
:1031A000012B07D00EB070BDD9210B4B0B4A0C4838
:1031B0000C4CA047DF210C4B084A0948094CA0479A
:1031C000DD210A4B054A0648064CA047A03C0900F1
:1031D000790E0800AD110800802D0900343A09006D
:1031E000442C0900DDB90800B82D09009C2D090008
:1031F000F0B5134C95B004AE08AD94E80F00114F34
:1032000086E80F0031462846B84794E80F000DF1D4
:10321000300C10AE8CE80F0061463046B84796E897
:103220000F008DE80F00084C95E80F00A04708B18B
:1032300015B0F0BDE921054B054A0648064CA047EC
:10324000103D0900790E0800ED110800D42D090089
:10325000183A0900442C0900DDB90800F0B5144CF7
:1032600095B004AE08AD94E80F00124F86E80F0049
:1032700031462846B84710340DF1300C10AE94E8B2
:103280000F008CE80F0061463046B84796E80F0003
:103290008DE80F00084C95E80F00A04708B915B05D
:1032A000F0BDF321054B064A0648074CA04700BF76
:1032B000103D0900790E0800ED110800EC2D090001
:1032C000F8390900442C0900DDB9080010B5144B89
:1032D0009847144B9847144B9847144B9847144BF6
:1032E0009847144B9847144B9847144B9847144BE6
:1032F0009847144B9847144B9847144B9847144BD6
:103300009847144B9847144B9847144B9847144BC5
:103310009847144B9847BDE81040134B184700BF1F
:10332000352B0800892B0800292C0800652C080083
:10333000B52C0800552D0800C92D0800052E0800E1
:10334000412E0800B52E0800292F08009D2F0800E7
:10335000213008006D300800B93008000531080040
:103360005D310800F13108005D32080010B5154BE1
:1033700084B01968DA68039159689B68872A0191BB
:10338000029307D1029BBBB9019B7BB9039B3BB95D
:1033900004B010BD0E210C4B0C4A0D480D4CA0473B
:1033A00011210D4B094A0A480A4CA04710210B4B2A
:1033B000064A0748074CA0470F21094B034A044817
:1033C000044CA047D4390900082E0900183E090012
:1033D000282E0900DDB90800902E0900702E090082
:1033E000502E09002DE9F0411F4B9EB003F1100E45
:1033F00003F1200C12AE0EAD06AC16AFDFF86C80F8
:103400000FCB85E80F009EE80F0086E80F009CE8D0
:103410000F0084E80F0029463846C04731461AAEEF
:103420003046C04796E80F000DF1040C8CE80F0001
:10343000199BDFF83C80009397E80E000AA8C0476C
:1034400022460AAB53F8040B52F8041B884204D1FD
:10345000AB42F7D11EB0BDE8F0812321054B064AEF
:103460000648074CA04700BF383E0900790E080007
:10347000E10B0800B02E0900F43D0900282E0900D8
:10348000DDB90800F0B5154B93B00AAC0EAD0FCB0B
:1034900085E80F0029462046114B984794E80F0015
:1034A0000DF1040C8CE80F000D9B06AE0093304626
:1034B00094E80E000B4FB84796E80F00A44684E846
:1034C0000F005CF8043B1BB96545FAD113B0F0BDA1
:1034D0003121054B054A0648064CA047383E0900F5
:1034E000790E0800E10B0800E42C0900C43D090036
:1034F000282E0900DDB908002DE9F0411F4B9EB0D0
:1035000003F1100E03F1300C12AE0EAD06AC16AF87
:10351000DFF86C800FCB85E80F009EE80F0086E88F
:103520000F009CE80F0084E80F0029463846C0478A
:1035300031461AAE3046C04796E80F000DF1040C34
:103540008CE80F00199BDFF83C80009397E80E0091
:103550000AA8C04722460AAB53F8040B52F8041BD2
:10356000884204D1AB42F7D11EB0BDE8F0814321BF
:10357000054B064A0648074CA04700BF383E0900E5
:10358000790E08003D0C08000C2D0900A43D09002F
:10359000282E0900DDB908002DE9F0411B4B96B03B
:1035A0000EAD0AAC03F1400712AE0FCB86E80F0058
:1035B00097E80F0084E80F0031462846144B9847DF
:1035C00095E80F000DF1040C8CE80F00119B06AF7D
:1035D0000093384695E80E00DFF83880C04797E83A
:1035E0000F00A4462C4685E80F0054F8042B5CF825
:1035F000043B9A4204D1B442F7D116B0BDE8F08141
:103600005321054B054A0648064CA047383E0900A1
:10361000790E08003D0C08005C2D0900743D09007E
:10362000282E0900DDB90800F0B5154B93B003F161
:10363000500C0AAD02AC0EAE0FCB85E80F009CE833
:103640000F0084E80F00294630460E4B9847119B27
:103650000D4F009396E80E0006A8B847224606AB29
:1036600053F8040B52F8041B884203D1AB42F7D144
:1036700013B0F0BD6221054B054A0648064CA04731
:10368000383E0900790E0800210E08000C2D0900B3
:10369000603D0900282E0900DDB908002DE9F04140
:1036A000184B92B00AAD06AC03F150070EAE0FCB2B
:1036B00086E80F0097E80F0084E80F00314628469F
:1036C000114B98470D9B02AF0093384695E80E00CA
:1036D000DFF83880C04797E80F00A4462C4685E8FD
:1036E0000F0054F8042B5CF8043B9A4204D1B44216
:1036F000F7D112B0BDE8F0817221054B054A0648AA
:10370000064CA047383E0900790E0800210E08003B
:103710005C2D0900303D0900282E0900DDB90800A4
:1037200010B5084B9847084B9847084B9847084BEB
:103730009847084B9847084B9847BDE81040074BFF
:10374000184700BF6D330800E533080085340800D2
:10375000F934080099350800293608009D3608001C
:1037600008B51621024B034A0348044CA04700BF8A
:10377000D42E090004430900E82E0900DDB9080031
:1037800008B52021024B034A0348044CA04700BF60
:10379000D42E0900AC420900E82E0900DDB908006A
:1037A00008B52A21024B034A0348044CA04700BF36
:1037B000D42E09005C420900E82E0900DDB908009A
:1037C00008B53421024B034A0348044CA04700BF0C
:1037D000D42E09000C420900E82E0900DDB90800CA
:1037E00030B51E4DADF5097D95E80F0008AC8DE8AC
:1037F0000F0069461A4B04A8984705F110014FF4D1
:103800008072184B20469847174D0223012204A9C5
:1038100048A8A8470DF11F030DF21F120DF19F0CD0
:1038200013F8010F12F8011F884210D16345F7D138
:103830000DF29F1204F1FF0C13F8010F12F8011F93
:10384000884204D19C45F7D10DF5097D30BD532147
:10385000064B074A0748084CA04700BF54430900DD
:10386000790E080065DC0800C1250800502F09000A
:10387000CC410900E82E0900DDB9080030B51F4D24
:10388000ADF5097D95E80F001D4C8DE80F00042370
:103890006A46012104A8A04708AC05F110014FF4C5
:1038A0008072184B20469847174D0223012204A925
:1038B00048A8A8470DF11F030DF21F120DF19F0C30
:1038C00013F8010F12F8011F884210D16345F7D198
:1038D0000DF29F1204F1FF0C13F8010F12F8011FF3
:1038E000884204D19C45F7D10DF5097D30BD752185
:1038F000064B074A0748084CA04700BF644409002C
:10390000A90E080065DC0800B5260800502F090044
:1039100088410900E82E0900DDB9080030B5ADF591
:10392000017D4FF480721949194D6846A8474FF43C
:1039300080726C460DEB02001649A847164B022117
:1039400040A898470DF1FF330DF1FF020DF17F0CF8
:1039500013F8010F12F8011F884210D16345F7D107
:103960000DF27F1204F1FF0C13F8010F12F8011F82
:10397000884204D19C45F7D10DF5017D30BD9F21D2
:10398000064B074A0748084CA04700BF744509008A
:1039900065DC08006443090021230800502F09005A
:1039A00068410900E82E0900DDB9080030B5ADF521
:1039B000017D4FF480721949194D6846A8474FF4AC
:1039C00080726C460DEB02001649A847164B022187
:1039D00040A898470DF1FF330DF1FF020DF17F0C68
:1039E00013F8010F12F8011F884210D16345F7D177
:1039F0000DF27F1204F1FF0C13F8010F12F8011FF2
:103A0000884204D19C45F7D10DF5017D30BDC92117
:103A1000064B074A0748084CA04700BF74460900F8
:103A200065DC080074440900D9230800502F090000
:103A300048410900E82E0900DDB9080070B5DCB086
:103A40004FF4807219491A4B1A4C1CA898470FCC96
:103A50000DF1100CACE80F0094E80F000CAD8CE8F1
:103A60000F00154E08230221284604AA14ACB047C3
:103A700002212046114B1CAA984794E80F008DE8BC
:103A80000F000F4E95E80F00B04748B118AB0FCBB1
:103A90008DE80F0010AB0FCBB04708B15CB070BD24
:103AA000E721084B084A0948094CA047744509001A
:103AB00065DC080074470900A90E0800E524080029
:103AC000ED110800702F090028410900E82E0900B7
:103AD000DDB9080070B5204CA4B004AD94E80F0027
:103AE00085E80F002A4604231C4D012108A8A84799
:103AF00004F54C7C0DF1300EBCE80F00AEE80F0071
:103B00009CE80F0014AC8EE80F0008230221204629
:103B10000CAAA8471CAD022301222846104E08A972
:103B2000B04795E80F008DE80F000E4E94E80F00A7
:103B3000B04750B124AB13E90F008DE80F0018AB6C
:103B40000FCBB04708B124B070BD4FF48871064B5D
:103B5000064A0748074CA04764440900A90E08001C
:103B600085270800ED110800702F0900FC400900AE
:103B7000E82E0900DDB9080070B5ADF5107D6C4682
:103B80001E4D1F4E0FCD0FC495E80F0084E80F00A7
:103B900008236A46022108A810ACB0474FF480728F
:103BA000184BA5F50471204698470222164B08A928
:103BB00050A898470DF13F030DF23F120DF1BF0CD5
:103BC00013F8010F12F8011F884210D16345F7D195
:103BD0000DF2BF1204F1FF0C13F8010F12F8011FD0
:103BE000884204D19C45F7D10DF5107D70BD4FF48E
:103BF0009771064B064A0748074CA04774470900CF
:103C0000A90E080065DC08005D250800502F09009A
:103C1000DC400900E82E0900DDB908002DE9F04F6D
:103C2000B9B0714B0EAF71489847714B81466F48E0
:103C30009847704C07F1680E05460FCCAEE80F00B0
:103C40000022012304F1100C07F18806C7E90423C0
:103C500094E80F008EE80F00BCE80F000FC69CE848
:103C60000F0004F1300B86E80F000224002307F157
:103C7000280AC7E906349BE80F00DFF87C818AE850
:103C80000F00514607F13800C04707F14808404689
:103C90005A4B98476B46A3EB09139D460EAE304630
:103CA000574C524907F1100307F16802A0476B46D1
:103CB000A3EB05139D460EAC4A46314620462B46E3
:103CC000DFF840A1D04707F11803089307F18803F4
:103CD00007930DF10C0998E80F0089E80F0007F130
:103CE0003C0C07F1580A9CE80700BB6B464E8DE878
:103CF00007002A4621465046B0472A230193E3682D
:103D0000DFF808B10093384694E80E00D84797E8EA
:103D10000F004FF0640C84E80F00CDF804C000934E
:103D2000384694E80E00D84797E80F0084E80F0063
:103D300007F118030C9307F188030B930DF11C0C8A
:103D400007F138030FCB8CE80F009AE80F0089E8E1
:103D50000F00CDE901457B6DDFF8B4B0009398E822
:103D60000E0007F12000D84797F82030002B33D100
:103D700097F821304BBB97F82220FAB1002D12DDC5
:103D800098467E6ADFF88C9004EB08130FCB8DE821
:103D90000F0096E80F00C84748B108F101084545F3
:103DA00006F11006F0D1AC37BD46BDE8F08F40F209
:103DB0005B11194B194A1A481A4CA04740F2591185
:103DC000194B164A1648174CA0474FF4AC71174BC5
:103DD000124A1348134CA04740F25711144B0F4A94
:103DE0000F48104CA04700BF3D1208009C2F09004F
:103DF00065220800B4470900790E0800390F080051
:103E0000011C08007D260800651E0800F116080048
:103E1000BD270800ED110800EC2F09009C400900A7
:103E2000E82E0900DDB90800D82F0900C42F0900C9
:103E3000A82F09002DE9F04FB9B06F4B0EAF6F48B6
:103E400098476F4B81466D4898476E4C07F1680C58
:103E500080460FCCACE80F000022012304F11006CD
:103E600007F18805C7E9042394E80F008CE80F00E8
:103E70000FCE0FC596E80F0004F1300B85E80F0058
:103E80000224002307F1280EC7E906349BE80F003F
:103E900007F148068EE80F00DFF86CA1714607F1C4
:103EA0003800D0473046594B98476B46A3EB09136F
:103EB0009D460DF1380A5046554C504907F1100304
:103EC00007F16802A0476B46A3EB08139D46A3EBDE
:103ED00008130EAC9D464A465146DFF838B12046DD
:103EE00043460EADD8474A46514643462846D84732
:103EF00007F11803089307F1880307930DF10C09E4
:103F000096E80F0089E80F0007F13C0C07F1580A0A
:103F10009CE80700BB6BDFF800B18DE80700424664
:103F200021465046D8472A230193E3683846009338
:103F3000DFF8E8B094E80E00D84797E80F0084E86F
:103F40000F0007F118030C9307F188030B930DF191
:103F50001C0C07F138030FCB8CE80F009AE80F0018
:103F600089E80F00CDE901487B6DDFF8B4B000931C
:103F700096E80E0007F12000D84797F82030002B74
:103F800032D097F8213043B397F82230F3B995E84F
:103F90000F008DE80F007C6A224E94E80F00B047B6
:103FA00068B1103595E80F008DE80F00103494E8E3
:103FB0000F00B04718B1AC37BD46BDE8F08F4FF4E5
:103FC000C471194B194A1A481A4CA0474FF4C371CF
:103FD000194B164A1648174CA04740F28511174B4B
:103FE000124A1348134CA0474FF4C271144B0F4AA6
:103FF0000F48104CA04700BF3D1208009C2F09003D
:1040000065220800B4470900790E0800390F08003E
:10401000011C08007D260800651E0800F116080036
:10402000BD270800ED1108007C3009005C40090044
:10403000E82E0900DDB90800683009005430090095
:10404000383009002DE9F04FB5B0614B0EAF614833
:104050009847614B80465F489847604D07F1580E7E
:1040600004460FCDAEE80F000022012305F1100C2D
:1040700007F17806C7E9002395E80F008EE80F00E6
:10408000BCE80F000FC69CE80F0086E80F00002276
:10409000022305F1300A07F1180907F13806C7E9CC
:1040A00002239AE80F00DFF838B189E80F0049468B
:1040B00007F12800D84730464A4B98476B46A3EB98
:1040C00008139D460DF1380948463B464149464D87
:1040D00007F15802A8476B46A3EB04139D460EADAB
:1040E0004246494628462346DFF800A1D04707F15B
:1040F000780907F1080ACDF81C90CDF820A00DF141
:104100000C0896E80F0088E80F0007F1480B07F14C
:104110002C0C9CE80700BB6ADFF8D4C08DE80700D0
:10412000224629465846E047CDE90B9A0DF11C0C72
:1041300007F128030FCB8CE80F009BE80F0088E8FD
:104140000F00CDE901547B6CDFF8A890009396E84E
:104150000E0007F11000C8473B7C002B31D07B7C60
:1041600043BBBB7CFBB9002C12DD98467E69DFF8AF
:10417000889005EB08130FCB8DE80F0096E80F0031
:10418000C84748B108F10108444506F11006F0D1CE
:104190009C37BD46BDE8F08F40F2B111174B184A6D
:1041A0001848194CA04740F2AF11184B144A154853
:1041B000154CA0474FF4D771154B114A1148124CBA
:1041C000A04740F2AD11134B0D4A0E480E4CA047CC
:1041D0003D1208009C2F090065220800B447090021
:1041E000790E0800390F0800011C08007D26080020
:1041F000651E0800BD270800ED110800EC2F09001E
:1042000030400900E82E0900DDB9080068300900D7
:10421000C42F0900383009002DE9F04FB9B0804BA8
:104220000EAF80489847804B80467E4898477F4D28
:1042300007F1680604460FCD0FC60022012305F1E1
:10424000100E07F1880CC7E9042395E80F0086E8F3
:104250000F00BEE80F00ACE80F009EE80F008CE8EE
:104260000F000022022305F1300B07F1280AC7E9ED
:1042700006239BE80F00DFF8B8918AE80F0051464B
:1042800007F13800C84707F148094846694B984785
:104290006B46A3EB08139D460EAE674D3046614951
:1042A00007F1100307F16802A8476B46A3EB04135C
:1042B0009D460EAD4246314628462346DFF87CA196
:1042C000D04707F11803089307F1880307930DF10E
:1042D0000C0B99E80F008BE80F0007F13C0C9CE8F1
:1042E0000700BB6B564E8DE807002246294607F1B2
:1042F0005800B0472A230193EB68DFF848A10093E8
:10430000384695E80E00D04797E80F004FF0640C50
:1043100085E80F00CDF804C00093384695E80E00FC
:10432000D04797E80F004FF0210C85E80F00CDF83B
:1043300004C0EB6905F110080093384698E80E00B8
:10434000D04797E80F004FF02D0C88E80F00CDF80C
:1043500004C0EB693846009398E80E00D04797E810
:104360000F0088E80F0007F118030C9307F188038A
:104370000B930DF11C0C07F138030FCB8CE80F00E9
:1043800007F158030FCB8BE80F00CDE901547B6D8B
:10439000DFF8B4A0009399E80E0007F12000D047A1
:1043A00097F82030002B33D197F821304BBB97F88A
:1043B0002220FAB1002C12DD98467E6ADFF88C903C
:1043C00005EB08130FCB8DE80F0096E80F00C847E8
:1043D00048B108F10108444506F11006F0D1AC37A8
:1043E000BD46BDE8F08F40F2DF11194B194A1A485B
:1043F0001A4CA04740F2DD11194B164A1648174CCB
:10440000A0474FF4EE71174B124A1348134CA047C4
:1044100040F2DB11144B0F4A0F48104CA04700BF6D
:104420003D1208009C2F090065220800B4470900CE
:10443000790E0800390F0800011C08007D260800CD
:10444000651E0800F1160800BD270800ED110800E0
:10445000EC2F0900F03F0900E82E0900DDB9080043
:10446000D82F0900C42F0900A82F09002DE9F04F0B
:10447000BBB07A4B0EAF7A4898477A4B06467848DD
:104480009847794C07F1700E81460FCCAEE80F00CB
:104490000022012304F1100C07F19005C7E906235F
:1044A00094E80F008EE80F00BCE80F000FC59CE8F1
:1044B0000F0004F1300B85E80F000224002307F100
:1044C000300AC7E908349BE80F00DFF8A0818AE8CA
:1044D0000F00514607F14000C04707F15008404621
:1044E000634B98476B46A3EB06139D460DF1380AC4
:1044F000604C50465A4907F1180307F17002A04773
:104500006B46A3EB09139D46A3EB09130EAC9D4626
:1045100032465146DFF860B120464B460EADD847D3
:10452000324651464B462846D84707F120030893A8
:1045300007F19003079303AB9E4698E80F00C7F876
:1045400004E08EE80F0007F1440C9CE807003B6C88
:104550004A4E8DE807004A46214607F16000B04701
:104560002A230193E36807F108060093DFF810B1EE
:10457000304694E80E00D84796E80F004FF06E0CD6
:1045800084E80F00CDF804C0E36904F1100A009339
:1045900030469AE80E00D84796E80F008AE80F00E8
:1045A00007F120020C9207F190020B920DF11C0C06
:1045B00007F140020FCA8CE80F00D7F804E007F1BA
:1045C00060020FCA8EE80F00CDE90149FB6DDFF8EC
:1045D000B4B0009398E80E0007F12800D84797F888
:1045E0002830002B32D097F8293043B397F82A307F
:1045F000F3B995E80F008DE80F00FC6A224E94E8AD
:104600000F00B04768B1103595E80F008DE80F0036
:10461000103494E80F00B04718B1B437BD46BDE878
:10462000F08F40F20D21194B194A1A481A4CA04735
:1046300040F20B21194B164A1648174CA04740F27E
:104640000A21174B124A1348134CA04740F2092184
:10465000144B0F4A0F48104CA04700BF3D120800F2
:104660009C2F090065220800B4470900790E080054
:10467000390F0800011C08007D260800651E08008F
:10468000F1160800BD270800ED1108007C30090074
:10469000B03F0900E82E0900DDB9080068300900C4
:1046A00054300900383009002DE9F04FB5B0604BA7
:1046B0000EAF60489847604B06465E4898475F4C8F
:1046C00007F1580E83460FCCAEE80F0000220123FD
:1046D00004F1100C07F17805C7E9002394E80F00F6
:1046E0008EE80F00BCE80F000FC59CE80F0004F136
:1046F000300985E80F000224002307F11808C7E9F4
:10470000023499E80F0007F1380588E80F00DFF858
:1047100030A1414607F12800D0472846494B984729
:104720006B46A3EB06139D460DF1380840463B4609
:104730004049454C07F15802A0476B46A3EB0B13C9
:104740009D460EAC3246414620465B46DFF8FC9063
:10475000C84707F1080A07F17809CDF81C90CDF891
:1047600020A003AE95E80F0086E80F0007F1480887
:1047700007F12C0C9CE80700BB6ADFF8D4C08DE879
:1047800007005A4621464046E047CDE90B9A0DF115
:104790001C0C07F128030FCB8CE80F0098E80F00E2
:1047A00086E80F00CDE9014B7B6CDFF8A890009301
:1047B00095E80E0007F11000C8473B7C002B30D075
:1047C0007B7C3BBBBB7CF3B994E80F008DE80F000A
:1047D0007D69214E95E80F00B04768B1103494E828
:1047E0000F008DE80F00103595E80F00B04718B1A5
:1047F0009C37BD46BDE8F08F40F23621174B184A72
:104800001848194CA0474FF40D71184B144A15481D
:10481000154CA04740F23321154B114A1148124C58
:10482000A04740F23221134B0D4A0E480E4CA047D0
:104830003D1208009C2F0900B9220800B447090066
:10484000790E0800390F0800011C080085270800B0
:10485000651E0800ED280800ED110800EC2F090086
:10486000803F0900E82E0900DDB908006830090022
:10487000C42F0900383009002DE9F04FB9B0714B51
:104880000EAF71489847714B80466F489847704CFF
:1048900007F1680E06460FCCAEE80F000022012398
:1048A00004F1100C07F18805C7E9042394E80F0010
:1048B0008EE80F00BCE80F000FC59CE80F0004F164
:1048C000300B85E80F000224002307F1280AC7E90E
:1048D00006349BE80F00DFF87C918AE80F0007F1AF
:1048E0004805514607F13800C84728465A4B9847B3
:1048F0006B46A3EB08139D460DF1380A504652490A
:10490000564C07F1100307F16802A0476B46A3EB72
:1049100006139D46A3EB06130DF138099D4642464A
:104920005146DFF83CB1484633460EACD8474246C4
:10493000514633462046D84707F11803089307F13C
:10494000880307930DF10C0A95E80F008AE80F0021
:1049500007F13C0C9CE80700BB6BDFF808818DE891
:1049600007003246494607F15800C0472A23019301
:10497000D9F81C3009F110080093384698E80E0069
:10498000DFF8E4B0D84797E80F0088E80F0007F198
:1049900018030C9307F188030B930DF11C0C07F11E
:1049A00038030FCB8CE80F0007F158030FCB8AE8D0
:1049B0000F00CDE901967B6DDFF8B0B0009395E86C
:1049C0000E0007F12000D84797F82030002B32D096
:1049D00097F8213043B397F82230F3B994E80F00E9
:1049E0008DE80F007D6A224E95E80F00B04768B150
:1049F000103494E80F008DE80F00103595E80F0093
:104A0000B04718B1AC37BD46BDE8F08F40F2632126
:104A1000184B194A19481A4CA04740F26121194B0A
:104A2000154A1648164CA0474FF41871164B124AF7
:104A30001248134CA04740F25F21144B0E4A0F4816
:104A40000F4CA0473D1208009C2F0900B922080016
:104A5000B4470900790E0800390F0800011C08004E
:104A600085270800651E0800F1160800ED280800DB
:104A7000ED1108007C3009004C3F0900E82E0900C8
:104A8000DDB90800683009005430090038300900E9
:104A90002DE9F04FB9B0754B0EAF75489847754B7F
:104AA000824673489847744C07F1680C81460FCCD6
:104AB000ACE80F000022012304F1100607F188057D
:104AC000C7E9042394E80F008CE80F000FCE0FC550
:104AD00096E80F0004F1300B85E80F000224002354
:104AE00007F1280EC7E906349BE80F00DFF88C8138
:104AF0008EE80F00714607F13800C04707F14808FB
:104B000040465F4B98476B46A3EB0A139D460EAD9C
:104B10005C4C2846564907F1100307F16802A0478C
:104B20006B46A3EB09139D46A3EB09130EAC9D4600
:104B300052462946544E20464B460DF1380BB0479D
:104B40005246294658464B46B04707F1180308938A
:104B500007F1880307930DF10C0A98E80F008AE823
:104B60000F0007F13C0696E80700BB6B474D8DE848
:104B700007004A46214607F15800A8471F23019322
:104B8000E368DFF80CB10093384694E80E00D8478C
:104B900097E80F004FF02A0C84E80F00CDF804C00E
:104BA000E36904F110050093384695E80E00D847F4
:104BB00097E80F0085E80F0007F118030C9307F141
:104BC00088030B930DF11C0C07F138030FCB8CE815
:104BD0000F0007F158030FCB8AE80F00CDE9014918
:104BE0007B6DDFF8B0B0009398E80E0007F120006D
:104BF000D84797F82030002B31D197F821303BBBB4
:104C000097F82230EBB194E80F008DE80F007C6A32
:104C1000214E94E80F00B04760B195E80F008DE891
:104C20000F00103494E80F00B04718B1AC37BD4600
:104C3000BDE8F08F40F29121184B194A19481A4CDF
:104C4000A04740F28F21194B154A1648164CA04731
:104C500040F28E21164B124A1248134CA04740F2E4
:104C60008D21144B0E4A0F480F4CA0473D120800EF
:104C70009C2F0900B9220800B4470900790E0800EA
:104C8000390F0800011C080085270800651E080070
:104C9000F1160800ED280800ED110800EC2F0900BE
:104CA000183F0900E82E0900DDB90800D82F0900D7
:104CB000C42F0900A82F090070B51C4CA0B00DF13D
:104CC000100C08AD94E80F008CE80F0061462846F0
:104CD000174B984704F5846C0DF1400EBCE80F00AB
:104CE000AEE80F009CE80F00124E8EE80F000CACEF
:104CF0000823022110AA18A8B04701230222204647
:104D00000D4E18A9B04795E80F008DE80F000B4E27
:104D100094E80F00B04708B120B070BD40F2A12167
:104D2000074B084A0848094CA04700BF54430900F4
:104D3000790E0800A90E0800152A0800ED110800D8
:104D4000D0300900D83E0900E82E0900DDB908007E
:104D500070B51C4CA0B00DF1100C08AD94E80F001C
:104D6000194E8CE80F006246042301212846B04703
:104D700004F54C7C0DF1400EBCE80F00AEE80F00CE
:104D80009CE80F000CAC8EE80F000823022110AA4B
:104D900018A8B0470123022220460C4E18A9B0479C
:104DA00095E80F008DE80F00094E94E80F00B0471A
:104DB00008B120B070BD40F2B121064B064A074849
:104DC000074CA04764440900A90E0800A52A080062
:104DD000ED110800D0300900983E0900E82E0900C6
:104DE000DDB9080010B51F481F4CA047022830D17C
:104DF0001E48A047032832D11A481D4CA04702285C
:104E00002BD11C48A047032825D11B4B98471B4B8F
:104E100098471B4B98471B4B98471B4B98471B4B7E
:104E200098471B4B98471B4B98471B4B98471B4B6E
:104E300098471B4B98471B4B98471B4B98471B4B5E
:104E400098471B4B98471B4B9847BDE810401A4B9F
:104E500018471A4B98471A4B98471A4B98471A4BC2
:104E6000984700BF3C2F090065220800182F090051
:104E7000B92208002C2F0900E13708007D3808000E
:104E80001D390800AD3908003D3A0800D53A080040
:104E9000793B08001D3C0800353E080045400800ED
:104EA000194208006D440800A94608007948080026
:104EB000914A0800B94C0800514D080061370800BC
:104EC000C1370800A1370800813708002DE9F04FED
:104ED0004FF000420024B7B0434B0AAF4348C7E944
:104EE0001C24C7E91E44C7E92044C7E922443C60AA
:104EF0007C60984780466846A0EB081085460DF117
:104F000028093B4648463949394D07F17002A84700
:104F10004FF010410122374BC7E92644C7E9284426
:104F2000C7E92A44C7F89440FC6007F11004324DE9
:104F3000C7F89010BA600FCB84E80F00214607F144
:104F4000200007F13004A847204603AD2B4B9847BB
:104F500094E80F0085E80F0007F1400B07F12406E5
:104F600096E807003B6ADFF898A08DE80700424604
:104F700049465846D04707F10803089307F19003C4
:104F8000079394E80F0085E80F0007F1500A96E8B0
:104F900007003B6A1B4C8DE80700424649465046D5
:104FA000A047FB6D07F10802029207F19002CDE9DC
:104FB000003207F1600420469AE80E00124DA8471F
:104FC00094E80F008DE80F00104D9BE80F00A847F4
:104FD00018B1B437BD46BDE8F08F29210C4B0D4AFE
:104FE0000D480E4CA04700BF3D120800FC300900E0
:104FF000011C080000490900790E0800390F08005B
:10500000651D0800651E0800C91E0800ED11080096
:1050100034310900E04809006C310900DDB90800AD
:105020004FF0A0422DE9F04F00234FF00044012142
:10503000C1B00EAF07F120052846C7F8A820574A8F
:10504000C7E90613C7F88840C7E92433C7E9263300
:10505000C7E92833C7E92C33C7E92E33C7E9303312
:10506000C7F88C303B61C7F8AC307B6190474C4B44
:105070004C48984780466846A0EB081085460EAC21
:1050800020464849484E07F1100307F18802B0470F
:10509000464B07F130060FCBDFF8149186E80F007E
:1050A000314607F14000C84707F1180A07F1A8097F
:1050B000CDF820A0CDF81C9003AE95E80F0086E84F
:1050C0000F0007F1440C9CE807003B6CDFF8E4B0EC
:1050D0008DE807004246214607F15000D847E368B3
:1050E000DFF8D4B0009394E80E0007F16000D847D1
:1050F0002A230193E36838460093D7F868B094E810
:105100000E00DFF8B8C0E04797E80F005A4584E882
:105110000F002AD04FF0020ECDE90C9A0DF1200CB1
:1051200007F140030FCB8CE80F00CDF81CE007F12E
:1051300050030FCB86E80F00CDE90148FB6ADFF88A
:105140008090009395E80E0007F17000C84797F82B
:105150007030E3B197F871309BB17B6F9B685B4512
:1051600009D1CC37BD46BDE8F08F4921154B164A11
:105170001648174CA0474F21164B134A1348144C9E
:10518000A0474E21144B104A1048114CA0474D2106
:10519000124B0D4A0D480E4CA04700BF390F0800B6
:1051A0003D12080098310900011C0800104909004F
:1051B000790E0800651E0800AD110800F116080000
:1051C000951F0800B8310900B84809006C31090082
:1051D000DDB908000C32090038300900003209003E
:1051E0004FF0A0422DE9F04F00234FF00044012181
:1051F000C3B00EAF07F128063046C7F8B020694AA1
:10520000C7E90813C7F89040C7E92633C7E9283330
:10521000C7E92A33C7E92E33C7E93033C7E9323348
:10522000C7F89430BB61C7F8B430FB6190475E4B60
:105230005E48984780466846A0EB081085460EAC4D
:1052400020465A495A4D07F1180307F19002A84722
:10525000584B07F138050FCBDFF85C9185E80F005C
:10526000294607F14800C84707F12003089307F1D2
:10527000B00307930DF10C0A96E80F008AE80F00BF
:1052800007F14C0C9CE80700BB6C4C4D8DE8070007
:105290004246214607F15800A847E368484D00936D
:1052A00094E80E0007F16800A8472A230193E368F9
:1052B00007F108050093BB6E2846DFF808917B6074
:1052C00094E80E00D7F870B0C84795E80F004FF08B
:1052D000640C84E80F00CDF804C00093284694E8DD
:1052E0000E00C84795E80F005A4584E80F0034D0F7
:1052F0007B6898424FD04FF0020E07F120030D93C8
:1053000007F1B0030C930DF1200C07F148030FCB0C
:105310008CE80F00CDF81CE007F158030FCB8AE8AA
:105320000F00CDE901487B6B274D009396E80E00F6
:1053300007F17800A84797F87820FB6F2AB397F811
:105340007920E2B19A685A4513D11B687A68934272
:1053500009D1D437BD46BDE8F08F70211B4B1C4AE4
:105360001C481D4CA04778211C4B194A19481A4C5F
:10537000A04777211A4B164A1648174CA0477621AA
:10538000184B134A1348144CA0477521164B104A6A
:105390001048114CA0477121144B0D4A0D480E4C7A
:1053A000A04700BF390F08003D12080098310900DE
:1053B000011C080010490900790E0800651E08004C
:1053C000AD110800F1160800951F0800B83109005A
:1053D000904809006C310900DDB90800A0320900CD
:1053E0000C32090038300900003209005832090037
:1053F0004FF0A0422DE9F04F002301214FF000446F
:10540000C1B00EAF07F120052846C7F8A820594AB9
:10541000C7E90613C7E92433C7E92633C7E92833A8
:10542000C7E92C33C7E92E33C7E93033C7F88840C2
:10543000C7F88C303B61C7F8AC307B6190474E4B6E
:105440004E48984706466846A0EB061085460DF183
:105450003808404649494A4C07F1100307F18802D1
:10546000A047484B07F130040FCBDFF81C9184E8CC
:105470000F00214607F14000C84707F1180307F164
:10548000A8090893CDF81C900DF10C0A95E80F00BF
:105490008AE80F0007F1500407F1440C9CE807006C
:1054A0003B6CDFF8E8B08DE8070032464146204605
:1054B000D847FB6DDFF8D8B0009394E80E0007F1F1
:1054C0006000D8472A230193FB6D3846009394E887
:1054D0000E00DFF8C0C0D7F868B0E04797E80F00CB
:1054E00084E80F00BB6D5B452BD04FF0020E07F137
:1054F0001803CDE90C930DF1200C07F140030FCBFD
:105500008CE80F00CDF81CE094E80F008AE80F004B
:10551000CDE90186FB6ADFF88090009395E80E00E4
:1055200007F17000C84797F87030E3B197F8713011
:105530009BB1D7F880305B4509D1CC37BD46BDE87B
:10554000F08F9821154B164A1648174CA0479E21FC
:10555000164B134A1348144CA0479D21144B104A74
:105560001048114CA0479C21124B0D4A0D480E4C7F
:10557000A04700BF390F08003D120800983109000C
:10558000011C080010490900790E0800651E08007A
:10559000AD110800F1160800951F0800EC32090053
:1055A0006C4809006C310900DDB9080014330900AA
:1055B00038300900003209004FF0A0422DE9F04FC9
:1055C00000234FF000440121C5B00EAF07F1200ABF
:1055D0005046C7F8B8207D4AC7F89840C7E9061377
:1055E000C7E92833C7E92A33C7E92C33C7E9303381
:1055F000C7E93233C7E93433C7F89C303B61C7F899
:10560000BC307B619047724B7248984705466846AC
:10561000A0EB051085460EAC20466E496E4E07F194
:10562000100307F19802B0476C4B07F130060FCB1F
:10563000DFF8AC8186E80F00314607F14000C04733
:1056400007F11803089307F1B80307930DF10C0B4A
:105650009AE80F008BE80F0007F1440C07F150099E
:105660009CE807003B6C5F4E8DE807002A46214608
:105670004846B047E368DFF87081009394E80E0075
:1056800007F16000C047E36904F11006009396E853
:105690000E0007F17000C0472A230193E3683846E3
:1056A0000093DFF848C194E80E00E04797E80F0048
:1056B0004FF0640C84E80F00CDF804C0E36938466D
:1056C000009396E80E00DFF824C1E04797E80F004A
:1056D00086E80F00BA6EA36893426BD022693B6FD5
:1056E0009A4261D04FF0020E07F118030D9307F1B3
:1056F000B8030C930DF1200C07F140030FCB8CE89D
:105700000F00CDF81CE099E80F008BE80F00CDE901
:105710000145FB6A364E00939AE80E0007F18000BF
:10572000B04797F88030002B38D097F881307BBB9A
:10573000002D24DDDFF8BCA098465346AA461D463E
:10574000D7F8846096E80F008DE80F0004EB08138B
:105750000FCBA847B0B108F10108C24506F1100609
:10576000F0D1AA4607F188030FCB8DE80F0099E826
:105770000F00D04720B3DC37BD46BDE8F08FDFF81F
:1057800074A0EFE7C8211C4B1C4A1D481D4CA047C4
:10579000C6211D4B194A1A481A4CA047C5211B4B5C
:1057A000164A1748174CA047C121194B134A1448F1
:1057B000144CA047C021174B104A1148114CA04768
:1057C000CA21154B0D4A0E480E4CA047390F080050
:1057D0003D12080098310900011C08001049090019
:1057E000790E0800651E0800AD110800F1160800CA
:1057F000951F0800ED110800D03309004C4809003E
:105800006C310900DDB90800A82F09000032090039
:105810008833090040330900143409004FF0A042D6
:105820002DE9F04F002301214FF00044B9B00EAF35
:1058300007F110084046C7F88820574AC7E9021305
:10584000C7E91C33C7E91E33C7E92033C7E924334E
:10585000C7E92633C7E92833BC66FB663B60C7F857
:105860008C307B6090474D4B4D48984704466846C6
:10587000A0EB041085460EAD3B4628464849494EEC
:1058800007F16802B047484B07F1200607F1300ADC
:105890000FCBDFF8189186E80F0031465046C84715
:1058A00007F1880907F10803CDF81C90089303AEAF
:1058B00098E80F0086E80F0007F1400B07F1340C61
:1058C0009CE807003B6BDFF8E8C08DE80700224644
:1058D00029465846E0474FF0020E07F10803CDE98C
:1058E0000C930DF1200C9AE80F008CE80F00CDF816
:1058F0001CE09BE80F0086E80F00CDE90154FB692E
:10590000DFF8B090009398E80E0007F15000C84708
:1059100097F85030002B32D197F851204AB3002C21
:105920001FDD9946D7F85480234E98E80F008DE884
:105930000F0005EB09130FCBB047A0B109F1010926
:105940004C4508F11008F0D107F158030FCB8DE852
:105950000F009BE80F00B047B8B1AC37BD46BDE8BB
:10596000F08F154EF0E7EC21144B154A1548164CF4
:10597000A047EA21154B124A1248134CA047E921CF
:10598000134B0F4A0F48104CA047EE21114B0C4A05
:105990000C480D4CA04700BF390F08003D1208000D
:1059A00098310900011C080010490900790E08000F
:1059B000651E0800951F0800ED110800D03309008E
:1059C000344809006C310900DDB90800383009009D
:1059D00034340900143409004FF000412DE9F04F30
:1059E000C1B04FF0A0420EAF0023C7F888100121CC
:1059F00007F120094846C7F8A820774AB961C7E9E6
:105A00002433C7E92633C7E92833C7E92C33C7E96C
:105A10002E33C7E93033C7F88C303B61C7F8AC3060
:105A2000FB617B6190476D4B6D4898470546684622
:105A3000A0EB051085460EAC20466949694E07F17A
:105A4000100307F18802B047674B07F130060FCB10
:105A5000DFF8988186E80F00314607F14000C04723
:105A600007F11803089307F1A80307930DF10C0A37
:105A700099E80F008AE80F0007F1440C07F150087D
:105A80009CE807003B6C5A4E8DE807002A462146E9
:105A90004046B047E36807F16000009394E80E00C9
:105AA000544EB0472A230193E36838460093DFF849
:105AB00048B194E80E00D84797E80F004FF0640C07
:105AC00084E80F00CDF804C00093384694E80E0037
:105AD000D84797E80F0084E80F00BB6E9A426CD05D
