:0200000280007C
:1000000000300820D12C0800192708001927080003
:100010001927080019270800192708000000000008
:100020000000000000000000000000001927080088
:1000300019270800000000001927080019270800E8
:100040001927080019270800192708001927080090
:100050001927080019270800192708001927080080
:1000600019270800192708009D280800AD28080056
:10007000BD280800192708001927080019270800BB
:100080001927080019270800192708001927080050
:100090001927080019270800192708001927080040
:1000A0001927080019270800192708001927080030
:1000B0001927080019340800192708000348044BC1
:1000C000834202D0034B03B1184770477CCB080032
:1000D0007CCB0800000000000548064B1B1AD90F16
:1000E00001EBA301491002D0034B03B1184770473D
:1000F0007CCB08007CCB08000000000010B5064C4B
:10010000237843B9FFF7DAFF044B13B10448AFF388
:1001100000800123237010BD800A00200000000031
:100120007CCB080008B5054B1BB105490548AFF36A
:100130000080BDE80840FFF7CFBF00BF000000000F
:10014000840A00207CCB08000022F0B51E4B83B04F
:10015000984204460F4601922ED01C4B984223D061
:100160001B4B984210D01B4B984215D01A4B98420B
:1001700008D11A4E01AD29462046B0470028FAD1D1
:10018000019B3B7003B0F0BD144E01AD29462046E3
:10019000B0470028FAD1F3E7104E01AD29462046BA
:1001A000B0470028FAD1EBE70C4E01AD29462046B6
:1001B000B0470028FAD1E3E7094D39462046A84761
:1001C0000028FAD103B0F0BD00060E40000009403F
:1001D000004009400080094000C0094079440800FF
:1001E000C52F08001D4B70B5984204460D4615D02A
:1001F0001B4B98421AD01B4B98421FD01A4B984267
:1002000004D01A4B984221D0002070BD184E2946C8
:100210002046B0470028FAD1012070BD154E29466E
:100220002046B0470028FAD10120F6E7104E2946B3
:100230002046B0470028FAD10120EEE70C4E2946AF
:100240002046B0470028FAD10120E6E7084E2946AB
:100250002046B0470028FAD1DEE700BF00060E4076
:1002600000000940004009400080094000C00940EA
:1002700065440800B52F08002DE9F04FC7B00EAF58
:10028000BA607B6200229946002380468E468B4CE2
:1002900007F1C005C7E914230FCC0FC594E80F0080
:1002A00097F8106104F1100CBE6104F1200607F10B
:1002B000580485E80F009CE80F00D7F808B1F04516
:1002C00084E80F0096E80F0007F1680484E80F0047
:1002D00000F3E1804B469B00073323F007037B606C
:1002E0004FEA0B13C7E90483C7F800E07B686D464B
:1002F000ADEB030D0EAB3B627B6A002B40F3B0808D
:100300000023FB623B69DFF8B8A11B01DFF8B48171
:1003100007F13004FB61FD607B69C7F828D0BBF1B1
:10032000000FADEB030D0DF138090DDD0026204661
:1003300007F1580109EB06150136D04794E80F0084
:10034000B34585E80F00F2D15F4B07F1780098477D
:1003500007F1680107F18800D04707F150030893BF
:1003600007F1C003079303AD07F178030FCB85E8CE
:100370000F0007F18C0393E807008DE80700534E48
:100380005A464946D7F8883007F19800B0472A23E3
:100390000193FB69204609EB0306F368DFF830C1DF
:1003A000009396E80E00E04794E80F0086E80F00FF
:1003B000BB69002B73D14FF0E0214648464B474ABA
:1003C0000360474B08AE1A600022464BC8F8003065
:1003D000D1F8FC3D43F08073C1F8FC3DD8F8003003
:1003E0001A6003681A60D8F80020136843F001030C
:1003F000136007F150030D9307F1C0030C9307F14D
:1004000088030FCB86E80F00D7F80C31079307F16C
:1004100098030FCB85E80F00CDE9019BD7F8843016
:10042000314D009307F1A803184607F178030ECB6E
:10043000A8472848396A03681B683B64D8F800302D
:100440001A681A603B6CFA6A41F82230134601338D
:10045000FB627A6AD7F828D09A427FF45DAFFD68D4
:100460007E6A3C6A3146214B2046984703467B64AE
:100470007A6C31461E4B20469847B864786C1D4B09
:1004800098473B69BA68F86413443B613A68AD46E3
:100490009A42BFF62BAFE437BD46BDE8F08F21236B
:1004A0000193D9F80C302046009399E80E00084ECD
:1004B000B04794E80F0089E80F007CE734C80800D3
:1004C000E1100800A00A002011110800D519080049
:1004D00081140800A40A0020041000E0FCED00E0F4
:1004E0009C0A0020001000E0C91A0800DD14080072
:1004F0002D150800955508002DE9F0418CB010210C
:100500007A4B08A89847DFF8E8810820C047794C63
:10051000794A4FF4006114604FF4E132774BCDE932
:100520000621774A774D1A60774A784B08201A607F
:10053000774B0593C04705A92046764B98472B6813
:10054000754C98680021A0472B6800215868A04787
:100550000122724B1A70BFF35F8F62B600204FF416
:1005600080716F4B6F4A186099806F4E90476F4B48
:10057000984735466E4F08AC284654F8042B6D4911
:10058000B8470CABA34205F10805F5D100250920B9
:10059000694C86F82050C04768492920A047674920
:1005A0002A20A04765492B20A04764492C20A0475A
:1005B00062492D20A04761492E20A0475F492F2086
:1005C000A0475E493020A0475C493920A0475B49DD
:1005D0003A20A04759493B20A04758493C20A04712
:1005E00056493D20A04755493E20A04753493F204A
:1005F000A04753492620A04750493320A0474F49E0
:100600003720A0474D493420A0474D492720A04717
:100610004A494F20A0474A492820A047474940203F
:10062000A04746494120A04744494220A0474349AA
:100630004320A04741494420A04740494520A047C6
:100640003E494620A0473D494720A0473B49482016
:10065000A0473A494920A04738494A20A04737498E
:100660004B20A04735495420A04734495520A04786
:1006700032495620A04731495720A0472F495820DA
:10068000A0472E495920A0472C495A20A0472B4962
:100690003520A04729462B4A2B482C4B98474FF032
:1006A0000C32294628482A4B98474FF01012294609
:1006B0002548284B984741F2030229462248264BF9
:1006C0009847264B9847264B9847264B9847264BEA
:1006D00098470127652202260A23009264212846B2
:1006E0001A46CDE90167214CA047FEE71D27080007
:1006F000F92B080000060E4000340020FC330020D7
:10070000E50108002405002049010800903300207D
:1007100000D8B8057D2F0800156F080004030020DD
:1007200098330020112E08009C010020A12608000B
:10073000C970080068C60800052908000100000803
:10074000010000100004040400000E409D2C08006D
:10075000A92C0800B52C0800C12C0800B9250800F8
:100760001D1F0800250E0800850B080079020800EF
:1007700070B5084B084A0520D3E900549047074953
:10078000074A04F1C0440C6015604C20BDE870407D
:10079000044B18474032002071250800B00A0020A1
:1007A000AC0A00200D2808002DE9F0410E4F012071
:1007B000D7E900450D4EB04710200D4B984774B156
:1007C00007EB040CEC1F0B4DFB1DE41B0CF1070C9D
:1007D000E21813F8010F296863458854F8D13346AD
:1007E000BDE8F04100201847403200207125080084
:1007F0000D2808000003002010B5064A064B04200F
:1008000054689847054A10201460054BBDE8104015
:10081000184700BF4032002071250800A80A0020B8
:100820000D28080070B5084B084A0220D3E900548F
:1008300090474C20064B9847294604F1C040054A92
:10084000054BBDE870401847403200207125080074
:100850000D280800410908004930080042F22733FA
:1008600010B5074A14689C4200D910BD4C20054BB6
:1008700098472146BDE81040034A0448044B1847F6
:10088000403200200D28080041090800B80A002065
:100890004930080070B590B969B10F4D0F4A2B6807
:1008A0000F4C1944206812F801CB00F803C0013343
:1008B0008B42F7D12B600B4B9847042807D0BDE83B
:1008C00070404FF48061084A0448084B1847084BB1
:1008D00000209847F3E700BFA80A0020002E002060
:1008E00000030020AD2508009508080069300800C5
:1008F000712508000D4A5378122B03D0152B01D017
:100900000020704710B50024094B0A481968006898
:100910009181094990601C608847052801D0012019
:1009200010BD2046054B9847F9E700BFE033002093
:10093000AC0A0020B00A0020AD250800712508008F
:1009400000B1704710B5054B04469847022800D007
:1009500010BD2046BDE81040014B1847AD250800EA
:10096000712508002DE9F04F374A384B14681B6891
:1009700056681B1BB34283B003D342F227339C4219
:1009800002D903B0BDE8F08F4C20314B9847002EC0
:1009900040D0304D6B8801339BB20020A4086B809F
:1009A000288049D04FEA840A0127D4462A4B2B4A93
:1009B0001B68D2E9004803EB060B294ED2E902E39B
:1009C000B246002283EAC32384EAD441CDE9000E73
:1009D0005940A14681EA13240BEB0001087824FA60
:1009E00002F3DBB2984202F1080280EA030E18BF5C
:1009F0002F80202A0AF801EB01F10101EED1DDE997
:100A0000000E04308445734606F104060FD0C64636
:100A1000C846D5E71349114AD1E90150C2E901504E
:100A2000C868096801230B4D1160D060B5E70B4B16
:100A3000C3E90049C3E9028E04220B490B4B0D6048
:100A40001A6003B0BDE8F08F40320020C0010020E2
:100A50000D280800B40A002000030020F02D00201B
:100A6000B80A0020E02D0020B00A0020AC0A0020C7
:100A70002DE9F047234C1020D4E90057224B98472A
:100A80006FB9D4E90201214A214BC2E90001C3E94F
:100A90000001D4E90401C2E90201C3E90201AD0881
:100AA0002ED04FF0000CDFF864901A4C4FEA850806
:100AB000D9E90006D9E90252002382EAC22280EA7B
:100AC000D04A8AEA020A864607EB0C018AEA12201B
:100AD00020FA03F2D4F800A00833D2B2202B0AF88F
:100AE000012001F10101F3D10CF1040CC4452A46A7
:100AF00002D035467646DFE7C9E9000EC9E902654E
:100B0000BDE8F087403200200D280800F02D0020BD
:100B1000E02D00200003002008B5124A5378103B56
:100B2000082B0AD8DFE803F00B0E1114171A090975
:100B300005000D4B1361012008BD002008BD0B4BC3
:100B40001361F8E70A4B1361F5E70A4B1361F2E70B
:100B5000094B1361EFE7094B9847ECE7084B13612A
:100B6000E9E700BFE03300205D0808002508080021
:100B7000F907080071070800A9070800710A0800B2
:100B80006509080010B5044B04489847BDE81040BB
:100B90000348044B184700BFA90B0800F5080800DC
:100BA000190B0800D10B080007490A780F2A01D950
:100BB00000207047034610B4044C501C087044F8E1
:100BC0002230012010BC7047C4320020C8320020FF
:100BD00007490A780F2A01D900207047034610B44C
:100BE000044C501C087044F82230012010BC70479F
:100BF0008032002084320020004B1847D5250800A1
:100C0000004B1847F9250800054B1B7803B97047BE
:100C100010B5044B9847BDE81040034B184700BF80
:100C2000C40100200D3E08001526080038B5012437
:100C3000044D4FF48061044A044B05482C709847DA
:100C4000204638BDC401002095080800693008001E
:100C5000002E00200022014B1A707047C4010020B2
:100C600038B50F4B0F4AD9880F48402928BF40217B
:100C70001278986099818AB10C4C531EDBB2251F03
:100C8000D31A04EB820405EB830501E0AC4205D0E6
:100C900054F8043D98470028F8D038BD002038BDEE
:100CA000E0330020803200204032002084320020D7
:100CB00038B50B4B1A788AB10A4C531EDBB2251F8C
:100CC000D31A04EB820405EB830501E0AC4205D0A6
:100CD00054F8043D98470028F8D038BD002038BDAE
:100CE000C4320020C8320020044B5A78222A03BFA5
:100CF000034A01201A610020704700BFE033002042
:100D0000050D080010B5224B9B78013B102B0AD82B
:100D1000DFE803F00A161B0909090909090909098D
:100D20000909092D3A0010BD3E201A4B98471A4C6C
:100D3000A0470028FCD0BDE810401020174B1847F2
:100D40001020BDE81040164B184701220C21154B0E
:100D500015489847154B9847154A53689903FCD492
:100D6000136843F0254343F005031360FEE70F4B80
:100D700098470F4A53689B03FCD4136843F02543FC
:100D800043F005031360FEE70A4BBDE81040184727
:100D9000E03300205D2B0800812B0800A52A080005
:100DA000012B0800CD26080000080E40593D080020
:100DB00000120E40A125080038B5144C6378172B9B
:100DC0001AD0402B16D14FF0200C114D114B372269
:100DD00093E80300104B85E80300104905F1090072
:100DE00085F808C0984728460D4BA5609847A08114
:100DF000012038BD002038BD40F20110002103223F
:100E0000034BA281A36018809970F1E7E0330020C2
:100E10000032002074C808003174080080C808003F
:100E20003177080010B5044B04489847BDE81040DE
:100E30000348044B184700BFA90B0800B90D080070
:100E4000E90C0800D10B080084B0F0B505468FB05E
:100E50000DF1540C8CE80E00189B06AE00939CE834
:100E60000E0030460D4FB8471C9B0AAC009319ABDF
:100E700020460ECBB84794E80F000DF1040C8CE827
:100E80000F00099B28460093054F96E80E00B847CF
:100E900028460FB0BDE8F04004B070478513080045
:100EA0007911080084B02DE9F04F804693B01DA859
:100EB00080E80E00209B0AAD009390E80E00344EAF
:100EC0002846B047249B0EAC009321AB0ECB2046A6
:100ED000B04740462F4B9847DFF8BC90DFF8BCB0D6
:100EE0001BE00D9B3046009395E80E00D84796E82E
:100EF0000F002B4F85E80F0094E80F00B847074616
:100F0000119B3046009394E80E00DFF898A0D0477C
:100F100096E80F0084E80F003FB395E80F00C8473C
:100F2000E8B194E80F00C847C8B195E80F001E4E1D
:100F3000B04706AE0028D4D094E80F0001AFD8F82F
:100F40000CC087E80F00CDF800C0304698E80E00CE
:100F5000164FB84796E80F0088E80F00C1E74046F3
:100F600013B0BDE8F04F04B07047114B0DF1040C05
:100F70000FCB8CE80F00119B3046009394E80E00D5
:100F80000A4FB84796E80F0084E80F00C5E700BF96
:100F9000851308001111080011120800C112080081
:100FA00071130800411208004D1308007911080060
:100FB0008CC8080084B02DE9F04F804693B01DA87E
:100FC00080E80E00209B0AAE009390E80E00284DAA
:100FD0003046A847249B0EAC009321AB0ECB204695
:100FE000A8474046234B9847DFF88CA0DFF88C9049
:100FF000DFF88CB018E001AF96E80F0087E80F002B
:101000000D9B2846009396E80E00C84795E80F0010
:10101000119F009786E80F0094E80E002846D847F5
:1010200095E80F0084E80F0094E80F00D047C0B1A6
:1010300094E80F00134DA84706AD0028DBD096E8D2
:101040000F0001AF87E80F00D8F80C3006AD009311
:10105000284698E80E00C84795E80F0088E80F007A
:10106000CAE7404613B0BDE8F04F04B0704700BF78
:10107000851308004111080011120800A50E080090
:10108000C11208004D13080084B0F0B506468FB0B9
:1010900015AC84E80E000F4B0DF1180C0AAD0FCB08
:1010A0000D4F8CE80F0061462846B84795E80F00C1
:1010B0000DF1040C8CE80F00189B30460093074F8D
:1010C00094E80E00B84730460FB0BDE8F04004B0D9
:1010D000704700BF9CC80800E1100800B50F080069
:1010E00030B5094B85B01A680446002A6B4604DD0A
:1010F0006846064D9200A84703460FCB84E80F00D0
:10110000204605B030BD00BFACC8080045760800D9
:1011100030B5094B85B01A680446002A6B4605DDD8
:1011200000216846054D9200A84703460FCB84E88E
:101130000F00204605B030BDACC80800957308000C
:1011400070B50B4B84B01D680446002D6B4605DD61
:1011500000216846074EAA00B04703460FCB012680
:1011600084E80F002046013D44F8256004B070BDBE
:10117000ACC808009573080084B02DE9F04391B025
:10118000074619A880E80E001F4B08AD1E680FC85F
:10119000002E85E80F0034DD0CACB6002946DFF8E0
:1011A0006C9032462046C84794E80F000DF1740C4D
:1011B0008DE80F009CE80F0085E80F0029463246B5
:1011C0002046C84794E80F000DF11009EC46C846C8
:1011D000A64689E80F000DEB06055CF8043B58F8BD
:1011E000042B654583EA02034EF8043BF5D194E8ED
:1011F0000F0087E80F00384611B0BDE8F04304B097
:1012000070470CACF3E700BFACC808004576080097
:1012100084B08DE80F00094B196800290CDD6A467F
:10122000002301E08B4205D052F8040B0133002863
:10123000F8D0012004B070470020FBE7ACC80800DC
:1012400084B02DE9F0438DB0054615A880E80E0066
:10125000194B04AF1E6808AC002E0FC887E80F00BA
:101260001FDD3946154BB2002046984794E80F0021
:101270004FF0000CEE4627468DE80F0006F1FF39CF
:101280005EF8043BCC4518BFDEF800204FEA43036C
:101290000CF1010C18BF43EAD273664547F8043BD2
:1012A000EED194E80F0085E80F0028460DB0BDE8A8
:1012B000F04304B0704700BFACC808004576080092
:1012C00084B02DE9F0418CB0054613A880E80E00EB
:1012D0001C4B04AF1E6808AC002E0FC887E80F0037
:1012E00025DD3946184BB2002046984794E80F0098
:1012F0004FF0000E27460EF1010E8DE80F00ADF104
:10130000040C4308B64508930CF1040C07F10407DC
:101310000DD0DCE900320EF1010EDB0743EA520387
:10132000B6453B600CF1040C07F10407F1D194E8D9
:101330000F0085E80F0028460CB0BDE8F04104B06E
:10134000704700BFACC808004576080084B00DF1B6
:10135000100C0CE90F00054B1B680CEB830353F8D2
:10136000140C00F0010004B0704700BFACC80800C6
:1013700084B00DF1100C0CE90F00C043C00F04B095
:10138000704700BF84B030B585B00DF1240C8CE8F7
:101390000E000A4B04461A686B46002A05DD6146BA
:1013A0006846074D9200A84703460FCB84E80F001C
:1013B000204605B0BDE8304004B07047ACC8080016
:1013C0004576080030B484B08DE80F000C4B1D68E2
:1013D000002D10DD6A46002306A901E0AB420AD0C9
:1013E00052F8044B51F8040B01338442F6D000202C
:1013F00004B030BC7047012004B030BC704700BF5F
:10140000ACC8080011601860704700BF0B46014669
:10141000184670472DE9F0438FB006AD85E80F0000
:10142000184695E80E000AAC114D00902046A847DA
:101430000026104FDFF84090DFF8408002AD0EE04C
:1014400094E80F00C84784460D9B2846009394E813
:101450000E006644C04795E80F0084E80F0094E84A
:101460000F00B8470028EBD130460FB0BDE8F0833D
:1014700085130800111208004D130800C11208005E
:1014800084B070B582B00DF11C0C8CE80E00DDE963
:101490000A350093104E9CE80E000446B0471F2DFD
:1014A00004DD3F2D10DC0221203D00E0032101225C
:1014B000204654F82130AA40534044F8213002B06D
:1014C000BDE8704004B070475F2DD5BF01210021F9
:1014D000403D603DEBE700BF851308002DE9F84370
:1014E000B1F1000818DD0024051FDFF830900C4F23
:1014F00005EB880655F8040FC84701462046B84753
:10150000B5420446F6D14046064B9847064B014685
:1015100020469847BDE8F8830024F4E745520800C8
:10152000E55008004D5208005D5408002DE9F04FC9
:101530000B1E83B0019328DD15460024A0F1040B97
:10154000DFF84CA0DFF84C80134F144E0BEB8309EF
:101550005BF8040FD0472946C0470146B84701460B
:101560002046B047D9450446F2D101980C4B984724
:101570000C4B0146204698470B4B98470B4B98471E
:101580000B4B984703B0BDE8F08F0024EDE700BF98
:1015900045520800E1500800F5520800E5500800E7
:1015A0004D5208005D540800D9490800E544080080
:1015B000395008002DE9F04FD0F80CC00768D0F87A
:1015C00004E04669026907EB0C038EEA7363D0F806
:1015D00018E0856A416A06EB02088EEA7868D0F85E
:1015E0002CE005EB0109C46B8EEA7969D0F838E08C
:1015F000D0F830A0D0F808B0A6448AEA7E6E07EB97
:10160000030A8BEAFA5A436053448CEAF343C0F866
:1016100008A09A4487EABA370760C769C36006EB37
:10162000080387EAF353C0F81880984482EAF84721
:10163000C361026A3B4486EAB33605EB090382EADA
:10164000F352C0F82C90914481EAF94302621A44A3
:1016500085EAB235426BC0E9093504EB0E0382EA34
:10166000F351836BC0F830E08E4483EAFE43CA181E
:1016700084EAB234C0E90476C463C0E90D13BDE85E
:10168000F08F00BF2DE9F04FD0F830C00768D0F8D8
:1016900010E04669426807EB0C038EEA7363D0F8EA
:1016A00024E0856A816906EB02088EEA7868D0F842
:1016B00038E005EB0109C46B8EEA7969D0F82CE0BB
:1016C000D0F80CA0D0F820B0A6448AEA7E6E07EBD2
:1016D000030A8BEAFA5A036153448CEAF343C0F8D5
:1016E00020A09A4487EABA370760476B036306EB8A
:1016F000080387EAF353C0F82480984482EAF84745
:10170000436382683B4486EAB33605EB090382EA09
:10171000F352C0F83890914481EAF94382601A4448
:1017200085EAB235C269836104EB0E0382EAF351A4
:10173000C36AC0F80CE08E4483EAFE43CA1884EA08
:10174000B234466147608562C463C161C362BDE86B
:10175000F08F00BF2DE9F041051F90B0EC460C461C
:101760002A4652F8043F1BBA4CF8043B136010ABF6
:101770006345F6D10A26DFF830800C4F6846C04733
:10178000B847013EFAD1211FADF104020FAC55F864
:10179000040F52F8043F03441BBAA24241F8043F2D
:1017A000F5D110B0BDE8F08185160800B515080028
:1017B000F8B51C46D2E9021015460C4EB047231E60
:1017C000B8BF0F331E11DC173046214605F1080360
:1017D00005F10C02064FB847D5E9022312BA1BBA2D
:1017E000C5E9022330462146F8BD00BF0D140800AC
:1017F000051408002DE9F04F0C46A5B0D4F804C03C
:10180000DDF8B8A0246890461F4606460021002057
:101810002A4D02AB03AACDF804C00094A847BAF140
:10182000000F47DD0024A8F10408A346A146043FA9
:101830000AE00DEB850558F8043F2A6D013453404A
:10184000A24547F8043F35D014F00F05F1D12346E7
:10185000584649466A46DFF868C0E047194B834658
:10186000049303F10E6303F53A2303F6D27309934D
:10187000154B89460E93154B14A91393336804A88E
:10188000059373680693B3680793F3680893336905
:101890000F9373691093B3691193F3691293009BCB
:1018A0000A93019B0B93029B0C93039B0D93084B94
:1018B0009847BEE725B0BDE8F08F00BF05140800CB
:1018C000B11708006170786579622D326B206574FC
:1018D00055170800844682B02DE9F04F91469FB01D
:1018E0002C9829AD009029930EAC364E20460892D4
:1018F0000F4695E80E00CDF824C0B0472C9B12A8E7
:10190000009395E80E00B04716AE3046DFF8B88079
:101910000AADC0472846C0474B46002B4CDD4FF070
:1019200000092A4BDFF8A8A007930DF168080DF114
:10193000040BD7F80CC094E80F008BE80F00CDF82B
:1019400000C097E80E004046D04798E80F008BE8AB
:101950000F00199B28460093DDF81CC096E80E0086
:10196000E04795E80F0086E80F0012AB0FCB8BE83D
:101970000F00119B2846009394E80E00D04795E88D
:101980000F0084E80F00089B09F101094B4507F19E
:101990001007CED12DAB199C0FCB8BE80F00009414
:1019A000099C079D204696E80E00A84720461FB0D8
:1019B000BDE8F04F02B07047044B0DF1040B0793E4
:1019C000E8E700BF8513080011110800490E080060
:1019D000A50E080082B02DE9F0410E461746984644
:1019E00090B00DF10C0C1BAB04460FCB8CE80F0034
:1019F0000DF1600E9EE8070043468DE807000B4D91
:101A00003A46314608A8A847DDE91F01042308AA81
:101A10000093074D0CABA8472046064B0CA99847EE
:101A2000204610B0BDE8F04102B07047D51808005C
:101A3000F5170800E110080084B0F0B599B00DF179
:101A40007C0C8CE80E0003AC05469CE80F0084E893
:101A50000F000DF1980E08AE9EE80700164F8DE8B6
:101A60000700DDE9242330462399B847042310AC4E
:101A7000009329AB0FCB114F84E80F00DDE92D0156
:101A8000224614AB0CACB847204614A90C4B98471F
:101A900094E80F000DF1040C8CE80F000B9B284616
:101AA0000093084F96E80E00B847284619B0BDE8E5
:101AB000F04004B0704700BFD5180800F5170800C3
:101AC000E1100800490E080084B02DE9F04FB5B0D0
:101AD0000EAF07F1C40585E80E0007F1680E07F1A7
:101AE000580907F1F006386196E80F0089E80F0001
:101AF00095E80F008EE80F0007F15C0C0DF10C0B60
:101B00009EE80F008BE80F009CE807008DE80700B7
:101B10009A4CD7E93512BB6D07F17800A047042332
:101B2000009307F17802D7E94001954C07F188034B
:101B3000A047944B07F1880107F12800984707F167
:101B4000DC030FCB8DE80F0007F128038E4C0FCB81
:101B5000A047002840F0C680D7F8FC3007F13804D1
:101B6000009396E80E00DFF82482C7F80CD0824676
:101B70002046C0477B6CDFF81882009394E80E0083
:101B800007F14800C047D7F804310DF11C0C0C9345
:101B9000D7F80031DFF8FC810B9307F1DC030FCBA2
:101BA0008CE80F0096E80F008BE80F00D7F8D830CC
:101BB00048460293D7F8D4300193D7F8D030009339
:101BC00095E80E00C0476B46D7F8D820A3EB021368
:101BD0009D46002A0DF1380B40F3CC80D046DFF84B
:101BE000B8A107F1180601AD94E80F0085E80F00D1
:101BF0007B6E0BEB0810009399E80E00D04707F1BD
:101C000048030FCB85E80F007B6C3046009394E8C7
:101C10000E00D04796E80F0084E80F00D7F8D830C0
:101C2000C44608F101084345DED14FF0000A4FF0E9
:101C3000FF325C46C7F804B0BD60D046E346DFF82B
:101C40005C91D7F8EC507A6106E04FF0010AC7F8D2
:101C50001480C34554D0984694E80F00C847854285
:101C600008F1010304F11004F3DBBAF1000FECD02A
:101C7000BD6807F1680607F1DC030FCB86E80F00AB
:101C800007F1780607F128030FCB86E80F0096E8E6
:101C90000F0085E80F007B6F07F18800009307F1C4
:101CA00068030ECB3E4CA04707F188030FCBC84713
:101CB000D7F8EC3083424FDB01253E69D7F8D430AA
:101CC00006F10804736007F128030FCB84E80F00C6
:101CD0003570D7F80CD038699C37BD46BDE8F04F59
:101CE00004B070472F4C07F11800A0473D6905F17B
:101CF0000800A047012307F188026A602B70EAE719
:101D00007A69D7E901B5BAF1000FB2D0531CB0D04F
:101D1000D7F8D4300BEB021B03EB02149BE80F0047
:101D200085E80F00E3683046009394E80E00DFF882
:101D30007080C0473A69D7F8D43002F10805536083
:101D40000123137096E80F0084E80F0007F1DC030D
:101D50000FCB85E80F00BCE7124C07F11800A04735
:101D60003D6905F10800A047002307F178026A6089
:101D70002B70AEE7DFF8249001AD7AE7D5180800A4
:101D8000F5170800E1100800C513080089100800C5
:101D900085130800391A0800A50E0800151408005C
:101DA000490E080011110800174B1B7833B3174B6D
:101DB0001B681B681A79824220D930B5144D2B60FC
:101DC000B3F802C09C4463451BD24FF0000E06E0FE
:101DD0001A784FF0010E1344634511D21C465A780D
:101DE000042AF5D19A788242F2D1DA788A42EFD188
:101DF000BEF1000F00D02C60012030BD00207047E4
:101E00002B60002030BD00BF1433002010330020B1
:101E10000C330020024A034B508800F07F00184723
:101E2000E0330020DD3D08002DE9F04100211A4D8E
:101E30000446A84740B3DFF86480D8F800305B68F8
:101E400053F82460F368984701462046A8470546A2
:101E5000D0B1134B134F1C68D8F8002023781268B8
:101E60001C4453881A44A24206D808E0052B0FD020
:101E700023781C44A24202D96378042BF6D17368FC
:101E800098472846BDE8F08100252846BDE8F08146
:101E9000A078B847E0E700BFA91D08001033002074
:101EA0000C330020293E08002DE9F041144B054673
:101EB000984710B3134B144E1C68144F31682378A5
:101EC0000A681C4453881A44A24206D808E0052B2D
:101ED0000DD023781C44A24202D96378042BF6D19A
:101EE0004B6853F82530BDE8F0411B681847A288BD
:101EF000E178A078B8470028E0D10020BDE8F08163
:101F0000A91D08000C33002010330020ED4008000C
:101F1000014B1868704700BF0C330020004B184776
:101F2000953C0800F8B50C4F3B787BB10B4D2B6806
:101F30001B681B7953B100242046094EB0472B681B
:101F400001341B68E0B21B798342F7D80023054AAD
:101F50003B701380F8BD00BF143300201033002005
:101F6000291E08001633002038B50B4B1B7893B19F
:101F70000A4D2B681A6812796AB100245B6853F81D
:101F800024301B6903B198472B6801341968E2B209
:101F900009799142F2D838BD143300201033002063
:101FA00000232DE9F0479C4C82B02288C4E9043319
:101FB000B2F5E07FA38100F0A58094F9002023789A
:101FC000002A0EDB13F0600F6BD013F01E0F36D01B
:101FD00003F01F03022B00F09D80002002B0BDE83B
:101FE000F087E1880029F8D013F0600FEDD113F0ED
:101FF0001F0240F0CB816378062B00F03581082B5F
:1020000000F01182DBB9022919D18448844B98472A
:102010007CE0012A00F08880022A40F08980627802
:10202000012A00F0F281032ACFD1E28861880A43B5
:1020300092B2002A00F01E8213F01E0F6AD1A3880C
:10204000022B04BF0123A380764B1B78002BC4D046
:10205000754F25793E6833681B799D423ED32278BF
:1020600002F01F02022AB8D1002BB6D00024DFF8FC
:10207000BC81254604E03E6833681B79AB42ACD98D
:10208000736853F82460F368984701462846C047B0
:102090000028A2D0B36898470134E5B20028EAD0FE
:1020A0009CE713F01F02B4D16378013B082BC6D81C
:1020B00001A252F823F000BF4D2208003F20080083
:1020C000492108003F2008003B2108003F2008006C
:1020D0003F2008003F2008006B210800002128460F
:1020E000DFF84881C04758B1736853F82560F3683A
:1020F000984701462846C04710B1B368984728B9A9
:10210000237865E79E214A48454B9847012002B055
:10211000BDE8F087434B1B78002B3FF45EAF424F86
:102120003E6833681B799FE762780B2A00F0828152
:1021300013F01E0F7FF451AF81E7E388002B7FF48B
:102140007EAF3C4B2361E1E7E388002B7FF477AF60
:102150006388022B7FF473AF374B984718B123790C
:10216000002B00F0E38123782FE7E388002B7FF436
:1021700066AF324B98470028F5D0DFF8BC90C847CF
:10218000DFF8BCA0A378002800F06D81DAF8082001
:10219000527C9A42E7D3DFF88C8098F800307BB10C
:1021A000214F3B681B681B7953B100252846254EFB
:1021B000B0473B6801351B68E8B21B798342F7D80A
:1021C0000022164B1A80A37888F80030002B9DD08F
:1021D000C84798F8003003F10053013BDB000028AA
:1021E00000F06A81DAF8102013441A680E4F127951
:1021F0003B60002A8AD00025134E2B4604E03A6843
:10220000126812799A4281D918460021B0470135E7
:10221000EBB20028F3D1A6E7E0330020163300200C
:102220001D3E08001433002010330020A91D0800B3
:1022300060020020151E0800CD3D0800FD3D08008D
:1022400020030020291E0800A91E0800E388002B97
:102250007FF4F5AE6388012B7FF4F1AE9E4A1388BC
:1022600023F00203138051E76288130A013BD5B2C1
:102270000E2B3FF6E4AE01A252F823F01323080020
:10228000E9220800DB2208003F2008003F20080068
:10229000CF220800292308003F2008003F20080023
:1022A0003F2008003F2008003F2008003F20080092
:1022B0003F200800B922080021218848884B984710
:1022C000E388A2899A427FF621AFA3811EE7854A5F
:1022D000834BD06801789847F2E7032D3FF6AFAE05
:1022E000DFE805F04C4937517F4B98477D4B00287C
:1022F00000F0D6809A68527CAA427FF634AF1A6901
:10230000774B52F83500418898470222A3685A70EB
:10231000D6E7754B9847002840F0D280714A704B41
:10232000906801789847CBE76F4B98476D4B002832
:1023300040F0AA809A68527CAA427FF614AF1A69CC
:10234000674B52F83500418898470722A3685A70B6
:10235000B6E71321654B664E5D18324613F8010B44
:102360009D4222F8020FF9D14900023160485C4BCE
:1023700031709847A4E715215E4BECE704215E48D5
:10238000574B98479CE720215C4BE4E7012A14D087
:10239000022A7FF4CDAE6278002A7FF44DAE022986
:1023A0007FF44AAE2079564B019198470246554832
:1023B0004B4B019902809847A8E662780A2A7FF47D
:1023C000B7AE01297FF4B4AE4F4A1278002A3FF429
:1023D000AFAE4E4A2579166832681279AA427FF666
:1023E000A7AE00212846DFF82881C04700283FF427
:1023F000BAAE736853F82530DB6898470246454803
:102400000121374B0270984780E6E28861880A43D1
:1024100092B2002A7FF410AE20793F4B98470028F3
:102420007FF474AE9FE601297FF409AE36482C4B49
:1024300098476BE6E288002A7FF47AAE324A127837
:10244000002A3FF475AE2579344B284666889847B4
:1024500000283FF488AE2846314BF1B29847002857
:102460007FF454AE7FE6DAF80020527C9A42BFF443
:1024700092AE78E620792B4B98472B4B20799847E2
:1024800000287FF443AE6EE61A68527CAA427FF6BB
:102490006AAE5A68124B52F835004188984754E7A3
:1024A0001A68527CAA427FF65EAE5A680C4B52F80C
:1024B00035004188984728E7DAF80420134494E669
:1024C00010200221074B064D1A689070D1701868D1
:1024D0000178A847F4E600BF163300203C02002034
:1024E0001D3E080020030020CD3D08000C02002006
:1024F000C801002020020020380200209C0100209A
:10250000793E0800083300201433002010330020E7
:10251000A91D08000A3300204D3F0800291E0800AD
:10252000A91E080005430800AD3E08000B4B984764
:10253000A3881B0A013B032B3FF615AEDFE803F02F
:102540000B080502064B2361E0E5064B2361DDE540
:10255000054B2361DAE5054B2361D7E5251F08000C
:10256000CD430800B5430800914308006D430800BF
:1025700038B5084B04469847074B1A782AB9012505
:102580001C70064B9847284638BD0025034B9847DA
:10259000284638BD6927080018330020A9270800FD
:1025A0000022014B1A70704718330020014B187835
:1025B000704700BF1833002010B51120044CA0470D
:1025C0001020A0472346BDE810404C20184700BF0C
:1025D000D527080010B51120054CA0471020A047B2
:1025E0004C20A047BDE810405320024B184700BFC5
:1025F000D5270800D528080010B51120034B9847AF
:10260000BDE810405320024B184700BF0D280800BA
:10261000ED280800C0F3090310B55BB1B3F5007FE6
:10262000044603D0C4F308043CB110BD1120074B8D
:102630009847F7E71120064B9847044C1020A04715
:102640002346BDE810404C20184700BFD52708009E
:102650000D28080010B54FF060510D4C1120A04717
:102660004FF060511020A0474FF060514C20A04720
:102670004FF040515320A0475320064B9847BDE8E8
:1026800010404FF000624FF4C0510348034B18470D
:1026900005290800ED280800000C0E40ED2908006F
:1026A0004FF4004210B5064B064C5A650A20A0476D
:1026B0000B20A0470C20A047BDE81040024B184754
:1026C00000120E40F92B08005526080038B5A1F17C
:1026D0000E03012B17D9EFF3108572B6BFF35F8F8E
:1026E00000230A4CC9B22370094B03EA02221143AA
:1026F000084B41F0B441984725B901232370BFF33B
:102700005F8F62B638BD4FF0FF3038BD0403002044
:1027100000FFFF008D000020FEE700BFF0B504269B
:1027200087B004460D460F220E210C480C4F02AB19
:102730000096B84770B9042D26462A46044628BF9D
:10274000042225B13046074B02A992009847204643
:1027500007B0F0BD1024204607B0F0BD00080E40C1
:1027600001000020457608000C4B1A6892B9EFF37F
:10277000108169B910B472B6BFF35F8F0120084CA5
:10278000084A217010701A6801321A6010BC704734
:1027900004490A701A6801321A6070471C3300201D
:1027A0000403002019330020074B1A68013A1A600D
:1027B0001B6843B9054B1B782BB10122044B1A70DF
:1027C000BFF35F8F62B670471C33002019330020BF
:1027D0000403002070B50546094C04F1180623686F
:1027E000AB4203D00834B442F9D170BD63682846C7
:1027F000012B044A01D09047F4E7034B9847F1E7D7
:10280000B0C80800D5280800ED28080070B50546B6
:10281000094C04F118062368AB4203D00834B442D3
:10282000F9D170BD63682846012B044A01D0904756
:10283000F4E7034B9847F1E7B0C80800ED2808001B
:10284000D5280800F8B5124B04460E469847114BA0
:10285000054620469847054019D00F4C04F1600703
:102860002368B34205D0BC4211D023691034B3426F
:10287000F9D161682942F6D0E36830469847636829
:10288000BC4225EA030502D01034002DE8D1F8BD82
:10289000CD280800D1280800203300200A21014853
:1028A000014B1847000C0E40452808000B21014839
:1028B000014B1847000E0E40452808000C21014826
:1028C000014B184700100E4045280800C06C7047A7
:1028D000806C70470122430903F5001303F206736D
:1028E00000F01F005B0282401A6370470122430917
:1028F00003F5001303F2067300F01F005B02824031
:102900005A637047430903F5001301F0F04203F2E4
:102910000673B2F1205F4FEA432336D016D8B2F1E6
:10292000006F43D0B2F1805F15D1012200F01F008B
:1029300082405A64186FC90740EA020018675A605B
:102940004FF001004CBF5A661A66704701F0E04232
:10295000B2F1405F01D000207047012200F01F005B
:102960008240C8075A6401F0605C4CBF5A661A6620
:1029700049074CBF1A655A65BCF1605F0CBF1A630A
:102980005A6301201A611A607047012200F01F008B
:102990008240C8075A644CBF5A661A6611F00A0F83
:1029A00018D15A625A6101201A607047012210B48E
:1029B00000F01F0082405A64186F1C6F204020EA0C
:1029C00002001867C8075A604CBF5A661A66012091
:1029D00010BC704788071A6248BFC3F88020E1D452
:1029E000090748BFC3F88420DCE700BF02F0F043CA
:1029F000B3F1205F2ED011D8B3F1006F37D0B3F10F
:102A0000805F10D14164036FD20743EA010303677B
:102A100041604CBF416601660120704702F0E0430F
:102A2000B3F1405F01D00020704712F0010F416404
:102A300002F0605314BF4166016652074CBF016546
:102A40004165B3F1605F0CBF0163416301610160E7
:102A500001207047D30741644CBF4166016612F004
:102A60000A0F14D14162416101600120704710B426
:102A70004164036F046F234023EA0103D407036713
:102A800041604CBF4166016610BC0120704793074E
:102A9000016248BFC0F88010E5D4130748BFC0F8F2
:102AA0008410E0E715490B6B23F0030343F00103A7
:102AB0000B638B6E1B0758BF4FF4006302D504E015
:102AC000013B16D08A6E1207FAD50C490B6B23F026
:102AD000700303430B63886E10F0080008BF4FF4C7
:102AE000006302D007E0013B03D08A6E1207FAD5DB
:102AF0007047012070470020704700BF00040E405F
:102B000015490B6B23F0700303430B638B6E1B079C
:102B100058BF4FF4006302D504E0013B17D08A6E22
:102B20001007FAD50C490B6B23F0030343F00203A3
:102B30000B63886E10F0080008BF4FF4006302D0EA
:102B400007E0013B03D08A6E1207FAD570470120D7
:102B500070470020704700BF00040E40074A030280
:102B6000116A9BB221F003010B4343F45C1343F061
:102B700001031362936EDB07FCD5704700040E401F
:102B8000024B986E00F00100704700BF00040E4039
:102B9000024B986E00F48030704700BF00040E4076
:102BA000084B1B6A30B1074A43F0807343F45C134F
:102BB00013627047034A23F0807343F45C1313627B
:102BC000704700BF00040E404FF00052014B9A6264
:102BD000704700BF00040E40024B986E00F00200E8
:102BE000704700BF00040E40024B986E00F040009A
:102BF000704700BF00040E401D2809D80123054975
:102C000083408A69002033EA020218BF0B617047D3
:102C10000120704700040E401D2809D801230549F2
:102C200083408A69002033EA020208BF4B61704783
:102C30000120704700040E40034BC0F312001A6FCE
:102C400010431867704700BF00040E402DE9F041A3
:102C5000A0B9002A90460DDD0C460A4F0A4E8D1889
:102C600021463868336801349847AC42F8D1404671
:102C7000BDE8F08180464046BDE8F0814FF0FF3866
:102C8000F5E700BF0034002090330020024B187895
:102C900080F00100704700BF9433002001EB8101F8
:102CA00000EB81000267704701EB810100EB8100BE
:102CB0004267704701EB810100EB8100826770473A
:102CC00001EB810100EB8100C0F88020704700BF5C
:102CD00008B51848184B83420AD0184A904207D2C8
:102CE000013A121A22F0030219460432144B984793
:102CF000144A154B934208D2013AD21A22F0030229
:102D000018460021114B04329847114B114923F00A
:102D1000604203F1604322F07F02B3F5404F8A60C6
:102D200003D28B6843F000538B600B4B98470B4BDF
:102D30009847FEE7000000207CCB0800800A0020B6
:102D40004576080018370020800A00209573080097
:102D50000000080000ED00E065750800F9040800B7
:102D60000C4A034610680C4930B103448B42CCBF77
:102D70004FF0FF301360704710B4084C23448B426F
:102D80001460D8BF13602046C8BF4FF0FF3010BC9E
:102D9000704700BFA0330020FC3F0820003008200F
:102DA0004FF0FF30704700BF4FF4005300204B60DE
:102DB000704700BF0120704700207047014608B5EA
:102DC0000148024B9847FEE770C60800E15508002D
:102DD000704700BF4FF0FF30704700BF10B53E2076
:102DE000074B9847074CA0470028FCD04FF47102CE
:102DF000054B064CDA61A0470028FCD010BD00BF8F
:102E00005D2B0800812B080000040E40E92B080010
:102E100070B51248124DA8473E20124B9847124CED
:102E2000A0470028FCD04FF08070104B9847104C02
:102E3000A0470028FCD00F4B98470F4B0F4A104C6F
:102E40009A62A0470028FCD00E4B102098470E4BEA
:102E500098472B46BDE870400048184700D8B80591
:102E6000310100205D2B0800812B0800A12B0800F8
:102E7000912B0800C92B080000040E40013F0F20D1
:102E8000D92B0800012B08008D2E0800334A136B44
:102E900003F00303012B2ED0023B012B18D8136A39
:102EA000D9013CD52E482F4B03602C4A136B03F0FD
:102EB0000303022B40D02C4B28490A6B02F070020E
:102EC000702A12D00A6BC2F30212D340036070471B
:102ED000264B5B6A1A061ED520494FF400430A6B45
:102EE0001F4802F07002702AECD1214AA2FB032392
:102EF0005B0803607047136ADB0109D4136A03F0AF
:102F00007003102B23D0202B02D01A4B1448D3E788
:102F1000144B1348D0E74FF4FA431148CCE7154B54
:102F20000F480360136A03F07003102B12D0202B9C
:102F3000BBD10C4B0360B8E7916A0368C1F30A4147
:102F400001FB0333926AD2B2B3FBF2F3B4E70A4B4C
:102F50000348B1E7084B0360A7E700BF00040E4039
:102F600008030020001BB700001C4E0E00120E408C
:102F7000ABAAAAAA00093D0000127A00AC230360A4
:102F80000246D1E90030B3FBF0F34FF6FE7C1B099B
:102F9000581E60450CD830B440F20225502413620C
:102FA0008B6800205360C2F82051146030BC704719
:102FB0000120704703464269920746BF0020D9614D
:102FC000012070474369DB0743BF836900200B7012
:102FD00001207047014B1878704700BFA4330020D0
:102FE000064B10B59847064AC37813700BB1012001
:102FF00010BD044BBDE81040184700BF111F08006A
:10300000A43300202D0C0800024B1B7803B170473D
:10301000014B1847A4330020550C0800074B1B78C0
:1030200003F060021B0603D4402A05D0002070473D
:10303000402AFBD1024B1847024B1847E0330020CF
:10304000B10C0800610C080030B58446154683B009
:103050000B4662460021034C00958120A04703B037
:1030600030BD00BF1140080030B58446154683B01E
:103070000B4662460021034C00950220A04703B096
:1030800030BD00BF1140080090F814C003461CF08A
:10309000010F16D030B404682CF0010C80F814C075
:1030A0006CB1084D084602F1080149016958090749
:1030B00048BF42F080029968234630BC184730BCB4
:1030C0007047704700400A402DE9F043431E674CAB
:1030D00003EB430104EBC10191F814C01CF0010F94
:1030E00037D00246D1E90250A8424FEA430632D017
:1030F0002D1AB5F5803F4FEA421C44D80CF1402E02
:103100000EF5202EDEF800812F0418F0080F7BD07A
:10311000DEF800814FF0080E08F007080EFA08FEEE
:103120000EF1FF3E1EEA050F7DD091F814E047F046
:1031300029072EF0020E81F814E037E04FF4006406
:103140004FF480734A48C1F8044193400269134325
:103150000361BDE8F0834FEA421C0CF1402101F508
:103160002021D1F80001050705D5F01804EBC000B7
:10317000007D8007E2D4F01804EBC0000021BDE818
:10318000F0433C4B18470CF1402101F52021D1F8C8
:10319000007117F0080731D1D1F8005105F0300562
:1031A000102D5DD04FF4803547F0350706EB030E48
:1031B00004EBCE0EDEF8041008442F4901EB021197
:1031C0004860EFF3108872B6BFF35F8F4FF00009CD
:1031D0002A4880F80090D1F80C9019F0100F25D0F3
:1031E000B8F1000F04D101210170BFF35F8F62B607
:1031F000F11804EBC101C8688860AEE721274FF4DD
:103200008035D1F80011D1E7DEF8001101F030016E
:103210001029C9D1DEF8001101F0070E082101FACA
:103220000EF1A942C0D247F02107BFE74FF000726C
:103230008F6002FA03F3DEF80C20CEF810502A4417
:10324000CEF80C200A4A11690B431361B8F1000F44
:103250007FF47FAF01230370BFF35F8F62B678E71F
:103260004FF48035D1F80011DDE700BFA83300200E
:1032700000400A408930080000430A40040300204F
:103280002DE9F047EFF3108372B6BFF35F8F002094
:103290004FF48061594D5A4A2870C2F8081123B979
:1032A00001232B70BFF35F8F62B6DFF8588198F867
:1032B0000030032B65D0544F544E3B88B489E41A38
:1032C000A4B2002C39D0DFF848913F2C4CD9002211
:1032D0004024B06889F80020EFF3108672B6BFF37F
:1032E0005F8F00222A70464AD2F81C2192053DD4F5
:1032F0006CB118440346C3F1005C20440CF5C01CBB
:1033000003EB0C0213F8011B98421170F8D13A88B4
:103310004FF4806122443A804FF40062384BC3F886
:103320001811C3F81421C3F8041126B901232B7016
:10333000BFF35F8F62B6BDE8F0873649F0880A8830
:103340001A4492B290420A8040D0DFF8C49099F8B3
:1033500000A0BAF1000F39D172692AB19047002854
:1033600048D101223B88B4E70122B2E726B9012304
:103370002B70BFF35F8F62B6042388F80030BDE87E
:10338000F087224E336903B19847EFF3108372B68A
:10339000BFF35F8F00204FF48061194A2870C2F894
:1033A000081123B901232B70BFF35F8F62B64FF46E
:1033B0000071134A0020C2F8181100210023C6E949
:1033C0000401B38188F80030BDE8F087042388F851
:1033D0000030EFF3108172B6BFF35F8F4FF480427D
:1033E0000020074B2870C3F81821C3F804210029D6
:1033F000A1D19BE73C805346B48966E704030020D3
:1034000000400A40DC330020D8330020E0330020A5
:10341000A5330020DA3300202DE9F047A24B1D2010
:103420009847A24B984728B9A14B5B6913F0020358
:1034300000F09D809E4B5A69150700F189805A69FA
:10344000500700F18E80D3F81C215969C90521D598
:103450004FF480404FF40041D704C3F80801C3F88B
:10346000081100F1B180560504D5D3F80C315D0583
:1034700000F15B82940500F15381900404D54FF470
:1034800000518B4BC3F81811110400F17B815304D8
:1034900000F1D38001234FF000774FF480780224AD
:1034A000834A156903F1FF3C07FA0CF10D4280488D
:1034B00003F1010E5FFA83F902EB431603D055695D
:1034C000294240F0CF80116908FA03F5294216D04D
:1034D000D6F80C115B0111F4006F034405D0D6F847
:1034E0001C1111F4006100F03D83D3F80C114E0360
:1034F00005D5D3F81C1111F4402100F0F380BEF182
:10350000030F4FF00203CCD169494D6915F0100546
:1035100040F085810B69980733D54B699A0730D500
:1035200020238B610B69634A23F002030B610B6953
:103530001D2043F020030B618C6190475E4B984740
:103540005E4A1378002B40F0C6820023137013E00C
:1035500008229A615B69DC0710D5BDE8F047584B3B
:10356000184704219961574ABDE8F047104772B6E1
:10357000BFF35F8F544A1370BDE8F087514B9847F3
:10358000EBE74B4B5B699B06F6D54C4A1378002B57
:1035900000F08282022401252020454B15709C6199
:1035A00098611A69494922F020021A611A69224376
:1035B0001A611A6942F008021A611A6942F004029B
:1035C0001A61BDE8F0470847414C237813B3414ED8
:1035D000336903B19847EFF3108272B6BFF35F8F80
:1035E00000214FF48060384B19703149C1F808014F
:1035F00022B901221A70BFF35F8F62B64FF40072D6
:103600002B4B00200021C3F818210023C6E9040138
:10361000B3812370264A304BD2F81C110B40B3F50E
:10362000000F00F0C280052020214FF4805320704D
:10363000C2F81411C2F818319EE74FF480431C4AB7
:10364000C2F81831D2F81C3113F4007394D1204819
:103650000178012900F0538204298DD12023C2F87A
:10366000143189E700F5407000EB0313D868C707F1
:1036700082D4106920EA01011161DA68120C0ED0BF
:1036800016480CEB4C0100EBC101C968CCF10003FA
:1036900003F0180308338A1AC25003445A6048469C
:1036A000BDE8F0470E4B1847F92B08008D2C080099
:1036B00000400A40192C0800F90B0800F8330020DC
:1036C000090C0800691F080004030020010C080011
:1036D000DC330020E03300200000F07FA83300201E
:1036E000C93008004FF4802220264024C3F8082166
:1036F00002690CEB4C0C22EA05020261B24A02EBB1
:10370000CC02107D61F382001075D3F8082122F0FD
:103710000202C3F80821C3F81461C3F818412BE76B
:10372000AA4C2378012B00F00481022B00F0398190
:10373000042B00F0368105212022A54BA54E2170D7
:10374000C3F81421EFF3108272B6BFF35F8F00212C
:103750004FF48060A04B19709D49C1F8080122B94F
:1037600001221A70BFF35F8F62B64FF40071984A5E
:103770000023C2F8181100200021B381C6E904011A
:103780002370F9E64FF40042914BC3F81821D3F8A7
:103790001C2152053FF5F0AE8C4A1278032A7FF4C3
:1037A000EBAE2022C3F81421E6E68C4A8C4B8D4800
:1037B000194601330978834202F8011FF8D18A4B78
:1037C0009847002800F0F4804FF48051804B814AE4
:1037D000C3F8181192F900100029C0F27181D28843
:1037E000002A00F0AD81002201254FF480417F487E
:1037F000257002807E480280C3F81811EFF3108410
:1038000072B6BFF35F8F74480270C3F80411002CC6
:103810007FF4B2AE0570BFF35F8F62B6ACE61022E4
:10382000694C237D8A6113F001020DD0256823F0D5
:103830000103237545B1D1F82031012013F0080FA1
:1038400018BF8122A168A84794F82C30DD0710D555
:10385000A56923F0010384F82C3055B15C4B01209D
:10386000D3F84031216A13F0080F0CBF02228222E4
:10387000A847604B98470120554B1A6822F07F02F9
:103880001A601A6842F080021A60D3F800216FF3C0
:10389000090242F04302C3F80021C3F80401EFF328
:1038A000108472B6BFF35F8F4FF4805200254A49EF
:1038B0000D70C3F804214FF40072C3F804211A6993
:1038C00042F480721A611CB90870BFF35F8F62B650
:1038D000EFF3108372B6BFF35F8F00244FF4806064
:1038E0003B4A0C70C2F8080123B901230B70BFF3E7
:1038F0005F8F62B60026002700214FF40074354A1E
:10390000334BC2E904673148C3F818410170918113
:103910001A6942F008021A611A6942F004021A6137
:103920001A6942F002021A6126E6334BBDE8F047FD
:103930001847274B2E4FD3F81C51264EB7F800C01E
:10394000B389C5F30A550CEB05029342B8BFA3EB4C
:103950000C03B268B8BF9DB262447DB1204B1846DB
:1039600001330078D9B2A94202F8010BF7D3AC4475
:103970001FFA8CFC402DA7F800C067D07369A6F829
:103980000CC0002B3AD09847002837D105202021C1
:103990004FF400720E4B2070C3F81411C3F81821B5
:1039A000EAE50C4E3369002B3FF4CCAE9847C9E6EC
:1039B000052020214FF48052054B2070C3F81411CC
:1039C000C3F81821D8E500BFA8330020DC3300205D
:1039D00000400A40E033002004030020DF330020D1
:1039E0000000182008001820A11F0800DA3300206A
:1039F000D8330020251F0800813208004FF40071E1
:103A00000322684BC3F818112270EFF3108472B6CA
:103A1000BFF35F8F002564484FF4806105704FF459
:103A200000424FF40065C3F81811C3F81451C3F8ED
:103A30000411C3F81821C3F80421002C7FF49CADB5
:103A400001230370BFF35F8F62B695E5574DF2888F
:103A50002B8863449A4291DDB389634500F09380DB
:103A60004FF400714FF480424E4BC3F81811C3F865
:103A70001821EFF3108072B6BFF35F8F00244A491C
:103A80000C70C3F8042100287FF476AD01230B707D
:103A9000BFF35F8F62B66FE5EFF3108472B6BFF3CA
:103AA0005F8F4148424903708B7801338B70002C43
:103AB0007FF470AD01230370BFF35F8F62B669E5D9
:103AC00000230221394D3B482B80038021703A4A64
:103AD000BDE8F0471047EFF3108472B6BFF35F8F75
:103AE0003148334905708B78013B8B70002C7FF493
:103AF0002CAD01230370BFF35F8F62B625E503246D
:103B00000470EFF3108572B6BFF35F8F264C4FF44D
:103B1000806023704FF400664FF40043C2F8180130
:103B2000C2F81461C2F80401C2F81831C2F80431B5
:103B3000002D7FF421AD2170BFF35F8F62B61BE5CE
:103B400003212170EFF3108472B6BFF35F8F4FF43F
:103B5000806115484FF4006502704FF40042C3F8CD
:103B6000181162E74FF400641448CCF1000303F02D
:103B70001803C6F80841C6F814414A46BDE8F047A4
:103B800018440F4B18477369002B3FF4FFAE98475A
:103B900000283FF4FBAE00222B8839883A800B4482
:103BA0002B805DE700400A4004030020DA33002048
:103BB00098330020D833002081320800A833002039
:103BC000893008002DE9F041EFF3108672B6BFF39B
:103BD0005F8F0021294B2A4C1A782170002A3BD094
:103BE0000125284A1D201D704FF008089047022724
:103BF0004FF0040E4FF0100C2021234B1D201A68AB
:103C000042F400621A601A6822F400721A601A699B
:103C100042F010021A611A6942F002021A611A692E
:103C200042F020021A611A6942F008021A611A6908
:103C300042F004021A61C3F81880144AC3F818E06D
:103C4000C3F818C09F61996190471EB92570BFF3F2
:103C50005F8F62B6BDE8F081EFF3108072B6BFF3FC
:103C60005F8F0B4922708A7801328A700028B7D1A1
:103C700001222270BFF35F8F62B6B1E7F8330020F4
:103C800004030020F92B080000400A40192C08000A
:103C900098330020F8B5264B9847264B1D209847AF
:103CA000EFF3108672B6BFF35F8F00254FF0500E12
:103CB0004FF00057204A214C92F814C0204B2CF0B2
:103CC000050C82F814C092F82CC025702CF0050C5D
:103CD00082F82CC01A681B4942F480721A6081F87D
:103CE0001DE30F60D3F8E0204FF4802022F00302A0
:103CF000C3F8E020144B9847144B1D70EFF310816C
:103D000072B6BFF35F8F124A2570D3780133D37038
:103D100021B901232370BFF35F8F62B60D4B984723
:103D200026B901232370BFF35F8F62B6F8BD00BFD1
:103D3000DD2D0800F92B0800A83300200403002023
:103D400000400A4000E100E0392C0800F833002070
:103D500098330020C53B080010B5164B1D2098472E
:103D6000154B1D201A68154942F400721A601A6832
:103D700022F400621A608847114B1A7812B90022A7
:103D80001A7010BDEFF3108472B6BFF35F8F4FF05F
:103D9000000C0C490C488A78013A8A7080F800C0FF
:103DA000002CECD101220270BFF35F8F62B60022BB
:103DB0001A7010BDF92B080000400A40192C0800A9
:103DC000F83300209833002004030020024B586988
:103DD00000F00100704700BF00400A40064B1A681F
:103DE00022F080021A601A6860F306021A601A68EC
:103DF00042F080021A60704700400A40024B186887
:103E000000F07F00704700BF00400A40024B586836
:103E1000C0F3CA00704700BF00400A40014B9860E1
:103E200099817047E033002000F00F02022A00D988
:103E300070470121530170B503F1402505F5202598
:103E40002B46C5F80811D5F80051501E084C00EB60
:103E5000400004EBC00425F0C005C3F80051204623
:103E6000044EB047237D23F00403237570BD00BFCB
:103E7000A83300208930080000F00F00430103F14F
:103E8000402303F52023D3F81C319B0609D4064BAD
:103E900000EB400003EBC00313F8040CC0F38000F8
:103EA00070470120704700BFA833002000F00F03C7
:103EB000022B2BD830B5234D590105EB431EDEF8FC
:103EC0001C21920620D4204C5A1E02EB420204EB25
:103ED000C20C9CF8144014F0040215D114F0010F28
:103EE00016D1020616D44FF40054202001F14023CD
:103EF00003F52023D3F8082122F00202C3F8082199
:103F0000C3F81841C3F81401012030BD00207047E8
:103F1000104630BDDEF81C2112F4402FE3D04FF4E0
:103F200080204FF4807244F004018CF8141005EBEB
:103F30004311C1F80401296902FA03F30B432B6111
:103F4000E2E700BF00400A40A833002000F00F0065
:103F5000022857D870B5411E2B4C01EB410304EBEE
:103F6000C3031D7D4A006D0725D54FF480264FF40D
:103F7000807C1D7D0CFA00FC25F004051D75234D89
:103F8000430105EB401ECEF80861286920EA0C00C9
:103F90002861DEF81C01850616D4531804EBC30211
:103FA000117DDB00C80704D521F00101E35811752C
:103FB0009847012070BD430103F1402000F5202007
:103FC000D0F81C018006F4D503F1402000F5202034
:103FD000D0F81C51AE0406D54FF40055C0F8185166
:103FE0004025C0F81851202503F1402000F520207D
:103FF0000346C0F81851D0F8040140F00200C3F89D
:104000000401CAE700207047A833002000400A409E
:1040100000F00F00022860D82DE9F0414FEA401C63
:104020000CF1402C0CF5202CDCF80C41E50751D5A7
:10403000DCF81C41A4064DD4461E294D06EB460C67
:1040400005EBCC0C9CF814E074001EF0040E41D17A
:10405000EFF3108872B6BFF35F8F224F87F800E04E
:104060009CF814E01EF0010F2CD19CF814E04EF0E7
:10407000010E8CF814E0B8F1000F06D14FF0010CDE
:1040800087F800C0BFF35F8F62B63444069E05EB2D
:10409000C40C45F83460CCF8042000246246002BA0
:1040A00008BF41F0010142F8104FCCF808301379F5
:1040B0000D4D61F34103CCF80C401371A84701206A
:1040C000BDE8F081B8F1000F04D101233B70BFF3CC
:1040D0005F8F62B60020BDE8F0810020704700BF0E
:1040E000A833002004030020C93008002DE9F04F58
:1040F00000F00F04022C83B000F2D080650105F1BE
:10410000402303F52023D3F80C31DE0700F1C680ED
:1041100001F00306012E00F0C580023E012E00F2E0
:10412000BD8002F4C0539FB2002B40F0B7803E46E2
:1041300005F1402505F52025D5F800310901C00914
:1041400023F47F7CB2F5806F01F030014FEAC000AC
:104150002CF0030C80F0B780082A38BF08225300E7
:10416000013BB3FA83F3C3F11C030FB141EA06210B
:104170004CEA00020A43134343F04003C5F8003100
:10418000D5F80031002B80F28980012702234FF0FF
:104190000008594EC5F8047106EB4310D0F80C1115
:1041A0005D1EC9074FEA431216D502F1402202F5FF
:1041B0002022D2F800115B00C1F38111C0F8087110
:1041C00001FA03F348EA0308D2F800311FFA88F82D
:1041D00023F0C003C2F80031EBB29C42DCD9474E59
:1041E00004EB4405012706EBC50505E00134E3B205
:1041F000032B05F1180568D004F1FF39630009EBC2
:10420000490C48FA03F306EBCC0013F0030200F16B
:1042100010015FFA84FB4FEACC0CE7D0007D63010C
:10422000824603F1402303F52023D3F800E12AF06E
:10423000010A2EF0C00E4EEA8212C3F80021C3F824
:104240000471D3F8002100F00100002A4FEA490E62
:1042500081F804A03DDAD3F8042142F00202C3F849
:1042600004210028C2D055E903E255F8103C55F866
:1042700014CC1344AEEB020245F80C2C09796244CD
:1042800055F818CC5846CDF800C0A3EB0E03DFF864
:1042900070C0C1F34001E0470028A7D1002003B05F
:1042A000BDE8F08F02F4C053002C3FF43CAFB3F5EF
:1042B000006F0CD0B3F5805F08BF032622F4C05214
:1042C000012792B234E707234FE70120E7E70226F0
:1042D000F4E756F80C405846002CDFD0D3F80031F4
:1042E000CE441B0748BF4BF0800006EBCE060246CB
:1042F000F1680120A047D1E700400A40A833002020
:10430000114008000021164B00F00F0203EB0213CE
:1043100010B4996001060AD4124C1348531E03EBE3
:10432000430300EBC3000121234610BC1847510191
:1043300001F1402101F52021D1F81C3113F4402F67
:10434000EAD04FF4007401F58A700460D1F81C3192
:104350009B05FBD4D1F81C3113F4402FF5D1DBE7DA
:1043600000430A4089300800A8330020074AD2F8E9
:10437000E03023F0030343F00203C2F8E030D2F848
:10438000E03043F00403C2F8E030704700400A40D8
:10439000074AD2F8E03023F0030343F00203C2F8E7
:1043A000E030D2F8E03043F00803C2F8E030704764
:1043B00000400A40044AD2F8E03023F0030343F0FF
:1043C0000203C2F8E030704700400A402DE9F04196
:1043D0008EB06D464FF00108EC46204E204F0FCEB8
:1043E0000FC50FCE0FC50FCE0FC596E8030045F8D9
:1043F000040B2970C7F80881D7F80031CCF1005EB2
:104400006FF3090343F06B03C7F80031C7F8048169
:10441000D7F8E0300DF1350423F0030343F0020335
:10442000C7F8E030D7F8E0300EF5C01E43F01003B7
:10443000C7F8E0300CEB0E031CF8012BA4451A70F2
:10444000F8D14FF480614FF40062054BC3F81811A6
:10445000C3F814210EB0BDE8F08100BFC8C8080041
:1044600000400A4003464269920743BFC1F3080176
:104470000020D961012070474369DB0705D58369B6
:104480000020C3F308030B6070470120704700BF92
:10449000431E022B1ED82DE9F0411746C2B10D462E
:1044A00014460E4EDFF8388002E0631E0CD01C4626
:1044B0003068D8F8003015F8011B98470028F4DA66
:1044C0004FF0FF30BDE8F0810137381BBDE8F081C7
:1044D0001046F7E74FF0FF30704700BF0034002070
:1044E000FC330020F8B504460D4600F023F82246C0
:1044F00006460F462B462046294600F05FFD30B9A0
:10450000204629460022002300F030FD10B9304635
:104510003946F8BD03F020F8002200232121016074
:104520001046194600F0DAFB06460F46304639467B
:10453000F8BD00BF734A2DE9F84F8A4306460F467F
:1045400000F0AC8000290C46034655DD081562D00A
:10455000C4F31302C107A0F2FF3742F4801203D460
:10456000520002EBD3725B00002616244FF40011B8
:10457000B446520002EBD3727F105B000CEB0100DB
:1045800090424FEAD3754FEA430303DC00EB010C82
:10459000121A0E44013C05EB42024FEA5101EDD1E3
:1045A00020254FF00040A0460AE043D0510001EB27
:1045B000D371013D0A464FEA43034FEA500045D00C
:1045C000624500EB080EF0DDBEF1000F0EEB0008B7
:1045D0000CDBE146A2EB0C01CC469E4588BF01F105
:1045E000FF314900A3EB0E030444E0E7B8F1000FEC
:1045F000EFDB0CF10109EDE721F00042024344D06A
:1046000000296ED1DA0A153C5B05002AFAD0D602E1
:10461000204673D4144600226400E502114602F1DC
:104620000102F9D5C2F1200523FA05F52C43934088
:10463000401A8DE79E4502D94FEA4C01B7E7BEF11B
:10464000000F0EEB000822DB0021CBE7194312D04C
:10465000DFF8B4A0DFF8B4B0DAE90001DBE9002349
:1046600000F05AF8DAE9008902460B46404649460E
:1046700000F086FCE0B96508731003F17F5303F581
:10468000001303EB075145EAC670BDE8F88FB8F197
:10469000000FD9DB00210CF1010CA3E702460B4609
:1046A00000F0F2F932463B4600F038F8BDE8F88FEA
:1046B000B4F1FF3FDAE90001DBE900231AD0DAE9BF
:1046C000008900F02BF802460B464046494600F0B0
:1046D0004DFC88B1A31C04F1020508BF01366D082A
:1046E000CAE702460B4600F017F802460B4600F0F8
:1046F000F5FACAE70136BFE70134BCE74FF0FF31F6
:10470000144695E70000F07F08C9080000C90800BA
:1047100081F0004102E000BF83F0004330B54FEA72
:1047200041044FEA430594EA050F08BF90EA020FDF
:104730001FBF54EA000C55EA020C7FEA645C7FEA72
:10474000655C00F0E2804FEA5454D4EB5555B8BF95
:104750006D420CDD2C4480EA020281EA030382EA06
:10476000000083EA010180EA020281EA0303362D98
:1047700088BF30BD11F0004F4FEA01314FF4801C6B
:104780004CEA113102D0404261EB410113F0004F7D
:104790004FEA03334CEA133302D0524263EB430334
:1047A00094EA050F00F0A780A4F10104D5F1200ED2
:1047B0000DDB02FA0EFC22FA05F2801841F100012D
:1047C00003FA0EF2801843FA05F359410EE0A5F101
:1047D00020050EF1200E012A03FA0EFC28BF4CF032
:1047E000020C43FA05F3C01851EBE37101F00045E8
:1047F00007D54FF0000EDCF1000C7EEB00006EEBF5
:104800000101B1F5801F1BD3B1F5001F0CD349087E
:104810005FEA30004FEA3C0C04F101044FEA4452D5
:1048200012F5800F80F09A80BCF1004F08BF5FEA5C
:10483000500C50F1000041EB045141EA050130BD3C
:104840005FEA4C0C404141EB0101013C28BFB1F54E
:10485000801FE9D291F0000F04BF01460020B1FA99
:1048600081F308BF2033A3F10B03B3F120020CDA6C
:104870000C3208DD02F1140CC2F10C0201FA0CF04A
:1048800021FA02F10CE002F11402D8BFC2F1200CAF
:1048900001FA02F120FA0CFCDCBF41EA0C01904065
:1048A000E41AA2BF01EB0451294330BD6FEA0404AE
:1048B0001F3C1CDA0C340EDC04F11404C4F1200299
:1048C00020FA04F001FA02F340EA030021FA04F3AB
:1048D00045EA030130BDC4F10C04C4F1200220FA02
:1048E00002F001FA04F340EA0300294630BD21FA40
:1048F00004F0294630BD94F0000F83F4801306BF06
:1049000081F480110134013D4EE77FEA645C18BFF9
:104910007FEA655C29D094EA050F08BF90EA020F90
:1049200005D054EA000C04BF1946104630BD91EA88
:10493000030F1EBF0021002030BD5FEA545C05D18B
:104940004000494128BF41F0004130BD14F58004CA
:104950003CBF01F5801130BD01F0004545F0FE413E
:1049600041F470014FF0000030BD7FEA645C1ABF73
:10497000194610467FEA655C1CBF0B46024650EAAA
:10498000013406BF52EA033591EA030F41F40021D6
:1049900030BD00BF90F0000F04BF0021704730B55C
:1049A0004FF4806404F132044FF000054FF0000131
:1049B00050E700BF90F0000F04BF0021704730B5F2
:1049C0004FF4806404F1320410F0004548BF4042C7
:1049D0004FF000013EE700BF42004FEAE2014FEA1C
:1049E00031014FEA02701FBF12F07F4393F07F4FF7
:1049F00081F06051704732F07F4208BF704793F0FA
:104A00007F4F04BF41F40021704730B54FF460740C
:104A100001F0004521F000411CE700BF50EA01020F
:104A200008BF704730B54FF000050AE050EA0102B8
:104A300008BF704730B511F0004502D5404261EB28
:104A400041014FF4806404F132045FEA915C3FF469
:104A5000D8AE4FF003025FEADC0C18BF03325FEA06
:104A6000DC0C18BF033202EBDC02C2F1200300FAB7
:104A700003FC20FA02F001FA03FE40EA0E0021FADC
:104A800002F11444BDE600BF70B54FF0FF0C4CF4CA
:104A9000E06C1CEA11541DBF1CEA135594EA0C0F7C
:104AA00095EA0C0F00F0DEF82C4481EA030621EAB7
:104AB0004C5123EA4C5350EA013518BF52EA0335F2
:104AC00041F4801143F4801338D0A0FB02CE4FF0A4
:104AD0000005E1FB02E506F00042E0FB03E54FF0D4
:104AE0000006E1FB03569CF0000F18BF4EF0010ECC
:104AF000A4F1FF04B6F5007F64F5407404D25FEAC8
:104B00004E0E6D4146EB060642EAC62141EA55517A
:104B10004FEAC52040EA5E504FEACE2EB4F1FD0CBC
:104B200088BFBCF5E06F1ED8BEF1004F08BF5FEA3A
:104B3000500E50F1000041EB045170BD06F00046EC
:104B400046EA010140EA020081EA0301B4EB5C0499
:104B5000C2BFD4EB0C0541EA045170BD41F4801191
:104B60004FF0000E013C00F3AB8014F1360FDEBFB6
:104B7000002001F0004170BDC4F10004203C35DA92
:104B80000C341BDC04F11404C4F1200500FA05F315
:104B900020FA04F001FA05F240EA020001F00042B6
:104BA00021F0004110EBD37021FA04F642EB06012C
:104BB0005EEA430E08BF20EAD37070BDC4F10C0456
:104BC000C4F1200500FA04F320FA05F001FA04F21A
:104BD00040EA020001F0004110EBD37041F1000106
:104BE0005EEA430E08BF20EAD37070BDC4F1200511
:104BF00000FA05F24EEA020E20FA04F301FA05F279
:104C000043EA020321FA04F001F0004121FA04F220
:104C100020EA020000EBD3705EEA430E08BF20EAF0
:104C2000D37070BD94F0000F0FD101F0004640002A
:104C300041EB010111F4801F08BF013CF7D041EAAC
:104C4000060195F0000F18BF704703F000465200B0
:104C500043EB030313F4801F08BF013DF7D043EA81
:104C60000603704794EA0C0F0CEA135518BF95EA37
:104C70000C0F0CD050EA410618BF52EA4306D1D1BE
:104C800081EA030101F000414FF0000070BD50EADD
:104C9000410606BF1046194652EA430619D094EA67
:104CA0000C0F02D150EA013613D195EA0C0F05D151
:104CB00052EA03361CBF104619460AD181EA0301A5
:104CC00001F0004141F0FE4141F470014FF000005D
:104CD00070BD41F0FE4141F4780170BD70B54FF0F8
:104CE000FF0C4CF4E06C1CEA11541DBF1CEA135578
:104CF00094EA0C0F95EA0C0F00F0A7F8A4EB05045A
:104D000081EA030E52EA03354FEA013100F0888050
:104D10004FEA03334FF0805545EA131343EA126319
:104D20004FEA022245EA111545EA10654FEA0026CE
:104D30000EF000419D4208BF964244F1FD0404F587
:104D4000407402D25B084FEA3202B61A65EB0305E3
:104D50005B084FEA32024FF480104FF4002CB6EBA0
:104D6000020E75EB030E22BFB61A754640EA0C0020
:104D70005B084FEA3202B6EB020E75EB030E22BF60
:104D8000B61A754640EA5C005B084FEA3202B6EBA1
:104D9000020E75EB030E22BFB61A754640EA9C0060
:104DA0005B084FEA3202B6EB020E75EB030E22BF30
:104DB000B61A754640EADC0055EA060E18D04FEAEE
:104DC000051545EA16754FEA06164FEAC30343EA8E
:104DD00052734FEAC2025FEA1C1CC0D111F4801F5B
:104DE0000BD141EA00014FF000004FF0004CB6E754
:104DF00011F4801F04BF01430020B4F1FD0C88BFF3
:104E0000BCF5E06F3FF6AFAEB5EB030C04BFB6EBFD
:104E1000020C5FEA500C50F1000041EB045170BDF0
:104E20000EF0004E4EEA113114EB5C04C2BFD4EB1D
:104E30000C0541EA045170BD41F480114FF0000EA1
:104E4000013C90E645EA060E8DE60CEA135594EA1D
:104E50000C0F08BF95EA0C0F3FF43BAF94EA0C0F20
:104E60000AD150EA01347FF434AF95EA0C0F7FF495
:104E700025AF104619462CE795EA0C0F06D152EAE9
:104E800003353FF4FDAE1046194622E750EA4106CD
:104E900018BF52EA43067FF4C5AE50EA41047FF4DE
:104EA0000DAF52EA43057FF4EBAE12E74FF0FF3C43
:104EB00006E000BF4FF0010C02E000BF4FF0010C14
:104EC0004DF804CD4FEA410C7FEA6C5C4FEA430C8D
:104ED00018BF7FEA6C5C1BD001B050EA410C0CBFDC
:104EE00052EA430C91EA030F02BF90EA020F00203E
:104EF000704710F1000F91EA030F58BF994208BFA5
:104F000090422CBFD8176FEAE37040F00100704761
:104F10004FEA410C7FEA6C5C02D150EA013C07D1B8
:104F20004FEA430C7FEA6C5CD6D152EA033CD3D003
:104F30005DF8040B704700BF8446104662468C46FD
:104F40001946634600E000BF01B5FFF7B7FF002830
:104F500048BF10F1000F01BD4DF808EDFFF7F4FF59
:104F60000CBF012000205DF808FB00BF4DF808EDE4
:104F7000FFF7EAFF34BF012000205DF808FB00BF07
:104F80004DF808EDFFF7E0FF94BF012000205DF829
:104F900008FB00BF4DF808EDFFF7CEFF94BF0120DE
:104FA00000205DF808FB00BF4DF808EDFFF7C4FFD7
:104FB00034BF012000205DF808FB00BF4FEA410C20
:104FC0007FEA6C5C02D150EA013C0AD14FEA430C03
:104FD0007FEA6C5C02D152EA033C02D14FF0000040
:104FE00070474FF0010070474FEA410212F500127E
:104FF00015D211D56FF47873B3EB625212D94FEA20
:10500000C12343F0004343EA505311F0004F23FA09
:1050100002F018BF404270474FF00000704750EA5E
:10502000013005D111F0004008BF6FF0004070471B
:105030004FF00000704700BF4FEA4102B2F1E04379
:1050400024BFB3F5001CDCF1FE5C0DD901F0004C6F
:105050004FEAC0024CEA5070B2F1004F40EB8300BF
:1050600008BF20F00100704711F0804F21D113F1EB
:105070003872BCBF01F00040704741F480114FEA24
:105080005252C2F11802C2F1200C10FA0CF320FAAD
:1050900002F018BF40F001004FEAC1234FEAD323CA
:1050A00003FA0CFC40EA0C0023FA02F34FEA430334
:1050B000CCE77FEA625307D150EA01331EBF4FF0BD
:1050C000FE4040F44000704701F0004040F0FE40D8
:1050D00040F40000704700BF80F0004002E000BFD5
:1050E00081F0004142001FBF5FEA410392EA030FD3
:1050F0007FEA226C7FEA236C6AD04FEA1262D2EB1D
:105100001363C1BFD218414048404140B8BF5B4221
:10511000192B88BF704710F0004F40F4000020F0BA
:105120007F4018BF404211F0004F41F4000121F0D0
:105130007F4118BF494292EA030F3FD0A2F101021A
:1051400041FA03FC10EB0C00C3F1200301FA03F158
:1051500000F0004302D5494260EB4000B0F5000F7B
:1051600013D3B0F1807F06D340084FEA310102F13A
:105170000102FE2A51D2B1F1004F40EBC25008BFEC
:1051800020F0010040EA03007047490040EB0000B6
:10519000013A28BFB0F5000FEDD2B0FA80FCACF1B7
:1051A000080CB2EB0C0200FA0CF0AABF00EBC250E4
:1051B00052421843BCBFD0401843704792F0000FD2
:1051C00081F4000106BF80F400000132013BB5E725
:1051D0004FEA41037FEA226C18BF7FEA236C21D09B
:1051E00092EA030F04D092F0000F08BF0846704700
:1051F00090EA010F1CBF0020704712F07F4F04D1CE
:10520000400028BF40F00040704712F100723CBFE0
:1052100000F50000704700F0004343F0FE4040F40A
:10522000000070477FEA226216BF08467FEA2363C8
:105230000146420206BF5FEA412390EA010F40F4B3
:10524000800070474FF0000304E000BF10F00043FF
:1052500048BF40425FEA000C08BF704743F09643E6
:1052600001464FF000001CE050EA010208BF704701
:105270004FF000030AE000BF50EA010208BF704788
:1052800011F0004302D5404261EB41015FEA010C9D
:1052900002BF84460146002043F0B64308BFA3F195
:1052A0008053A3F50003BCFA8CF2083AA3EBC25377
:1052B00010DB01FA02FC634400FA02FCC2F1200296
:1052C000BCF1004F20FA02F243EB020008BF20F0CD
:1052D0000100704702F1200201FA02FCC2F1200233
:1052E00050EA4C0021FA02F243EB020008BF20EA28
:1052F000DC7070474FF0FF0C1CEAD0521EBF1CEA56
:10530000D15392EA0C0F93EA0C0F6FD01A4480EA43
:10531000010C400218BF5FEA41211ED04FF000632C
:1053200043EA501043EA5111A0FB01310CF0004058
:10533000B1F5000F3EBF490041EAD3715B0040EA7E
:10534000010062F17F02FD2A1DD8B3F1004F40EB4E
:10535000C25008BF20F00100704790F0000F0CF021
:10536000004C08BF49024CEA502040EA51207F3AE5
:10537000C2BFD2F1FF0340EAC250704740F40000C0
:105380004FF00003013A5DDC12F1190FDCBF00F0B1
:1053900000407047C2F10002410021FA02F1C2F15F
:1053A000200200FA02FC5FEA310040F1000053EAFB
:1053B0004C0308BF20EADC70704792F0000F00F049
:1053C000004C02BF400010F4000F013AF9D040EA4F
:1053D0000C0093F0000F01F0004C02BF490011F4E3
:1053E000000F013BF9D041EA0C018FE70CEAD153E1
:1053F00092EA0C0F18BF93EA0C0F0AD030F0004C61
:1054000018BF31F0004CD8D180EA010000F0004014
:10541000704790F0000F17BF90F0004F084691F0D2
:10542000000F91F0004F14D092EA0C0F01D142020C
:105430000FD193EA0C0F03D14B0218BF084608D1D5
:1054400080EA010000F0004040F0FE4040F400001F
:10545000704740F0FE4040F4400070474FF0FF0CB2
:105460001CEAD0521EBF1CEAD15392EA0C0F93EAF9
:105470000C0F69D0A2EB030280EA010C49024FEA4B
:10548000402037D04FF0805343EA111143EA101304
:105490000CF000408B4238BF5B0042F17D024FF4BC
:1054A000000C8B4224BF5B1A40EA0C00B3EB510F97
:1054B00024BFA3EB510340EA5C00B3EB910F24BF80
:1054C000A3EB910340EA9C00B3EBD10F24BFA3EB05
:1054D000D10340EADC001B0118BF5FEA1C1CE0D1CD
:1054E000FD2A3FF650AF8B4240EBC25008BF20F080
:1054F000010070470CF0004C4CEA50207F32C2BFD4
:10550000D2F1FF0340EAC250704740F400004FF070
:105510000003013A37E792F0000F00F0004C02BFA1
:10552000400010F4000F013AF9D040EA0C0093F06B
:10553000000F01F0004C02BF490011F4000F013BC5
:10554000F9D041EA0C0195E70CEAD15392EA0C0F2D
:1055500008D142027FF47DAF93EA0C0F7FF470AF65
:10556000084676E793EA0C0F04D14B023FF44CAFA8
:1055700008466EE730F0004C18BF31F0004CCAD13D
:1055800030F000427FF45CAF31F000437FF43CAF79
:105590005FE700BF4FEA4002B2F1FE4F0FD34FF07A
:1055A0009E03B3EB12620DD94FEA002343F0004390
:1055B00010F0004F23FA02F018BF404270474FF03E
:1055C0000000704712F1610F01D1420205D110F0C5
:1055D000004008BF6FF0004070474FF00000704778
:1055E0000FB400B5074A83B004AB106853F8042B1E
:1055F0008168019300F008F803B05DF804EB04B093
:10560000704700BF240500202DE9F04F05460E46E7
:10561000C3B012AF92460021082238461C46AB4662
:105620000296099301F0B6FE1DB16B6B002B00F0E2
:105630001F87029A536EB2F90C20DE0740F14081B9
:10564000950400F1DB85029942F4005223F40053E3
:105650008A814B6612B2160740F1BE80029B1B691D
:10566000002B00F0B98002F01A030A2B00F0C3806F
:10567000002319AA9146CDE91733CDE90B331692D1
:105680000D9305935546934BD3F8E44001F006FF84
:105690002A46034610A958460097A047002800F064
:1056A000C980C0F2BF80109B252B01D00544EAE7DA
:1056B000B5EB0A06044640F0C18000224FF0FF33EC
:1056C000904604936B7805F1010A8DF83B20069211
:1056D0000AF1010AA3F120025A2A00F2FD80DFE854
:1056E00012F09103FB00FB008C03FB00FB00FB00AE
:1056F0006E03FB00FB006B003302FB002E02A103D4
:10570000FB009C035B005B005B005B005B005B00DD
:105710005B005B005B00FB00FB00FB00FB00FB0091
:10572000FB00FB00FB00FB00EA010903FB00FB00A0
:10573000FB00FB00FB00FB00FB00FB00FB00FB0091
:105740003902FB00FB00FB00BD01FB003403FB0042
:10575000FB00DE05FB00FB00FB00FB00FB00FB0089
:10576000FB00FB00FB00FB00EA017B01FB00FB00F0
:10577000FB0027037B017600FB003204FB002304BF
:105780000C04BD037600FB00BD0173007102FB0039
:10579000FB000A06FB007300A3F130020023194648
:1057A0001AF8013B01EB810102EB4101A3F1300248
:1057B000092AF5D906918DE7099B53F8042B002A95
:1057C00006920993C0F2B8819AF8003080E79AF8FF
:1057D000003048F020087BE7029D5846294601F03A
:1057E000DDFC002840F0F387B5F90C2002F01A0325
:1057F0000A2B7FF43DAF0299B1F90E30002BFFF672
:1058000037AF4B6ED80702D4920540F18787234605
:1058100052465846029901F013F80590059843B096
:10582000BDE8F08F08220021384601F0B3FD0120C9
:10583000054428E7B5EB0A06044611D0189BC9E9D0
:1058400000A633441893179B0133072B179311DCE1
:1058500009F10809059B33440593002C7FF42DAF13
:10586000189B002B40F066870022029B1792B3F929
:105870000C3019E05846029916AA01F023F880B9B5
:105880000DF16409E6E75846029916AA01F01AF8E4
:10589000002800F08C80079B1BB15846079901F047
:1058A000E1FF029BB3F90C30029A526ED00740F12F
:1058B00089805B0600F13C81059843B0BDE8F08F1C
:1058C000910540F11E8196047FF5BDAE9D047FF5E4
:1058D000C2AE25E1B8030020002BC1D001228DF813
:1058E000A4300023CDE90323089229AD8DF83B3085
:1058F000079318F08406DDE917C0014662462BD1F4
:10590000069B039C1C1B002C00F320849DF83B305D
:105910002BB300260A96012301320131C9F8043065
:10592000072A0DF13B03CDE91721C9F8003000F338
:10593000A68309F108090A9B73B1022301320231DF
:10594000C9F80430072A0FABCDE91721C9F8003098
:1059500000F3888309F10809802E00F00283049B7C
:1059600008981C1A002C00F33E83089B013219444E
:10597000072ACDE91721C9F80050C9F8043000F30F
:10598000658309F1080918F0040F05D0069B039AF6
:105990009C1A002C00F38083DDE9053203988242D3
:1059A000ACBF9B181B18059300297FF46CAF002334
:1059B0001793079B1BB15846079901F053FF0DF150
:1059C00064095FE69A053FF574AF029CA06D01F093
:1059D000F7FDB4F90C306CE718F0200F00F04484A8
:1059E000099B073323F007031A465B6852F8084BFC
:1059F0001E460992002BC0F28E81049A002A05DB14
:105A000054EA060328F0800800F095840A2C76F109
:105A1000000380F0F78004F13003DBB2049A8DF8C4
:105A20000731012AB8BF01229DF83B300392002BB9
:105A300000F0DD83039B0024013303930123CDE9B0
:105A400007430DF2071518F08406DDE91721084613
:105A500094463FF455AF00230A935CE70022099E69
:105A60008DF83B2056F8042B0792002A00F02A8577
:105A7000532B00F0668418F0100440F06284049AFE
:105A8000002AC0F22E862146079801F09BFD9DF862
:105A90003B20079D002800F07C86431B089323EAE7
:105AA000E3730393002A00F06B8601330494099694
:105AB00003930794C7E7099A432B02F1040403D028
:105AC00018F0100F00F02D840822002114A801F016
:105AD00061FC099A29AD14AB29465846126802F0B8
